{"abi":[{"inputs":[{"internalType":"uint256","name":"_index","type":"uint256"}],"name":"approveRequest","outputs":[],"stateMutability":"nonpayable","type":"function"},{"inputs":[{"internalType":"address","name":"","type":"address"}],"name":"approvers","outputs":[{"internalType":"bool","name":"","type":"bool"}],"stateMutability":"view","type":"function"},{"inputs":[],"name":"approversCount","outputs":[{"internalType":"uint40","name":"","type":"uint40"}],"stateMutability":"view","type":"function"},{"inputs":[],"name":"contribute","outputs":[],"stateMutability":"payable","type":"function"},{"inputs":[{"internalType":"string","name":"_description","type":"string"},{"internalType":"uint48","name":"_value","type":"uint48"},{"internalType":"address payable","name":"_recipient","type":"address"}],"name":"createRequest","outputs":[],"stateMutability":"nonpayable","type":"function"},{"inputs":[{"internalType":"uint256","name":"_index","type":"uint256"}],"name":"finalizeRequest","outputs":[],"stateMutability":"nonpayable","type":"function"},{"inputs":[],"name":"getRequestCount","outputs":[{"internalType":"uint256","name":"","type":"uint256"}],"stateMutability":"view","type":"function"},{"inputs":[],"name":"getSummary","outputs":[{"internalType":"uint40","name":"","type":"uint40"},{"internalType":"uint256","name":"","type":"uint256"},{"internalType":"uint256","name":"","type":"uint256"},{"internalType":"uint40","name":"","type":"uint40"},{"internalType":"address","name":"","type":"address"}],"stateMutability":"view","type":"function"},{"inputs":[{"internalType":"uint40","name":"_minimum","type":"uint40"},{"internalType":"address","name":"_creator","type":"address"}],"name":"initialize","outputs":[],"stateMutability":"nonpayable","type":"function"},{"inputs":[],"name":"manager","outputs":[{"internalType":"address","name":"","type":"address"}],"stateMutability":"view","type":"function"},{"inputs":[],"name":"minimumContribution","outputs":[{"internalType":"uint40","name":"","type":"uint40"}],"stateMutability":"view","type":"function"},{"inputs":[{"internalType":"uint256","name":"","type":"uint256"}],"name":"requests","outputs":[{"internalType":"string","name":"description","type":"string"},{"internalType":"uint48","name":"value","type":"uint48"},{"internalType":"uint48","name":"approvalCount","type":"uint48"},{"internalType":"address payable","name":"recipient","type":"address"},{"internalType":"bool","name":"isComplete","type":"bool"}],"stateMutability":"view","type":"function"}],"devdoc":{"kind":"dev","methods":{},"version":1},"evm":{"assembly":"    /* \"Campaign.sol\":129:2471  contract Campaign is Initializable {... */\n  mstore(0x40, 0x80)\n  callvalue\n  dup1\n  iszero\n  tag_1\n  jumpi\n  0x00\n  dup1\n  revert\ntag_1:\n  pop\n  dataSize(sub_0)\n  dup1\n  dataOffset(sub_0)\n  0x00\n  codecopy\n  0x00\n  return\nstop\n\nsub_0: assembly {\n        /* \"Campaign.sol\":129:2471  contract Campaign is Initializable {... */\n      mstore(0x40, 0x80)\n      jumpi(tag_1, lt(calldatasize, 0x04))\n      shr(0xe0, calldataload(0x00))\n      dup1\n      0x82fde093\n      gt\n      tag_14\n      jumpi\n      dup1\n      0x82fde093\n      eq\n      tag_8\n      jumpi\n      dup1\n      0x937e09b1\n      eq\n      tag_9\n      jumpi\n      dup1\n      0xc2dac693\n      eq\n      tag_10\n      jumpi\n      dup1\n      0xcea34b73\n      eq\n      tag_11\n      jumpi\n      dup1\n      0xd7bb99ba\n      eq\n      tag_12\n      jumpi\n      dup1\n      0xd7d1bbdb\n      eq\n      tag_13\n      jumpi\n      jump(tag_1)\n    tag_14:\n      dup1\n      0x03441006\n      eq\n      tag_2\n      jumpi\n      dup1\n      0x0a144391\n      eq\n      tag_3\n      jumpi\n      dup1\n      0x3fad1834\n      eq\n      tag_4\n      jumpi\n      dup1\n      0x4051ddac\n      eq\n      tag_5\n      jumpi\n      dup1\n      0x481c6a75\n      eq\n      tag_6\n      jumpi\n      dup1\n      0x81d12c58\n      eq\n      tag_7\n      jumpi\n    tag_1:\n      0x00\n      dup1\n      revert\n        /* \"Campaign.sol\":1788:2167  function finalizeRequest(uint _index) public isManager {... */\n    tag_2:\n      callvalue\n      dup1\n      iszero\n      tag_15\n      jumpi\n      0x00\n      dup1\n      revert\n    tag_15:\n      pop\n      tag_16\n      0x04\n      dup1\n      calldatasize\n      sub\n      dup2\n      add\n      swap1\n      tag_17\n      swap2\n      swap1\n      tag_18\n      jump\t// in\n    tag_17:\n      tag_19\n      jump\t// in\n    tag_16:\n      stop\n        /* \"Campaign.sol\":496:537  mapping(address => bool) public approvers */\n    tag_3:\n      callvalue\n      dup1\n      iszero\n      tag_20\n      jumpi\n      0x00\n      dup1\n      revert\n    tag_20:\n      pop\n      tag_21\n      0x04\n      dup1\n      calldatasize\n      sub\n      dup2\n      add\n      swap1\n      tag_22\n      swap2\n      swap1\n      tag_23\n      jump\t// in\n    tag_22:\n      tag_24\n      jump\t// in\n    tag_21:\n      mload(0x40)\n      tag_25\n      swap2\n      swap1\n      tag_26\n      jump\t// in\n    tag_25:\n      mload(0x40)\n      dup1\n      swap2\n      sub\n      swap1\n      return\n        /* \"Campaign.sol\":2374:2468  function getRequestCount() public view returns(uint) {... */\n    tag_4:\n      callvalue\n      dup1\n      iszero\n      tag_27\n      jumpi\n      0x00\n      dup1\n      revert\n    tag_27:\n      pop\n      tag_28\n      tag_29\n      jump\t// in\n    tag_28:\n      mload(0x40)\n      tag_30\n      swap2\n      swap1\n      tag_31\n      jump\t// in\n    tag_30:\n      mload(0x40)\n      dup1\n      swap2\n      sub\n      swap1\n      return\n        /* \"Campaign.sol\":2175:2366  function getSummary() public view returns(uint40, uint, uint, uint40, address) {... */\n    tag_5:\n      callvalue\n      dup1\n      iszero\n      tag_32\n      jumpi\n      0x00\n      dup1\n      revert\n    tag_32:\n      pop\n      tag_33\n      tag_34\n      jump\t// in\n    tag_33:\n      mload(0x40)\n      tag_35\n      swap6\n      swap5\n      swap4\n      swap3\n      swap2\n      swap1\n      tag_36\n      jump\t// in\n    tag_35:\n      mload(0x40)\n      dup1\n      swap2\n      sub\n      swap1\n      return\n        /* \"Campaign.sol\":392:414  address public manager */\n    tag_6:\n      callvalue\n      dup1\n      iszero\n      tag_37\n      jumpi\n      0x00\n      dup1\n      revert\n    tag_37:\n      pop\n      tag_38\n      tag_39\n      jump\t// in\n    tag_38:\n      mload(0x40)\n      tag_40\n      swap2\n      swap1\n      tag_41\n      jump\t// in\n    tag_40:\n      mload(0x40)\n      dup1\n      swap2\n      sub\n      swap1\n      return\n        /* \"Campaign.sol\":544:569  Request[] public requests */\n    tag_7:\n      callvalue\n      dup1\n      iszero\n      tag_42\n      jumpi\n      0x00\n      dup1\n      revert\n    tag_42:\n      pop\n      tag_43\n      0x04\n      dup1\n      calldatasize\n      sub\n      dup2\n      add\n      swap1\n      tag_44\n      swap2\n      swap1\n      tag_18\n      jump\t// in\n    tag_44:\n      tag_45\n      jump\t// in\n    tag_43:\n      mload(0x40)\n      tag_46\n      swap6\n      swap5\n      swap4\n      swap3\n      swap2\n      swap1\n      tag_47\n      jump\t// in\n    tag_46:\n      mload(0x40)\n      dup1\n      swap2\n      sub\n      swap1\n      return\n        /* \"Campaign.sol\":461:489  uint40 public approversCount */\n    tag_8:\n      callvalue\n      dup1\n      iszero\n      tag_48\n      jumpi\n      0x00\n      dup1\n      revert\n    tag_48:\n      pop\n      tag_49\n      tag_50\n      jump\t// in\n    tag_49:\n      mload(0x40)\n      tag_51\n      swap2\n      swap1\n      tag_52\n      jump\t// in\n    tag_51:\n      mload(0x40)\n      dup1\n      swap2\n      sub\n      swap1\n      return\n        /* \"Campaign.sol\":421:454  uint40 public minimumContribution */\n    tag_9:\n      callvalue\n      dup1\n      iszero\n      tag_53\n      jumpi\n      0x00\n      dup1\n      revert\n    tag_53:\n      pop\n      tag_54\n      tag_55\n      jump\t// in\n    tag_54:\n      mload(0x40)\n      tag_56\n      swap2\n      swap1\n      tag_52\n      jump\t// in\n    tag_56:\n      mload(0x40)\n      dup1\n      swap2\n      sub\n      swap1\n      return\n        /* \"Campaign.sol\":1114:1406  function createRequest(string calldata _description, uint48 _value, address payable _recipient) public isManager {... */\n    tag_10:\n      callvalue\n      dup1\n      iszero\n      tag_57\n      jumpi\n      0x00\n      dup1\n      revert\n    tag_57:\n      pop\n      tag_58\n      0x04\n      dup1\n      calldatasize\n      sub\n      dup2\n      add\n      swap1\n      tag_59\n      swap2\n      swap1\n      tag_60\n      jump\t// in\n    tag_59:\n      tag_61\n      jump\t// in\n    tag_58:\n      stop\n        /* \"Campaign.sol\":578:732  function initialize(uint40 _minimum, address _creator) public initializer() {... */\n    tag_11:\n      callvalue\n      dup1\n      iszero\n      tag_62\n      jumpi\n      0x00\n      dup1\n      revert\n    tag_62:\n      pop\n      tag_63\n      0x04\n      dup1\n      calldatasize\n      sub\n      dup2\n      add\n      swap1\n      tag_64\n      swap2\n      swap1\n      tag_65\n      jump\t// in\n    tag_64:\n      tag_66\n      jump\t// in\n    tag_63:\n      stop\n        /* \"Campaign.sol\":875:1106  function contribute() public payable {... */\n    tag_12:\n      tag_67\n      tag_68\n      jump\t// in\n    tag_67:\n      stop\n        /* \"Campaign.sol\":1414:1780  function approveRequest(uint _index) public {... */\n    tag_13:\n      callvalue\n      dup1\n      iszero\n      tag_69\n      jumpi\n      0x00\n      dup1\n      revert\n    tag_69:\n      pop\n      tag_70\n      0x04\n      dup1\n      calldatasize\n      sub\n      dup2\n      add\n      swap1\n      tag_71\n      swap2\n      swap1\n      tag_18\n      jump\t// in\n    tag_71:\n      tag_72\n      jump\t// in\n    tag_70:\n      stop\n        /* \"Campaign.sol\":1788:2167  function finalizeRequest(uint _index) public isManager {... */\n    tag_19:\n        /* \"Campaign.sol\":794:801  manager */\n      0x00\n      0x02\n      swap1\n      sload\n      swap1\n      0x0100\n      exp\n      swap1\n      div\n      0xffffffffffffffffffffffffffffffffffffffff\n      and\n        /* \"Campaign.sol\":780:801  msg.sender == manager */\n      0xffffffffffffffffffffffffffffffffffffffff\n      and\n        /* \"Campaign.sol\":780:790  msg.sender */\n      caller\n        /* \"Campaign.sol\":780:801  msg.sender == manager */\n      0xffffffffffffffffffffffffffffffffffffffff\n      and\n      eq\n        /* \"Campaign.sol\":772:847  require(msg.sender == manager, \"Only the manager can perform this action.\") */\n      tag_74\n      jumpi\n      mload(0x40)\n      0x08c379a000000000000000000000000000000000000000000000000000000000\n      dup2\n      mstore\n      0x04\n      add\n      tag_75\n      swap1\n      tag_76\n      jump\t// in\n    tag_75:\n      mload(0x40)\n      dup1\n      swap2\n      sub\n      swap1\n      revert\n    tag_74:\n        /* \"Campaign.sol\":1854:1877  Request storage request */\n      0x00\n        /* \"Campaign.sol\":1880:1888  requests */\n      0x02\n        /* \"Campaign.sol\":1889:1895  _index */\n      dup3\n        /* \"Campaign.sol\":1880:1896  requests[_index] */\n      dup2\n      sload\n      dup2\n      lt\n      tag_78\n      jumpi\n      tag_79\n      tag_80\n      jump\t// in\n    tag_79:\n    tag_78:\n      swap1\n      0x00\n      mstore\n      keccak256(0x00, 0x20)\n      swap1\n      0x04\n      mul\n      add\n        /* \"Campaign.sol\":1854:1896  Request storage request = requests[_index] */\n      swap1\n      pop\n        /* \"Campaign.sol\":1916:1923  request */\n      dup1\n        /* \"Campaign.sol\":1916:1934  request.isComplete */\n      0x02\n      add\n      0x00\n      swap1\n      sload\n      swap1\n      0x0100\n      exp\n      swap1\n      div\n      0xff\n      and\n        /* \"Campaign.sol\":1915:1934  !request.isComplete */\n      iszero\n        /* \"Campaign.sol\":1907:1965  require(!request.isComplete, \"Request already finalized.\") */\n      tag_82\n      jumpi\n      mload(0x40)\n      0x08c379a000000000000000000000000000000000000000000000000000000000\n      dup2\n      mstore\n      0x04\n      add\n      tag_83\n      swap1\n      tag_84\n      jump\t// in\n    tag_83:\n      mload(0x40)\n      dup1\n      swap2\n      sub\n      swap1\n      revert\n    tag_82:\n        /* \"Campaign.sol\":2026:2027  2 */\n      0x02\n        /* \"Campaign.sol\":2009:2023  approversCount */\n      0x00\n      0x1b\n      swap1\n      sload\n      swap1\n      0x0100\n      exp\n      swap1\n      div\n      0xffffffffff\n      and\n        /* \"Campaign.sol\":2009:2027  approversCount / 2 */\n      tag_85\n      swap2\n      swap1\n      tag_86\n      jump\t// in\n    tag_85:\n        /* \"Campaign.sol\":1984:2028  request.approvalCount > (approversCount / 2) */\n      0xffffffffff\n      and\n        /* \"Campaign.sol\":1984:1991  request */\n      dup2\n        /* \"Campaign.sol\":1984:2005  request.approvalCount */\n      0x01\n      add\n      0x06\n      swap1\n      sload\n      swap1\n      0x0100\n      exp\n      swap1\n      div\n      0xffffffffffff\n      and\n        /* \"Campaign.sol\":1984:2028  request.approvalCount > (approversCount / 2) */\n      0xffffffffffff\n      and\n      gt\n        /* \"Campaign.sol\":1976:2071  require(request.approvalCount > (approversCount / 2), \"Request doesn't have enough approvals.\") */\n      tag_87\n      jumpi\n      mload(0x40)\n      0x08c379a000000000000000000000000000000000000000000000000000000000\n      dup2\n      mstore\n      0x04\n      add\n      tag_88\n      swap1\n      tag_89\n      jump\t// in\n    tag_88:\n      mload(0x40)\n      dup1\n      swap2\n      sub\n      swap1\n      revert\n    tag_87:\n        /* \"Campaign.sol\":2082:2089  request */\n      dup1\n        /* \"Campaign.sol\":2082:2099  request.recipient */\n      0x01\n      add\n      0x0c\n      swap1\n      sload\n      swap1\n      0x0100\n      exp\n      swap1\n      div\n      0xffffffffffffffffffffffffffffffffffffffff\n      and\n        /* \"Campaign.sol\":2082:2108  request.recipient.transfer */\n      0xffffffffffffffffffffffffffffffffffffffff\n      and\n        /* \"Campaign.sol\":2082:2123  request.recipient.transfer(request.value) */\n      0x08fc\n        /* \"Campaign.sol\":2109:2116  request */\n      dup3\n        /* \"Campaign.sol\":2109:2122  request.value */\n      0x01\n      add\n      0x00\n      swap1\n      sload\n      swap1\n      0x0100\n      exp\n      swap1\n      div\n      0xffffffffffff\n      and\n        /* \"Campaign.sol\":2082:2123  request.recipient.transfer(request.value) */\n      0xffffffffffff\n      and\n      swap1\n      dup2\n      iszero\n      mul\n      swap1\n      mload(0x40)\n      0x00\n      mload(0x40)\n      dup1\n      dup4\n      sub\n      dup2\n      dup6\n      dup9\n      dup9\n      call\n      swap4\n      pop\n      pop\n      pop\n      pop\n      iszero\n      dup1\n      iszero\n      tag_91\n      jumpi\n      returndatasize\n      0x00\n      dup1\n      returndatacopy\n      revert(0x00, returndatasize)\n    tag_91:\n      pop\n        /* \"Campaign.sol\":2155:2159  true */\n      0x01\n        /* \"Campaign.sol\":2134:2141  request */\n      dup2\n        /* \"Campaign.sol\":2134:2152  request.isComplete */\n      0x02\n      add\n      0x00\n        /* \"Campaign.sol\":2134:2159  request.isComplete = true */\n      0x0100\n      exp\n      dup2\n      sload\n      dup2\n      0xff\n      mul\n      not\n      and\n      swap1\n      dup4\n      iszero\n      iszero\n      mul\n      or\n      swap1\n      sstore\n      pop\n        /* \"Campaign.sol\":1843:2167  {... */\n      pop\n        /* \"Campaign.sol\":1788:2167  function finalizeRequest(uint _index) public isManager {... */\n      pop\n      jump\t// out\n        /* \"Campaign.sol\":496:537  mapping(address => bool) public approvers */\n    tag_24:\n      mstore(0x20, 0x01)\n      dup1\n      0x00\n      mstore\n      keccak256(0x00, 0x40)\n      0x00\n      swap2\n      pop\n      sload\n      swap1\n      0x0100\n      exp\n      swap1\n      div\n      0xff\n      and\n      dup2\n      jump\t// out\n        /* \"Campaign.sol\":2374:2468  function getRequestCount() public view returns(uint) {... */\n    tag_29:\n        /* \"Campaign.sol\":2421:2425  uint */\n      0x00\n        /* \"Campaign.sol\":2445:2453  requests */\n      0x02\n        /* \"Campaign.sol\":2445:2460  requests.length */\n      dup1\n      sload\n      swap1\n      pop\n        /* \"Campaign.sol\":2438:2460  return requests.length */\n      swap1\n      pop\n        /* \"Campaign.sol\":2374:2468  function getRequestCount() public view returns(uint) {... */\n      swap1\n      jump\t// out\n        /* \"Campaign.sol\":2175:2366  function getSummary() public view returns(uint40, uint, uint, uint40, address) {... */\n    tag_34:\n        /* \"Campaign.sol\":2217:2223  uint40 */\n      0x00\n        /* \"Campaign.sol\":2225:2229  uint */\n      dup1\n        /* \"Campaign.sol\":2231:2235  uint */\n      0x00\n        /* \"Campaign.sol\":2237:2243  uint40 */\n      dup1\n        /* \"Campaign.sol\":2245:2252  address */\n      0x00\n        /* \"Campaign.sol\":2273:2292  minimumContribution */\n      dup1\n      0x16\n      swap1\n      sload\n      swap1\n      0x0100\n      exp\n      swap1\n      div\n      0xffffffffff\n      and\n        /* \"Campaign.sol\":2294:2315  address(this).balance */\n      selfbalance\n        /* \"Campaign.sol\":2317:2325  requests */\n      0x02\n        /* \"Campaign.sol\":2317:2332  requests.length */\n      dup1\n      sload\n      swap1\n      pop\n        /* \"Campaign.sol\":2334:2348  approversCount */\n      0x00\n      0x1b\n      swap1\n      sload\n      swap1\n      0x0100\n      exp\n      swap1\n      div\n      0xffffffffff\n      and\n        /* \"Campaign.sol\":2350:2357  manager */\n      0x00\n      0x02\n      swap1\n      sload\n      swap1\n      0x0100\n      exp\n      swap1\n      div\n      0xffffffffffffffffffffffffffffffffffffffff\n      and\n        /* \"Campaign.sol\":2265:2358  return (minimumContribution, address(this).balance, requests.length, approversCount, manager) */\n      swap5\n      pop\n      swap5\n      pop\n      swap5\n      pop\n      swap5\n      pop\n      swap5\n      pop\n        /* \"Campaign.sol\":2175:2366  function getSummary() public view returns(uint40, uint, uint, uint40, address) {... */\n      swap1\n      swap2\n      swap3\n      swap4\n      swap5\n      jump\t// out\n        /* \"Campaign.sol\":392:414  address public manager */\n    tag_39:\n      0x00\n      0x02\n      swap1\n      sload\n      swap1\n      0x0100\n      exp\n      swap1\n      div\n      0xffffffffffffffffffffffffffffffffffffffff\n      and\n      dup2\n      jump\t// out\n        /* \"Campaign.sol\":544:569  Request[] public requests */\n    tag_45:\n      0x02\n      dup2\n      dup2\n      sload\n      dup2\n      lt\n      tag_94\n      jumpi\n      0x00\n      dup1\n      revert\n    tag_94:\n      swap1\n      0x00\n      mstore\n      keccak256(0x00, 0x20)\n      swap1\n      0x04\n      mul\n      add\n      0x00\n      swap2\n      pop\n      swap1\n      pop\n      dup1\n      0x00\n      add\n      dup1\n      sload\n      tag_96\n      swap1\n      tag_97\n      jump\t// in\n    tag_96:\n      dup1\n      0x1f\n      add\n      0x20\n      dup1\n      swap2\n      div\n      mul\n      0x20\n      add\n      mload(0x40)\n      swap1\n      dup2\n      add\n      0x40\n      mstore\n      dup1\n      swap3\n      swap2\n      swap1\n      dup2\n      dup2\n      mstore\n      0x20\n      add\n      dup3\n      dup1\n      sload\n      tag_98\n      swap1\n      tag_97\n      jump\t// in\n    tag_98:\n      dup1\n      iszero\n      tag_99\n      jumpi\n      dup1\n      0x1f\n      lt\n      tag_100\n      jumpi\n      0x0100\n      dup1\n      dup4\n      sload\n      div\n      mul\n      dup4\n      mstore\n      swap2\n      0x20\n      add\n      swap2\n      jump(tag_99)\n    tag_100:\n      dup3\n      add\n      swap2\n      swap1\n      0x00\n      mstore\n      keccak256(0x00, 0x20)\n      swap1\n    tag_101:\n      dup2\n      sload\n      dup2\n      mstore\n      swap1\n      0x01\n      add\n      swap1\n      0x20\n      add\n      dup1\n      dup4\n      gt\n      tag_101\n      jumpi\n      dup3\n      swap1\n      sub\n      0x1f\n      and\n      dup3\n      add\n      swap2\n    tag_99:\n      pop\n      pop\n      pop\n      pop\n      pop\n      swap1\n      dup1\n      0x01\n      add\n      0x00\n      swap1\n      sload\n      swap1\n      0x0100\n      exp\n      swap1\n      div\n      0xffffffffffff\n      and\n      swap1\n      dup1\n      0x01\n      add\n      0x06\n      swap1\n      sload\n      swap1\n      0x0100\n      exp\n      swap1\n      div\n      0xffffffffffff\n      and\n      swap1\n      dup1\n      0x01\n      add\n      0x0c\n      swap1\n      sload\n      swap1\n      0x0100\n      exp\n      swap1\n      div\n      0xffffffffffffffffffffffffffffffffffffffff\n      and\n      swap1\n      dup1\n      0x02\n      add\n      0x00\n      swap1\n      sload\n      swap1\n      0x0100\n      exp\n      swap1\n      div\n      0xff\n      and\n      swap1\n      pop\n      dup6\n      jump\t// out\n        /* \"Campaign.sol\":461:489  uint40 public approversCount */\n    tag_50:\n      0x00\n      0x1b\n      swap1\n      sload\n      swap1\n      0x0100\n      exp\n      swap1\n      div\n      0xffffffffff\n      and\n      dup2\n      jump\t// out\n        /* \"Campaign.sol\":421:454  uint40 public minimumContribution */\n    tag_55:\n      0x00\n      0x16\n      swap1\n      sload\n      swap1\n      0x0100\n      exp\n      swap1\n      div\n      0xffffffffff\n      and\n      dup2\n      jump\t// out\n        /* \"Campaign.sol\":1114:1406  function createRequest(string calldata _description, uint48 _value, address payable _recipient) public isManager {... */\n    tag_61:\n        /* \"Campaign.sol\":794:801  manager */\n      0x00\n      0x02\n      swap1\n      sload\n      swap1\n      0x0100\n      exp\n      swap1\n      div\n      0xffffffffffffffffffffffffffffffffffffffff\n      and\n        /* \"Campaign.sol\":780:801  msg.sender == manager */\n      0xffffffffffffffffffffffffffffffffffffffff\n      and\n        /* \"Campaign.sol\":780:790  msg.sender */\n      caller\n        /* \"Campaign.sol\":780:801  msg.sender == manager */\n      0xffffffffffffffffffffffffffffffffffffffff\n      and\n      eq\n        /* \"Campaign.sol\":772:847  require(msg.sender == manager, \"Only the manager can perform this action.\") */\n      tag_103\n      jumpi\n      mload(0x40)\n      0x08c379a000000000000000000000000000000000000000000000000000000000\n      dup2\n      mstore\n      0x04\n      add\n      tag_104\n      swap1\n      tag_76\n      jump\t// in\n    tag_104:\n      mload(0x40)\n      dup1\n      swap2\n      sub\n      swap1\n      revert\n    tag_103:\n        /* \"Campaign.sol\":1238:1261  Request storage request */\n      0x00\n        /* \"Campaign.sol\":1264:1272  requests */\n      0x02\n        /* \"Campaign.sol\":1264:1279  requests.push() */\n      0x01\n      dup2\n      0x01\n      dup2\n      sload\n      add\n      dup1\n      dup3\n      sstore\n      dup1\n      swap2\n      pop\n      pop\n      sub\n      swap1\n      0x00\n      mstore\n      keccak256(0x00, 0x20)\n      swap1\n      0x04\n      mul\n      add\n        /* \"Campaign.sol\":1238:1279  Request storage request = requests.push() */\n      swap1\n      pop\n        /* \"Campaign.sol\":1312:1324  _description */\n      dup5\n      dup5\n        /* \"Campaign.sol\":1290:1297  request */\n      dup3\n        /* \"Campaign.sol\":1290:1309  request.description */\n      0x00\n      add\n        /* \"Campaign.sol\":1290:1324  request.description = _description */\n      swap2\n      swap1\n      tag_107\n      swap3\n      swap2\n      swap1\n      tag_108\n      jump\t// in\n    tag_107:\n      pop\n        /* \"Campaign.sol\":1351:1357  _value */\n      dup3\n        /* \"Campaign.sol\":1335:1342  request */\n      dup2\n        /* \"Campaign.sol\":1335:1348  request.value */\n      0x01\n      add\n      0x00\n        /* \"Campaign.sol\":1335:1357  request.value = _value */\n      0x0100\n      exp\n      dup2\n      sload\n      dup2\n      0xffffffffffff\n      mul\n      not\n      and\n      swap1\n      dup4\n      0xffffffffffff\n      and\n      mul\n      or\n      swap1\n      sstore\n      pop\n        /* \"Campaign.sol\":1388:1398  _recipient */\n      dup2\n        /* \"Campaign.sol\":1368:1375  request */\n      dup2\n        /* \"Campaign.sol\":1368:1385  request.recipient */\n      0x01\n      add\n      0x0c\n        /* \"Campaign.sol\":1368:1398  request.recipient = _recipient */\n      0x0100\n      exp\n      dup2\n      sload\n      dup2\n      0xffffffffffffffffffffffffffffffffffffffff\n      mul\n      not\n      and\n      swap1\n      dup4\n      0xffffffffffffffffffffffffffffffffffffffff\n      and\n      mul\n      or\n      swap1\n      sstore\n      pop\n        /* \"Campaign.sol\":1227:1406  {... */\n      pop\n        /* \"Campaign.sol\":1114:1406  function createRequest(string calldata _description, uint48 _value, address payable _recipient) public isManager {... */\n      pop\n      pop\n      pop\n      pop\n      jump\t// out\n        /* \"Campaign.sol\":578:732  function initialize(uint40 _minimum, address _creator) public initializer() {... */\n    tag_66:\n        /* \"@openzeppelin/contracts/proxy/utils/Initializable.sol\":2336:2349   */\n      0x00\n      0x01\n      swap1\n      sload\n      swap1\n      0x0100\n      exp\n      swap1\n      div\n      0xff\n      and\n        /* \"@openzeppelin/contracts/proxy/utils/Initializable.sol\":2336:2384   */\n      tag_110\n      jumpi\n        /* \"@openzeppelin/contracts/proxy/utils/Initializable.sol\":2372:2384   */\n      0x00\n      dup1\n      sload\n      swap1\n      0x0100\n      exp\n      swap1\n      div\n      0xff\n      and\n        /* \"@openzeppelin/contracts/proxy/utils/Initializable.sol\":2371:2384   */\n      iszero\n        /* \"@openzeppelin/contracts/proxy/utils/Initializable.sol\":2336:2384   */\n      jump(tag_111)\n    tag_110:\n        /* \"@openzeppelin/contracts/proxy/utils/Initializable.sol\":2352:2368   */\n      tag_112\n        /* \"@openzeppelin/contracts/proxy/utils/Initializable.sol\":2352:2366   */\n      tag_113\n        /* \"@openzeppelin/contracts/proxy/utils/Initializable.sol\":2352:2368   */\n      jump\t// in\n    tag_112:\n        /* \"@openzeppelin/contracts/proxy/utils/Initializable.sol\":2336:2384   */\n    tag_111:\n        /* \"@openzeppelin/contracts/proxy/utils/Initializable.sol\":2328:2435   */\n      tag_114\n      jumpi\n      mload(0x40)\n      0x08c379a000000000000000000000000000000000000000000000000000000000\n      dup2\n      mstore\n      0x04\n      add\n      tag_115\n      swap1\n      tag_116\n      jump\t// in\n    tag_115:\n      mload(0x40)\n      dup1\n      swap2\n      sub\n      swap1\n      revert\n    tag_114:\n        /* \"@openzeppelin/contracts/proxy/utils/Initializable.sol\":2446:2465   */\n      0x00\n        /* \"@openzeppelin/contracts/proxy/utils/Initializable.sol\":2469:2482   */\n      dup1\n      0x01\n      swap1\n      sload\n      swap1\n      0x0100\n      exp\n      swap1\n      div\n      0xff\n      and\n        /* \"@openzeppelin/contracts/proxy/utils/Initializable.sol\":2468:2482   */\n      iszero\n        /* \"@openzeppelin/contracts/proxy/utils/Initializable.sol\":2446:2482   */\n      swap1\n      pop\n        /* \"@openzeppelin/contracts/proxy/utils/Initializable.sol\":2496:2510   */\n      dup1\n        /* \"@openzeppelin/contracts/proxy/utils/Initializable.sol\":2492:2590   */\n      iszero\n      tag_117\n      jumpi\n        /* \"@openzeppelin/contracts/proxy/utils/Initializable.sol\":2542:2546   */\n      0x01\n        /* \"@openzeppelin/contracts/proxy/utils/Initializable.sol\":2526:2539   */\n      0x00\n      0x01\n        /* \"@openzeppelin/contracts/proxy/utils/Initializable.sol\":2526:2546   */\n      0x0100\n      exp\n      dup2\n      sload\n      dup2\n      0xff\n      mul\n      not\n      and\n      swap1\n      dup4\n      iszero\n      iszero\n      mul\n      or\n      swap1\n      sstore\n      pop\n        /* \"@openzeppelin/contracts/proxy/utils/Initializable.sol\":2575:2579   */\n      0x01\n        /* \"@openzeppelin/contracts/proxy/utils/Initializable.sol\":2560:2572   */\n      0x00\n      dup1\n        /* \"@openzeppelin/contracts/proxy/utils/Initializable.sol\":2560:2579   */\n      0x0100\n      exp\n      dup2\n      sload\n      dup2\n      0xff\n      mul\n      not\n      and\n      swap1\n      dup4\n      iszero\n      iszero\n      mul\n      or\n      swap1\n      sstore\n      pop\n        /* \"@openzeppelin/contracts/proxy/utils/Initializable.sol\":2492:2590   */\n    tag_117:\n        /* \"Campaign.sol\":687:695  _minimum */\n      dup3\n        /* \"Campaign.sol\":665:684  minimumContribution */\n      0x00\n      0x16\n        /* \"Campaign.sol\":665:695  minimumContribution = _minimum */\n      0x0100\n      exp\n      dup2\n      sload\n      dup2\n      0xffffffffff\n      mul\n      not\n      and\n      swap1\n      dup4\n      0xffffffffff\n      and\n      mul\n      or\n      swap1\n      sstore\n      pop\n        /* \"Campaign.sol\":716:724  _creator */\n      dup2\n        /* \"Campaign.sol\":706:713  manager */\n      0x00\n      0x02\n        /* \"Campaign.sol\":706:724  manager = _creator */\n      0x0100\n      exp\n      dup2\n      sload\n      dup2\n      0xffffffffffffffffffffffffffffffffffffffff\n      mul\n      not\n      and\n      swap1\n      dup4\n      0xffffffffffffffffffffffffffffffffffffffff\n      and\n      mul\n      or\n      swap1\n      sstore\n      pop\n        /* \"@openzeppelin/contracts/proxy/utils/Initializable.sol\":2616:2630   */\n      dup1\n        /* \"@openzeppelin/contracts/proxy/utils/Initializable.sol\":2612:2678   */\n      iszero\n      tag_119\n      jumpi\n        /* \"@openzeppelin/contracts/proxy/utils/Initializable.sol\":2662:2667   */\n      0x00\n        /* \"@openzeppelin/contracts/proxy/utils/Initializable.sol\":2646:2659   */\n      dup1\n      0x01\n        /* \"@openzeppelin/contracts/proxy/utils/Initializable.sol\":2646:2667   */\n      0x0100\n      exp\n      dup2\n      sload\n      dup2\n      0xff\n      mul\n      not\n      and\n      swap1\n      dup4\n      iszero\n      iszero\n      mul\n      or\n      swap1\n      sstore\n      pop\n        /* \"@openzeppelin/contracts/proxy/utils/Initializable.sol\":2612:2678   */\n    tag_119:\n        /* \"@openzeppelin/contracts/proxy/utils/Initializable.sol\":2047:2684   */\n      pop\n        /* \"Campaign.sol\":578:732  function initialize(uint40 _minimum, address _creator) public initializer() {... */\n      pop\n      pop\n      jump\t// out\n        /* \"Campaign.sol\":875:1106  function contribute() public payable {... */\n    tag_68:\n        /* \"Campaign.sol\":944:963  minimumContribution */\n      0x00\n      0x16\n      swap1\n      sload\n      swap1\n      0x0100\n      exp\n      swap1\n      div\n      0xffffffffff\n      and\n        /* \"Campaign.sol\":931:963  msg.value >= minimumContribution */\n      0xffffffffff\n      and\n        /* \"Campaign.sol\":931:940  msg.value */\n      callvalue\n        /* \"Campaign.sol\":931:963  msg.value >= minimumContribution */\n      lt\n      iszero\n        /* \"Campaign.sol\":923:1032  require(msg.value >= minimumContribution, \"You need to contribute at least the minimum contribution amount.\") */\n      tag_121\n      jumpi\n      mload(0x40)\n      0x08c379a000000000000000000000000000000000000000000000000000000000\n      dup2\n      mstore\n      0x04\n      add\n      tag_122\n      swap1\n      tag_123\n      jump\t// in\n    tag_122:\n      mload(0x40)\n      dup1\n      swap2\n      sub\n      swap1\n      revert\n    tag_121:\n        /* \"Campaign.sol\":1067:1071  true */\n      0x01\n        /* \"Campaign.sol\":1043:1052  approvers */\n      dup1\n        /* \"Campaign.sol\":1043:1064  approvers[msg.sender] */\n      0x00\n        /* \"Campaign.sol\":1053:1063  msg.sender */\n      caller\n        /* \"Campaign.sol\":1043:1064  approvers[msg.sender] */\n      0xffffffffffffffffffffffffffffffffffffffff\n      and\n      0xffffffffffffffffffffffffffffffffffffffff\n      and\n      dup2\n      mstore\n      0x20\n      add\n      swap1\n      dup2\n      mstore\n      0x20\n      add\n      0x00\n      keccak256\n      0x00\n        /* \"Campaign.sol\":1043:1071  approvers[msg.sender] = true */\n      0x0100\n      exp\n      dup2\n      sload\n      dup2\n      0xff\n      mul\n      not\n      and\n      swap1\n      dup4\n      iszero\n      iszero\n      mul\n      or\n      swap1\n      sstore\n      pop\n        /* \"Campaign.sol\":1082:1096  approversCount */\n      0x00\n      0x1b\n        /* \"Campaign.sol\":1082:1098  approversCount++ */\n      dup2\n      dup2\n      swap1\n      sload\n      swap1\n      0x0100\n      exp\n      swap1\n      div\n      0xffffffffff\n      and\n      dup1\n      swap3\n      swap2\n      swap1\n      tag_124\n      swap1\n      tag_125\n      jump\t// in\n    tag_124:\n      swap2\n      swap1\n      0x0100\n      exp\n      dup2\n      sload\n      dup2\n      0xffffffffff\n      mul\n      not\n      and\n      swap1\n      dup4\n      0xffffffffff\n      and\n      mul\n      or\n      swap1\n      sstore\n      pop\n      pop\n        /* \"Campaign.sol\":875:1106  function contribute() public payable {... */\n      jump\t// out\n        /* \"Campaign.sol\":1414:1780  function approveRequest(uint _index) public {... */\n    tag_72:\n        /* \"Campaign.sol\":1469:1492  Request storage request */\n      0x00\n        /* \"Campaign.sol\":1495:1503  requests */\n      0x02\n        /* \"Campaign.sol\":1504:1510  _index */\n      dup3\n        /* \"Campaign.sol\":1495:1511  requests[_index] */\n      dup2\n      sload\n      dup2\n      lt\n      tag_127\n      jumpi\n      tag_128\n      tag_80\n      jump\t// in\n    tag_128:\n    tag_127:\n      swap1\n      0x00\n      mstore\n      keccak256(0x00, 0x20)\n      swap1\n      0x04\n      mul\n      add\n        /* \"Campaign.sol\":1469:1511  Request storage request = requests[_index] */\n      swap1\n      pop\n        /* \"Campaign.sol\":1530:1539  approvers */\n      0x01\n        /* \"Campaign.sol\":1530:1551  approvers[msg.sender] */\n      0x00\n        /* \"Campaign.sol\":1540:1550  msg.sender */\n      caller\n        /* \"Campaign.sol\":1530:1551  approvers[msg.sender] */\n      0xffffffffffffffffffffffffffffffffffffffff\n      and\n      0xffffffffffffffffffffffffffffffffffffffff\n      and\n      dup2\n      mstore\n      0x20\n      add\n      swap1\n      dup2\n      mstore\n      0x20\n      add\n      0x00\n      keccak256\n      0x00\n      swap1\n      sload\n      swap1\n      0x0100\n      exp\n      swap1\n      div\n      0xff\n      and\n        /* \"Campaign.sol\":1522:1598  require(approvers[msg.sender], \"You must be approved to make this request.\") */\n      tag_130\n      jumpi\n      mload(0x40)\n      0x08c379a000000000000000000000000000000000000000000000000000000000\n      dup2\n      mstore\n      0x04\n      add\n      tag_131\n      swap1\n      tag_132\n      jump\t// in\n    tag_131:\n      mload(0x40)\n      dup1\n      swap2\n      sub\n      swap1\n      revert\n    tag_130:\n        /* \"Campaign.sol\":1618:1625  request */\n      dup1\n        /* \"Campaign.sol\":1618:1635  request.approvals */\n      0x03\n      add\n        /* \"Campaign.sol\":1618:1647  request.approvals[msg.sender] */\n      0x00\n        /* \"Campaign.sol\":1636:1646  msg.sender */\n      caller\n        /* \"Campaign.sol\":1618:1647  request.approvals[msg.sender] */\n      0xffffffffffffffffffffffffffffffffffffffff\n      and\n      0xffffffffffffffffffffffffffffffffffffffff\n      and\n      dup2\n      mstore\n      0x20\n      add\n      swap1\n      dup2\n      mstore\n      0x20\n      add\n      0x00\n      keccak256\n      0x00\n      swap1\n      sload\n      swap1\n      0x0100\n      exp\n      swap1\n      div\n      0xff\n      and\n        /* \"Campaign.sol\":1617:1647  !request.approvals[msg.sender] */\n      iszero\n        /* \"Campaign.sol\":1609:1691  require(!request.approvals[msg.sender], \"You have already approved this request.\") */\n      tag_133\n      jumpi\n      mload(0x40)\n      0x08c379a000000000000000000000000000000000000000000000000000000000\n      dup2\n      mstore\n      0x04\n      add\n      tag_134\n      swap1\n      tag_135\n      jump\t// in\n    tag_134:\n      mload(0x40)\n      dup1\n      swap2\n      sub\n      swap1\n      revert\n    tag_133:\n        /* \"Campaign.sol\":1734:1738  true */\n      0x01\n        /* \"Campaign.sol\":1702:1709  request */\n      dup2\n        /* \"Campaign.sol\":1702:1719  request.approvals */\n      0x03\n      add\n        /* \"Campaign.sol\":1702:1731  request.approvals[msg.sender] */\n      0x00\n        /* \"Campaign.sol\":1720:1730  msg.sender */\n      caller\n        /* \"Campaign.sol\":1702:1731  request.approvals[msg.sender] */\n      0xffffffffffffffffffffffffffffffffffffffff\n      and\n      0xffffffffffffffffffffffffffffffffffffffff\n      and\n      dup2\n      mstore\n      0x20\n      add\n      swap1\n      dup2\n      mstore\n      0x20\n      add\n      0x00\n      keccak256\n      0x00\n        /* \"Campaign.sol\":1702:1738  request.approvals[msg.sender] = true */\n      0x0100\n      exp\n      dup2\n      sload\n      dup2\n      0xff\n      mul\n      not\n      and\n      swap1\n      dup4\n      iszero\n      iszero\n      mul\n      or\n      swap1\n      sstore\n      pop\n        /* \"Campaign.sol\":1749:1756  request */\n      dup1\n        /* \"Campaign.sol\":1749:1770  request.approvalCount */\n      0x01\n      add\n      0x06\n        /* \"Campaign.sol\":1749:1772  request.approvalCount++ */\n      dup2\n      dup2\n      swap1\n      sload\n      swap1\n      0x0100\n      exp\n      swap1\n      div\n      0xffffffffffff\n      and\n      dup1\n      swap3\n      swap2\n      swap1\n      tag_136\n      swap1\n      tag_137\n      jump\t// in\n    tag_136:\n      swap2\n      swap1\n      0x0100\n      exp\n      dup2\n      sload\n      dup2\n      0xffffffffffff\n      mul\n      not\n      and\n      swap1\n      dup4\n      0xffffffffffff\n      and\n      mul\n      or\n      swap1\n      sstore\n      pop\n      pop\n        /* \"Campaign.sol\":1458:1780  {... */\n      pop\n        /* \"Campaign.sol\":1414:1780  function approveRequest(uint _index) public {... */\n      pop\n      jump\t// out\n        /* \"@openzeppelin/contracts/proxy/utils/Initializable.sol\":3004:3116   */\n    tag_113:\n        /* \"@openzeppelin/contracts/proxy/utils/Initializable.sol\":3052:3056   */\n      0x00\n        /* \"@openzeppelin/contracts/proxy/utils/Initializable.sol\":3076:3109   */\n      tag_139\n        /* \"@openzeppelin/contracts/proxy/utils/Initializable.sol\":3103:3107   */\n      address\n        /* \"@openzeppelin/contracts/proxy/utils/Initializable.sol\":3076:3094   */\n      tag_140\n        /* \"@openzeppelin/contracts/proxy/utils/Initializable.sol\":3076:3109   */\n      jump\t// in\n    tag_139:\n        /* \"@openzeppelin/contracts/proxy/utils/Initializable.sol\":3075:3109   */\n      iszero\n        /* \"@openzeppelin/contracts/proxy/utils/Initializable.sol\":3068:3109   */\n      swap1\n      pop\n        /* \"@openzeppelin/contracts/proxy/utils/Initializable.sol\":3004:3116   */\n      swap1\n      jump\t// out\n        /* \"@openzeppelin/contracts/utils/Address.sol\":771:1148   */\n    tag_140:\n        /* \"@openzeppelin/contracts/utils/Address.sol\":831:835   */\n      0x00\n        /* \"@openzeppelin/contracts/utils/Address.sol\":1034:1046   */\n      dup1\n        /* \"@openzeppelin/contracts/utils/Address.sol\":1099:1106   */\n      dup3\n        /* \"@openzeppelin/contracts/utils/Address.sol\":1087:1107   */\n      extcodesize\n        /* \"@openzeppelin/contracts/utils/Address.sol\":1079:1107   */\n      swap1\n      pop\n        /* \"@openzeppelin/contracts/utils/Address.sol\":1140:1141   */\n      0x00\n        /* \"@openzeppelin/contracts/utils/Address.sol\":1133:1137   */\n      dup2\n        /* \"@openzeppelin/contracts/utils/Address.sol\":1133:1141   */\n      gt\n        /* \"@openzeppelin/contracts/utils/Address.sol\":1126:1141   */\n      swap2\n      pop\n      pop\n        /* \"@openzeppelin/contracts/utils/Address.sol\":771:1148   */\n      swap2\n      swap1\n      pop\n      jump\t// out\n    tag_108:\n      dup3\n      dup1\n      sload\n      tag_142\n      swap1\n      tag_97\n      jump\t// in\n    tag_142:\n      swap1\n      0x00\n      mstore\n      keccak256(0x00, 0x20)\n      swap1\n      0x1f\n      add\n      0x20\n      swap1\n      div\n      dup2\n      add\n      swap3\n      dup3\n      tag_144\n      jumpi\n      0x00\n      dup6\n      sstore\n      jump(tag_143)\n    tag_144:\n      dup3\n      0x1f\n      lt\n      tag_145\n      jumpi\n      dup1\n      calldataload\n      not(0xff)\n      and\n      dup4\n      dup1\n      add\n      or\n      dup6\n      sstore\n      jump(tag_143)\n    tag_145:\n      dup3\n      dup1\n      add\n      0x01\n      add\n      dup6\n      sstore\n      dup3\n      iszero\n      tag_143\n      jumpi\n      swap2\n      dup3\n      add\n    tag_146:\n      dup3\n      dup2\n      gt\n      iszero\n      tag_147\n      jumpi\n      dup3\n      calldataload\n      dup3\n      sstore\n      swap2\n      0x20\n      add\n      swap2\n      swap1\n      0x01\n      add\n      swap1\n      jump(tag_146)\n    tag_147:\n    tag_143:\n      pop\n      swap1\n      pop\n      tag_148\n      swap2\n      swap1\n      tag_149\n      jump\t// in\n    tag_148:\n      pop\n      swap1\n      jump\t// out\n    tag_149:\n    tag_150:\n      dup1\n      dup3\n      gt\n      iszero\n      tag_151\n      jumpi\n      0x00\n      dup2\n      0x00\n      swap1\n      sstore\n      pop\n      0x01\n      add\n      jump(tag_150)\n    tag_151:\n      pop\n      swap1\n      jump\t// out\n        /* \"#utility.yul\":88:205   */\n    tag_153:\n        /* \"#utility.yul\":197:198   */\n      0x00\n        /* \"#utility.yul\":194:195   */\n      dup1\n        /* \"#utility.yul\":187:199   */\n      revert\n        /* \"#utility.yul\":211:328   */\n    tag_154:\n        /* \"#utility.yul\":320:321   */\n      0x00\n        /* \"#utility.yul\":317:318   */\n      dup1\n        /* \"#utility.yul\":310:322   */\n      revert\n        /* \"#utility.yul\":334:411   */\n    tag_155:\n        /* \"#utility.yul\":371:378   */\n      0x00\n        /* \"#utility.yul\":400:405   */\n      dup2\n        /* \"#utility.yul\":389:405   */\n      swap1\n      pop\n        /* \"#utility.yul\":334:411   */\n      swap2\n      swap1\n      pop\n      jump\t// out\n        /* \"#utility.yul\":417:539   */\n    tag_156:\n        /* \"#utility.yul\":490:514   */\n      tag_210\n        /* \"#utility.yul\":508:513   */\n      dup2\n        /* \"#utility.yul\":490:514   */\n      tag_155\n      jump\t// in\n    tag_210:\n        /* \"#utility.yul\":483:488   */\n      dup2\n        /* \"#utility.yul\":480:515   */\n      eq\n        /* \"#utility.yul\":470:533   */\n      tag_211\n      jumpi\n        /* \"#utility.yul\":529:530   */\n      0x00\n        /* \"#utility.yul\":526:527   */\n      dup1\n        /* \"#utility.yul\":519:531   */\n      revert\n        /* \"#utility.yul\":470:533   */\n    tag_211:\n        /* \"#utility.yul\":417:539   */\n      pop\n      jump\t// out\n        /* \"#utility.yul\":545:684   */\n    tag_157:\n        /* \"#utility.yul\":591:596   */\n      0x00\n        /* \"#utility.yul\":629:635   */\n      dup2\n        /* \"#utility.yul\":616:636   */\n      calldataload\n        /* \"#utility.yul\":607:636   */\n      swap1\n      pop\n        /* \"#utility.yul\":645:678   */\n      tag_213\n        /* \"#utility.yul\":672:677   */\n      dup2\n        /* \"#utility.yul\":645:678   */\n      tag_156\n      jump\t// in\n    tag_213:\n        /* \"#utility.yul\":545:684   */\n      swap3\n      swap2\n      pop\n      pop\n      jump\t// out\n        /* \"#utility.yul\":690:1019   */\n    tag_18:\n        /* \"#utility.yul\":749:755   */\n      0x00\n        /* \"#utility.yul\":798:800   */\n      0x20\n        /* \"#utility.yul\":786:795   */\n      dup3\n        /* \"#utility.yul\":777:784   */\n      dup5\n        /* \"#utility.yul\":773:796   */\n      sub\n        /* \"#utility.yul\":769:801   */\n      slt\n        /* \"#utility.yul\":766:885   */\n      iszero\n      tag_215\n      jumpi\n        /* \"#utility.yul\":804:883   */\n      tag_216\n      tag_153\n      jump\t// in\n    tag_216:\n        /* \"#utility.yul\":766:885   */\n    tag_215:\n        /* \"#utility.yul\":924:925   */\n      0x00\n        /* \"#utility.yul\":949:1002   */\n      tag_217\n        /* \"#utility.yul\":994:1001   */\n      dup5\n        /* \"#utility.yul\":985:991   */\n      dup3\n        /* \"#utility.yul\":974:983   */\n      dup6\n        /* \"#utility.yul\":970:992   */\n      add\n        /* \"#utility.yul\":949:1002   */\n      tag_157\n      jump\t// in\n    tag_217:\n        /* \"#utility.yul\":939:1002   */\n      swap2\n      pop\n        /* \"#utility.yul\":895:1012   */\n      pop\n        /* \"#utility.yul\":690:1019   */\n      swap3\n      swap2\n      pop\n      pop\n      jump\t// out\n        /* \"#utility.yul\":1025:1151   */\n    tag_158:\n        /* \"#utility.yul\":1062:1069   */\n      0x00\n        /* \"#utility.yul\":1102:1144   */\n      0xffffffffffffffffffffffffffffffffffffffff\n        /* \"#utility.yul\":1095:1100   */\n      dup3\n        /* \"#utility.yul\":1091:1145   */\n      and\n        /* \"#utility.yul\":1080:1145   */\n      swap1\n      pop\n        /* \"#utility.yul\":1025:1151   */\n      swap2\n      swap1\n      pop\n      jump\t// out\n        /* \"#utility.yul\":1157:1253   */\n    tag_159:\n        /* \"#utility.yul\":1194:1201   */\n      0x00\n        /* \"#utility.yul\":1223:1247   */\n      tag_220\n        /* \"#utility.yul\":1241:1246   */\n      dup3\n        /* \"#utility.yul\":1223:1247   */\n      tag_158\n      jump\t// in\n    tag_220:\n        /* \"#utility.yul\":1212:1247   */\n      swap1\n      pop\n        /* \"#utility.yul\":1157:1253   */\n      swap2\n      swap1\n      pop\n      jump\t// out\n        /* \"#utility.yul\":1259:1381   */\n    tag_160:\n        /* \"#utility.yul\":1332:1356   */\n      tag_222\n        /* \"#utility.yul\":1350:1355   */\n      dup2\n        /* \"#utility.yul\":1332:1356   */\n      tag_159\n      jump\t// in\n    tag_222:\n        /* \"#utility.yul\":1325:1330   */\n      dup2\n        /* \"#utility.yul\":1322:1357   */\n      eq\n        /* \"#utility.yul\":1312:1375   */\n      tag_223\n      jumpi\n        /* \"#utility.yul\":1371:1372   */\n      0x00\n        /* \"#utility.yul\":1368:1369   */\n      dup1\n        /* \"#utility.yul\":1361:1373   */\n      revert\n        /* \"#utility.yul\":1312:1375   */\n    tag_223:\n        /* \"#utility.yul\":1259:1381   */\n      pop\n      jump\t// out\n        /* \"#utility.yul\":1387:1526   */\n    tag_161:\n        /* \"#utility.yul\":1433:1438   */\n      0x00\n        /* \"#utility.yul\":1471:1477   */\n      dup2\n        /* \"#utility.yul\":1458:1478   */\n      calldataload\n        /* \"#utility.yul\":1449:1478   */\n      swap1\n      pop\n        /* \"#utility.yul\":1487:1520   */\n      tag_225\n        /* \"#utility.yul\":1514:1519   */\n      dup2\n        /* \"#utility.yul\":1487:1520   */\n      tag_160\n      jump\t// in\n    tag_225:\n        /* \"#utility.yul\":1387:1526   */\n      swap3\n      swap2\n      pop\n      pop\n      jump\t// out\n        /* \"#utility.yul\":1532:1861   */\n    tag_23:\n        /* \"#utility.yul\":1591:1597   */\n      0x00\n        /* \"#utility.yul\":1640:1642   */\n      0x20\n        /* \"#utility.yul\":1628:1637   */\n      dup3\n        /* \"#utility.yul\":1619:1626   */\n      dup5\n        /* \"#utility.yul\":1615:1638   */\n      sub\n        /* \"#utility.yul\":1611:1643   */\n      slt\n        /* \"#utility.yul\":1608:1727   */\n      iszero\n      tag_227\n      jumpi\n        /* \"#utility.yul\":1646:1725   */\n      tag_228\n      tag_153\n      jump\t// in\n    tag_228:\n        /* \"#utility.yul\":1608:1727   */\n    tag_227:\n        /* \"#utility.yul\":1766:1767   */\n      0x00\n        /* \"#utility.yul\":1791:1844   */\n      tag_229\n        /* \"#utility.yul\":1836:1843   */\n      dup5\n        /* \"#utility.yul\":1827:1833   */\n      dup3\n        /* \"#utility.yul\":1816:1825   */\n      dup6\n        /* \"#utility.yul\":1812:1834   */\n      add\n        /* \"#utility.yul\":1791:1844   */\n      tag_161\n      jump\t// in\n    tag_229:\n        /* \"#utility.yul\":1781:1844   */\n      swap2\n      pop\n        /* \"#utility.yul\":1737:1854   */\n      pop\n        /* \"#utility.yul\":1532:1861   */\n      swap3\n      swap2\n      pop\n      pop\n      jump\t// out\n        /* \"#utility.yul\":1867:1957   */\n    tag_162:\n        /* \"#utility.yul\":1901:1908   */\n      0x00\n        /* \"#utility.yul\":1944:1949   */\n      dup2\n        /* \"#utility.yul\":1937:1950   */\n      iszero\n        /* \"#utility.yul\":1930:1951   */\n      iszero\n        /* \"#utility.yul\":1919:1951   */\n      swap1\n      pop\n        /* \"#utility.yul\":1867:1957   */\n      swap2\n      swap1\n      pop\n      jump\t// out\n        /* \"#utility.yul\":1963:2072   */\n    tag_163:\n        /* \"#utility.yul\":2044:2065   */\n      tag_232\n        /* \"#utility.yul\":2059:2064   */\n      dup2\n        /* \"#utility.yul\":2044:2065   */\n      tag_162\n      jump\t// in\n    tag_232:\n        /* \"#utility.yul\":2039:2042   */\n      dup3\n        /* \"#utility.yul\":2032:2066   */\n      mstore\n        /* \"#utility.yul\":1963:2072   */\n      pop\n      pop\n      jump\t// out\n        /* \"#utility.yul\":2078:2288   */\n    tag_26:\n        /* \"#utility.yul\":2165:2169   */\n      0x00\n        /* \"#utility.yul\":2203:2205   */\n      0x20\n        /* \"#utility.yul\":2192:2201   */\n      dup3\n        /* \"#utility.yul\":2188:2206   */\n      add\n        /* \"#utility.yul\":2180:2206   */\n      swap1\n      pop\n        /* \"#utility.yul\":2216:2281   */\n      tag_234\n        /* \"#utility.yul\":2278:2279   */\n      0x00\n        /* \"#utility.yul\":2267:2276   */\n      dup4\n        /* \"#utility.yul\":2263:2280   */\n      add\n        /* \"#utility.yul\":2254:2260   */\n      dup5\n        /* \"#utility.yul\":2216:2281   */\n      tag_163\n      jump\t// in\n    tag_234:\n        /* \"#utility.yul\":2078:2288   */\n      swap3\n      swap2\n      pop\n      pop\n      jump\t// out\n        /* \"#utility.yul\":2294:2412   */\n    tag_164:\n        /* \"#utility.yul\":2381:2405   */\n      tag_236\n        /* \"#utility.yul\":2399:2404   */\n      dup2\n        /* \"#utility.yul\":2381:2405   */\n      tag_155\n      jump\t// in\n    tag_236:\n        /* \"#utility.yul\":2376:2379   */\n      dup3\n        /* \"#utility.yul\":2369:2406   */\n      mstore\n        /* \"#utility.yul\":2294:2412   */\n      pop\n      pop\n      jump\t// out\n        /* \"#utility.yul\":2418:2640   */\n    tag_31:\n        /* \"#utility.yul\":2511:2515   */\n      0x00\n        /* \"#utility.yul\":2549:2551   */\n      0x20\n        /* \"#utility.yul\":2538:2547   */\n      dup3\n        /* \"#utility.yul\":2534:2552   */\n      add\n        /* \"#utility.yul\":2526:2552   */\n      swap1\n      pop\n        /* \"#utility.yul\":2562:2633   */\n      tag_238\n        /* \"#utility.yul\":2630:2631   */\n      0x00\n        /* \"#utility.yul\":2619:2628   */\n      dup4\n        /* \"#utility.yul\":2615:2632   */\n      add\n        /* \"#utility.yul\":2606:2612   */\n      dup5\n        /* \"#utility.yul\":2562:2633   */\n      tag_164\n      jump\t// in\n    tag_238:\n        /* \"#utility.yul\":2418:2640   */\n      swap3\n      swap2\n      pop\n      pop\n      jump\t// out\n        /* \"#utility.yul\":2646:2741   */\n    tag_165:\n        /* \"#utility.yul\":2682:2689   */\n      0x00\n        /* \"#utility.yul\":2722:2734   */\n      0xffffffffff\n        /* \"#utility.yul\":2715:2720   */\n      dup3\n        /* \"#utility.yul\":2711:2735   */\n      and\n        /* \"#utility.yul\":2700:2735   */\n      swap1\n      pop\n        /* \"#utility.yul\":2646:2741   */\n      swap2\n      swap1\n      pop\n      jump\t// out\n        /* \"#utility.yul\":2747:2862   */\n    tag_166:\n        /* \"#utility.yul\":2832:2855   */\n      tag_241\n        /* \"#utility.yul\":2849:2854   */\n      dup2\n        /* \"#utility.yul\":2832:2855   */\n      tag_165\n      jump\t// in\n    tag_241:\n        /* \"#utility.yul\":2827:2830   */\n      dup3\n        /* \"#utility.yul\":2820:2856   */\n      mstore\n        /* \"#utility.yul\":2747:2862   */\n      pop\n      pop\n      jump\t// out\n        /* \"#utility.yul\":2868:2986   */\n    tag_167:\n        /* \"#utility.yul\":2955:2979   */\n      tag_243\n        /* \"#utility.yul\":2973:2978   */\n      dup2\n        /* \"#utility.yul\":2955:2979   */\n      tag_159\n      jump\t// in\n    tag_243:\n        /* \"#utility.yul\":2950:2953   */\n      dup3\n        /* \"#utility.yul\":2943:2980   */\n      mstore\n        /* \"#utility.yul\":2868:2986   */\n      pop\n      pop\n      jump\t// out\n        /* \"#utility.yul\":2992:3648   */\n    tag_36:\n        /* \"#utility.yul\":3193:3197   */\n      0x00\n        /* \"#utility.yul\":3231:3234   */\n      0xa0\n        /* \"#utility.yul\":3220:3229   */\n      dup3\n        /* \"#utility.yul\":3216:3235   */\n      add\n        /* \"#utility.yul\":3208:3235   */\n      swap1\n      pop\n        /* \"#utility.yul\":3245:3314   */\n      tag_245\n        /* \"#utility.yul\":3311:3312   */\n      0x00\n        /* \"#utility.yul\":3300:3309   */\n      dup4\n        /* \"#utility.yul\":3296:3313   */\n      add\n        /* \"#utility.yul\":3287:3293   */\n      dup9\n        /* \"#utility.yul\":3245:3314   */\n      tag_166\n      jump\t// in\n    tag_245:\n        /* \"#utility.yul\":3324:3396   */\n      tag_246\n        /* \"#utility.yul\":3392:3394   */\n      0x20\n        /* \"#utility.yul\":3381:3390   */\n      dup4\n        /* \"#utility.yul\":3377:3395   */\n      add\n        /* \"#utility.yul\":3368:3374   */\n      dup8\n        /* \"#utility.yul\":3324:3396   */\n      tag_164\n      jump\t// in\n    tag_246:\n        /* \"#utility.yul\":3406:3478   */\n      tag_247\n        /* \"#utility.yul\":3474:3476   */\n      0x40\n        /* \"#utility.yul\":3463:3472   */\n      dup4\n        /* \"#utility.yul\":3459:3477   */\n      add\n        /* \"#utility.yul\":3450:3456   */\n      dup7\n        /* \"#utility.yul\":3406:3478   */\n      tag_164\n      jump\t// in\n    tag_247:\n        /* \"#utility.yul\":3488:3558   */\n      tag_248\n        /* \"#utility.yul\":3554:3556   */\n      0x60\n        /* \"#utility.yul\":3543:3552   */\n      dup4\n        /* \"#utility.yul\":3539:3557   */\n      add\n        /* \"#utility.yul\":3530:3536   */\n      dup6\n        /* \"#utility.yul\":3488:3558   */\n      tag_166\n      jump\t// in\n    tag_248:\n        /* \"#utility.yul\":3568:3641   */\n      tag_249\n        /* \"#utility.yul\":3636:3639   */\n      0x80\n        /* \"#utility.yul\":3625:3634   */\n      dup4\n        /* \"#utility.yul\":3621:3640   */\n      add\n        /* \"#utility.yul\":3612:3618   */\n      dup5\n        /* \"#utility.yul\":3568:3641   */\n      tag_167\n      jump\t// in\n    tag_249:\n        /* \"#utility.yul\":2992:3648   */\n      swap7\n      swap6\n      pop\n      pop\n      pop\n      pop\n      pop\n      pop\n      jump\t// out\n        /* \"#utility.yul\":3654:3876   */\n    tag_41:\n        /* \"#utility.yul\":3747:3751   */\n      0x00\n        /* \"#utility.yul\":3785:3787   */\n      0x20\n        /* \"#utility.yul\":3774:3783   */\n      dup3\n        /* \"#utility.yul\":3770:3788   */\n      add\n        /* \"#utility.yul\":3762:3788   */\n      swap1\n      pop\n        /* \"#utility.yul\":3798:3869   */\n      tag_251\n        /* \"#utility.yul\":3866:3867   */\n      0x00\n        /* \"#utility.yul\":3855:3864   */\n      dup4\n        /* \"#utility.yul\":3851:3868   */\n      add\n        /* \"#utility.yul\":3842:3848   */\n      dup5\n        /* \"#utility.yul\":3798:3869   */\n      tag_167\n      jump\t// in\n    tag_251:\n        /* \"#utility.yul\":3654:3876   */\n      swap3\n      swap2\n      pop\n      pop\n      jump\t// out\n        /* \"#utility.yul\":3882:3981   */\n    tag_168:\n        /* \"#utility.yul\":3934:3940   */\n      0x00\n        /* \"#utility.yul\":3968:3973   */\n      dup2\n        /* \"#utility.yul\":3962:3974   */\n      mload\n        /* \"#utility.yul\":3952:3974   */\n      swap1\n      pop\n        /* \"#utility.yul\":3882:3981   */\n      swap2\n      swap1\n      pop\n      jump\t// out\n        /* \"#utility.yul\":3987:4156   */\n    tag_169:\n        /* \"#utility.yul\":4071:4082   */\n      0x00\n        /* \"#utility.yul\":4105:4111   */\n      dup3\n        /* \"#utility.yul\":4100:4103   */\n      dup3\n        /* \"#utility.yul\":4093:4112   */\n      mstore\n        /* \"#utility.yul\":4145:4149   */\n      0x20\n        /* \"#utility.yul\":4140:4143   */\n      dup3\n        /* \"#utility.yul\":4136:4150   */\n      add\n        /* \"#utility.yul\":4121:4150   */\n      swap1\n      pop\n        /* \"#utility.yul\":3987:4156   */\n      swap3\n      swap2\n      pop\n      pop\n      jump\t// out\n        /* \"#utility.yul\":4162:4469   */\n    tag_170:\n        /* \"#utility.yul\":4230:4231   */\n      0x00\n        /* \"#utility.yul\":4240:4353   */\n    tag_255:\n        /* \"#utility.yul\":4254:4260   */\n      dup4\n        /* \"#utility.yul\":4251:4252   */\n      dup2\n        /* \"#utility.yul\":4248:4261   */\n      lt\n        /* \"#utility.yul\":4240:4353   */\n      iszero\n      tag_257\n      jumpi\n        /* \"#utility.yul\":4339:4340   */\n      dup1\n        /* \"#utility.yul\":4334:4337   */\n      dup3\n        /* \"#utility.yul\":4330:4341   */\n      add\n        /* \"#utility.yul\":4324:4342   */\n      mload\n        /* \"#utility.yul\":4320:4321   */\n      dup2\n        /* \"#utility.yul\":4315:4318   */\n      dup5\n        /* \"#utility.yul\":4311:4322   */\n      add\n        /* \"#utility.yul\":4304:4343   */\n      mstore\n        /* \"#utility.yul\":4276:4278   */\n      0x20\n        /* \"#utility.yul\":4273:4274   */\n      dup2\n        /* \"#utility.yul\":4269:4279   */\n      add\n        /* \"#utility.yul\":4264:4279   */\n      swap1\n      pop\n        /* \"#utility.yul\":4240:4353   */\n      jump(tag_255)\n    tag_257:\n        /* \"#utility.yul\":4371:4377   */\n      dup4\n        /* \"#utility.yul\":4368:4369   */\n      dup2\n        /* \"#utility.yul\":4365:4378   */\n      gt\n        /* \"#utility.yul\":4362:4463   */\n      iszero\n      tag_258\n      jumpi\n        /* \"#utility.yul\":4451:4452   */\n      0x00\n        /* \"#utility.yul\":4442:4448   */\n      dup5\n        /* \"#utility.yul\":4437:4440   */\n      dup5\n        /* \"#utility.yul\":4433:4449   */\n      add\n        /* \"#utility.yul\":4426:4453   */\n      mstore\n        /* \"#utility.yul\":4362:4463   */\n    tag_258:\n        /* \"#utility.yul\":4211:4469   */\n      pop\n        /* \"#utility.yul\":4162:4469   */\n      pop\n      pop\n      pop\n      jump\t// out\n        /* \"#utility.yul\":4475:4577   */\n    tag_171:\n        /* \"#utility.yul\":4516:4522   */\n      0x00\n        /* \"#utility.yul\":4567:4569   */\n      0x1f\n        /* \"#utility.yul\":4563:4570   */\n      not\n        /* \"#utility.yul\":4558:4560   */\n      0x1f\n        /* \"#utility.yul\":4551:4556   */\n      dup4\n        /* \"#utility.yul\":4547:4561   */\n      add\n        /* \"#utility.yul\":4543:4571   */\n      and\n        /* \"#utility.yul\":4533:4571   */\n      swap1\n      pop\n        /* \"#utility.yul\":4475:4577   */\n      swap2\n      swap1\n      pop\n      jump\t// out\n        /* \"#utility.yul\":4583:4947   */\n    tag_172:\n        /* \"#utility.yul\":4671:4674   */\n      0x00\n        /* \"#utility.yul\":4699:4738   */\n      tag_261\n        /* \"#utility.yul\":4732:4737   */\n      dup3\n        /* \"#utility.yul\":4699:4738   */\n      tag_168\n      jump\t// in\n    tag_261:\n        /* \"#utility.yul\":4754:4825   */\n      tag_262\n        /* \"#utility.yul\":4818:4824   */\n      dup2\n        /* \"#utility.yul\":4813:4816   */\n      dup6\n        /* \"#utility.yul\":4754:4825   */\n      tag_169\n      jump\t// in\n    tag_262:\n        /* \"#utility.yul\":4747:4825   */\n      swap4\n      pop\n        /* \"#utility.yul\":4834:4886   */\n      tag_263\n        /* \"#utility.yul\":4879:4885   */\n      dup2\n        /* \"#utility.yul\":4874:4877   */\n      dup6\n        /* \"#utility.yul\":4867:4871   */\n      0x20\n        /* \"#utility.yul\":4860:4865   */\n      dup7\n        /* \"#utility.yul\":4856:4872   */\n      add\n        /* \"#utility.yul\":4834:4886   */\n      tag_170\n      jump\t// in\n    tag_263:\n        /* \"#utility.yul\":4911:4940   */\n      tag_264\n        /* \"#utility.yul\":4933:4939   */\n      dup2\n        /* \"#utility.yul\":4911:4940   */\n      tag_171\n      jump\t// in\n    tag_264:\n        /* \"#utility.yul\":4906:4909   */\n      dup5\n        /* \"#utility.yul\":4902:4941   */\n      add\n        /* \"#utility.yul\":4895:4941   */\n      swap2\n      pop\n        /* \"#utility.yul\":4675:4947   */\n      pop\n        /* \"#utility.yul\":4583:4947   */\n      swap3\n      swap2\n      pop\n      pop\n      jump\t// out\n        /* \"#utility.yul\":4953:5050   */\n    tag_173:\n        /* \"#utility.yul\":4989:4996   */\n      0x00\n        /* \"#utility.yul\":5029:5043   */\n      0xffffffffffff\n        /* \"#utility.yul\":5022:5027   */\n      dup3\n        /* \"#utility.yul\":5018:5044   */\n      and\n        /* \"#utility.yul\":5007:5044   */\n      swap1\n      pop\n        /* \"#utility.yul\":4953:5050   */\n      swap2\n      swap1\n      pop\n      jump\t// out\n        /* \"#utility.yul\":5056:5171   */\n    tag_174:\n        /* \"#utility.yul\":5141:5164   */\n      tag_267\n        /* \"#utility.yul\":5158:5163   */\n      dup2\n        /* \"#utility.yul\":5141:5164   */\n      tag_173\n      jump\t// in\n    tag_267:\n        /* \"#utility.yul\":5136:5139   */\n      dup3\n        /* \"#utility.yul\":5129:5165   */\n      mstore\n        /* \"#utility.yul\":5056:5171   */\n      pop\n      pop\n      jump\t// out\n        /* \"#utility.yul\":5177:5281   */\n    tag_175:\n        /* \"#utility.yul\":5222:5229   */\n      0x00\n        /* \"#utility.yul\":5251:5275   */\n      tag_269\n        /* \"#utility.yul\":5269:5274   */\n      dup3\n        /* \"#utility.yul\":5251:5275   */\n      tag_158\n      jump\t// in\n    tag_269:\n        /* \"#utility.yul\":5240:5275   */\n      swap1\n      pop\n        /* \"#utility.yul\":5177:5281   */\n      swap2\n      swap1\n      pop\n      jump\t// out\n        /* \"#utility.yul\":5287:5429   */\n    tag_176:\n        /* \"#utility.yul\":5390:5422   */\n      tag_271\n        /* \"#utility.yul\":5416:5421   */\n      dup2\n        /* \"#utility.yul\":5390:5422   */\n      tag_175\n      jump\t// in\n    tag_271:\n        /* \"#utility.yul\":5385:5388   */\n      dup3\n        /* \"#utility.yul\":5378:5423   */\n      mstore\n        /* \"#utility.yul\":5287:5429   */\n      pop\n      pop\n      jump\t// out\n        /* \"#utility.yul\":5435:6202   */\n    tag_47:\n        /* \"#utility.yul\":5666:5670   */\n      0x00\n        /* \"#utility.yul\":5704:5707   */\n      0xa0\n        /* \"#utility.yul\":5693:5702   */\n      dup3\n        /* \"#utility.yul\":5689:5708   */\n      add\n        /* \"#utility.yul\":5681:5708   */\n      swap1\n      pop\n        /* \"#utility.yul\":5754:5763   */\n      dup2\n        /* \"#utility.yul\":5748:5752   */\n      dup2\n        /* \"#utility.yul\":5744:5764   */\n      sub\n        /* \"#utility.yul\":5740:5741   */\n      0x00\n        /* \"#utility.yul\":5729:5738   */\n      dup4\n        /* \"#utility.yul\":5725:5742   */\n      add\n        /* \"#utility.yul\":5718:5765   */\n      mstore\n        /* \"#utility.yul\":5782:5860   */\n      tag_273\n        /* \"#utility.yul\":5855:5859   */\n      dup2\n        /* \"#utility.yul\":5846:5852   */\n      dup9\n        /* \"#utility.yul\":5782:5860   */\n      tag_172\n      jump\t// in\n    tag_273:\n        /* \"#utility.yul\":5774:5860   */\n      swap1\n      pop\n        /* \"#utility.yul\":5870:5940   */\n      tag_274\n        /* \"#utility.yul\":5936:5938   */\n      0x20\n        /* \"#utility.yul\":5925:5934   */\n      dup4\n        /* \"#utility.yul\":5921:5939   */\n      add\n        /* \"#utility.yul\":5912:5918   */\n      dup8\n        /* \"#utility.yul\":5870:5940   */\n      tag_174\n      jump\t// in\n    tag_274:\n        /* \"#utility.yul\":5950:6020   */\n      tag_275\n        /* \"#utility.yul\":6016:6018   */\n      0x40\n        /* \"#utility.yul\":6005:6014   */\n      dup4\n        /* \"#utility.yul\":6001:6019   */\n      add\n        /* \"#utility.yul\":5992:5998   */\n      dup7\n        /* \"#utility.yul\":5950:6020   */\n      tag_174\n      jump\t// in\n    tag_275:\n        /* \"#utility.yul\":6030:6118   */\n      tag_276\n        /* \"#utility.yul\":6114:6116   */\n      0x60\n        /* \"#utility.yul\":6103:6112   */\n      dup4\n        /* \"#utility.yul\":6099:6117   */\n      add\n        /* \"#utility.yul\":6090:6096   */\n      dup6\n        /* \"#utility.yul\":6030:6118   */\n      tag_176\n      jump\t// in\n    tag_276:\n        /* \"#utility.yul\":6128:6195   */\n      tag_277\n        /* \"#utility.yul\":6190:6193   */\n      0x80\n        /* \"#utility.yul\":6179:6188   */\n      dup4\n        /* \"#utility.yul\":6175:6194   */\n      add\n        /* \"#utility.yul\":6166:6172   */\n      dup5\n        /* \"#utility.yul\":6128:6195   */\n      tag_163\n      jump\t// in\n    tag_277:\n        /* \"#utility.yul\":5435:6202   */\n      swap7\n      swap6\n      pop\n      pop\n      pop\n      pop\n      pop\n      pop\n      jump\t// out\n        /* \"#utility.yul\":6208:6426   */\n    tag_52:\n        /* \"#utility.yul\":6299:6303   */\n      0x00\n        /* \"#utility.yul\":6337:6339   */\n      0x20\n        /* \"#utility.yul\":6326:6335   */\n      dup3\n        /* \"#utility.yul\":6322:6340   */\n      add\n        /* \"#utility.yul\":6314:6340   */\n      swap1\n      pop\n        /* \"#utility.yul\":6350:6419   */\n      tag_279\n        /* \"#utility.yul\":6416:6417   */\n      0x00\n        /* \"#utility.yul\":6405:6414   */\n      dup4\n        /* \"#utility.yul\":6401:6418   */\n      add\n        /* \"#utility.yul\":6392:6398   */\n      dup5\n        /* \"#utility.yul\":6350:6419   */\n      tag_166\n      jump\t// in\n    tag_279:\n        /* \"#utility.yul\":6208:6426   */\n      swap3\n      swap2\n      pop\n      pop\n      jump\t// out\n        /* \"#utility.yul\":6432:6549   */\n    tag_177:\n        /* \"#utility.yul\":6541:6542   */\n      0x00\n        /* \"#utility.yul\":6538:6539   */\n      dup1\n        /* \"#utility.yul\":6531:6543   */\n      revert\n        /* \"#utility.yul\":6555:6672   */\n    tag_178:\n        /* \"#utility.yul\":6664:6665   */\n      0x00\n        /* \"#utility.yul\":6661:6662   */\n      dup1\n        /* \"#utility.yul\":6654:6666   */\n      revert\n        /* \"#utility.yul\":6678:6795   */\n    tag_179:\n        /* \"#utility.yul\":6787:6788   */\n      0x00\n        /* \"#utility.yul\":6784:6785   */\n      dup1\n        /* \"#utility.yul\":6777:6789   */\n      revert\n        /* \"#utility.yul\":6815:7368   */\n    tag_180:\n        /* \"#utility.yul\":6873:6881   */\n      0x00\n        /* \"#utility.yul\":6883:6889   */\n      dup1\n        /* \"#utility.yul\":6933:6936   */\n      dup4\n        /* \"#utility.yul\":6926:6930   */\n      0x1f\n        /* \"#utility.yul\":6918:6924   */\n      dup5\n        /* \"#utility.yul\":6914:6931   */\n      add\n        /* \"#utility.yul\":6910:6937   */\n      slt\n        /* \"#utility.yul\":6900:7022   */\n      tag_284\n      jumpi\n        /* \"#utility.yul\":6941:7020   */\n      tag_285\n      tag_177\n      jump\t// in\n    tag_285:\n        /* \"#utility.yul\":6900:7022   */\n    tag_284:\n        /* \"#utility.yul\":7054:7060   */\n      dup3\n        /* \"#utility.yul\":7041:7061   */\n      calldataload\n        /* \"#utility.yul\":7031:7061   */\n      swap1\n      pop\n        /* \"#utility.yul\":7084:7102   */\n      0xffffffffffffffff\n        /* \"#utility.yul\":7076:7082   */\n      dup2\n        /* \"#utility.yul\":7073:7103   */\n      gt\n        /* \"#utility.yul\":7070:7187   */\n      iszero\n      tag_286\n      jumpi\n        /* \"#utility.yul\":7106:7185   */\n      tag_287\n      tag_178\n      jump\t// in\n    tag_287:\n        /* \"#utility.yul\":7070:7187   */\n    tag_286:\n        /* \"#utility.yul\":7220:7224   */\n      0x20\n        /* \"#utility.yul\":7212:7218   */\n      dup4\n        /* \"#utility.yul\":7208:7225   */\n      add\n        /* \"#utility.yul\":7196:7225   */\n      swap2\n      pop\n        /* \"#utility.yul\":7274:7277   */\n      dup4\n        /* \"#utility.yul\":7266:7270   */\n      0x01\n        /* \"#utility.yul\":7258:7264   */\n      dup3\n        /* \"#utility.yul\":7254:7271   */\n      mul\n        /* \"#utility.yul\":7244:7252   */\n      dup4\n        /* \"#utility.yul\":7240:7272   */\n      add\n        /* \"#utility.yul\":7237:7278   */\n      gt\n        /* \"#utility.yul\":7234:7362   */\n      iszero\n      tag_288\n      jumpi\n        /* \"#utility.yul\":7281:7360   */\n      tag_289\n      tag_179\n      jump\t// in\n    tag_289:\n        /* \"#utility.yul\":7234:7362   */\n    tag_288:\n        /* \"#utility.yul\":6815:7368   */\n      swap3\n      pop\n      swap3\n      swap1\n      pop\n      jump\t// out\n        /* \"#utility.yul\":7374:7494   */\n    tag_181:\n        /* \"#utility.yul\":7446:7469   */\n      tag_291\n        /* \"#utility.yul\":7463:7468   */\n      dup2\n        /* \"#utility.yul\":7446:7469   */\n      tag_173\n      jump\t// in\n    tag_291:\n        /* \"#utility.yul\":7439:7444   */\n      dup2\n        /* \"#utility.yul\":7436:7470   */\n      eq\n        /* \"#utility.yul\":7426:7488   */\n      tag_292\n      jumpi\n        /* \"#utility.yul\":7484:7485   */\n      0x00\n        /* \"#utility.yul\":7481:7482   */\n      dup1\n        /* \"#utility.yul\":7474:7486   */\n      revert\n        /* \"#utility.yul\":7426:7488   */\n    tag_292:\n        /* \"#utility.yul\":7374:7494   */\n      pop\n      jump\t// out\n        /* \"#utility.yul\":7500:7637   */\n    tag_182:\n        /* \"#utility.yul\":7545:7550   */\n      0x00\n        /* \"#utility.yul\":7583:7589   */\n      dup2\n        /* \"#utility.yul\":7570:7590   */\n      calldataload\n        /* \"#utility.yul\":7561:7590   */\n      swap1\n      pop\n        /* \"#utility.yul\":7599:7631   */\n      tag_294\n        /* \"#utility.yul\":7625:7630   */\n      dup2\n        /* \"#utility.yul\":7599:7631   */\n      tag_181\n      jump\t// in\n    tag_294:\n        /* \"#utility.yul\":7500:7637   */\n      swap3\n      swap2\n      pop\n      pop\n      jump\t// out\n        /* \"#utility.yul\":7643:7781   */\n    tag_183:\n        /* \"#utility.yul\":7724:7756   */\n      tag_296\n        /* \"#utility.yul\":7750:7755   */\n      dup2\n        /* \"#utility.yul\":7724:7756   */\n      tag_175\n      jump\t// in\n    tag_296:\n        /* \"#utility.yul\":7717:7722   */\n      dup2\n        /* \"#utility.yul\":7714:7757   */\n      eq\n        /* \"#utility.yul\":7704:7775   */\n      tag_297\n      jumpi\n        /* \"#utility.yul\":7771:7772   */\n      0x00\n        /* \"#utility.yul\":7768:7769   */\n      dup1\n        /* \"#utility.yul\":7761:7773   */\n      revert\n        /* \"#utility.yul\":7704:7775   */\n    tag_297:\n        /* \"#utility.yul\":7643:7781   */\n      pop\n      jump\t// out\n        /* \"#utility.yul\":7787:7942   */\n    tag_184:\n        /* \"#utility.yul\":7841:7846   */\n      0x00\n        /* \"#utility.yul\":7879:7885   */\n      dup2\n        /* \"#utility.yul\":7866:7886   */\n      calldataload\n        /* \"#utility.yul\":7857:7886   */\n      swap1\n      pop\n        /* \"#utility.yul\":7895:7936   */\n      tag_299\n        /* \"#utility.yul\":7930:7935   */\n      dup2\n        /* \"#utility.yul\":7895:7936   */\n      tag_183\n      jump\t// in\n    tag_299:\n        /* \"#utility.yul\":7787:7942   */\n      swap3\n      swap2\n      pop\n      pop\n      jump\t// out\n        /* \"#utility.yul\":7948:8781   */\n    tag_60:\n        /* \"#utility.yul\":8044:8050   */\n      0x00\n        /* \"#utility.yul\":8052:8058   */\n      dup1\n        /* \"#utility.yul\":8060:8066   */\n      0x00\n        /* \"#utility.yul\":8068:8074   */\n      dup1\n        /* \"#utility.yul\":8117:8119   */\n      0x60\n        /* \"#utility.yul\":8105:8114   */\n      dup6\n        /* \"#utility.yul\":8096:8103   */\n      dup8\n        /* \"#utility.yul\":8092:8115   */\n      sub\n        /* \"#utility.yul\":8088:8120   */\n      slt\n        /* \"#utility.yul\":8085:8204   */\n      iszero\n      tag_301\n      jumpi\n        /* \"#utility.yul\":8123:8202   */\n      tag_302\n      tag_153\n      jump\t// in\n    tag_302:\n        /* \"#utility.yul\":8085:8204   */\n    tag_301:\n        /* \"#utility.yul\":8271:8272   */\n      0x00\n        /* \"#utility.yul\":8260:8269   */\n      dup6\n        /* \"#utility.yul\":8256:8273   */\n      add\n        /* \"#utility.yul\":8243:8274   */\n      calldataload\n        /* \"#utility.yul\":8301:8319   */\n      0xffffffffffffffff\n        /* \"#utility.yul\":8293:8299   */\n      dup2\n        /* \"#utility.yul\":8290:8320   */\n      gt\n        /* \"#utility.yul\":8287:8404   */\n      iszero\n      tag_303\n      jumpi\n        /* \"#utility.yul\":8323:8402   */\n      tag_304\n      tag_154\n      jump\t// in\n    tag_304:\n        /* \"#utility.yul\":8287:8404   */\n    tag_303:\n        /* \"#utility.yul\":8436:8501   */\n      tag_305\n        /* \"#utility.yul\":8493:8500   */\n      dup8\n        /* \"#utility.yul\":8484:8490   */\n      dup3\n        /* \"#utility.yul\":8473:8482   */\n      dup9\n        /* \"#utility.yul\":8469:8491   */\n      add\n        /* \"#utility.yul\":8436:8501   */\n      tag_180\n      jump\t// in\n    tag_305:\n        /* \"#utility.yul\":8418:8501   */\n      swap5\n      pop\n      swap5\n      pop\n        /* \"#utility.yul\":8214:8511   */\n      pop\n        /* \"#utility.yul\":8550:8552   */\n      0x20\n        /* \"#utility.yul\":8576:8628   */\n      tag_306\n        /* \"#utility.yul\":8620:8627   */\n      dup8\n        /* \"#utility.yul\":8611:8617   */\n      dup3\n        /* \"#utility.yul\":8600:8609   */\n      dup9\n        /* \"#utility.yul\":8596:8618   */\n      add\n        /* \"#utility.yul\":8576:8628   */\n      tag_182\n      jump\t// in\n    tag_306:\n        /* \"#utility.yul\":8566:8628   */\n      swap3\n      pop\n        /* \"#utility.yul\":8521:8638   */\n      pop\n        /* \"#utility.yul\":8677:8679   */\n      0x40\n        /* \"#utility.yul\":8703:8764   */\n      tag_307\n        /* \"#utility.yul\":8756:8763   */\n      dup8\n        /* \"#utility.yul\":8747:8753   */\n      dup3\n        /* \"#utility.yul\":8736:8745   */\n      dup9\n        /* \"#utility.yul\":8732:8754   */\n      add\n        /* \"#utility.yul\":8703:8764   */\n      tag_184\n      jump\t// in\n    tag_307:\n        /* \"#utility.yul\":8693:8764   */\n      swap2\n      pop\n        /* \"#utility.yul\":8648:8774   */\n      pop\n        /* \"#utility.yul\":7948:8781   */\n      swap3\n      swap6\n      swap2\n      swap5\n      pop\n      swap3\n      pop\n      jump\t// out\n        /* \"#utility.yul\":8787:8907   */\n    tag_185:\n        /* \"#utility.yul\":8859:8882   */\n      tag_309\n        /* \"#utility.yul\":8876:8881   */\n      dup2\n        /* \"#utility.yul\":8859:8882   */\n      tag_165\n      jump\t// in\n    tag_309:\n        /* \"#utility.yul\":8852:8857   */\n      dup2\n        /* \"#utility.yul\":8849:8883   */\n      eq\n        /* \"#utility.yul\":8839:8901   */\n      tag_310\n      jumpi\n        /* \"#utility.yul\":8897:8898   */\n      0x00\n        /* \"#utility.yul\":8894:8895   */\n      dup1\n        /* \"#utility.yul\":8887:8899   */\n      revert\n        /* \"#utility.yul\":8839:8901   */\n    tag_310:\n        /* \"#utility.yul\":8787:8907   */\n      pop\n      jump\t// out\n        /* \"#utility.yul\":8913:9050   */\n    tag_186:\n        /* \"#utility.yul\":8958:8963   */\n      0x00\n        /* \"#utility.yul\":8996:9002   */\n      dup2\n        /* \"#utility.yul\":8983:9003   */\n      calldataload\n        /* \"#utility.yul\":8974:9003   */\n      swap1\n      pop\n        /* \"#utility.yul\":9012:9044   */\n      tag_312\n        /* \"#utility.yul\":9038:9043   */\n      dup2\n        /* \"#utility.yul\":9012:9044   */\n      tag_185\n      jump\t// in\n    tag_312:\n        /* \"#utility.yul\":8913:9050   */\n      swap3\n      swap2\n      pop\n      pop\n      jump\t// out\n        /* \"#utility.yul\":9056:9528   */\n    tag_65:\n        /* \"#utility.yul\":9123:9129   */\n      0x00\n        /* \"#utility.yul\":9131:9137   */\n      dup1\n        /* \"#utility.yul\":9180:9182   */\n      0x40\n        /* \"#utility.yul\":9168:9177   */\n      dup4\n        /* \"#utility.yul\":9159:9166   */\n      dup6\n        /* \"#utility.yul\":9155:9178   */\n      sub\n        /* \"#utility.yul\":9151:9183   */\n      slt\n        /* \"#utility.yul\":9148:9267   */\n      iszero\n      tag_314\n      jumpi\n        /* \"#utility.yul\":9186:9265   */\n      tag_315\n      tag_153\n      jump\t// in\n    tag_315:\n        /* \"#utility.yul\":9148:9267   */\n    tag_314:\n        /* \"#utility.yul\":9306:9307   */\n      0x00\n        /* \"#utility.yul\":9331:9383   */\n      tag_316\n        /* \"#utility.yul\":9375:9382   */\n      dup6\n        /* \"#utility.yul\":9366:9372   */\n      dup3\n        /* \"#utility.yul\":9355:9364   */\n      dup7\n        /* \"#utility.yul\":9351:9373   */\n      add\n        /* \"#utility.yul\":9331:9383   */\n      tag_186\n      jump\t// in\n    tag_316:\n        /* \"#utility.yul\":9321:9383   */\n      swap3\n      pop\n        /* \"#utility.yul\":9277:9393   */\n      pop\n        /* \"#utility.yul\":9432:9434   */\n      0x20\n        /* \"#utility.yul\":9458:9511   */\n      tag_317\n        /* \"#utility.yul\":9503:9510   */\n      dup6\n        /* \"#utility.yul\":9494:9500   */\n      dup3\n        /* \"#utility.yul\":9483:9492   */\n      dup7\n        /* \"#utility.yul\":9479:9501   */\n      add\n        /* \"#utility.yul\":9458:9511   */\n      tag_161\n      jump\t// in\n    tag_317:\n        /* \"#utility.yul\":9448:9511   */\n      swap2\n      pop\n        /* \"#utility.yul\":9403:9521   */\n      pop\n        /* \"#utility.yul\":9056:9528   */\n      swap3\n      pop\n      swap3\n      swap1\n      pop\n      jump\t// out\n        /* \"#utility.yul\":9534:9762   */\n    tag_187:\n        /* \"#utility.yul\":9674:9708   */\n      0x4f6e6c7920746865206d616e616765722063616e20706572666f726d20746869\n        /* \"#utility.yul\":9670:9671   */\n      0x00\n        /* \"#utility.yul\":9662:9668   */\n      dup3\n        /* \"#utility.yul\":9658:9672   */\n      add\n        /* \"#utility.yul\":9651:9709   */\n      mstore\n        /* \"#utility.yul\":9743:9754   */\n      0x7320616374696f6e2e0000000000000000000000000000000000000000000000\n        /* \"#utility.yul\":9738:9740   */\n      0x20\n        /* \"#utility.yul\":9730:9736   */\n      dup3\n        /* \"#utility.yul\":9726:9741   */\n      add\n        /* \"#utility.yul\":9719:9755   */\n      mstore\n        /* \"#utility.yul\":9534:9762   */\n      pop\n      jump\t// out\n        /* \"#utility.yul\":9768:10134   */\n    tag_188:\n        /* \"#utility.yul\":9910:9913   */\n      0x00\n        /* \"#utility.yul\":9931:9998   */\n      tag_320\n        /* \"#utility.yul\":9995:9997   */\n      0x29\n        /* \"#utility.yul\":9990:9993   */\n      dup4\n        /* \"#utility.yul\":9931:9998   */\n      tag_169\n      jump\t// in\n    tag_320:\n        /* \"#utility.yul\":9924:9998   */\n      swap2\n      pop\n        /* \"#utility.yul\":10007:10100   */\n      tag_321\n        /* \"#utility.yul\":10096:10099   */\n      dup3\n        /* \"#utility.yul\":10007:10100   */\n      tag_187\n      jump\t// in\n    tag_321:\n        /* \"#utility.yul\":10125:10127   */\n      0x40\n        /* \"#utility.yul\":10120:10123   */\n      dup3\n        /* \"#utility.yul\":10116:10128   */\n      add\n        /* \"#utility.yul\":10109:10128   */\n      swap1\n      pop\n        /* \"#utility.yul\":9768:10134   */\n      swap2\n      swap1\n      pop\n      jump\t// out\n        /* \"#utility.yul\":10140:10559   */\n    tag_76:\n        /* \"#utility.yul\":10306:10310   */\n      0x00\n        /* \"#utility.yul\":10344:10346   */\n      0x20\n        /* \"#utility.yul\":10333:10342   */\n      dup3\n        /* \"#utility.yul\":10329:10347   */\n      add\n        /* \"#utility.yul\":10321:10347   */\n      swap1\n      pop\n        /* \"#utility.yul\":10393:10402   */\n      dup2\n        /* \"#utility.yul\":10387:10391   */\n      dup2\n        /* \"#utility.yul\":10383:10403   */\n      sub\n        /* \"#utility.yul\":10379:10380   */\n      0x00\n        /* \"#utility.yul\":10368:10377   */\n      dup4\n        /* \"#utility.yul\":10364:10381   */\n      add\n        /* \"#utility.yul\":10357:10404   */\n      mstore\n        /* \"#utility.yul\":10421:10552   */\n      tag_323\n        /* \"#utility.yul\":10547:10551   */\n      dup2\n        /* \"#utility.yul\":10421:10552   */\n      tag_188\n      jump\t// in\n    tag_323:\n        /* \"#utility.yul\":10413:10552   */\n      swap1\n      pop\n        /* \"#utility.yul\":10140:10559   */\n      swap2\n      swap1\n      pop\n      jump\t// out\n        /* \"#utility.yul\":10565:10745   */\n    tag_80:\n        /* \"#utility.yul\":10613:10690   */\n      0x4e487b7100000000000000000000000000000000000000000000000000000000\n        /* \"#utility.yul\":10610:10611   */\n      0x00\n        /* \"#utility.yul\":10603:10691   */\n      mstore\n        /* \"#utility.yul\":10710:10714   */\n      0x32\n        /* \"#utility.yul\":10707:10708   */\n      0x04\n        /* \"#utility.yul\":10700:10715   */\n      mstore\n        /* \"#utility.yul\":10734:10738   */\n      0x24\n        /* \"#utility.yul\":10731:10732   */\n      0x00\n        /* \"#utility.yul\":10724:10739   */\n      revert\n        /* \"#utility.yul\":10751:10927   */\n    tag_189:\n        /* \"#utility.yul\":10891:10919   */\n      0x5265717565737420616c72656164792066696e616c697a65642e000000000000\n        /* \"#utility.yul\":10887:10888   */\n      0x00\n        /* \"#utility.yul\":10879:10885   */\n      dup3\n        /* \"#utility.yul\":10875:10889   */\n      add\n        /* \"#utility.yul\":10868:10920   */\n      mstore\n        /* \"#utility.yul\":10751:10927   */\n      pop\n      jump\t// out\n        /* \"#utility.yul\":10933:11299   */\n    tag_190:\n        /* \"#utility.yul\":11075:11078   */\n      0x00\n        /* \"#utility.yul\":11096:11163   */\n      tag_327\n        /* \"#utility.yul\":11160:11162   */\n      0x1a\n        /* \"#utility.yul\":11155:11158   */\n      dup4\n        /* \"#utility.yul\":11096:11163   */\n      tag_169\n      jump\t// in\n    tag_327:\n        /* \"#utility.yul\":11089:11163   */\n      swap2\n      pop\n        /* \"#utility.yul\":11172:11265   */\n      tag_328\n        /* \"#utility.yul\":11261:11264   */\n      dup3\n        /* \"#utility.yul\":11172:11265   */\n      tag_189\n      jump\t// in\n    tag_328:\n        /* \"#utility.yul\":11290:11292   */\n      0x20\n        /* \"#utility.yul\":11285:11288   */\n      dup3\n        /* \"#utility.yul\":11281:11293   */\n      add\n        /* \"#utility.yul\":11274:11293   */\n      swap1\n      pop\n        /* \"#utility.yul\":10933:11299   */\n      swap2\n      swap1\n      pop\n      jump\t// out\n        /* \"#utility.yul\":11305:11724   */\n    tag_84:\n        /* \"#utility.yul\":11471:11475   */\n      0x00\n        /* \"#utility.yul\":11509:11511   */\n      0x20\n        /* \"#utility.yul\":11498:11507   */\n      dup3\n        /* \"#utility.yul\":11494:11512   */\n      add\n        /* \"#utility.yul\":11486:11512   */\n      swap1\n      pop\n        /* \"#utility.yul\":11558:11567   */\n      dup2\n        /* \"#utility.yul\":11552:11556   */\n      dup2\n        /* \"#utility.yul\":11548:11568   */\n      sub\n        /* \"#utility.yul\":11544:11545   */\n      0x00\n        /* \"#utility.yul\":11533:11542   */\n      dup4\n        /* \"#utility.yul\":11529:11546   */\n      add\n        /* \"#utility.yul\":11522:11569   */\n      mstore\n        /* \"#utility.yul\":11586:11717   */\n      tag_330\n        /* \"#utility.yul\":11712:11716   */\n      dup2\n        /* \"#utility.yul\":11586:11717   */\n      tag_190\n      jump\t// in\n    tag_330:\n        /* \"#utility.yul\":11578:11717   */\n      swap1\n      pop\n        /* \"#utility.yul\":11305:11724   */\n      swap2\n      swap1\n      pop\n      jump\t// out\n        /* \"#utility.yul\":11730:11910   */\n    tag_191:\n        /* \"#utility.yul\":11778:11855   */\n      0x4e487b7100000000000000000000000000000000000000000000000000000000\n        /* \"#utility.yul\":11775:11776   */\n      0x00\n        /* \"#utility.yul\":11768:11856   */\n      mstore\n        /* \"#utility.yul\":11875:11879   */\n      0x12\n        /* \"#utility.yul\":11872:11873   */\n      0x04\n        /* \"#utility.yul\":11865:11880   */\n      mstore\n        /* \"#utility.yul\":11899:11903   */\n      0x24\n        /* \"#utility.yul\":11896:11897   */\n      0x00\n        /* \"#utility.yul\":11889:11904   */\n      revert\n        /* \"#utility.yul\":11916:12096   */\n    tag_192:\n        /* \"#utility.yul\":11964:12041   */\n      0x4e487b7100000000000000000000000000000000000000000000000000000000\n        /* \"#utility.yul\":11961:11962   */\n      0x00\n        /* \"#utility.yul\":11954:12042   */\n      mstore\n        /* \"#utility.yul\":12061:12065   */\n      0x11\n        /* \"#utility.yul\":12058:12059   */\n      0x04\n        /* \"#utility.yul\":12051:12066   */\n      mstore\n        /* \"#utility.yul\":12085:12089   */\n      0x24\n        /* \"#utility.yul\":12082:12083   */\n      0x00\n        /* \"#utility.yul\":12075:12090   */\n      revert\n        /* \"#utility.yul\":12102:12284   */\n    tag_86:\n        /* \"#utility.yul\":12141:12142   */\n      0x00\n        /* \"#utility.yul\":12158:12177   */\n      tag_334\n        /* \"#utility.yul\":12175:12176   */\n      dup3\n        /* \"#utility.yul\":12158:12177   */\n      tag_165\n      jump\t// in\n    tag_334:\n        /* \"#utility.yul\":12153:12177   */\n      swap2\n      pop\n        /* \"#utility.yul\":12191:12210   */\n      tag_335\n        /* \"#utility.yul\":12208:12209   */\n      dup4\n        /* \"#utility.yul\":12191:12210   */\n      tag_165\n      jump\t// in\n    tag_335:\n        /* \"#utility.yul\":12186:12210   */\n      swap3\n      pop\n        /* \"#utility.yul\":12229:12230   */\n      dup3\n        /* \"#utility.yul\":12219:12254   */\n      tag_336\n      jumpi\n        /* \"#utility.yul\":12234:12252   */\n      tag_337\n      tag_191\n      jump\t// in\n    tag_337:\n        /* \"#utility.yul\":12219:12254   */\n    tag_336:\n        /* \"#utility.yul\":12276:12277   */\n      dup3\n        /* \"#utility.yul\":12273:12274   */\n      dup3\n        /* \"#utility.yul\":12269:12278   */\n      div\n        /* \"#utility.yul\":12264:12278   */\n      swap1\n      pop\n        /* \"#utility.yul\":12102:12284   */\n      swap3\n      swap2\n      pop\n      pop\n      jump\t// out\n        /* \"#utility.yul\":12290:12515   */\n    tag_193:\n        /* \"#utility.yul\":12430:12464   */\n      0x5265717565737420646f65736e2774206861766520656e6f7567682061707072\n        /* \"#utility.yul\":12426:12427   */\n      0x00\n        /* \"#utility.yul\":12418:12424   */\n      dup3\n        /* \"#utility.yul\":12414:12428   */\n      add\n        /* \"#utility.yul\":12407:12465   */\n      mstore\n        /* \"#utility.yul\":12499:12507   */\n      0x6f76616c732e0000000000000000000000000000000000000000000000000000\n        /* \"#utility.yul\":12494:12496   */\n      0x20\n        /* \"#utility.yul\":12486:12492   */\n      dup3\n        /* \"#utility.yul\":12482:12497   */\n      add\n        /* \"#utility.yul\":12475:12508   */\n      mstore\n        /* \"#utility.yul\":12290:12515   */\n      pop\n      jump\t// out\n        /* \"#utility.yul\":12521:12887   */\n    tag_194:\n        /* \"#utility.yul\":12663:12666   */\n      0x00\n        /* \"#utility.yul\":12684:12751   */\n      tag_340\n        /* \"#utility.yul\":12748:12750   */\n      0x26\n        /* \"#utility.yul\":12743:12746   */\n      dup4\n        /* \"#utility.yul\":12684:12751   */\n      tag_169\n      jump\t// in\n    tag_340:\n        /* \"#utility.yul\":12677:12751   */\n      swap2\n      pop\n        /* \"#utility.yul\":12760:12853   */\n      tag_341\n        /* \"#utility.yul\":12849:12852   */\n      dup3\n        /* \"#utility.yul\":12760:12853   */\n      tag_193\n      jump\t// in\n    tag_341:\n        /* \"#utility.yul\":12878:12880   */\n      0x40\n        /* \"#utility.yul\":12873:12876   */\n      dup3\n        /* \"#utility.yul\":12869:12881   */\n      add\n        /* \"#utility.yul\":12862:12881   */\n      swap1\n      pop\n        /* \"#utility.yul\":12521:12887   */\n      swap2\n      swap1\n      pop\n      jump\t// out\n        /* \"#utility.yul\":12893:13312   */\n    tag_89:\n        /* \"#utility.yul\":13059:13063   */\n      0x00\n        /* \"#utility.yul\":13097:13099   */\n      0x20\n        /* \"#utility.yul\":13086:13095   */\n      dup3\n        /* \"#utility.yul\":13082:13100   */\n      add\n        /* \"#utility.yul\":13074:13100   */\n      swap1\n      pop\n        /* \"#utility.yul\":13146:13155   */\n      dup2\n        /* \"#utility.yul\":13140:13144   */\n      dup2\n        /* \"#utility.yul\":13136:13156   */\n      sub\n        /* \"#utility.yul\":13132:13133   */\n      0x00\n        /* \"#utility.yul\":13121:13130   */\n      dup4\n        /* \"#utility.yul\":13117:13134   */\n      add\n        /* \"#utility.yul\":13110:13157   */\n      mstore\n        /* \"#utility.yul\":13174:13305   */\n      tag_343\n        /* \"#utility.yul\":13300:13304   */\n      dup2\n        /* \"#utility.yul\":13174:13305   */\n      tag_194\n      jump\t// in\n    tag_343:\n        /* \"#utility.yul\":13166:13305   */\n      swap1\n      pop\n        /* \"#utility.yul\":12893:13312   */\n      swap2\n      swap1\n      pop\n      jump\t// out\n        /* \"#utility.yul\":13318:13498   */\n    tag_195:\n        /* \"#utility.yul\":13366:13443   */\n      0x4e487b7100000000000000000000000000000000000000000000000000000000\n        /* \"#utility.yul\":13363:13364   */\n      0x00\n        /* \"#utility.yul\":13356:13444   */\n      mstore\n        /* \"#utility.yul\":13463:13467   */\n      0x22\n        /* \"#utility.yul\":13460:13461   */\n      0x04\n        /* \"#utility.yul\":13453:13468   */\n      mstore\n        /* \"#utility.yul\":13487:13491   */\n      0x24\n        /* \"#utility.yul\":13484:13485   */\n      0x00\n        /* \"#utility.yul\":13477:13492   */\n      revert\n        /* \"#utility.yul\":13504:13824   */\n    tag_97:\n        /* \"#utility.yul\":13548:13554   */\n      0x00\n        /* \"#utility.yul\":13585:13586   */\n      0x02\n        /* \"#utility.yul\":13579:13583   */\n      dup3\n        /* \"#utility.yul\":13575:13587   */\n      div\n        /* \"#utility.yul\":13565:13587   */\n      swap1\n      pop\n        /* \"#utility.yul\":13632:13633   */\n      0x01\n        /* \"#utility.yul\":13626:13630   */\n      dup3\n        /* \"#utility.yul\":13622:13634   */\n      and\n        /* \"#utility.yul\":13653:13671   */\n      dup1\n        /* \"#utility.yul\":13643:13724   */\n      tag_346\n      jumpi\n        /* \"#utility.yul\":13709:13713   */\n      0x7f\n        /* \"#utility.yul\":13701:13707   */\n      dup3\n        /* \"#utility.yul\":13697:13714   */\n      and\n        /* \"#utility.yul\":13687:13714   */\n      swap2\n      pop\n        /* \"#utility.yul\":13643:13724   */\n    tag_346:\n        /* \"#utility.yul\":13771:13773   */\n      0x20\n        /* \"#utility.yul\":13763:13769   */\n      dup3\n        /* \"#utility.yul\":13760:13774   */\n      lt\n        /* \"#utility.yul\":13740:13758   */\n      dup2\n        /* \"#utility.yul\":13737:13775   */\n      eq\n        /* \"#utility.yul\":13734:13818   */\n      iszero\n      tag_347\n      jumpi\n        /* \"#utility.yul\":13790:13808   */\n      tag_348\n      tag_195\n      jump\t// in\n    tag_348:\n        /* \"#utility.yul\":13734:13818   */\n    tag_347:\n        /* \"#utility.yul\":13555:13824   */\n      pop\n        /* \"#utility.yul\":13504:13824   */\n      swap2\n      swap1\n      pop\n      jump\t// out\n        /* \"#utility.yul\":13830:14063   */\n    tag_196:\n        /* \"#utility.yul\":13970:14004   */\n      0x496e697469616c697a61626c653a20636f6e747261637420697320616c726561\n        /* \"#utility.yul\":13966:13967   */\n      0x00\n        /* \"#utility.yul\":13958:13964   */\n      dup3\n        /* \"#utility.yul\":13954:13968   */\n      add\n        /* \"#utility.yul\":13947:14005   */\n      mstore\n        /* \"#utility.yul\":14039:14055   */\n      0x647920696e697469616c697a6564000000000000000000000000000000000000\n        /* \"#utility.yul\":14034:14036   */\n      0x20\n        /* \"#utility.yul\":14026:14032   */\n      dup3\n        /* \"#utility.yul\":14022:14037   */\n      add\n        /* \"#utility.yul\":14015:14056   */\n      mstore\n        /* \"#utility.yul\":13830:14063   */\n      pop\n      jump\t// out\n        /* \"#utility.yul\":14069:14435   */\n    tag_197:\n        /* \"#utility.yul\":14211:14214   */\n      0x00\n        /* \"#utility.yul\":14232:14299   */\n      tag_351\n        /* \"#utility.yul\":14296:14298   */\n      0x2e\n        /* \"#utility.yul\":14291:14294   */\n      dup4\n        /* \"#utility.yul\":14232:14299   */\n      tag_169\n      jump\t// in\n    tag_351:\n        /* \"#utility.yul\":14225:14299   */\n      swap2\n      pop\n        /* \"#utility.yul\":14308:14401   */\n      tag_352\n        /* \"#utility.yul\":14397:14400   */\n      dup3\n        /* \"#utility.yul\":14308:14401   */\n      tag_196\n      jump\t// in\n    tag_352:\n        /* \"#utility.yul\":14426:14428   */\n      0x40\n        /* \"#utility.yul\":14421:14424   */\n      dup3\n        /* \"#utility.yul\":14417:14429   */\n      add\n        /* \"#utility.yul\":14410:14429   */\n      swap1\n      pop\n        /* \"#utility.yul\":14069:14435   */\n      swap2\n      swap1\n      pop\n      jump\t// out\n        /* \"#utility.yul\":14441:14860   */\n    tag_116:\n        /* \"#utility.yul\":14607:14611   */\n      0x00\n        /* \"#utility.yul\":14645:14647   */\n      0x20\n        /* \"#utility.yul\":14634:14643   */\n      dup3\n        /* \"#utility.yul\":14630:14648   */\n      add\n        /* \"#utility.yul\":14622:14648   */\n      swap1\n      pop\n        /* \"#utility.yul\":14694:14703   */\n      dup2\n        /* \"#utility.yul\":14688:14692   */\n      dup2\n        /* \"#utility.yul\":14684:14704   */\n      sub\n        /* \"#utility.yul\":14680:14681   */\n      0x00\n        /* \"#utility.yul\":14669:14678   */\n      dup4\n        /* \"#utility.yul\":14665:14682   */\n      add\n        /* \"#utility.yul\":14658:14705   */\n      mstore\n        /* \"#utility.yul\":14722:14853   */\n      tag_354\n        /* \"#utility.yul\":14848:14852   */\n      dup2\n        /* \"#utility.yul\":14722:14853   */\n      tag_197\n      jump\t// in\n    tag_354:\n        /* \"#utility.yul\":14714:14853   */\n      swap1\n      pop\n        /* \"#utility.yul\":14441:14860   */\n      swap2\n      swap1\n      pop\n      jump\t// out\n        /* \"#utility.yul\":14866:15117   */\n    tag_198:\n        /* \"#utility.yul\":15006:15040   */\n      0x596f75206e65656420746f20636f6e74726962757465206174206c6561737420\n        /* \"#utility.yul\":15002:15003   */\n      0x00\n        /* \"#utility.yul\":14994:15000   */\n      dup3\n        /* \"#utility.yul\":14990:15004   */\n      add\n        /* \"#utility.yul\":14983:15041   */\n      mstore\n        /* \"#utility.yul\":15075:15109   */\n      0x746865206d696e696d756d20636f6e747269627574696f6e20616d6f756e742e\n        /* \"#utility.yul\":15070:15072   */\n      0x20\n        /* \"#utility.yul\":15062:15068   */\n      dup3\n        /* \"#utility.yul\":15058:15073   */\n      add\n        /* \"#utility.yul\":15051:15110   */\n      mstore\n        /* \"#utility.yul\":14866:15117   */\n      pop\n      jump\t// out\n        /* \"#utility.yul\":15123:15489   */\n    tag_199:\n        /* \"#utility.yul\":15265:15268   */\n      0x00\n        /* \"#utility.yul\":15286:15353   */\n      tag_357\n        /* \"#utility.yul\":15350:15352   */\n      0x40\n        /* \"#utility.yul\":15345:15348   */\n      dup4\n        /* \"#utility.yul\":15286:15353   */\n      tag_169\n      jump\t// in\n    tag_357:\n        /* \"#utility.yul\":15279:15353   */\n      swap2\n      pop\n        /* \"#utility.yul\":15362:15455   */\n      tag_358\n        /* \"#utility.yul\":15451:15454   */\n      dup3\n        /* \"#utility.yul\":15362:15455   */\n      tag_198\n      jump\t// in\n    tag_358:\n        /* \"#utility.yul\":15480:15482   */\n      0x40\n        /* \"#utility.yul\":15475:15478   */\n      dup3\n        /* \"#utility.yul\":15471:15483   */\n      add\n        /* \"#utility.yul\":15464:15483   */\n      swap1\n      pop\n        /* \"#utility.yul\":15123:15489   */\n      swap2\n      swap1\n      pop\n      jump\t// out\n        /* \"#utility.yul\":15495:15914   */\n    tag_123:\n        /* \"#utility.yul\":15661:15665   */\n      0x00\n        /* \"#utility.yul\":15699:15701   */\n      0x20\n        /* \"#utility.yul\":15688:15697   */\n      dup3\n        /* \"#utility.yul\":15684:15702   */\n      add\n        /* \"#utility.yul\":15676:15702   */\n      swap1\n      pop\n        /* \"#utility.yul\":15748:15757   */\n      dup2\n        /* \"#utility.yul\":15742:15746   */\n      dup2\n        /* \"#utility.yul\":15738:15758   */\n      sub\n        /* \"#utility.yul\":15734:15735   */\n      0x00\n        /* \"#utility.yul\":15723:15732   */\n      dup4\n        /* \"#utility.yul\":15719:15736   */\n      add\n        /* \"#utility.yul\":15712:15759   */\n      mstore\n        /* \"#utility.yul\":15776:15907   */\n      tag_360\n        /* \"#utility.yul\":15902:15906   */\n      dup2\n        /* \"#utility.yul\":15776:15907   */\n      tag_199\n      jump\t// in\n    tag_360:\n        /* \"#utility.yul\":15768:15907   */\n      swap1\n      pop\n        /* \"#utility.yul\":15495:15914   */\n      swap2\n      swap1\n      pop\n      jump\t// out\n        /* \"#utility.yul\":15920:16097   */\n    tag_125:\n        /* \"#utility.yul\":15958:15961   */\n      0x00\n        /* \"#utility.yul\":15981:16004   */\n      tag_362\n        /* \"#utility.yul\":15998:16003   */\n      dup3\n        /* \"#utility.yul\":15981:16004   */\n      tag_165\n      jump\t// in\n    tag_362:\n        /* \"#utility.yul\":15972:16004   */\n      swap2\n      pop\n        /* \"#utility.yul\":16026:16038   */\n      0xffffffffff\n        /* \"#utility.yul\":16019:16024   */\n      dup3\n        /* \"#utility.yul\":16016:16039   */\n      eq\n        /* \"#utility.yul\":16013:16062   */\n      iszero\n      tag_363\n      jumpi\n        /* \"#utility.yul\":16042:16060   */\n      tag_364\n      tag_192\n      jump\t// in\n    tag_364:\n        /* \"#utility.yul\":16013:16062   */\n    tag_363:\n        /* \"#utility.yul\":16089:16090   */\n      0x01\n        /* \"#utility.yul\":16082:16087   */\n      dup3\n        /* \"#utility.yul\":16078:16091   */\n      add\n        /* \"#utility.yul\":16071:16091   */\n      swap1\n      pop\n        /* \"#utility.yul\":15920:16097   */\n      swap2\n      swap1\n      pop\n      jump\t// out\n        /* \"#utility.yul\":16103:16332   */\n    tag_200:\n        /* \"#utility.yul\":16243:16277   */\n      0x596f75206d75737420626520617070726f76656420746f206d616b6520746869\n        /* \"#utility.yul\":16239:16240   */\n      0x00\n        /* \"#utility.yul\":16231:16237   */\n      dup3\n        /* \"#utility.yul\":16227:16241   */\n      add\n        /* \"#utility.yul\":16220:16278   */\n      mstore\n        /* \"#utility.yul\":16312:16324   */\n      0x7320726571756573742e00000000000000000000000000000000000000000000\n        /* \"#utility.yul\":16307:16309   */\n      0x20\n        /* \"#utility.yul\":16299:16305   */\n      dup3\n        /* \"#utility.yul\":16295:16310   */\n      add\n        /* \"#utility.yul\":16288:16325   */\n      mstore\n        /* \"#utility.yul\":16103:16332   */\n      pop\n      jump\t// out\n        /* \"#utility.yul\":16338:16704   */\n    tag_201:\n        /* \"#utility.yul\":16480:16483   */\n      0x00\n        /* \"#utility.yul\":16501:16568   */\n      tag_367\n        /* \"#utility.yul\":16565:16567   */\n      0x2a\n        /* \"#utility.yul\":16560:16563   */\n      dup4\n        /* \"#utility.yul\":16501:16568   */\n      tag_169\n      jump\t// in\n    tag_367:\n        /* \"#utility.yul\":16494:16568   */\n      swap2\n      pop\n        /* \"#utility.yul\":16577:16670   */\n      tag_368\n        /* \"#utility.yul\":16666:16669   */\n      dup3\n        /* \"#utility.yul\":16577:16670   */\n      tag_200\n      jump\t// in\n    tag_368:\n        /* \"#utility.yul\":16695:16697   */\n      0x40\n        /* \"#utility.yul\":16690:16693   */\n      dup3\n        /* \"#utility.yul\":16686:16698   */\n      add\n        /* \"#utility.yul\":16679:16698   */\n      swap1\n      pop\n        /* \"#utility.yul\":16338:16704   */\n      swap2\n      swap1\n      pop\n      jump\t// out\n        /* \"#utility.yul\":16710:17129   */\n    tag_132:\n        /* \"#utility.yul\":16876:16880   */\n      0x00\n        /* \"#utility.yul\":16914:16916   */\n      0x20\n        /* \"#utility.yul\":16903:16912   */\n      dup3\n        /* \"#utility.yul\":16899:16917   */\n      add\n        /* \"#utility.yul\":16891:16917   */\n      swap1\n      pop\n        /* \"#utility.yul\":16963:16972   */\n      dup2\n        /* \"#utility.yul\":16957:16961   */\n      dup2\n        /* \"#utility.yul\":16953:16973   */\n      sub\n        /* \"#utility.yul\":16949:16950   */\n      0x00\n        /* \"#utility.yul\":16938:16947   */\n      dup4\n        /* \"#utility.yul\":16934:16951   */\n      add\n        /* \"#utility.yul\":16927:16974   */\n      mstore\n        /* \"#utility.yul\":16991:17122   */\n      tag_370\n        /* \"#utility.yul\":17117:17121   */\n      dup2\n        /* \"#utility.yul\":16991:17122   */\n      tag_201\n      jump\t// in\n    tag_370:\n        /* \"#utility.yul\":16983:17122   */\n      swap1\n      pop\n        /* \"#utility.yul\":16710:17129   */\n      swap2\n      swap1\n      pop\n      jump\t// out\n        /* \"#utility.yul\":17135:17361   */\n    tag_202:\n        /* \"#utility.yul\":17275:17309   */\n      0x596f75206861766520616c726561647920617070726f76656420746869732072\n        /* \"#utility.yul\":17271:17272   */\n      0x00\n        /* \"#utility.yul\":17263:17269   */\n      dup3\n        /* \"#utility.yul\":17259:17273   */\n      add\n        /* \"#utility.yul\":17252:17310   */\n      mstore\n        /* \"#utility.yul\":17344:17353   */\n      0x6571756573742e00000000000000000000000000000000000000000000000000\n        /* \"#utility.yul\":17339:17341   */\n      0x20\n        /* \"#utility.yul\":17331:17337   */\n      dup3\n        /* \"#utility.yul\":17327:17342   */\n      add\n        /* \"#utility.yul\":17320:17354   */\n      mstore\n        /* \"#utility.yul\":17135:17361   */\n      pop\n      jump\t// out\n        /* \"#utility.yul\":17367:17733   */\n    tag_203:\n        /* \"#utility.yul\":17509:17512   */\n      0x00\n        /* \"#utility.yul\":17530:17597   */\n      tag_373\n        /* \"#utility.yul\":17594:17596   */\n      0x27\n        /* \"#utility.yul\":17589:17592   */\n      dup4\n        /* \"#utility.yul\":17530:17597   */\n      tag_169\n      jump\t// in\n    tag_373:\n        /* \"#utility.yul\":17523:17597   */\n      swap2\n      pop\n        /* \"#utility.yul\":17606:17699   */\n      tag_374\n        /* \"#utility.yul\":17695:17698   */\n      dup3\n        /* \"#utility.yul\":17606:17699   */\n      tag_202\n      jump\t// in\n    tag_374:\n        /* \"#utility.yul\":17724:17726   */\n      0x40\n        /* \"#utility.yul\":17719:17722   */\n      dup3\n        /* \"#utility.yul\":17715:17727   */\n      add\n        /* \"#utility.yul\":17708:17727   */\n      swap1\n      pop\n        /* \"#utility.yul\":17367:17733   */\n      swap2\n      swap1\n      pop\n      jump\t// out\n        /* \"#utility.yul\":17739:18158   */\n    tag_135:\n        /* \"#utility.yul\":17905:17909   */\n      0x00\n        /* \"#utility.yul\":17943:17945   */\n      0x20\n        /* \"#utility.yul\":17932:17941   */\n      dup3\n        /* \"#utility.yul\":17928:17946   */\n      add\n        /* \"#utility.yul\":17920:17946   */\n      swap1\n      pop\n        /* \"#utility.yul\":17992:18001   */\n      dup2\n        /* \"#utility.yul\":17986:17990   */\n      dup2\n        /* \"#utility.yul\":17982:18002   */\n      sub\n        /* \"#utility.yul\":17978:17979   */\n      0x00\n        /* \"#utility.yul\":17967:17976   */\n      dup4\n        /* \"#utility.yul\":17963:17980   */\n      add\n        /* \"#utility.yul\":17956:18003   */\n      mstore\n        /* \"#utility.yul\":18020:18151   */\n      tag_376\n        /* \"#utility.yul\":18146:18150   */\n      dup2\n        /* \"#utility.yul\":18020:18151   */\n      tag_203\n      jump\t// in\n    tag_376:\n        /* \"#utility.yul\":18012:18151   */\n      swap1\n      pop\n        /* \"#utility.yul\":17739:18158   */\n      swap2\n      swap1\n      pop\n      jump\t// out\n        /* \"#utility.yul\":18164:18343   */\n    tag_137:\n        /* \"#utility.yul\":18202:18205   */\n      0x00\n        /* \"#utility.yul\":18225:18248   */\n      tag_378\n        /* \"#utility.yul\":18242:18247   */\n      dup3\n        /* \"#utility.yul\":18225:18248   */\n      tag_173\n      jump\t// in\n    tag_378:\n        /* \"#utility.yul\":18216:18248   */\n      swap2\n      pop\n        /* \"#utility.yul\":18270:18284   */\n      0xffffffffffff\n        /* \"#utility.yul\":18263:18268   */\n      dup3\n        /* \"#utility.yul\":18260:18285   */\n      eq\n        /* \"#utility.yul\":18257:18308   */\n      iszero\n      tag_379\n      jumpi\n        /* \"#utility.yul\":18288:18306   */\n      tag_380\n      tag_192\n      jump\t// in\n    tag_380:\n        /* \"#utility.yul\":18257:18308   */\n    tag_379:\n        /* \"#utility.yul\":18335:18336   */\n      0x01\n        /* \"#utility.yul\":18328:18333   */\n      dup3\n        /* \"#utility.yul\":18324:18337   */\n      add\n        /* \"#utility.yul\":18317:18337   */\n      swap1\n      pop\n        /* \"#utility.yul\":18164:18343   */\n      swap2\n      swap1\n      pop\n      jump\t// out\n\n    auxdata: 0xa2646970667358221220e4a46bddeb8d3d188ace9ad5d9ac540399d811dc7a07349b837e88e096081cb964736f6c634300080b0033\n}\n","bytecode":{"linkReferences":{},"object":"608060405234801561001057600080fd5b5061178d806100206000396000f3fe6080604052600436106100a75760003560e01c806382fde0931161006457806382fde093146101d8578063937e09b114610203578063c2dac6931461022e578063cea34b7314610257578063d7bb99ba14610280578063d7d1bbdb1461028a576100a7565b806303441006146100ac5780630a144391146100d55780633fad1834146101125780634051ddac1461013d578063481c6a751461016c57806381d12c5814610197575b600080fd5b3480156100b857600080fd5b506100d360048036038101906100ce9190610d61565b6102b3565b005b3480156100e157600080fd5b506100fc60048036038101906100f79190610dec565b6104eb565b6040516101099190610e34565b60405180910390f35b34801561011e57600080fd5b5061012761050b565b6040516101349190610e5e565b60405180910390f35b34801561014957600080fd5b50610152610518565b604051610163959493929190610ea8565b60405180910390f35b34801561017857600080fd5b50610181610582565b60405161018e9190610efb565b60405180910390f35b3480156101a357600080fd5b506101be60048036038101906101b99190610d61565b6105a8565b6040516101cf959493929190610ff1565b60405180910390f35b3480156101e457600080fd5b506101ed6106c7565b6040516101fa919061104b565b60405180910390f35b34801561020f57600080fd5b506102186106de565b604051610225919061104b565b60405180910390f35b34801561023a57600080fd5b5061025560048036038101906102509190611123565b6106f5565b005b34801561026357600080fd5b5061027e600480360381019061027991906111c3565b61082e565b005b610288610978565b005b34801561029657600080fd5b506102b160048036038101906102ac9190610d61565b610a72565b005b600060029054906101000a900473ffffffffffffffffffffffffffffffffffffffff1673ffffffffffffffffffffffffffffffffffffffff163373ffffffffffffffffffffffffffffffffffffffff1614610343576040517f08c379a000000000000000000000000000000000000000000000000000000000815260040161033a90611275565b60405180910390fd5b60006002828154811061035957610358611295565b5b906000526020600020906004020190508060020160009054906101000a900460ff16156103bb576040517f08c379a00000000000000000000000000000000000000000000000000000000081526004016103b290611310565b60405180910390fd5b60026000601b9054906101000a900464ffffffffff166103db919061138e565b64ffffffffff168160010160069054906101000a900465ffffffffffff1665ffffffffffff1611610441576040517f08c379a000000000000000000000000000000000000000000000000000000000815260040161043890611431565b60405180910390fd5b80600101600c9054906101000a900473ffffffffffffffffffffffffffffffffffffffff1673ffffffffffffffffffffffffffffffffffffffff166108fc8260010160009054906101000a900465ffffffffffff1665ffffffffffff169081150290604051600060405180830381858888f193505050501580156104c9573d6000803e3d6000fd5b5060018160020160006101000a81548160ff0219169083151502179055505050565b60016020528060005260406000206000915054906101000a900460ff1681565b6000600280549050905090565b60008060008060008060169054906101000a900464ffffffffff16476002805490506000601b9054906101000a900464ffffffffff16600060029054906101000a900473ffffffffffffffffffffffffffffffffffffffff16945094509450945094509091929394565b600060029054906101000a900473ffffffffffffffffffffffffffffffffffffffff1681565b600281815481106105b857600080fd5b90600052602060002090600402016000915090508060000180546105db90611480565b80601f016020809104026020016040519081016040528092919081815260200182805461060790611480565b80156106545780601f1061062957610100808354040283529160200191610654565b820191906000526020600020905b81548152906001019060200180831161063757829003601f168201915b5050505050908060010160009054906101000a900465ffffffffffff16908060010160069054906101000a900465ffffffffffff169080600101600c9054906101000a900473ffffffffffffffffffffffffffffffffffffffff16908060020160009054906101000a900460ff16905085565b6000601b9054906101000a900464ffffffffff1681565b600060169054906101000a900464ffffffffff1681565b600060029054906101000a900473ffffffffffffffffffffffffffffffffffffffff1673ffffffffffffffffffffffffffffffffffffffff163373ffffffffffffffffffffffffffffffffffffffff1614610785576040517f08c379a000000000000000000000000000000000000000000000000000000000815260040161077c90611275565b60405180910390fd5b60006002600181600181540180825580915050039060005260206000209060040201905084848260000191906107bc929190610c7e565b50828160010160006101000a81548165ffffffffffff021916908365ffffffffffff1602179055508181600101600c6101000a81548173ffffffffffffffffffffffffffffffffffffffff021916908373ffffffffffffffffffffffffffffffffffffffff1602179055505050505050565b600060019054906101000a900460ff166108565760008054906101000a900460ff161561085f565b61085e610c5a565b5b61089e576040517f08c379a000000000000000000000000000000000000000000000000000000000815260040161089590611524565b60405180910390fd5b60008060019054906101000a900460ff1615905080156108ee576001600060016101000a81548160ff02191690831515021790555060016000806101000a81548160ff0219169083151502179055505b82600060166101000a81548164ffffffffff021916908364ffffffffff16021790555081600060026101000a81548173ffffffffffffffffffffffffffffffffffffffff021916908373ffffffffffffffffffffffffffffffffffffffff16021790555080156109735760008060016101000a81548160ff0219169083151502179055505b505050565b600060169054906101000a900464ffffffffff1664ffffffffff163410156109d5576040517f08c379a00000000000000000000000000000000000000000000000000000000081526004016109cc906115b6565b60405180910390fd5b60018060003373ffffffffffffffffffffffffffffffffffffffff1673ffffffffffffffffffffffffffffffffffffffff16815260200190815260200160002060006101000a81548160ff0219169083151502179055506000601b81819054906101000a900464ffffffffff1680929190610a4f906115d6565b91906101000a81548164ffffffffff021916908364ffffffffff16021790555050565b600060028281548110610a8857610a87611295565b5b90600052602060002090600402019050600160003373ffffffffffffffffffffffffffffffffffffffff1673ffffffffffffffffffffffffffffffffffffffff16815260200190815260200160002060009054906101000a900460ff16610b24576040517f08c379a0000000000000000000000000000000000000000000000000000000008152600401610b1b90611676565b60405180910390fd5b8060030160003373ffffffffffffffffffffffffffffffffffffffff1673ffffffffffffffffffffffffffffffffffffffff16815260200190815260200160002060009054906101000a900460ff1615610bb3576040517f08c379a0000000000000000000000000000000000000000000000000000000008152600401610baa90611708565b60405180910390fd5b60018160030160003373ffffffffffffffffffffffffffffffffffffffff1673ffffffffffffffffffffffffffffffffffffffff16815260200190815260200160002060006101000a81548160ff02191690831515021790555080600101600681819054906101000a900465ffffffffffff1680929190610c3390611728565b91906101000a81548165ffffffffffff021916908365ffffffffffff160217905550505050565b6000610c6530610c6b565b15905090565b600080823b905060008111915050919050565b828054610c8a90611480565b90600052602060002090601f016020900481019282610cac5760008555610cf3565b82601f10610cc557803560ff1916838001178555610cf3565b82800160010185558215610cf3579182015b82811115610cf2578235825591602001919060010190610cd7565b5b509050610d009190610d04565b5090565b5b80821115610d1d576000816000905550600101610d05565b5090565b600080fd5b600080fd5b6000819050919050565b610d3e81610d2b565b8114610d4957600080fd5b50565b600081359050610d5b81610d35565b92915050565b600060208284031215610d7757610d76610d21565b5b6000610d8584828501610d4c565b91505092915050565b600073ffffffffffffffffffffffffffffffffffffffff82169050919050565b6000610db982610d8e565b9050919050565b610dc981610dae565b8114610dd457600080fd5b50565b600081359050610de681610dc0565b92915050565b600060208284031215610e0257610e01610d21565b5b6000610e1084828501610dd7565b91505092915050565b60008115159050919050565b610e2e81610e19565b82525050565b6000602082019050610e496000830184610e25565b92915050565b610e5881610d2b565b82525050565b6000602082019050610e736000830184610e4f565b92915050565b600064ffffffffff82169050919050565b610e9381610e79565b82525050565b610ea281610dae565b82525050565b600060a082019050610ebd6000830188610e8a565b610eca6020830187610e4f565b610ed76040830186610e4f565b610ee46060830185610e8a565b610ef16080830184610e99565b9695505050505050565b6000602082019050610f106000830184610e99565b92915050565b600081519050919050565b600082825260208201905092915050565b60005b83811015610f50578082015181840152602081019050610f35565b83811115610f5f576000848401525b50505050565b6000601f19601f8301169050919050565b6000610f8182610f16565b610f8b8185610f21565b9350610f9b818560208601610f32565b610fa481610f65565b840191505092915050565b600065ffffffffffff82169050919050565b610fca81610faf565b82525050565b6000610fdb82610d8e565b9050919050565b610feb81610fd0565b82525050565b600060a082019050818103600083015261100b8188610f76565b905061101a6020830187610fc1565b6110276040830186610fc1565b6110346060830185610fe2565b6110416080830184610e25565b9695505050505050565b60006020820190506110606000830184610e8a565b92915050565b600080fd5b600080fd5b600080fd5b60008083601f84011261108b5761108a611066565b5b8235905067ffffffffffffffff8111156110a8576110a761106b565b5b6020830191508360018202830111156110c4576110c3611070565b5b9250929050565b6110d481610faf565b81146110df57600080fd5b50565b6000813590506110f1816110cb565b92915050565b61110081610fd0565b811461110b57600080fd5b50565b60008135905061111d816110f7565b92915050565b6000806000806060858703121561113d5761113c610d21565b5b600085013567ffffffffffffffff81111561115b5761115a610d26565b5b61116787828801611075565b9450945050602061117a878288016110e2565b925050604061118b8782880161110e565b91505092959194509250565b6111a081610e79565b81146111ab57600080fd5b50565b6000813590506111bd81611197565b92915050565b600080604083850312156111da576111d9610d21565b5b60006111e8858286016111ae565b92505060206111f985828601610dd7565b9150509250929050565b7f4f6e6c7920746865206d616e616765722063616e20706572666f726d2074686960008201527f7320616374696f6e2e0000000000000000000000000000000000000000000000602082015250565b600061125f602983610f21565b915061126a82611203565b604082019050919050565b6000602082019050818103600083015261128e81611252565b9050919050565b7f4e487b7100000000000000000000000000000000000000000000000000000000600052603260045260246000fd5b7f5265717565737420616c72656164792066696e616c697a65642e000000000000600082015250565b60006112fa601a83610f21565b9150611305826112c4565b602082019050919050565b60006020820190508181036000830152611329816112ed565b9050919050565b7f4e487b7100000000000000000000000000000000000000000000000000000000600052601260045260246000fd5b7f4e487b7100000000000000000000000000000000000000000000000000000000600052601160045260246000fd5b600061139982610e79565b91506113a483610e79565b9250826113b4576113b3611330565b5b828204905092915050565b7f5265717565737420646f65736e2774206861766520656e6f756768206170707260008201527f6f76616c732e0000000000000000000000000000000000000000000000000000602082015250565b600061141b602683610f21565b9150611426826113bf565b604082019050919050565b6000602082019050818103600083015261144a8161140e565b9050919050565b7f4e487b7100000000000000000000000000000000000000000000000000000000600052602260045260246000fd5b6000600282049050600182168061149857607f821691505b602082108114156114ac576114ab611451565b5b50919050565b7f496e697469616c697a61626c653a20636f6e747261637420697320616c72656160008201527f647920696e697469616c697a6564000000000000000000000000000000000000602082015250565b600061150e602e83610f21565b9150611519826114b2565b604082019050919050565b6000602082019050818103600083015261153d81611501565b9050919050565b7f596f75206e65656420746f20636f6e74726962757465206174206c656173742060008201527f746865206d696e696d756d20636f6e747269627574696f6e20616d6f756e742e602082015250565b60006115a0604083610f21565b91506115ab82611544565b604082019050919050565b600060208201905081810360008301526115cf81611593565b9050919050565b60006115e182610e79565b915064ffffffffff8214156115f9576115f861135f565b5b600182019050919050565b7f596f75206d75737420626520617070726f76656420746f206d616b652074686960008201527f7320726571756573742e00000000000000000000000000000000000000000000602082015250565b6000611660602a83610f21565b915061166b82611604565b604082019050919050565b6000602082019050818103600083015261168f81611653565b9050919050565b7f596f75206861766520616c726561647920617070726f7665642074686973207260008201527f6571756573742e00000000000000000000000000000000000000000000000000602082015250565b60006116f2602783610f21565b91506116fd82611696565b604082019050919050565b60006020820190508181036000830152611721816116e5565b9050919050565b600061173382610faf565b915065ffffffffffff82141561174c5761174b61135f565b5b60018201905091905056fea2646970667358221220e4a46bddeb8d3d188ace9ad5d9ac540399d811dc7a07349b837e88e096081cb964736f6c634300080b0033","opcodes":"PUSH1 0x80 PUSH1 0x40 MSTORE CALLVALUE DUP1 ISZERO PUSH2 0x10 JUMPI PUSH1 0x0 DUP1 REVERT JUMPDEST POP PUSH2 0x178D DUP1 PUSH2 0x20 PUSH1 0x0 CODECOPY PUSH1 0x0 RETURN INVALID PUSH1 0x80 PUSH1 0x40 MSTORE PUSH1 0x4 CALLDATASIZE LT PUSH2 0xA7 JUMPI PUSH1 0x0 CALLDATALOAD PUSH1 0xE0 SHR DUP1 PUSH4 0x82FDE093 GT PUSH2 0x64 JUMPI DUP1 PUSH4 0x82FDE093 EQ PUSH2 0x1D8 JUMPI DUP1 PUSH4 0x937E09B1 EQ PUSH2 0x203 JUMPI DUP1 PUSH4 0xC2DAC693 EQ PUSH2 0x22E JUMPI DUP1 PUSH4 0xCEA34B73 EQ PUSH2 0x257 JUMPI DUP1 PUSH4 0xD7BB99BA EQ PUSH2 0x280 JUMPI DUP1 PUSH4 0xD7D1BBDB EQ PUSH2 0x28A JUMPI PUSH2 0xA7 JUMP JUMPDEST DUP1 PUSH4 0x3441006 EQ PUSH2 0xAC JUMPI DUP1 PUSH4 0xA144391 EQ PUSH2 0xD5 JUMPI DUP1 PUSH4 0x3FAD1834 EQ PUSH2 0x112 JUMPI DUP1 PUSH4 0x4051DDAC EQ PUSH2 0x13D JUMPI DUP1 PUSH4 0x481C6A75 EQ PUSH2 0x16C JUMPI DUP1 PUSH4 0x81D12C58 EQ PUSH2 0x197 JUMPI JUMPDEST PUSH1 0x0 DUP1 REVERT JUMPDEST CALLVALUE DUP1 ISZERO PUSH2 0xB8 JUMPI PUSH1 0x0 DUP1 REVERT JUMPDEST POP PUSH2 0xD3 PUSH1 0x4 DUP1 CALLDATASIZE SUB DUP2 ADD SWAP1 PUSH2 0xCE SWAP2 SWAP1 PUSH2 0xD61 JUMP JUMPDEST PUSH2 0x2B3 JUMP JUMPDEST STOP JUMPDEST CALLVALUE DUP1 ISZERO PUSH2 0xE1 JUMPI PUSH1 0x0 DUP1 REVERT JUMPDEST POP PUSH2 0xFC PUSH1 0x4 DUP1 CALLDATASIZE SUB DUP2 ADD SWAP1 PUSH2 0xF7 SWAP2 SWAP1 PUSH2 0xDEC JUMP JUMPDEST PUSH2 0x4EB JUMP JUMPDEST PUSH1 0x40 MLOAD PUSH2 0x109 SWAP2 SWAP1 PUSH2 0xE34 JUMP JUMPDEST PUSH1 0x40 MLOAD DUP1 SWAP2 SUB SWAP1 RETURN JUMPDEST CALLVALUE DUP1 ISZERO PUSH2 0x11E JUMPI PUSH1 0x0 DUP1 REVERT JUMPDEST POP PUSH2 0x127 PUSH2 0x50B JUMP JUMPDEST PUSH1 0x40 MLOAD PUSH2 0x134 SWAP2 SWAP1 PUSH2 0xE5E JUMP JUMPDEST PUSH1 0x40 MLOAD DUP1 SWAP2 SUB SWAP1 RETURN JUMPDEST CALLVALUE DUP1 ISZERO PUSH2 0x149 JUMPI PUSH1 0x0 DUP1 REVERT JUMPDEST POP PUSH2 0x152 PUSH2 0x518 JUMP JUMPDEST PUSH1 0x40 MLOAD PUSH2 0x163 SWAP6 SWAP5 SWAP4 SWAP3 SWAP2 SWAP1 PUSH2 0xEA8 JUMP JUMPDEST PUSH1 0x40 MLOAD DUP1 SWAP2 SUB SWAP1 RETURN JUMPDEST CALLVALUE DUP1 ISZERO PUSH2 0x178 JUMPI PUSH1 0x0 DUP1 REVERT JUMPDEST POP PUSH2 0x181 PUSH2 0x582 JUMP JUMPDEST PUSH1 0x40 MLOAD PUSH2 0x18E SWAP2 SWAP1 PUSH2 0xEFB JUMP JUMPDEST PUSH1 0x40 MLOAD DUP1 SWAP2 SUB SWAP1 RETURN JUMPDEST CALLVALUE DUP1 ISZERO PUSH2 0x1A3 JUMPI PUSH1 0x0 DUP1 REVERT JUMPDEST POP PUSH2 0x1BE PUSH1 0x4 DUP1 CALLDATASIZE SUB DUP2 ADD SWAP1 PUSH2 0x1B9 SWAP2 SWAP1 PUSH2 0xD61 JUMP JUMPDEST PUSH2 0x5A8 JUMP JUMPDEST PUSH1 0x40 MLOAD PUSH2 0x1CF SWAP6 SWAP5 SWAP4 SWAP3 SWAP2 SWAP1 PUSH2 0xFF1 JUMP JUMPDEST PUSH1 0x40 MLOAD DUP1 SWAP2 SUB SWAP1 RETURN JUMPDEST CALLVALUE DUP1 ISZERO PUSH2 0x1E4 JUMPI PUSH1 0x0 DUP1 REVERT JUMPDEST POP PUSH2 0x1ED PUSH2 0x6C7 JUMP JUMPDEST PUSH1 0x40 MLOAD PUSH2 0x1FA SWAP2 SWAP1 PUSH2 0x104B JUMP JUMPDEST PUSH1 0x40 MLOAD DUP1 SWAP2 SUB SWAP1 RETURN JUMPDEST CALLVALUE DUP1 ISZERO PUSH2 0x20F JUMPI PUSH1 0x0 DUP1 REVERT JUMPDEST POP PUSH2 0x218 PUSH2 0x6DE JUMP JUMPDEST PUSH1 0x40 MLOAD PUSH2 0x225 SWAP2 SWAP1 PUSH2 0x104B JUMP JUMPDEST PUSH1 0x40 MLOAD DUP1 SWAP2 SUB SWAP1 RETURN JUMPDEST CALLVALUE DUP1 ISZERO PUSH2 0x23A JUMPI PUSH1 0x0 DUP1 REVERT JUMPDEST POP PUSH2 0x255 PUSH1 0x4 DUP1 CALLDATASIZE SUB DUP2 ADD SWAP1 PUSH2 0x250 SWAP2 SWAP1 PUSH2 0x1123 JUMP JUMPDEST PUSH2 0x6F5 JUMP JUMPDEST STOP JUMPDEST CALLVALUE DUP1 ISZERO PUSH2 0x263 JUMPI PUSH1 0x0 DUP1 REVERT JUMPDEST POP PUSH2 0x27E PUSH1 0x4 DUP1 CALLDATASIZE SUB DUP2 ADD SWAP1 PUSH2 0x279 SWAP2 SWAP1 PUSH2 0x11C3 JUMP JUMPDEST PUSH2 0x82E JUMP JUMPDEST STOP JUMPDEST PUSH2 0x288 PUSH2 0x978 JUMP JUMPDEST STOP JUMPDEST CALLVALUE DUP1 ISZERO PUSH2 0x296 JUMPI PUSH1 0x0 DUP1 REVERT JUMPDEST POP PUSH2 0x2B1 PUSH1 0x4 DUP1 CALLDATASIZE SUB DUP2 ADD SWAP1 PUSH2 0x2AC SWAP2 SWAP1 PUSH2 0xD61 JUMP JUMPDEST PUSH2 0xA72 JUMP JUMPDEST STOP JUMPDEST PUSH1 0x0 PUSH1 0x2 SWAP1 SLOAD SWAP1 PUSH2 0x100 EXP SWAP1 DIV PUSH20 0xFFFFFFFFFFFFFFFFFFFFFFFFFFFFFFFFFFFFFFFF AND PUSH20 0xFFFFFFFFFFFFFFFFFFFFFFFFFFFFFFFFFFFFFFFF AND CALLER PUSH20 0xFFFFFFFFFFFFFFFFFFFFFFFFFFFFFFFFFFFFFFFF AND EQ PUSH2 0x343 JUMPI PUSH1 0x40 MLOAD PUSH32 0x8C379A000000000000000000000000000000000000000000000000000000000 DUP2 MSTORE PUSH1 0x4 ADD PUSH2 0x33A SWAP1 PUSH2 0x1275 JUMP JUMPDEST PUSH1 0x40 MLOAD DUP1 SWAP2 SUB SWAP1 REVERT JUMPDEST PUSH1 0x0 PUSH1 0x2 DUP3 DUP2 SLOAD DUP2 LT PUSH2 0x359 JUMPI PUSH2 0x358 PUSH2 0x1295 JUMP JUMPDEST JUMPDEST SWAP1 PUSH1 0x0 MSTORE PUSH1 0x20 PUSH1 0x0 KECCAK256 SWAP1 PUSH1 0x4 MUL ADD SWAP1 POP DUP1 PUSH1 0x2 ADD PUSH1 0x0 SWAP1 SLOAD SWAP1 PUSH2 0x100 EXP SWAP1 DIV PUSH1 0xFF AND ISZERO PUSH2 0x3BB JUMPI PUSH1 0x40 MLOAD PUSH32 0x8C379A000000000000000000000000000000000000000000000000000000000 DUP2 MSTORE PUSH1 0x4 ADD PUSH2 0x3B2 SWAP1 PUSH2 0x1310 JUMP JUMPDEST PUSH1 0x40 MLOAD DUP1 SWAP2 SUB SWAP1 REVERT JUMPDEST PUSH1 0x2 PUSH1 0x0 PUSH1 0x1B SWAP1 SLOAD SWAP1 PUSH2 0x100 EXP SWAP1 DIV PUSH5 0xFFFFFFFFFF AND PUSH2 0x3DB SWAP2 SWAP1 PUSH2 0x138E JUMP JUMPDEST PUSH5 0xFFFFFFFFFF AND DUP2 PUSH1 0x1 ADD PUSH1 0x6 SWAP1 SLOAD SWAP1 PUSH2 0x100 EXP SWAP1 DIV PUSH6 0xFFFFFFFFFFFF AND PUSH6 0xFFFFFFFFFFFF AND GT PUSH2 0x441 JUMPI PUSH1 0x40 MLOAD PUSH32 0x8C379A000000000000000000000000000000000000000000000000000000000 DUP2 MSTORE PUSH1 0x4 ADD PUSH2 0x438 SWAP1 PUSH2 0x1431 JUMP JUMPDEST PUSH1 0x40 MLOAD DUP1 SWAP2 SUB SWAP1 REVERT JUMPDEST DUP1 PUSH1 0x1 ADD PUSH1 0xC SWAP1 SLOAD SWAP1 PUSH2 0x100 EXP SWAP1 DIV PUSH20 0xFFFFFFFFFFFFFFFFFFFFFFFFFFFFFFFFFFFFFFFF AND PUSH20 0xFFFFFFFFFFFFFFFFFFFFFFFFFFFFFFFFFFFFFFFF AND PUSH2 0x8FC DUP3 PUSH1 0x1 ADD PUSH1 0x0 SWAP1 SLOAD SWAP1 PUSH2 0x100 EXP SWAP1 DIV PUSH6 0xFFFFFFFFFFFF AND PUSH6 0xFFFFFFFFFFFF AND SWAP1 DUP2 ISZERO MUL SWAP1 PUSH1 0x40 MLOAD PUSH1 0x0 PUSH1 0x40 MLOAD DUP1 DUP4 SUB DUP2 DUP6 DUP9 DUP9 CALL SWAP4 POP POP POP POP ISZERO DUP1 ISZERO PUSH2 0x4C9 JUMPI RETURNDATASIZE PUSH1 0x0 DUP1 RETURNDATACOPY RETURNDATASIZE PUSH1 0x0 REVERT JUMPDEST POP PUSH1 0x1 DUP2 PUSH1 0x2 ADD PUSH1 0x0 PUSH2 0x100 EXP DUP2 SLOAD DUP2 PUSH1 0xFF MUL NOT AND SWAP1 DUP4 ISZERO ISZERO MUL OR SWAP1 SSTORE POP POP POP JUMP JUMPDEST PUSH1 0x1 PUSH1 0x20 MSTORE DUP1 PUSH1 0x0 MSTORE PUSH1 0x40 PUSH1 0x0 KECCAK256 PUSH1 0x0 SWAP2 POP SLOAD SWAP1 PUSH2 0x100 EXP SWAP1 DIV PUSH1 0xFF AND DUP2 JUMP JUMPDEST PUSH1 0x0 PUSH1 0x2 DUP1 SLOAD SWAP1 POP SWAP1 POP SWAP1 JUMP JUMPDEST PUSH1 0x0 DUP1 PUSH1 0x0 DUP1 PUSH1 0x0 DUP1 PUSH1 0x16 SWAP1 SLOAD SWAP1 PUSH2 0x100 EXP SWAP1 DIV PUSH5 0xFFFFFFFFFF AND SELFBALANCE PUSH1 0x2 DUP1 SLOAD SWAP1 POP PUSH1 0x0 PUSH1 0x1B SWAP1 SLOAD SWAP1 PUSH2 0x100 EXP SWAP1 DIV PUSH5 0xFFFFFFFFFF AND PUSH1 0x0 PUSH1 0x2 SWAP1 SLOAD SWAP1 PUSH2 0x100 EXP SWAP1 DIV PUSH20 0xFFFFFFFFFFFFFFFFFFFFFFFFFFFFFFFFFFFFFFFF AND SWAP5 POP SWAP5 POP SWAP5 POP SWAP5 POP SWAP5 POP SWAP1 SWAP2 SWAP3 SWAP4 SWAP5 JUMP JUMPDEST PUSH1 0x0 PUSH1 0x2 SWAP1 SLOAD SWAP1 PUSH2 0x100 EXP SWAP1 DIV PUSH20 0xFFFFFFFFFFFFFFFFFFFFFFFFFFFFFFFFFFFFFFFF AND DUP2 JUMP JUMPDEST PUSH1 0x2 DUP2 DUP2 SLOAD DUP2 LT PUSH2 0x5B8 JUMPI PUSH1 0x0 DUP1 REVERT JUMPDEST SWAP1 PUSH1 0x0 MSTORE PUSH1 0x20 PUSH1 0x0 KECCAK256 SWAP1 PUSH1 0x4 MUL ADD PUSH1 0x0 SWAP2 POP SWAP1 POP DUP1 PUSH1 0x0 ADD DUP1 SLOAD PUSH2 0x5DB SWAP1 PUSH2 0x1480 JUMP JUMPDEST DUP1 PUSH1 0x1F ADD PUSH1 0x20 DUP1 SWAP2 DIV MUL PUSH1 0x20 ADD PUSH1 0x40 MLOAD SWAP1 DUP2 ADD PUSH1 0x40 MSTORE DUP1 SWAP3 SWAP2 SWAP1 DUP2 DUP2 MSTORE PUSH1 0x20 ADD DUP3 DUP1 SLOAD PUSH2 0x607 SWAP1 PUSH2 0x1480 JUMP JUMPDEST DUP1 ISZERO PUSH2 0x654 JUMPI DUP1 PUSH1 0x1F LT PUSH2 0x629 JUMPI PUSH2 0x100 DUP1 DUP4 SLOAD DIV MUL DUP4 MSTORE SWAP2 PUSH1 0x20 ADD SWAP2 PUSH2 0x654 JUMP JUMPDEST DUP3 ADD SWAP2 SWAP1 PUSH1 0x0 MSTORE PUSH1 0x20 PUSH1 0x0 KECCAK256 SWAP1 JUMPDEST DUP2 SLOAD DUP2 MSTORE SWAP1 PUSH1 0x1 ADD SWAP1 PUSH1 0x20 ADD DUP1 DUP4 GT PUSH2 0x637 JUMPI DUP3 SWAP1 SUB PUSH1 0x1F AND DUP3 ADD SWAP2 JUMPDEST POP POP POP POP POP SWAP1 DUP1 PUSH1 0x1 ADD PUSH1 0x0 SWAP1 SLOAD SWAP1 PUSH2 0x100 EXP SWAP1 DIV PUSH6 0xFFFFFFFFFFFF AND SWAP1 DUP1 PUSH1 0x1 ADD PUSH1 0x6 SWAP1 SLOAD SWAP1 PUSH2 0x100 EXP SWAP1 DIV PUSH6 0xFFFFFFFFFFFF AND SWAP1 DUP1 PUSH1 0x1 ADD PUSH1 0xC SWAP1 SLOAD SWAP1 PUSH2 0x100 EXP SWAP1 DIV PUSH20 0xFFFFFFFFFFFFFFFFFFFFFFFFFFFFFFFFFFFFFFFF AND SWAP1 DUP1 PUSH1 0x2 ADD PUSH1 0x0 SWAP1 SLOAD SWAP1 PUSH2 0x100 EXP SWAP1 DIV PUSH1 0xFF AND SWAP1 POP DUP6 JUMP JUMPDEST PUSH1 0x0 PUSH1 0x1B SWAP1 SLOAD SWAP1 PUSH2 0x100 EXP SWAP1 DIV PUSH5 0xFFFFFFFFFF AND DUP2 JUMP JUMPDEST PUSH1 0x0 PUSH1 0x16 SWAP1 SLOAD SWAP1 PUSH2 0x100 EXP SWAP1 DIV PUSH5 0xFFFFFFFFFF AND DUP2 JUMP JUMPDEST PUSH1 0x0 PUSH1 0x2 SWAP1 SLOAD SWAP1 PUSH2 0x100 EXP SWAP1 DIV PUSH20 0xFFFFFFFFFFFFFFFFFFFFFFFFFFFFFFFFFFFFFFFF AND PUSH20 0xFFFFFFFFFFFFFFFFFFFFFFFFFFFFFFFFFFFFFFFF AND CALLER PUSH20 0xFFFFFFFFFFFFFFFFFFFFFFFFFFFFFFFFFFFFFFFF AND EQ PUSH2 0x785 JUMPI PUSH1 0x40 MLOAD PUSH32 0x8C379A000000000000000000000000000000000000000000000000000000000 DUP2 MSTORE PUSH1 0x4 ADD PUSH2 0x77C SWAP1 PUSH2 0x1275 JUMP JUMPDEST PUSH1 0x40 MLOAD DUP1 SWAP2 SUB SWAP1 REVERT JUMPDEST PUSH1 0x0 PUSH1 0x2 PUSH1 0x1 DUP2 PUSH1 0x1 DUP2 SLOAD ADD DUP1 DUP3 SSTORE DUP1 SWAP2 POP POP SUB SWAP1 PUSH1 0x0 MSTORE PUSH1 0x20 PUSH1 0x0 KECCAK256 SWAP1 PUSH1 0x4 MUL ADD SWAP1 POP DUP5 DUP5 DUP3 PUSH1 0x0 ADD SWAP2 SWAP1 PUSH2 0x7BC SWAP3 SWAP2 SWAP1 PUSH2 0xC7E JUMP JUMPDEST POP DUP3 DUP2 PUSH1 0x1 ADD PUSH1 0x0 PUSH2 0x100 EXP DUP2 SLOAD DUP2 PUSH6 0xFFFFFFFFFFFF MUL NOT AND SWAP1 DUP4 PUSH6 0xFFFFFFFFFFFF AND MUL OR SWAP1 SSTORE POP DUP2 DUP2 PUSH1 0x1 ADD PUSH1 0xC PUSH2 0x100 EXP DUP2 SLOAD DUP2 PUSH20 0xFFFFFFFFFFFFFFFFFFFFFFFFFFFFFFFFFFFFFFFF MUL NOT AND SWAP1 DUP4 PUSH20 0xFFFFFFFFFFFFFFFFFFFFFFFFFFFFFFFFFFFFFFFF AND MUL OR SWAP1 SSTORE POP POP POP POP POP POP JUMP JUMPDEST PUSH1 0x0 PUSH1 0x1 SWAP1 SLOAD SWAP1 PUSH2 0x100 EXP SWAP1 DIV PUSH1 0xFF AND PUSH2 0x856 JUMPI PUSH1 0x0 DUP1 SLOAD SWAP1 PUSH2 0x100 EXP SWAP1 DIV PUSH1 0xFF AND ISZERO PUSH2 0x85F JUMP JUMPDEST PUSH2 0x85E PUSH2 0xC5A JUMP JUMPDEST JUMPDEST PUSH2 0x89E JUMPI PUSH1 0x40 MLOAD PUSH32 0x8C379A000000000000000000000000000000000000000000000000000000000 DUP2 MSTORE PUSH1 0x4 ADD PUSH2 0x895 SWAP1 PUSH2 0x1524 JUMP JUMPDEST PUSH1 0x40 MLOAD DUP1 SWAP2 SUB SWAP1 REVERT JUMPDEST PUSH1 0x0 DUP1 PUSH1 0x1 SWAP1 SLOAD SWAP1 PUSH2 0x100 EXP SWAP1 DIV PUSH1 0xFF AND ISZERO SWAP1 POP DUP1 ISZERO PUSH2 0x8EE JUMPI PUSH1 0x1 PUSH1 0x0 PUSH1 0x1 PUSH2 0x100 EXP DUP2 SLOAD DUP2 PUSH1 0xFF MUL NOT AND SWAP1 DUP4 ISZERO ISZERO MUL OR SWAP1 SSTORE POP PUSH1 0x1 PUSH1 0x0 DUP1 PUSH2 0x100 EXP DUP2 SLOAD DUP2 PUSH1 0xFF MUL NOT AND SWAP1 DUP4 ISZERO ISZERO MUL OR SWAP1 SSTORE POP JUMPDEST DUP3 PUSH1 0x0 PUSH1 0x16 PUSH2 0x100 EXP DUP2 SLOAD DUP2 PUSH5 0xFFFFFFFFFF MUL NOT AND SWAP1 DUP4 PUSH5 0xFFFFFFFFFF AND MUL OR SWAP1 SSTORE POP DUP2 PUSH1 0x0 PUSH1 0x2 PUSH2 0x100 EXP DUP2 SLOAD DUP2 PUSH20 0xFFFFFFFFFFFFFFFFFFFFFFFFFFFFFFFFFFFFFFFF MUL NOT AND SWAP1 DUP4 PUSH20 0xFFFFFFFFFFFFFFFFFFFFFFFFFFFFFFFFFFFFFFFF AND MUL OR SWAP1 SSTORE POP DUP1 ISZERO PUSH2 0x973 JUMPI PUSH1 0x0 DUP1 PUSH1 0x1 PUSH2 0x100 EXP DUP2 SLOAD DUP2 PUSH1 0xFF MUL NOT AND SWAP1 DUP4 ISZERO ISZERO MUL OR SWAP1 SSTORE POP JUMPDEST POP POP POP JUMP JUMPDEST PUSH1 0x0 PUSH1 0x16 SWAP1 SLOAD SWAP1 PUSH2 0x100 EXP SWAP1 DIV PUSH5 0xFFFFFFFFFF AND PUSH5 0xFFFFFFFFFF AND CALLVALUE LT ISZERO PUSH2 0x9D5 JUMPI PUSH1 0x40 MLOAD PUSH32 0x8C379A000000000000000000000000000000000000000000000000000000000 DUP2 MSTORE PUSH1 0x4 ADD PUSH2 0x9CC SWAP1 PUSH2 0x15B6 JUMP JUMPDEST PUSH1 0x40 MLOAD DUP1 SWAP2 SUB SWAP1 REVERT JUMPDEST PUSH1 0x1 DUP1 PUSH1 0x0 CALLER PUSH20 0xFFFFFFFFFFFFFFFFFFFFFFFFFFFFFFFFFFFFFFFF AND PUSH20 0xFFFFFFFFFFFFFFFFFFFFFFFFFFFFFFFFFFFFFFFF AND DUP2 MSTORE PUSH1 0x20 ADD SWAP1 DUP2 MSTORE PUSH1 0x20 ADD PUSH1 0x0 KECCAK256 PUSH1 0x0 PUSH2 0x100 EXP DUP2 SLOAD DUP2 PUSH1 0xFF MUL NOT AND SWAP1 DUP4 ISZERO ISZERO MUL OR SWAP1 SSTORE POP PUSH1 0x0 PUSH1 0x1B DUP2 DUP2 SWAP1 SLOAD SWAP1 PUSH2 0x100 EXP SWAP1 DIV PUSH5 0xFFFFFFFFFF AND DUP1 SWAP3 SWAP2 SWAP1 PUSH2 0xA4F SWAP1 PUSH2 0x15D6 JUMP JUMPDEST SWAP2 SWAP1 PUSH2 0x100 EXP DUP2 SLOAD DUP2 PUSH5 0xFFFFFFFFFF MUL NOT AND SWAP1 DUP4 PUSH5 0xFFFFFFFFFF AND MUL OR SWAP1 SSTORE POP POP JUMP JUMPDEST PUSH1 0x0 PUSH1 0x2 DUP3 DUP2 SLOAD DUP2 LT PUSH2 0xA88 JUMPI PUSH2 0xA87 PUSH2 0x1295 JUMP JUMPDEST JUMPDEST SWAP1 PUSH1 0x0 MSTORE PUSH1 0x20 PUSH1 0x0 KECCAK256 SWAP1 PUSH1 0x4 MUL ADD SWAP1 POP PUSH1 0x1 PUSH1 0x0 CALLER PUSH20 0xFFFFFFFFFFFFFFFFFFFFFFFFFFFFFFFFFFFFFFFF AND PUSH20 0xFFFFFFFFFFFFFFFFFFFFFFFFFFFFFFFFFFFFFFFF AND DUP2 MSTORE PUSH1 0x20 ADD SWAP1 DUP2 MSTORE PUSH1 0x20 ADD PUSH1 0x0 KECCAK256 PUSH1 0x0 SWAP1 SLOAD SWAP1 PUSH2 0x100 EXP SWAP1 DIV PUSH1 0xFF AND PUSH2 0xB24 JUMPI PUSH1 0x40 MLOAD PUSH32 0x8C379A000000000000000000000000000000000000000000000000000000000 DUP2 MSTORE PUSH1 0x4 ADD PUSH2 0xB1B SWAP1 PUSH2 0x1676 JUMP JUMPDEST PUSH1 0x40 MLOAD DUP1 SWAP2 SUB SWAP1 REVERT JUMPDEST DUP1 PUSH1 0x3 ADD PUSH1 0x0 CALLER PUSH20 0xFFFFFFFFFFFFFFFFFFFFFFFFFFFFFFFFFFFFFFFF AND PUSH20 0xFFFFFFFFFFFFFFFFFFFFFFFFFFFFFFFFFFFFFFFF AND DUP2 MSTORE PUSH1 0x20 ADD SWAP1 DUP2 MSTORE PUSH1 0x20 ADD PUSH1 0x0 KECCAK256 PUSH1 0x0 SWAP1 SLOAD SWAP1 PUSH2 0x100 EXP SWAP1 DIV PUSH1 0xFF AND ISZERO PUSH2 0xBB3 JUMPI PUSH1 0x40 MLOAD PUSH32 0x8C379A000000000000000000000000000000000000000000000000000000000 DUP2 MSTORE PUSH1 0x4 ADD PUSH2 0xBAA SWAP1 PUSH2 0x1708 JUMP JUMPDEST PUSH1 0x40 MLOAD DUP1 SWAP2 SUB SWAP1 REVERT JUMPDEST PUSH1 0x1 DUP2 PUSH1 0x3 ADD PUSH1 0x0 CALLER PUSH20 0xFFFFFFFFFFFFFFFFFFFFFFFFFFFFFFFFFFFFFFFF AND PUSH20 0xFFFFFFFFFFFFFFFFFFFFFFFFFFFFFFFFFFFFFFFF AND DUP2 MSTORE PUSH1 0x20 ADD SWAP1 DUP2 MSTORE PUSH1 0x20 ADD PUSH1 0x0 KECCAK256 PUSH1 0x0 PUSH2 0x100 EXP DUP2 SLOAD DUP2 PUSH1 0xFF MUL NOT AND SWAP1 DUP4 ISZERO ISZERO MUL OR SWAP1 SSTORE POP DUP1 PUSH1 0x1 ADD PUSH1 0x6 DUP2 DUP2 SWAP1 SLOAD SWAP1 PUSH2 0x100 EXP SWAP1 DIV PUSH6 0xFFFFFFFFFFFF AND DUP1 SWAP3 SWAP2 SWAP1 PUSH2 0xC33 SWAP1 PUSH2 0x1728 JUMP JUMPDEST SWAP2 SWAP1 PUSH2 0x100 EXP DUP2 SLOAD DUP2 PUSH6 0xFFFFFFFFFFFF MUL NOT AND SWAP1 DUP4 PUSH6 0xFFFFFFFFFFFF AND MUL OR SWAP1 SSTORE POP POP POP POP JUMP JUMPDEST PUSH1 0x0 PUSH2 0xC65 ADDRESS PUSH2 0xC6B JUMP JUMPDEST ISZERO SWAP1 POP SWAP1 JUMP JUMPDEST PUSH1 0x0 DUP1 DUP3 EXTCODESIZE SWAP1 POP PUSH1 0x0 DUP2 GT SWAP2 POP POP SWAP2 SWAP1 POP JUMP JUMPDEST DUP3 DUP1 SLOAD PUSH2 0xC8A SWAP1 PUSH2 0x1480 JUMP JUMPDEST SWAP1 PUSH1 0x0 MSTORE PUSH1 0x20 PUSH1 0x0 KECCAK256 SWAP1 PUSH1 0x1F ADD PUSH1 0x20 SWAP1 DIV DUP2 ADD SWAP3 DUP3 PUSH2 0xCAC JUMPI PUSH1 0x0 DUP6 SSTORE PUSH2 0xCF3 JUMP JUMPDEST DUP3 PUSH1 0x1F LT PUSH2 0xCC5 JUMPI DUP1 CALLDATALOAD PUSH1 0xFF NOT AND DUP4 DUP1 ADD OR DUP6 SSTORE PUSH2 0xCF3 JUMP JUMPDEST DUP3 DUP1 ADD PUSH1 0x1 ADD DUP6 SSTORE DUP3 ISZERO PUSH2 0xCF3 JUMPI SWAP2 DUP3 ADD JUMPDEST DUP3 DUP2 GT ISZERO PUSH2 0xCF2 JUMPI DUP3 CALLDATALOAD DUP3 SSTORE SWAP2 PUSH1 0x20 ADD SWAP2 SWAP1 PUSH1 0x1 ADD SWAP1 PUSH2 0xCD7 JUMP JUMPDEST JUMPDEST POP SWAP1 POP PUSH2 0xD00 SWAP2 SWAP1 PUSH2 0xD04 JUMP JUMPDEST POP SWAP1 JUMP JUMPDEST JUMPDEST DUP1 DUP3 GT ISZERO PUSH2 0xD1D JUMPI PUSH1 0x0 DUP2 PUSH1 0x0 SWAP1 SSTORE POP PUSH1 0x1 ADD PUSH2 0xD05 JUMP JUMPDEST POP SWAP1 JUMP JUMPDEST PUSH1 0x0 DUP1 REVERT JUMPDEST PUSH1 0x0 DUP1 REVERT JUMPDEST PUSH1 0x0 DUP2 SWAP1 POP SWAP2 SWAP1 POP JUMP JUMPDEST PUSH2 0xD3E DUP2 PUSH2 0xD2B JUMP JUMPDEST DUP2 EQ PUSH2 0xD49 JUMPI PUSH1 0x0 DUP1 REVERT JUMPDEST POP JUMP JUMPDEST PUSH1 0x0 DUP2 CALLDATALOAD SWAP1 POP PUSH2 0xD5B DUP2 PUSH2 0xD35 JUMP JUMPDEST SWAP3 SWAP2 POP POP JUMP JUMPDEST PUSH1 0x0 PUSH1 0x20 DUP3 DUP5 SUB SLT ISZERO PUSH2 0xD77 JUMPI PUSH2 0xD76 PUSH2 0xD21 JUMP JUMPDEST JUMPDEST PUSH1 0x0 PUSH2 0xD85 DUP5 DUP3 DUP6 ADD PUSH2 0xD4C JUMP JUMPDEST SWAP2 POP POP SWAP3 SWAP2 POP POP JUMP JUMPDEST PUSH1 0x0 PUSH20 0xFFFFFFFFFFFFFFFFFFFFFFFFFFFFFFFFFFFFFFFF DUP3 AND SWAP1 POP SWAP2 SWAP1 POP JUMP JUMPDEST PUSH1 0x0 PUSH2 0xDB9 DUP3 PUSH2 0xD8E JUMP JUMPDEST SWAP1 POP SWAP2 SWAP1 POP JUMP JUMPDEST PUSH2 0xDC9 DUP2 PUSH2 0xDAE JUMP JUMPDEST DUP2 EQ PUSH2 0xDD4 JUMPI PUSH1 0x0 DUP1 REVERT JUMPDEST POP JUMP JUMPDEST PUSH1 0x0 DUP2 CALLDATALOAD SWAP1 POP PUSH2 0xDE6 DUP2 PUSH2 0xDC0 JUMP JUMPDEST SWAP3 SWAP2 POP POP JUMP JUMPDEST PUSH1 0x0 PUSH1 0x20 DUP3 DUP5 SUB SLT ISZERO PUSH2 0xE02 JUMPI PUSH2 0xE01 PUSH2 0xD21 JUMP JUMPDEST JUMPDEST PUSH1 0x0 PUSH2 0xE10 DUP5 DUP3 DUP6 ADD PUSH2 0xDD7 JUMP JUMPDEST SWAP2 POP POP SWAP3 SWAP2 POP POP JUMP JUMPDEST PUSH1 0x0 DUP2 ISZERO ISZERO SWAP1 POP SWAP2 SWAP1 POP JUMP JUMPDEST PUSH2 0xE2E DUP2 PUSH2 0xE19 JUMP JUMPDEST DUP3 MSTORE POP POP JUMP JUMPDEST PUSH1 0x0 PUSH1 0x20 DUP3 ADD SWAP1 POP PUSH2 0xE49 PUSH1 0x0 DUP4 ADD DUP5 PUSH2 0xE25 JUMP JUMPDEST SWAP3 SWAP2 POP POP JUMP JUMPDEST PUSH2 0xE58 DUP2 PUSH2 0xD2B JUMP JUMPDEST DUP3 MSTORE POP POP JUMP JUMPDEST PUSH1 0x0 PUSH1 0x20 DUP3 ADD SWAP1 POP PUSH2 0xE73 PUSH1 0x0 DUP4 ADD DUP5 PUSH2 0xE4F JUMP JUMPDEST SWAP3 SWAP2 POP POP JUMP JUMPDEST PUSH1 0x0 PUSH5 0xFFFFFFFFFF DUP3 AND SWAP1 POP SWAP2 SWAP1 POP JUMP JUMPDEST PUSH2 0xE93 DUP2 PUSH2 0xE79 JUMP JUMPDEST DUP3 MSTORE POP POP JUMP JUMPDEST PUSH2 0xEA2 DUP2 PUSH2 0xDAE JUMP JUMPDEST DUP3 MSTORE POP POP JUMP JUMPDEST PUSH1 0x0 PUSH1 0xA0 DUP3 ADD SWAP1 POP PUSH2 0xEBD PUSH1 0x0 DUP4 ADD DUP9 PUSH2 0xE8A JUMP JUMPDEST PUSH2 0xECA PUSH1 0x20 DUP4 ADD DUP8 PUSH2 0xE4F JUMP JUMPDEST PUSH2 0xED7 PUSH1 0x40 DUP4 ADD DUP7 PUSH2 0xE4F JUMP JUMPDEST PUSH2 0xEE4 PUSH1 0x60 DUP4 ADD DUP6 PUSH2 0xE8A JUMP JUMPDEST PUSH2 0xEF1 PUSH1 0x80 DUP4 ADD DUP5 PUSH2 0xE99 JUMP JUMPDEST SWAP7 SWAP6 POP POP POP POP POP POP JUMP JUMPDEST PUSH1 0x0 PUSH1 0x20 DUP3 ADD SWAP1 POP PUSH2 0xF10 PUSH1 0x0 DUP4 ADD DUP5 PUSH2 0xE99 JUMP JUMPDEST SWAP3 SWAP2 POP POP JUMP JUMPDEST PUSH1 0x0 DUP2 MLOAD SWAP1 POP SWAP2 SWAP1 POP JUMP JUMPDEST PUSH1 0x0 DUP3 DUP3 MSTORE PUSH1 0x20 DUP3 ADD SWAP1 POP SWAP3 SWAP2 POP POP JUMP JUMPDEST PUSH1 0x0 JUMPDEST DUP4 DUP2 LT ISZERO PUSH2 0xF50 JUMPI DUP1 DUP3 ADD MLOAD DUP2 DUP5 ADD MSTORE PUSH1 0x20 DUP2 ADD SWAP1 POP PUSH2 0xF35 JUMP JUMPDEST DUP4 DUP2 GT ISZERO PUSH2 0xF5F JUMPI PUSH1 0x0 DUP5 DUP5 ADD MSTORE JUMPDEST POP POP POP POP JUMP JUMPDEST PUSH1 0x0 PUSH1 0x1F NOT PUSH1 0x1F DUP4 ADD AND SWAP1 POP SWAP2 SWAP1 POP JUMP JUMPDEST PUSH1 0x0 PUSH2 0xF81 DUP3 PUSH2 0xF16 JUMP JUMPDEST PUSH2 0xF8B DUP2 DUP6 PUSH2 0xF21 JUMP JUMPDEST SWAP4 POP PUSH2 0xF9B DUP2 DUP6 PUSH1 0x20 DUP7 ADD PUSH2 0xF32 JUMP JUMPDEST PUSH2 0xFA4 DUP2 PUSH2 0xF65 JUMP JUMPDEST DUP5 ADD SWAP2 POP POP SWAP3 SWAP2 POP POP JUMP JUMPDEST PUSH1 0x0 PUSH6 0xFFFFFFFFFFFF DUP3 AND SWAP1 POP SWAP2 SWAP1 POP JUMP JUMPDEST PUSH2 0xFCA DUP2 PUSH2 0xFAF JUMP JUMPDEST DUP3 MSTORE POP POP JUMP JUMPDEST PUSH1 0x0 PUSH2 0xFDB DUP3 PUSH2 0xD8E JUMP JUMPDEST SWAP1 POP SWAP2 SWAP1 POP JUMP JUMPDEST PUSH2 0xFEB DUP2 PUSH2 0xFD0 JUMP JUMPDEST DUP3 MSTORE POP POP JUMP JUMPDEST PUSH1 0x0 PUSH1 0xA0 DUP3 ADD SWAP1 POP DUP2 DUP2 SUB PUSH1 0x0 DUP4 ADD MSTORE PUSH2 0x100B DUP2 DUP9 PUSH2 0xF76 JUMP JUMPDEST SWAP1 POP PUSH2 0x101A PUSH1 0x20 DUP4 ADD DUP8 PUSH2 0xFC1 JUMP JUMPDEST PUSH2 0x1027 PUSH1 0x40 DUP4 ADD DUP7 PUSH2 0xFC1 JUMP JUMPDEST PUSH2 0x1034 PUSH1 0x60 DUP4 ADD DUP6 PUSH2 0xFE2 JUMP JUMPDEST PUSH2 0x1041 PUSH1 0x80 DUP4 ADD DUP5 PUSH2 0xE25 JUMP JUMPDEST SWAP7 SWAP6 POP POP POP POP POP POP JUMP JUMPDEST PUSH1 0x0 PUSH1 0x20 DUP3 ADD SWAP1 POP PUSH2 0x1060 PUSH1 0x0 DUP4 ADD DUP5 PUSH2 0xE8A JUMP JUMPDEST SWAP3 SWAP2 POP POP JUMP JUMPDEST PUSH1 0x0 DUP1 REVERT JUMPDEST PUSH1 0x0 DUP1 REVERT JUMPDEST PUSH1 0x0 DUP1 REVERT JUMPDEST PUSH1 0x0 DUP1 DUP4 PUSH1 0x1F DUP5 ADD SLT PUSH2 0x108B JUMPI PUSH2 0x108A PUSH2 0x1066 JUMP JUMPDEST JUMPDEST DUP3 CALLDATALOAD SWAP1 POP PUSH8 0xFFFFFFFFFFFFFFFF DUP2 GT ISZERO PUSH2 0x10A8 JUMPI PUSH2 0x10A7 PUSH2 0x106B JUMP JUMPDEST JUMPDEST PUSH1 0x20 DUP4 ADD SWAP2 POP DUP4 PUSH1 0x1 DUP3 MUL DUP4 ADD GT ISZERO PUSH2 0x10C4 JUMPI PUSH2 0x10C3 PUSH2 0x1070 JUMP JUMPDEST JUMPDEST SWAP3 POP SWAP3 SWAP1 POP JUMP JUMPDEST PUSH2 0x10D4 DUP2 PUSH2 0xFAF JUMP JUMPDEST DUP2 EQ PUSH2 0x10DF JUMPI PUSH1 0x0 DUP1 REVERT JUMPDEST POP JUMP JUMPDEST PUSH1 0x0 DUP2 CALLDATALOAD SWAP1 POP PUSH2 0x10F1 DUP2 PUSH2 0x10CB JUMP JUMPDEST SWAP3 SWAP2 POP POP JUMP JUMPDEST PUSH2 0x1100 DUP2 PUSH2 0xFD0 JUMP JUMPDEST DUP2 EQ PUSH2 0x110B JUMPI PUSH1 0x0 DUP1 REVERT JUMPDEST POP JUMP JUMPDEST PUSH1 0x0 DUP2 CALLDATALOAD SWAP1 POP PUSH2 0x111D DUP2 PUSH2 0x10F7 JUMP JUMPDEST SWAP3 SWAP2 POP POP JUMP JUMPDEST PUSH1 0x0 DUP1 PUSH1 0x0 DUP1 PUSH1 0x60 DUP6 DUP8 SUB SLT ISZERO PUSH2 0x113D JUMPI PUSH2 0x113C PUSH2 0xD21 JUMP JUMPDEST JUMPDEST PUSH1 0x0 DUP6 ADD CALLDATALOAD PUSH8 0xFFFFFFFFFFFFFFFF DUP2 GT ISZERO PUSH2 0x115B JUMPI PUSH2 0x115A PUSH2 0xD26 JUMP JUMPDEST JUMPDEST PUSH2 0x1167 DUP8 DUP3 DUP9 ADD PUSH2 0x1075 JUMP JUMPDEST SWAP5 POP SWAP5 POP POP PUSH1 0x20 PUSH2 0x117A DUP8 DUP3 DUP9 ADD PUSH2 0x10E2 JUMP JUMPDEST SWAP3 POP POP PUSH1 0x40 PUSH2 0x118B DUP8 DUP3 DUP9 ADD PUSH2 0x110E JUMP JUMPDEST SWAP2 POP POP SWAP3 SWAP6 SWAP2 SWAP5 POP SWAP3 POP JUMP JUMPDEST PUSH2 0x11A0 DUP2 PUSH2 0xE79 JUMP JUMPDEST DUP2 EQ PUSH2 0x11AB JUMPI PUSH1 0x0 DUP1 REVERT JUMPDEST POP JUMP JUMPDEST PUSH1 0x0 DUP2 CALLDATALOAD SWAP1 POP PUSH2 0x11BD DUP2 PUSH2 0x1197 JUMP JUMPDEST SWAP3 SWAP2 POP POP JUMP JUMPDEST PUSH1 0x0 DUP1 PUSH1 0x40 DUP4 DUP6 SUB SLT ISZERO PUSH2 0x11DA JUMPI PUSH2 0x11D9 PUSH2 0xD21 JUMP JUMPDEST JUMPDEST PUSH1 0x0 PUSH2 0x11E8 DUP6 DUP3 DUP7 ADD PUSH2 0x11AE JUMP JUMPDEST SWAP3 POP POP PUSH1 0x20 PUSH2 0x11F9 DUP6 DUP3 DUP7 ADD PUSH2 0xDD7 JUMP JUMPDEST SWAP2 POP POP SWAP3 POP SWAP3 SWAP1 POP JUMP JUMPDEST PUSH32 0x4F6E6C7920746865206D616E616765722063616E20706572666F726D20746869 PUSH1 0x0 DUP3 ADD MSTORE PUSH32 0x7320616374696F6E2E0000000000000000000000000000000000000000000000 PUSH1 0x20 DUP3 ADD MSTORE POP JUMP JUMPDEST PUSH1 0x0 PUSH2 0x125F PUSH1 0x29 DUP4 PUSH2 0xF21 JUMP JUMPDEST SWAP2 POP PUSH2 0x126A DUP3 PUSH2 0x1203 JUMP JUMPDEST PUSH1 0x40 DUP3 ADD SWAP1 POP SWAP2 SWAP1 POP JUMP JUMPDEST PUSH1 0x0 PUSH1 0x20 DUP3 ADD SWAP1 POP DUP2 DUP2 SUB PUSH1 0x0 DUP4 ADD MSTORE PUSH2 0x128E DUP2 PUSH2 0x1252 JUMP JUMPDEST SWAP1 POP SWAP2 SWAP1 POP JUMP JUMPDEST PUSH32 0x4E487B7100000000000000000000000000000000000000000000000000000000 PUSH1 0x0 MSTORE PUSH1 0x32 PUSH1 0x4 MSTORE PUSH1 0x24 PUSH1 0x0 REVERT JUMPDEST PUSH32 0x5265717565737420616C72656164792066696E616C697A65642E000000000000 PUSH1 0x0 DUP3 ADD MSTORE POP JUMP JUMPDEST PUSH1 0x0 PUSH2 0x12FA PUSH1 0x1A DUP4 PUSH2 0xF21 JUMP JUMPDEST SWAP2 POP PUSH2 0x1305 DUP3 PUSH2 0x12C4 JUMP JUMPDEST PUSH1 0x20 DUP3 ADD SWAP1 POP SWAP2 SWAP1 POP JUMP JUMPDEST PUSH1 0x0 PUSH1 0x20 DUP3 ADD SWAP1 POP DUP2 DUP2 SUB PUSH1 0x0 DUP4 ADD MSTORE PUSH2 0x1329 DUP2 PUSH2 0x12ED JUMP JUMPDEST SWAP1 POP SWAP2 SWAP1 POP JUMP JUMPDEST PUSH32 0x4E487B7100000000000000000000000000000000000000000000000000000000 PUSH1 0x0 MSTORE PUSH1 0x12 PUSH1 0x4 MSTORE PUSH1 0x24 PUSH1 0x0 REVERT JUMPDEST PUSH32 0x4E487B7100000000000000000000000000000000000000000000000000000000 PUSH1 0x0 MSTORE PUSH1 0x11 PUSH1 0x4 MSTORE PUSH1 0x24 PUSH1 0x0 REVERT JUMPDEST PUSH1 0x0 PUSH2 0x1399 DUP3 PUSH2 0xE79 JUMP JUMPDEST SWAP2 POP PUSH2 0x13A4 DUP4 PUSH2 0xE79 JUMP JUMPDEST SWAP3 POP DUP3 PUSH2 0x13B4 JUMPI PUSH2 0x13B3 PUSH2 0x1330 JUMP JUMPDEST JUMPDEST DUP3 DUP3 DIV SWAP1 POP SWAP3 SWAP2 POP POP JUMP JUMPDEST PUSH32 0x5265717565737420646F65736E2774206861766520656E6F7567682061707072 PUSH1 0x0 DUP3 ADD MSTORE PUSH32 0x6F76616C732E0000000000000000000000000000000000000000000000000000 PUSH1 0x20 DUP3 ADD MSTORE POP JUMP JUMPDEST PUSH1 0x0 PUSH2 0x141B PUSH1 0x26 DUP4 PUSH2 0xF21 JUMP JUMPDEST SWAP2 POP PUSH2 0x1426 DUP3 PUSH2 0x13BF JUMP JUMPDEST PUSH1 0x40 DUP3 ADD SWAP1 POP SWAP2 SWAP1 POP JUMP JUMPDEST PUSH1 0x0 PUSH1 0x20 DUP3 ADD SWAP1 POP DUP2 DUP2 SUB PUSH1 0x0 DUP4 ADD MSTORE PUSH2 0x144A DUP2 PUSH2 0x140E JUMP JUMPDEST SWAP1 POP SWAP2 SWAP1 POP JUMP JUMPDEST PUSH32 0x4E487B7100000000000000000000000000000000000000000000000000000000 PUSH1 0x0 MSTORE PUSH1 0x22 PUSH1 0x4 MSTORE PUSH1 0x24 PUSH1 0x0 REVERT JUMPDEST PUSH1 0x0 PUSH1 0x2 DUP3 DIV SWAP1 POP PUSH1 0x1 DUP3 AND DUP1 PUSH2 0x1498 JUMPI PUSH1 0x7F DUP3 AND SWAP2 POP JUMPDEST PUSH1 0x20 DUP3 LT DUP2 EQ ISZERO PUSH2 0x14AC JUMPI PUSH2 0x14AB PUSH2 0x1451 JUMP JUMPDEST JUMPDEST POP SWAP2 SWAP1 POP JUMP JUMPDEST PUSH32 0x496E697469616C697A61626C653A20636F6E747261637420697320616C726561 PUSH1 0x0 DUP3 ADD MSTORE PUSH32 0x647920696E697469616C697A6564000000000000000000000000000000000000 PUSH1 0x20 DUP3 ADD MSTORE POP JUMP JUMPDEST PUSH1 0x0 PUSH2 0x150E PUSH1 0x2E DUP4 PUSH2 0xF21 JUMP JUMPDEST SWAP2 POP PUSH2 0x1519 DUP3 PUSH2 0x14B2 JUMP JUMPDEST PUSH1 0x40 DUP3 ADD SWAP1 POP SWAP2 SWAP1 POP JUMP JUMPDEST PUSH1 0x0 PUSH1 0x20 DUP3 ADD SWAP1 POP DUP2 DUP2 SUB PUSH1 0x0 DUP4 ADD MSTORE PUSH2 0x153D DUP2 PUSH2 0x1501 JUMP JUMPDEST SWAP1 POP SWAP2 SWAP1 POP JUMP JUMPDEST PUSH32 0x596F75206E65656420746F20636F6E74726962757465206174206C6561737420 PUSH1 0x0 DUP3 ADD MSTORE PUSH32 0x746865206D696E696D756D20636F6E747269627574696F6E20616D6F756E742E PUSH1 0x20 DUP3 ADD MSTORE POP JUMP JUMPDEST PUSH1 0x0 PUSH2 0x15A0 PUSH1 0x40 DUP4 PUSH2 0xF21 JUMP JUMPDEST SWAP2 POP PUSH2 0x15AB DUP3 PUSH2 0x1544 JUMP JUMPDEST PUSH1 0x40 DUP3 ADD SWAP1 POP SWAP2 SWAP1 POP JUMP JUMPDEST PUSH1 0x0 PUSH1 0x20 DUP3 ADD SWAP1 POP DUP2 DUP2 SUB PUSH1 0x0 DUP4 ADD MSTORE PUSH2 0x15CF DUP2 PUSH2 0x1593 JUMP JUMPDEST SWAP1 POP SWAP2 SWAP1 POP JUMP JUMPDEST PUSH1 0x0 PUSH2 0x15E1 DUP3 PUSH2 0xE79 JUMP JUMPDEST SWAP2 POP PUSH5 0xFFFFFFFFFF DUP3 EQ ISZERO PUSH2 0x15F9 JUMPI PUSH2 0x15F8 PUSH2 0x135F JUMP JUMPDEST JUMPDEST PUSH1 0x1 DUP3 ADD SWAP1 POP SWAP2 SWAP1 POP JUMP JUMPDEST PUSH32 0x596F75206D75737420626520617070726F76656420746F206D616B6520746869 PUSH1 0x0 DUP3 ADD MSTORE PUSH32 0x7320726571756573742E00000000000000000000000000000000000000000000 PUSH1 0x20 DUP3 ADD MSTORE POP JUMP JUMPDEST PUSH1 0x0 PUSH2 0x1660 PUSH1 0x2A DUP4 PUSH2 0xF21 JUMP JUMPDEST SWAP2 POP PUSH2 0x166B DUP3 PUSH2 0x1604 JUMP JUMPDEST PUSH1 0x40 DUP3 ADD SWAP1 POP SWAP2 SWAP1 POP JUMP JUMPDEST PUSH1 0x0 PUSH1 0x20 DUP3 ADD SWAP1 POP DUP2 DUP2 SUB PUSH1 0x0 DUP4 ADD MSTORE PUSH2 0x168F DUP2 PUSH2 0x1653 JUMP JUMPDEST SWAP1 POP SWAP2 SWAP1 POP JUMP JUMPDEST PUSH32 0x596F75206861766520616C726561647920617070726F76656420746869732072 PUSH1 0x0 DUP3 ADD MSTORE PUSH32 0x6571756573742E00000000000000000000000000000000000000000000000000 PUSH1 0x20 DUP3 ADD MSTORE POP JUMP JUMPDEST PUSH1 0x0 PUSH2 0x16F2 PUSH1 0x27 DUP4 PUSH2 0xF21 JUMP JUMPDEST SWAP2 POP PUSH2 0x16FD DUP3 PUSH2 0x1696 JUMP JUMPDEST PUSH1 0x40 DUP3 ADD SWAP1 POP SWAP2 SWAP1 POP JUMP JUMPDEST PUSH1 0x0 PUSH1 0x20 DUP3 ADD SWAP1 POP DUP2 DUP2 SUB PUSH1 0x0 DUP4 ADD MSTORE PUSH2 0x1721 DUP2 PUSH2 0x16E5 JUMP JUMPDEST SWAP1 POP SWAP2 SWAP1 POP JUMP JUMPDEST PUSH1 0x0 PUSH2 0x1733 DUP3 PUSH2 0xFAF JUMP JUMPDEST SWAP2 POP PUSH6 0xFFFFFFFFFFFF DUP3 EQ ISZERO PUSH2 0x174C JUMPI PUSH2 0x174B PUSH2 0x135F JUMP JUMPDEST JUMPDEST PUSH1 0x1 DUP3 ADD SWAP1 POP SWAP2 SWAP1 POP JUMP INVALID LOG2 PUSH5 0x6970667358 0x22 SLT KECCAK256 0xE4 LOG4 PUSH12 0xDDEB8D3D188ACE9AD5D9AC54 SUB SWAP10 0xD8 GT 0xDC PUSH27 0x7349B837E88E096081CB964736F6C634300080B00330000000000 "},"gasEstimates":{"creation":{"codeDepositCost":"1205800","executionCost":"1254","totalCost":"1207054"},"external":{"approveRequest(uint256)":"58239","approvers(address)":"2868","approversCount()":"2521","contribute()":"53439","createRequest(string,uint48,address)":"infinite","finalizeRequest(uint256)":"infinite","getRequestCount()":"2490","getSummary()":"infinite","initialize(uint40,address)":"129397","manager()":"2653","minimumContribution()":"2543","requests(uint256)":"infinite"}},"methodIdentifiers":{"approveRequest(uint256)":"d7d1bbdb","approvers(address)":"0a144391","approversCount()":"82fde093","contribute()":"d7bb99ba","createRequest(string,uint48,address)":"c2dac693","finalizeRequest(uint256)":"03441006","getRequestCount()":"3fad1834","getSummary()":"4051ddac","initialize(uint40,address)":"cea34b73","manager()":"481c6a75","minimumContribution()":"937e09b1","requests(uint256)":"81d12c58"}},"storageLayout":{"storage":[{"astId":629,"contract":"Campaign.sol:Campaign","label":"_initialized","offset":0,"slot":"0","type":"t_bool"},{"astId":632,"contract":"Campaign.sol:Campaign","label":"_initializing","offset":1,"slot":"0","type":"t_bool"},{"astId":318,"contract":"Campaign.sol:Campaign","label":"manager","offset":2,"slot":"0","type":"t_address"},{"astId":320,"contract":"Campaign.sol:Campaign","label":"minimumContribution","offset":22,"slot":"0","type":"t_uint40"},{"astId":322,"contract":"Campaign.sol:Campaign","label":"approversCount","offset":27,"slot":"0","type":"t_uint40"},{"astId":326,"contract":"Campaign.sol:Campaign","label":"approvers","offset":0,"slot":"1","type":"t_mapping(t_address,t_bool)"},{"astId":330,"contract":"Campaign.sol:Campaign","label":"requests","offset":0,"slot":"2","type":"t_array(t_struct(Request)316_storage)dyn_storage"}],"types":{"t_address":{"encoding":"inplace","label":"address","numberOfBytes":"20"},"t_address_payable":{"encoding":"inplace","label":"address payable","numberOfBytes":"20"},"t_array(t_struct(Request)316_storage)dyn_storage":{"base":"t_struct(Request)316_storage","encoding":"dynamic_array","label":"struct Campaign.Request[]","numberOfBytes":"32"},"t_bool":{"encoding":"inplace","label":"bool","numberOfBytes":"1"},"t_mapping(t_address,t_bool)":{"encoding":"mapping","key":"t_address","label":"mapping(address => bool)","numberOfBytes":"32","value":"t_bool"},"t_string_storage":{"encoding":"bytes","label":"string","numberOfBytes":"32"},"t_struct(Request)316_storage":{"encoding":"inplace","label":"struct Campaign.Request","members":[{"astId":303,"contract":"Campaign.sol:Campaign","label":"description","offset":0,"slot":"0","type":"t_string_storage"},{"astId":305,"contract":"Campaign.sol:Campaign","label":"value","offset":0,"slot":"1","type":"t_uint48"},{"astId":307,"contract":"Campaign.sol:Campaign","label":"approvalCount","offset":6,"slot":"1","type":"t_uint48"},{"astId":309,"contract":"Campaign.sol:Campaign","label":"recipient","offset":12,"slot":"1","type":"t_address_payable"},{"astId":311,"contract":"Campaign.sol:Campaign","label":"isComplete","offset":0,"slot":"2","type":"t_bool"},{"astId":315,"contract":"Campaign.sol:Campaign","label":"approvals","offset":0,"slot":"3","type":"t_mapping(t_address,t_bool)"}],"numberOfBytes":"128"},"t_uint40":{"encoding":"inplace","label":"uint40","numberOfBytes":"5"},"t_uint48":{"encoding":"inplace","label":"uint48","numberOfBytes":"6"}}},"userdoc":{"kind":"user","methods":{},"version":1}}