{"abi":[{"inputs":[{"internalType":"uint256","name":"_index","type":"uint256"}],"name":"approveRequest","outputs":[],"stateMutability":"nonpayable","type":"function"},{"inputs":[{"internalType":"address","name":"","type":"address"}],"name":"approvers","outputs":[{"internalType":"bool","name":"","type":"bool"}],"stateMutability":"view","type":"function"},{"inputs":[],"name":"approversCount","outputs":[{"internalType":"uint256","name":"","type":"uint256"}],"stateMutability":"view","type":"function"},{"inputs":[],"name":"contribute","outputs":[],"stateMutability":"payable","type":"function"},{"inputs":[{"internalType":"string","name":"_description","type":"string"},{"internalType":"uint256","name":"_value","type":"uint256"},{"internalType":"address payable","name":"_recipient","type":"address"}],"name":"createRequest","outputs":[],"stateMutability":"nonpayable","type":"function"},{"inputs":[{"internalType":"uint256","name":"_index","type":"uint256"}],"name":"finalizeRequest","outputs":[],"stateMutability":"nonpayable","type":"function"},{"inputs":[],"name":"getRequestCount","outputs":[{"internalType":"uint256","name":"","type":"uint256"}],"stateMutability":"view","type":"function"},{"inputs":[],"name":"getSummary","outputs":[{"internalType":"uint256","name":"","type":"uint256"},{"internalType":"uint256","name":"","type":"uint256"},{"internalType":"uint256","name":"","type":"uint256"},{"internalType":"uint256","name":"","type":"uint256"},{"internalType":"address","name":"","type":"address"}],"stateMutability":"view","type":"function"},{"inputs":[{"internalType":"uint256","name":"_minimum","type":"uint256"},{"internalType":"address","name":"_creator","type":"address"}],"name":"initialize","outputs":[],"stateMutability":"nonpayable","type":"function"},{"inputs":[],"name":"manager","outputs":[{"internalType":"address","name":"","type":"address"}],"stateMutability":"view","type":"function"},{"inputs":[],"name":"minimumContribution","outputs":[{"internalType":"uint256","name":"","type":"uint256"}],"stateMutability":"view","type":"function"},{"inputs":[{"internalType":"uint256","name":"","type":"uint256"}],"name":"requests","outputs":[{"internalType":"string","name":"description","type":"string"},{"internalType":"uint256","name":"value","type":"uint256"},{"internalType":"uint256","name":"approvalCount","type":"uint256"},{"internalType":"address payable","name":"recipient","type":"address"},{"internalType":"bool","name":"isComplete","type":"bool"}],"stateMutability":"view","type":"function"}],"devdoc":{"kind":"dev","methods":{},"version":1},"evm":{"assembly":"    /* \"Campaign.sol\":129:2467  contract Campaign is Initializable {... */\n  mstore(0x40, 0x80)\n  callvalue\n  dup1\n  iszero\n  tag_1\n  jumpi\n  0x00\n  dup1\n  revert\ntag_1:\n  pop\n  dataSize(sub_0)\n  dup1\n  dataOffset(sub_0)\n  0x00\n  codecopy\n  0x00\n  return\nstop\n\nsub_0: assembly {\n        /* \"Campaign.sol\":129:2467  contract Campaign is Initializable {... */\n      mstore(0x40, 0x80)\n      jumpi(tag_1, lt(calldatasize, 0x04))\n      shr(0xe0, calldataload(0x00))\n      dup1\n      0x82fde093\n      gt\n      tag_14\n      jumpi\n      dup1\n      0x82fde093\n      eq\n      tag_8\n      jumpi\n      dup1\n      0x8a9cfd55\n      eq\n      tag_9\n      jumpi\n      dup1\n      0x937e09b1\n      eq\n      tag_10\n      jumpi\n      dup1\n      0xd7bb99ba\n      eq\n      tag_11\n      jumpi\n      dup1\n      0xd7d1bbdb\n      eq\n      tag_12\n      jumpi\n      dup1\n      0xda35a26f\n      eq\n      tag_13\n      jumpi\n      jump(tag_1)\n    tag_14:\n      dup1\n      0x03441006\n      eq\n      tag_2\n      jumpi\n      dup1\n      0x0a144391\n      eq\n      tag_3\n      jumpi\n      dup1\n      0x3fad1834\n      eq\n      tag_4\n      jumpi\n      dup1\n      0x4051ddac\n      eq\n      tag_5\n      jumpi\n      dup1\n      0x481c6a75\n      eq\n      tag_6\n      jumpi\n      dup1\n      0x81d12c58\n      eq\n      tag_7\n      jumpi\n    tag_1:\n      0x00\n      dup1\n      revert\n        /* \"Campaign.sol\":1782:2163  function finalizeRequest(uint _index) external isManager {... */\n    tag_2:\n      callvalue\n      dup1\n      iszero\n      tag_15\n      jumpi\n      0x00\n      dup1\n      revert\n    tag_15:\n      pop\n      tag_16\n      0x04\n      dup1\n      calldatasize\n      sub\n      dup2\n      add\n      swap1\n      tag_17\n      swap2\n      swap1\n      tag_18\n      jump\t// in\n    tag_17:\n      tag_19\n      jump\t// in\n    tag_16:\n      stop\n        /* \"Campaign.sol\":488:529  mapping(address => bool) public approvers */\n    tag_3:\n      callvalue\n      dup1\n      iszero\n      tag_20\n      jumpi\n      0x00\n      dup1\n      revert\n    tag_20:\n      pop\n      tag_21\n      0x04\n      dup1\n      calldatasize\n      sub\n      dup2\n      add\n      swap1\n      tag_22\n      swap2\n      swap1\n      tag_23\n      jump\t// in\n    tag_22:\n      tag_24\n      jump\t// in\n    tag_21:\n      mload(0x40)\n      tag_25\n      swap2\n      swap1\n      tag_26\n      jump\t// in\n    tag_25:\n      mload(0x40)\n      dup1\n      swap2\n      sub\n      swap1\n      return\n        /* \"Campaign.sol\":2368:2464  function getRequestCount() external view returns(uint) {... */\n    tag_4:\n      callvalue\n      dup1\n      iszero\n      tag_27\n      jumpi\n      0x00\n      dup1\n      revert\n    tag_27:\n      pop\n      tag_28\n      tag_29\n      jump\t// in\n    tag_28:\n      mload(0x40)\n      tag_30\n      swap2\n      swap1\n      tag_31\n      jump\t// in\n    tag_30:\n      mload(0x40)\n      dup1\n      swap2\n      sub\n      swap1\n      return\n        /* \"Campaign.sol\":2171:2360  function getSummary() external view returns(uint, uint, uint, uint, address) {... */\n    tag_5:\n      callvalue\n      dup1\n      iszero\n      tag_32\n      jumpi\n      0x00\n      dup1\n      revert\n    tag_32:\n      pop\n      tag_33\n      tag_34\n      jump\t// in\n    tag_33:\n      mload(0x40)\n      tag_35\n      swap6\n      swap5\n      swap4\n      swap3\n      swap2\n      swap1\n      tag_36\n      jump\t// in\n    tag_35:\n      mload(0x40)\n      dup1\n      swap2\n      sub\n      swap1\n      return\n        /* \"Campaign.sol\":388:410  address public manager */\n    tag_6:\n      callvalue\n      dup1\n      iszero\n      tag_37\n      jumpi\n      0x00\n      dup1\n      revert\n    tag_37:\n      pop\n      tag_38\n      tag_39\n      jump\t// in\n    tag_38:\n      mload(0x40)\n      tag_40\n      swap2\n      swap1\n      tag_41\n      jump\t// in\n    tag_40:\n      mload(0x40)\n      dup1\n      swap2\n      sub\n      swap1\n      return\n        /* \"Campaign.sol\":536:561  Request[] public requests */\n    tag_7:\n      callvalue\n      dup1\n      iszero\n      tag_42\n      jumpi\n      0x00\n      dup1\n      revert\n    tag_42:\n      pop\n      tag_43\n      0x04\n      dup1\n      calldatasize\n      sub\n      dup2\n      add\n      swap1\n      tag_44\n      swap2\n      swap1\n      tag_18\n      jump\t// in\n    tag_44:\n      tag_45\n      jump\t// in\n    tag_43:\n      mload(0x40)\n      tag_46\n      swap6\n      swap5\n      swap4\n      swap3\n      swap2\n      swap1\n      tag_47\n      jump\t// in\n    tag_46:\n      mload(0x40)\n      dup1\n      swap2\n      sub\n      swap1\n      return\n        /* \"Campaign.sol\":455:481  uint public approversCount */\n    tag_8:\n      callvalue\n      dup1\n      iszero\n      tag_48\n      jumpi\n      0x00\n      dup1\n      revert\n    tag_48:\n      pop\n      tag_49\n      tag_50\n      jump\t// in\n    tag_49:\n      mload(0x40)\n      tag_51\n      swap2\n      swap1\n      tag_31\n      jump\t// in\n    tag_51:\n      mload(0x40)\n      dup1\n      swap2\n      sub\n      swap1\n      return\n        /* \"Campaign.sol\":1106:1398  function createRequest(string calldata _description, uint _value, address payable _recipient) external isManager {... */\n    tag_9:\n      callvalue\n      dup1\n      iszero\n      tag_52\n      jumpi\n      0x00\n      dup1\n      revert\n    tag_52:\n      pop\n      tag_53\n      0x04\n      dup1\n      calldatasize\n      sub\n      dup2\n      add\n      swap1\n      tag_54\n      swap2\n      swap1\n      tag_55\n      jump\t// in\n    tag_54:\n      tag_56\n      jump\t// in\n    tag_53:\n      stop\n        /* \"Campaign.sol\":417:448  uint public minimumContribution */\n    tag_10:\n      callvalue\n      dup1\n      iszero\n      tag_57\n      jumpi\n      0x00\n      dup1\n      revert\n    tag_57:\n      pop\n      tag_58\n      tag_59\n      jump\t// in\n    tag_58:\n      mload(0x40)\n      tag_60\n      swap2\n      swap1\n      tag_31\n      jump\t// in\n    tag_60:\n      mload(0x40)\n      dup1\n      swap2\n      sub\n      swap1\n      return\n        /* \"Campaign.sol\":865:1098  function contribute() external payable {... */\n    tag_11:\n      tag_61\n      tag_62\n      jump\t// in\n    tag_61:\n      stop\n        /* \"Campaign.sol\":1406:1774  function approveRequest(uint _index) external {... */\n    tag_12:\n      callvalue\n      dup1\n      iszero\n      tag_63\n      jumpi\n      0x00\n      dup1\n      revert\n    tag_63:\n      pop\n      tag_64\n      0x04\n      dup1\n      calldatasize\n      sub\n      dup2\n      add\n      swap1\n      tag_65\n      swap2\n      swap1\n      tag_18\n      jump\t// in\n    tag_65:\n      tag_66\n      jump\t// in\n    tag_64:\n      stop\n        /* \"Campaign.sol\":570:722  function initialize(uint _minimum, address _creator) public initializer() {... */\n    tag_13:\n      callvalue\n      dup1\n      iszero\n      tag_67\n      jumpi\n      0x00\n      dup1\n      revert\n    tag_67:\n      pop\n      tag_68\n      0x04\n      dup1\n      calldatasize\n      sub\n      dup2\n      add\n      swap1\n      tag_69\n      swap2\n      swap1\n      tag_70\n      jump\t// in\n    tag_69:\n      tag_71\n      jump\t// in\n    tag_68:\n      stop\n        /* \"Campaign.sol\":1782:2163  function finalizeRequest(uint _index) external isManager {... */\n    tag_19:\n        /* \"Campaign.sol\":784:791  manager */\n      0x00\n      0x02\n      swap1\n      sload\n      swap1\n      0x0100\n      exp\n      swap1\n      div\n      0xffffffffffffffffffffffffffffffffffffffff\n      and\n        /* \"Campaign.sol\":770:791  msg.sender == manager */\n      0xffffffffffffffffffffffffffffffffffffffff\n      and\n        /* \"Campaign.sol\":770:780  msg.sender */\n      caller\n        /* \"Campaign.sol\":770:791  msg.sender == manager */\n      0xffffffffffffffffffffffffffffffffffffffff\n      and\n      eq\n        /* \"Campaign.sol\":762:837  require(msg.sender == manager, \"Only the manager can perform this action.\") */\n      tag_73\n      jumpi\n      mload(0x40)\n      0x08c379a000000000000000000000000000000000000000000000000000000000\n      dup2\n      mstore\n      0x04\n      add\n      tag_74\n      swap1\n      tag_75\n      jump\t// in\n    tag_74:\n      mload(0x40)\n      dup1\n      swap2\n      sub\n      swap1\n      revert\n    tag_73:\n        /* \"Campaign.sol\":1850:1873  Request storage request */\n      0x00\n        /* \"Campaign.sol\":1876:1884  requests */\n      0x04\n        /* \"Campaign.sol\":1885:1891  _index */\n      dup3\n        /* \"Campaign.sol\":1876:1892  requests[_index] */\n      dup2\n      sload\n      dup2\n      lt\n      tag_77\n      jumpi\n      tag_78\n      tag_79\n      jump\t// in\n    tag_78:\n    tag_77:\n      swap1\n      0x00\n      mstore\n      keccak256(0x00, 0x20)\n      swap1\n      0x05\n      mul\n      add\n        /* \"Campaign.sol\":1850:1892  Request storage request = requests[_index] */\n      swap1\n      pop\n        /* \"Campaign.sol\":1912:1919  request */\n      dup1\n        /* \"Campaign.sol\":1912:1930  request.isComplete */\n      0x03\n      add\n      0x14\n      swap1\n      sload\n      swap1\n      0x0100\n      exp\n      swap1\n      div\n      0xff\n      and\n        /* \"Campaign.sol\":1911:1930  !request.isComplete */\n      iszero\n        /* \"Campaign.sol\":1903:1961  require(!request.isComplete, \"Request already finalized.\") */\n      tag_81\n      jumpi\n      mload(0x40)\n      0x08c379a000000000000000000000000000000000000000000000000000000000\n      dup2\n      mstore\n      0x04\n      add\n      tag_82\n      swap1\n      tag_83\n      jump\t// in\n    tag_82:\n      mload(0x40)\n      dup1\n      swap2\n      sub\n      swap1\n      revert\n    tag_81:\n        /* \"Campaign.sol\":2022:2023  2 */\n      0x02\n        /* \"Campaign.sol\":2005:2019  approversCount */\n      dup1\n      sload\n        /* \"Campaign.sol\":2005:2023  approversCount / 2 */\n      tag_84\n      swap2\n      swap1\n      tag_85\n      jump\t// in\n    tag_84:\n        /* \"Campaign.sol\":1980:1987  request */\n      dup2\n        /* \"Campaign.sol\":1980:2001  request.approvalCount */\n      0x02\n      add\n      sload\n        /* \"Campaign.sol\":1980:2024  request.approvalCount > (approversCount / 2) */\n      gt\n        /* \"Campaign.sol\":1972:2067  require(request.approvalCount > (approversCount / 2), \"Request doesn't have enough approvals.\") */\n      tag_86\n      jumpi\n      mload(0x40)\n      0x08c379a000000000000000000000000000000000000000000000000000000000\n      dup2\n      mstore\n      0x04\n      add\n      tag_87\n      swap1\n      tag_88\n      jump\t// in\n    tag_87:\n      mload(0x40)\n      dup1\n      swap2\n      sub\n      swap1\n      revert\n    tag_86:\n        /* \"Campaign.sol\":2078:2085  request */\n      dup1\n        /* \"Campaign.sol\":2078:2095  request.recipient */\n      0x03\n      add\n      0x00\n      swap1\n      sload\n      swap1\n      0x0100\n      exp\n      swap1\n      div\n      0xffffffffffffffffffffffffffffffffffffffff\n      and\n        /* \"Campaign.sol\":2078:2104  request.recipient.transfer */\n      0xffffffffffffffffffffffffffffffffffffffff\n      and\n        /* \"Campaign.sol\":2078:2119  request.recipient.transfer(request.value) */\n      0x08fc\n        /* \"Campaign.sol\":2105:2112  request */\n      dup3\n        /* \"Campaign.sol\":2105:2118  request.value */\n      0x01\n      add\n      sload\n        /* \"Campaign.sol\":2078:2119  request.recipient.transfer(request.value) */\n      swap1\n      dup2\n      iszero\n      mul\n      swap1\n      mload(0x40)\n      0x00\n      mload(0x40)\n      dup1\n      dup4\n      sub\n      dup2\n      dup6\n      dup9\n      dup9\n      call\n      swap4\n      pop\n      pop\n      pop\n      pop\n      iszero\n      dup1\n      iszero\n      tag_90\n      jumpi\n      returndatasize\n      0x00\n      dup1\n      returndatacopy\n      revert(0x00, returndatasize)\n    tag_90:\n      pop\n        /* \"Campaign.sol\":2151:2155  true */\n      0x01\n        /* \"Campaign.sol\":2130:2137  request */\n      dup2\n        /* \"Campaign.sol\":2130:2148  request.isComplete */\n      0x03\n      add\n      0x14\n        /* \"Campaign.sol\":2130:2155  request.isComplete = true */\n      0x0100\n      exp\n      dup2\n      sload\n      dup2\n      0xff\n      mul\n      not\n      and\n      swap1\n      dup4\n      iszero\n      iszero\n      mul\n      or\n      swap1\n      sstore\n      pop\n        /* \"Campaign.sol\":1839:2163  {... */\n      pop\n        /* \"Campaign.sol\":1782:2163  function finalizeRequest(uint _index) external isManager {... */\n      pop\n      jump\t// out\n        /* \"Campaign.sol\":488:529  mapping(address => bool) public approvers */\n    tag_24:\n      mstore(0x20, 0x03)\n      dup1\n      0x00\n      mstore\n      keccak256(0x00, 0x40)\n      0x00\n      swap2\n      pop\n      sload\n      swap1\n      0x0100\n      exp\n      swap1\n      div\n      0xff\n      and\n      dup2\n      jump\t// out\n        /* \"Campaign.sol\":2368:2464  function getRequestCount() external view returns(uint) {... */\n    tag_29:\n        /* \"Campaign.sol\":2417:2421  uint */\n      0x00\n        /* \"Campaign.sol\":2441:2449  requests */\n      0x04\n        /* \"Campaign.sol\":2441:2456  requests.length */\n      dup1\n      sload\n      swap1\n      pop\n        /* \"Campaign.sol\":2434:2456  return requests.length */\n      swap1\n      pop\n        /* \"Campaign.sol\":2368:2464  function getRequestCount() external view returns(uint) {... */\n      swap1\n      jump\t// out\n        /* \"Campaign.sol\":2171:2360  function getSummary() external view returns(uint, uint, uint, uint, address) {... */\n    tag_34:\n        /* \"Campaign.sol\":2215:2219  uint */\n      0x00\n        /* \"Campaign.sol\":2221:2225  uint */\n      dup1\n        /* \"Campaign.sol\":2227:2231  uint */\n      0x00\n        /* \"Campaign.sol\":2233:2237  uint */\n      dup1\n        /* \"Campaign.sol\":2239:2246  address */\n      0x00\n        /* \"Campaign.sol\":2267:2286  minimumContribution */\n      sload(0x01)\n        /* \"Campaign.sol\":2288:2309  address(this).balance */\n      selfbalance\n        /* \"Campaign.sol\":2311:2319  requests */\n      0x04\n        /* \"Campaign.sol\":2311:2326  requests.length */\n      dup1\n      sload\n      swap1\n      pop\n        /* \"Campaign.sol\":2328:2342  approversCount */\n      sload(0x02)\n        /* \"Campaign.sol\":2344:2351  manager */\n      0x00\n      0x02\n      swap1\n      sload\n      swap1\n      0x0100\n      exp\n      swap1\n      div\n      0xffffffffffffffffffffffffffffffffffffffff\n      and\n        /* \"Campaign.sol\":2259:2352  return (minimumContribution, address(this).balance, requests.length, approversCount, manager) */\n      swap5\n      pop\n      swap5\n      pop\n      swap5\n      pop\n      swap5\n      pop\n      swap5\n      pop\n        /* \"Campaign.sol\":2171:2360  function getSummary() external view returns(uint, uint, uint, uint, address) {... */\n      swap1\n      swap2\n      swap3\n      swap4\n      swap5\n      jump\t// out\n        /* \"Campaign.sol\":388:410  address public manager */\n    tag_39:\n      0x00\n      0x02\n      swap1\n      sload\n      swap1\n      0x0100\n      exp\n      swap1\n      div\n      0xffffffffffffffffffffffffffffffffffffffff\n      and\n      dup2\n      jump\t// out\n        /* \"Campaign.sol\":536:561  Request[] public requests */\n    tag_45:\n      0x04\n      dup2\n      dup2\n      sload\n      dup2\n      lt\n      tag_93\n      jumpi\n      0x00\n      dup1\n      revert\n    tag_93:\n      swap1\n      0x00\n      mstore\n      keccak256(0x00, 0x20)\n      swap1\n      0x05\n      mul\n      add\n      0x00\n      swap2\n      pop\n      swap1\n      pop\n      dup1\n      0x00\n      add\n      dup1\n      sload\n      tag_95\n      swap1\n      tag_96\n      jump\t// in\n    tag_95:\n      dup1\n      0x1f\n      add\n      0x20\n      dup1\n      swap2\n      div\n      mul\n      0x20\n      add\n      mload(0x40)\n      swap1\n      dup2\n      add\n      0x40\n      mstore\n      dup1\n      swap3\n      swap2\n      swap1\n      dup2\n      dup2\n      mstore\n      0x20\n      add\n      dup3\n      dup1\n      sload\n      tag_97\n      swap1\n      tag_96\n      jump\t// in\n    tag_97:\n      dup1\n      iszero\n      tag_98\n      jumpi\n      dup1\n      0x1f\n      lt\n      tag_99\n      jumpi\n      0x0100\n      dup1\n      dup4\n      sload\n      div\n      mul\n      dup4\n      mstore\n      swap2\n      0x20\n      add\n      swap2\n      jump(tag_98)\n    tag_99:\n      dup3\n      add\n      swap2\n      swap1\n      0x00\n      mstore\n      keccak256(0x00, 0x20)\n      swap1\n    tag_100:\n      dup2\n      sload\n      dup2\n      mstore\n      swap1\n      0x01\n      add\n      swap1\n      0x20\n      add\n      dup1\n      dup4\n      gt\n      tag_100\n      jumpi\n      dup3\n      swap1\n      sub\n      0x1f\n      and\n      dup3\n      add\n      swap2\n    tag_98:\n      pop\n      pop\n      pop\n      pop\n      pop\n      swap1\n      dup1\n      0x01\n      add\n      sload\n      swap1\n      dup1\n      0x02\n      add\n      sload\n      swap1\n      dup1\n      0x03\n      add\n      0x00\n      swap1\n      sload\n      swap1\n      0x0100\n      exp\n      swap1\n      div\n      0xffffffffffffffffffffffffffffffffffffffff\n      and\n      swap1\n      dup1\n      0x03\n      add\n      0x14\n      swap1\n      sload\n      swap1\n      0x0100\n      exp\n      swap1\n      div\n      0xff\n      and\n      swap1\n      pop\n      dup6\n      jump\t// out\n        /* \"Campaign.sol\":455:481  uint public approversCount */\n    tag_50:\n      sload(0x02)\n      dup2\n      jump\t// out\n        /* \"Campaign.sol\":1106:1398  function createRequest(string calldata _description, uint _value, address payable _recipient) external isManager {... */\n    tag_56:\n        /* \"Campaign.sol\":784:791  manager */\n      0x00\n      0x02\n      swap1\n      sload\n      swap1\n      0x0100\n      exp\n      swap1\n      div\n      0xffffffffffffffffffffffffffffffffffffffff\n      and\n        /* \"Campaign.sol\":770:791  msg.sender == manager */\n      0xffffffffffffffffffffffffffffffffffffffff\n      and\n        /* \"Campaign.sol\":770:780  msg.sender */\n      caller\n        /* \"Campaign.sol\":770:791  msg.sender == manager */\n      0xffffffffffffffffffffffffffffffffffffffff\n      and\n      eq\n        /* \"Campaign.sol\":762:837  require(msg.sender == manager, \"Only the manager can perform this action.\") */\n      tag_102\n      jumpi\n      mload(0x40)\n      0x08c379a000000000000000000000000000000000000000000000000000000000\n      dup2\n      mstore\n      0x04\n      add\n      tag_103\n      swap1\n      tag_75\n      jump\t// in\n    tag_103:\n      mload(0x40)\n      dup1\n      swap2\n      sub\n      swap1\n      revert\n    tag_102:\n        /* \"Campaign.sol\":1230:1253  Request storage request */\n      0x00\n        /* \"Campaign.sol\":1256:1264  requests */\n      0x04\n        /* \"Campaign.sol\":1256:1271  requests.push() */\n      0x01\n      dup2\n      0x01\n      dup2\n      sload\n      add\n      dup1\n      dup3\n      sstore\n      dup1\n      swap2\n      pop\n      pop\n      sub\n      swap1\n      0x00\n      mstore\n      keccak256(0x00, 0x20)\n      swap1\n      0x05\n      mul\n      add\n        /* \"Campaign.sol\":1230:1271  Request storage request = requests.push() */\n      swap1\n      pop\n        /* \"Campaign.sol\":1304:1316  _description */\n      dup5\n      dup5\n        /* \"Campaign.sol\":1282:1289  request */\n      dup3\n        /* \"Campaign.sol\":1282:1301  request.description */\n      0x00\n      add\n        /* \"Campaign.sol\":1282:1316  request.description = _description */\n      swap2\n      swap1\n      tag_106\n      swap3\n      swap2\n      swap1\n      tag_107\n      jump\t// in\n    tag_106:\n      pop\n        /* \"Campaign.sol\":1343:1349  _value */\n      dup3\n        /* \"Campaign.sol\":1327:1334  request */\n      dup2\n        /* \"Campaign.sol\":1327:1340  request.value */\n      0x01\n      add\n        /* \"Campaign.sol\":1327:1349  request.value = _value */\n      dup2\n      swap1\n      sstore\n      pop\n        /* \"Campaign.sol\":1380:1390  _recipient */\n      dup2\n        /* \"Campaign.sol\":1360:1367  request */\n      dup2\n        /* \"Campaign.sol\":1360:1377  request.recipient */\n      0x03\n      add\n      0x00\n        /* \"Campaign.sol\":1360:1390  request.recipient = _recipient */\n      0x0100\n      exp\n      dup2\n      sload\n      dup2\n      0xffffffffffffffffffffffffffffffffffffffff\n      mul\n      not\n      and\n      swap1\n      dup4\n      0xffffffffffffffffffffffffffffffffffffffff\n      and\n      mul\n      or\n      swap1\n      sstore\n      pop\n        /* \"Campaign.sol\":1219:1398  {... */\n      pop\n        /* \"Campaign.sol\":1106:1398  function createRequest(string calldata _description, uint _value, address payable _recipient) external isManager {... */\n      pop\n      pop\n      pop\n      pop\n      jump\t// out\n        /* \"Campaign.sol\":417:448  uint public minimumContribution */\n    tag_59:\n      sload(0x01)\n      dup2\n      jump\t// out\n        /* \"Campaign.sol\":865:1098  function contribute() external payable {... */\n    tag_62:\n        /* \"Campaign.sol\":936:955  minimumContribution */\n      sload(0x01)\n        /* \"Campaign.sol\":923:932  msg.value */\n      callvalue\n        /* \"Campaign.sol\":923:955  msg.value >= minimumContribution */\n      lt\n      iszero\n        /* \"Campaign.sol\":915:1024  require(msg.value >= minimumContribution, \"You need to contribute at least the minimum contribution amount.\") */\n      tag_109\n      jumpi\n      mload(0x40)\n      0x08c379a000000000000000000000000000000000000000000000000000000000\n      dup2\n      mstore\n      0x04\n      add\n      tag_110\n      swap1\n      tag_111\n      jump\t// in\n    tag_110:\n      mload(0x40)\n      dup1\n      swap2\n      sub\n      swap1\n      revert\n    tag_109:\n        /* \"Campaign.sol\":1059:1063  true */\n      0x01\n        /* \"Campaign.sol\":1035:1044  approvers */\n      0x03\n        /* \"Campaign.sol\":1035:1056  approvers[msg.sender] */\n      0x00\n        /* \"Campaign.sol\":1045:1055  msg.sender */\n      caller\n        /* \"Campaign.sol\":1035:1056  approvers[msg.sender] */\n      0xffffffffffffffffffffffffffffffffffffffff\n      and\n      0xffffffffffffffffffffffffffffffffffffffff\n      and\n      dup2\n      mstore\n      0x20\n      add\n      swap1\n      dup2\n      mstore\n      0x20\n      add\n      0x00\n      keccak256\n      0x00\n        /* \"Campaign.sol\":1035:1063  approvers[msg.sender] = true */\n      0x0100\n      exp\n      dup2\n      sload\n      dup2\n      0xff\n      mul\n      not\n      and\n      swap1\n      dup4\n      iszero\n      iszero\n      mul\n      or\n      swap1\n      sstore\n      pop\n        /* \"Campaign.sol\":1074:1088  approversCount */\n      0x02\n      0x00\n        /* \"Campaign.sol\":1074:1090  approversCount++ */\n      dup2\n      sload\n      dup1\n      swap3\n      swap2\n      swap1\n      tag_112\n      swap1\n      tag_113\n      jump\t// in\n    tag_112:\n      swap2\n      swap1\n      pop\n      sstore\n      pop\n        /* \"Campaign.sol\":865:1098  function contribute() external payable {... */\n      jump\t// out\n        /* \"Campaign.sol\":1406:1774  function approveRequest(uint _index) external {... */\n    tag_66:\n        /* \"Campaign.sol\":1463:1486  Request storage request */\n      0x00\n        /* \"Campaign.sol\":1489:1497  requests */\n      0x04\n        /* \"Campaign.sol\":1498:1504  _index */\n      dup3\n        /* \"Campaign.sol\":1489:1505  requests[_index] */\n      dup2\n      sload\n      dup2\n      lt\n      tag_115\n      jumpi\n      tag_116\n      tag_79\n      jump\t// in\n    tag_116:\n    tag_115:\n      swap1\n      0x00\n      mstore\n      keccak256(0x00, 0x20)\n      swap1\n      0x05\n      mul\n      add\n        /* \"Campaign.sol\":1463:1505  Request storage request = requests[_index] */\n      swap1\n      pop\n        /* \"Campaign.sol\":1524:1533  approvers */\n      0x03\n        /* \"Campaign.sol\":1524:1545  approvers[msg.sender] */\n      0x00\n        /* \"Campaign.sol\":1534:1544  msg.sender */\n      caller\n        /* \"Campaign.sol\":1524:1545  approvers[msg.sender] */\n      0xffffffffffffffffffffffffffffffffffffffff\n      and\n      0xffffffffffffffffffffffffffffffffffffffff\n      and\n      dup2\n      mstore\n      0x20\n      add\n      swap1\n      dup2\n      mstore\n      0x20\n      add\n      0x00\n      keccak256\n      0x00\n      swap1\n      sload\n      swap1\n      0x0100\n      exp\n      swap1\n      div\n      0xff\n      and\n        /* \"Campaign.sol\":1516:1592  require(approvers[msg.sender], \"You must be approved to make this request.\") */\n      tag_118\n      jumpi\n      mload(0x40)\n      0x08c379a000000000000000000000000000000000000000000000000000000000\n      dup2\n      mstore\n      0x04\n      add\n      tag_119\n      swap1\n      tag_120\n      jump\t// in\n    tag_119:\n      mload(0x40)\n      dup1\n      swap2\n      sub\n      swap1\n      revert\n    tag_118:\n        /* \"Campaign.sol\":1612:1619  request */\n      dup1\n        /* \"Campaign.sol\":1612:1629  request.approvals */\n      0x04\n      add\n        /* \"Campaign.sol\":1612:1641  request.approvals[msg.sender] */\n      0x00\n        /* \"Campaign.sol\":1630:1640  msg.sender */\n      caller\n        /* \"Campaign.sol\":1612:1641  request.approvals[msg.sender] */\n      0xffffffffffffffffffffffffffffffffffffffff\n      and\n      0xffffffffffffffffffffffffffffffffffffffff\n      and\n      dup2\n      mstore\n      0x20\n      add\n      swap1\n      dup2\n      mstore\n      0x20\n      add\n      0x00\n      keccak256\n      0x00\n      swap1\n      sload\n      swap1\n      0x0100\n      exp\n      swap1\n      div\n      0xff\n      and\n        /* \"Campaign.sol\":1611:1641  !request.approvals[msg.sender] */\n      iszero\n        /* \"Campaign.sol\":1603:1685  require(!request.approvals[msg.sender], \"You have already approved this request.\") */\n      tag_121\n      jumpi\n      mload(0x40)\n      0x08c379a000000000000000000000000000000000000000000000000000000000\n      dup2\n      mstore\n      0x04\n      add\n      tag_122\n      swap1\n      tag_123\n      jump\t// in\n    tag_122:\n      mload(0x40)\n      dup1\n      swap2\n      sub\n      swap1\n      revert\n    tag_121:\n        /* \"Campaign.sol\":1728:1732  true */\n      0x01\n        /* \"Campaign.sol\":1696:1703  request */\n      dup2\n        /* \"Campaign.sol\":1696:1713  request.approvals */\n      0x04\n      add\n        /* \"Campaign.sol\":1696:1725  request.approvals[msg.sender] */\n      0x00\n        /* \"Campaign.sol\":1714:1724  msg.sender */\n      caller\n        /* \"Campaign.sol\":1696:1725  request.approvals[msg.sender] */\n      0xffffffffffffffffffffffffffffffffffffffff\n      and\n      0xffffffffffffffffffffffffffffffffffffffff\n      and\n      dup2\n      mstore\n      0x20\n      add\n      swap1\n      dup2\n      mstore\n      0x20\n      add\n      0x00\n      keccak256\n      0x00\n        /* \"Campaign.sol\":1696:1732  request.approvals[msg.sender] = true */\n      0x0100\n      exp\n      dup2\n      sload\n      dup2\n      0xff\n      mul\n      not\n      and\n      swap1\n      dup4\n      iszero\n      iszero\n      mul\n      or\n      swap1\n      sstore\n      pop\n        /* \"Campaign.sol\":1743:1750  request */\n      dup1\n        /* \"Campaign.sol\":1743:1764  request.approvalCount */\n      0x02\n      add\n      0x00\n        /* \"Campaign.sol\":1743:1766  request.approvalCount++ */\n      dup2\n      sload\n      dup1\n      swap3\n      swap2\n      swap1\n      tag_124\n      swap1\n      tag_113\n      jump\t// in\n    tag_124:\n      swap2\n      swap1\n      pop\n      sstore\n      pop\n        /* \"Campaign.sol\":1452:1774  {... */\n      pop\n        /* \"Campaign.sol\":1406:1774  function approveRequest(uint _index) external {... */\n      pop\n      jump\t// out\n        /* \"Campaign.sol\":570:722  function initialize(uint _minimum, address _creator) public initializer() {... */\n    tag_71:\n        /* \"@openzeppelin/contracts/proxy/utils/Initializable.sol\":2336:2349   */\n      0x00\n      0x01\n      swap1\n      sload\n      swap1\n      0x0100\n      exp\n      swap1\n      div\n      0xff\n      and\n        /* \"@openzeppelin/contracts/proxy/utils/Initializable.sol\":2336:2384   */\n      tag_126\n      jumpi\n        /* \"@openzeppelin/contracts/proxy/utils/Initializable.sol\":2372:2384   */\n      0x00\n      dup1\n      sload\n      swap1\n      0x0100\n      exp\n      swap1\n      div\n      0xff\n      and\n        /* \"@openzeppelin/contracts/proxy/utils/Initializable.sol\":2371:2384   */\n      iszero\n        /* \"@openzeppelin/contracts/proxy/utils/Initializable.sol\":2336:2384   */\n      jump(tag_127)\n    tag_126:\n        /* \"@openzeppelin/contracts/proxy/utils/Initializable.sol\":2352:2368   */\n      tag_128\n        /* \"@openzeppelin/contracts/proxy/utils/Initializable.sol\":2352:2366   */\n      tag_129\n        /* \"@openzeppelin/contracts/proxy/utils/Initializable.sol\":2352:2368   */\n      jump\t// in\n    tag_128:\n        /* \"@openzeppelin/contracts/proxy/utils/Initializable.sol\":2336:2384   */\n    tag_127:\n        /* \"@openzeppelin/contracts/proxy/utils/Initializable.sol\":2328:2435   */\n      tag_130\n      jumpi\n      mload(0x40)\n      0x08c379a000000000000000000000000000000000000000000000000000000000\n      dup2\n      mstore\n      0x04\n      add\n      tag_131\n      swap1\n      tag_132\n      jump\t// in\n    tag_131:\n      mload(0x40)\n      dup1\n      swap2\n      sub\n      swap1\n      revert\n    tag_130:\n        /* \"@openzeppelin/contracts/proxy/utils/Initializable.sol\":2446:2465   */\n      0x00\n        /* \"@openzeppelin/contracts/proxy/utils/Initializable.sol\":2469:2482   */\n      dup1\n      0x01\n      swap1\n      sload\n      swap1\n      0x0100\n      exp\n      swap1\n      div\n      0xff\n      and\n        /* \"@openzeppelin/contracts/proxy/utils/Initializable.sol\":2468:2482   */\n      iszero\n        /* \"@openzeppelin/contracts/proxy/utils/Initializable.sol\":2446:2482   */\n      swap1\n      pop\n        /* \"@openzeppelin/contracts/proxy/utils/Initializable.sol\":2496:2510   */\n      dup1\n        /* \"@openzeppelin/contracts/proxy/utils/Initializable.sol\":2492:2590   */\n      iszero\n      tag_133\n      jumpi\n        /* \"@openzeppelin/contracts/proxy/utils/Initializable.sol\":2542:2546   */\n      0x01\n        /* \"@openzeppelin/contracts/proxy/utils/Initializable.sol\":2526:2539   */\n      0x00\n      0x01\n        /* \"@openzeppelin/contracts/proxy/utils/Initializable.sol\":2526:2546   */\n      0x0100\n      exp\n      dup2\n      sload\n      dup2\n      0xff\n      mul\n      not\n      and\n      swap1\n      dup4\n      iszero\n      iszero\n      mul\n      or\n      swap1\n      sstore\n      pop\n        /* \"@openzeppelin/contracts/proxy/utils/Initializable.sol\":2575:2579   */\n      0x01\n        /* \"@openzeppelin/contracts/proxy/utils/Initializable.sol\":2560:2572   */\n      0x00\n      dup1\n        /* \"@openzeppelin/contracts/proxy/utils/Initializable.sol\":2560:2579   */\n      0x0100\n      exp\n      dup2\n      sload\n      dup2\n      0xff\n      mul\n      not\n      and\n      swap1\n      dup4\n      iszero\n      iszero\n      mul\n      or\n      swap1\n      sstore\n      pop\n        /* \"@openzeppelin/contracts/proxy/utils/Initializable.sol\":2492:2590   */\n    tag_133:\n        /* \"Campaign.sol\":677:685  _minimum */\n      dup3\n        /* \"Campaign.sol\":655:674  minimumContribution */\n      0x01\n        /* \"Campaign.sol\":655:685  minimumContribution = _minimum */\n      dup2\n      swap1\n      sstore\n      pop\n        /* \"Campaign.sol\":706:714  _creator */\n      dup2\n        /* \"Campaign.sol\":696:703  manager */\n      0x00\n      0x02\n        /* \"Campaign.sol\":696:714  manager = _creator */\n      0x0100\n      exp\n      dup2\n      sload\n      dup2\n      0xffffffffffffffffffffffffffffffffffffffff\n      mul\n      not\n      and\n      swap1\n      dup4\n      0xffffffffffffffffffffffffffffffffffffffff\n      and\n      mul\n      or\n      swap1\n      sstore\n      pop\n        /* \"@openzeppelin/contracts/proxy/utils/Initializable.sol\":2616:2630   */\n      dup1\n        /* \"@openzeppelin/contracts/proxy/utils/Initializable.sol\":2612:2678   */\n      iszero\n      tag_135\n      jumpi\n        /* \"@openzeppelin/contracts/proxy/utils/Initializable.sol\":2662:2667   */\n      0x00\n        /* \"@openzeppelin/contracts/proxy/utils/Initializable.sol\":2646:2659   */\n      dup1\n      0x01\n        /* \"@openzeppelin/contracts/proxy/utils/Initializable.sol\":2646:2667   */\n      0x0100\n      exp\n      dup2\n      sload\n      dup2\n      0xff\n      mul\n      not\n      and\n      swap1\n      dup4\n      iszero\n      iszero\n      mul\n      or\n      swap1\n      sstore\n      pop\n        /* \"@openzeppelin/contracts/proxy/utils/Initializable.sol\":2612:2678   */\n    tag_135:\n        /* \"@openzeppelin/contracts/proxy/utils/Initializable.sol\":2047:2684   */\n      pop\n        /* \"Campaign.sol\":570:722  function initialize(uint _minimum, address _creator) public initializer() {... */\n      pop\n      pop\n      jump\t// out\n        /* \"@openzeppelin/contracts/proxy/utils/Initializable.sol\":3004:3116   */\n    tag_129:\n        /* \"@openzeppelin/contracts/proxy/utils/Initializable.sol\":3052:3056   */\n      0x00\n        /* \"@openzeppelin/contracts/proxy/utils/Initializable.sol\":3076:3109   */\n      tag_137\n        /* \"@openzeppelin/contracts/proxy/utils/Initializable.sol\":3103:3107   */\n      address\n        /* \"@openzeppelin/contracts/proxy/utils/Initializable.sol\":3076:3094   */\n      tag_138\n        /* \"@openzeppelin/contracts/proxy/utils/Initializable.sol\":3076:3109   */\n      jump\t// in\n    tag_137:\n        /* \"@openzeppelin/contracts/proxy/utils/Initializable.sol\":3075:3109   */\n      iszero\n        /* \"@openzeppelin/contracts/proxy/utils/Initializable.sol\":3068:3109   */\n      swap1\n      pop\n        /* \"@openzeppelin/contracts/proxy/utils/Initializable.sol\":3004:3116   */\n      swap1\n      jump\t// out\n        /* \"@openzeppelin/contracts/utils/Address.sol\":771:1148   */\n    tag_138:\n        /* \"@openzeppelin/contracts/utils/Address.sol\":831:835   */\n      0x00\n        /* \"@openzeppelin/contracts/utils/Address.sol\":1034:1046   */\n      dup1\n        /* \"@openzeppelin/contracts/utils/Address.sol\":1099:1106   */\n      dup3\n        /* \"@openzeppelin/contracts/utils/Address.sol\":1087:1107   */\n      extcodesize\n        /* \"@openzeppelin/contracts/utils/Address.sol\":1079:1107   */\n      swap1\n      pop\n        /* \"@openzeppelin/contracts/utils/Address.sol\":1140:1141   */\n      0x00\n        /* \"@openzeppelin/contracts/utils/Address.sol\":1133:1137   */\n      dup2\n        /* \"@openzeppelin/contracts/utils/Address.sol\":1133:1141   */\n      gt\n        /* \"@openzeppelin/contracts/utils/Address.sol\":1126:1141   */\n      swap2\n      pop\n      pop\n        /* \"@openzeppelin/contracts/utils/Address.sol\":771:1148   */\n      swap2\n      swap1\n      pop\n      jump\t// out\n    tag_107:\n      dup3\n      dup1\n      sload\n      tag_140\n      swap1\n      tag_96\n      jump\t// in\n    tag_140:\n      swap1\n      0x00\n      mstore\n      keccak256(0x00, 0x20)\n      swap1\n      0x1f\n      add\n      0x20\n      swap1\n      div\n      dup2\n      add\n      swap3\n      dup3\n      tag_142\n      jumpi\n      0x00\n      dup6\n      sstore\n      jump(tag_141)\n    tag_142:\n      dup3\n      0x1f\n      lt\n      tag_143\n      jumpi\n      dup1\n      calldataload\n      not(0xff)\n      and\n      dup4\n      dup1\n      add\n      or\n      dup6\n      sstore\n      jump(tag_141)\n    tag_143:\n      dup3\n      dup1\n      add\n      0x01\n      add\n      dup6\n      sstore\n      dup3\n      iszero\n      tag_141\n      jumpi\n      swap2\n      dup3\n      add\n    tag_144:\n      dup3\n      dup2\n      gt\n      iszero\n      tag_145\n      jumpi\n      dup3\n      calldataload\n      dup3\n      sstore\n      swap2\n      0x20\n      add\n      swap2\n      swap1\n      0x01\n      add\n      swap1\n      jump(tag_144)\n    tag_145:\n    tag_141:\n      pop\n      swap1\n      pop\n      tag_146\n      swap2\n      swap1\n      tag_147\n      jump\t// in\n    tag_146:\n      pop\n      swap1\n      jump\t// out\n    tag_147:\n    tag_148:\n      dup1\n      dup3\n      gt\n      iszero\n      tag_149\n      jumpi\n      0x00\n      dup2\n      0x00\n      swap1\n      sstore\n      pop\n      0x01\n      add\n      jump(tag_148)\n    tag_149:\n      pop\n      swap1\n      jump\t// out\n        /* \"#utility.yul\":88:205   */\n    tag_151:\n        /* \"#utility.yul\":197:198   */\n      0x00\n        /* \"#utility.yul\":194:195   */\n      dup1\n        /* \"#utility.yul\":187:199   */\n      revert\n        /* \"#utility.yul\":211:328   */\n    tag_152:\n        /* \"#utility.yul\":320:321   */\n      0x00\n        /* \"#utility.yul\":317:318   */\n      dup1\n        /* \"#utility.yul\":310:322   */\n      revert\n        /* \"#utility.yul\":334:411   */\n    tag_153:\n        /* \"#utility.yul\":371:378   */\n      0x00\n        /* \"#utility.yul\":400:405   */\n      dup2\n        /* \"#utility.yul\":389:405   */\n      swap1\n      pop\n        /* \"#utility.yul\":334:411   */\n      swap2\n      swap1\n      pop\n      jump\t// out\n        /* \"#utility.yul\":417:539   */\n    tag_154:\n        /* \"#utility.yul\":490:514   */\n      tag_200\n        /* \"#utility.yul\":508:513   */\n      dup2\n        /* \"#utility.yul\":490:514   */\n      tag_153\n      jump\t// in\n    tag_200:\n        /* \"#utility.yul\":483:488   */\n      dup2\n        /* \"#utility.yul\":480:515   */\n      eq\n        /* \"#utility.yul\":470:533   */\n      tag_201\n      jumpi\n        /* \"#utility.yul\":529:530   */\n      0x00\n        /* \"#utility.yul\":526:527   */\n      dup1\n        /* \"#utility.yul\":519:531   */\n      revert\n        /* \"#utility.yul\":470:533   */\n    tag_201:\n        /* \"#utility.yul\":417:539   */\n      pop\n      jump\t// out\n        /* \"#utility.yul\":545:684   */\n    tag_155:\n        /* \"#utility.yul\":591:596   */\n      0x00\n        /* \"#utility.yul\":629:635   */\n      dup2\n        /* \"#utility.yul\":616:636   */\n      calldataload\n        /* \"#utility.yul\":607:636   */\n      swap1\n      pop\n        /* \"#utility.yul\":645:678   */\n      tag_203\n        /* \"#utility.yul\":672:677   */\n      dup2\n        /* \"#utility.yul\":645:678   */\n      tag_154\n      jump\t// in\n    tag_203:\n        /* \"#utility.yul\":545:684   */\n      swap3\n      swap2\n      pop\n      pop\n      jump\t// out\n        /* \"#utility.yul\":690:1019   */\n    tag_18:\n        /* \"#utility.yul\":749:755   */\n      0x00\n        /* \"#utility.yul\":798:800   */\n      0x20\n        /* \"#utility.yul\":786:795   */\n      dup3\n        /* \"#utility.yul\":777:784   */\n      dup5\n        /* \"#utility.yul\":773:796   */\n      sub\n        /* \"#utility.yul\":769:801   */\n      slt\n        /* \"#utility.yul\":766:885   */\n      iszero\n      tag_205\n      jumpi\n        /* \"#utility.yul\":804:883   */\n      tag_206\n      tag_151\n      jump\t// in\n    tag_206:\n        /* \"#utility.yul\":766:885   */\n    tag_205:\n        /* \"#utility.yul\":924:925   */\n      0x00\n        /* \"#utility.yul\":949:1002   */\n      tag_207\n        /* \"#utility.yul\":994:1001   */\n      dup5\n        /* \"#utility.yul\":985:991   */\n      dup3\n        /* \"#utility.yul\":974:983   */\n      dup6\n        /* \"#utility.yul\":970:992   */\n      add\n        /* \"#utility.yul\":949:1002   */\n      tag_155\n      jump\t// in\n    tag_207:\n        /* \"#utility.yul\":939:1002   */\n      swap2\n      pop\n        /* \"#utility.yul\":895:1012   */\n      pop\n        /* \"#utility.yul\":690:1019   */\n      swap3\n      swap2\n      pop\n      pop\n      jump\t// out\n        /* \"#utility.yul\":1025:1151   */\n    tag_156:\n        /* \"#utility.yul\":1062:1069   */\n      0x00\n        /* \"#utility.yul\":1102:1144   */\n      0xffffffffffffffffffffffffffffffffffffffff\n        /* \"#utility.yul\":1095:1100   */\n      dup3\n        /* \"#utility.yul\":1091:1145   */\n      and\n        /* \"#utility.yul\":1080:1145   */\n      swap1\n      pop\n        /* \"#utility.yul\":1025:1151   */\n      swap2\n      swap1\n      pop\n      jump\t// out\n        /* \"#utility.yul\":1157:1253   */\n    tag_157:\n        /* \"#utility.yul\":1194:1201   */\n      0x00\n        /* \"#utility.yul\":1223:1247   */\n      tag_210\n        /* \"#utility.yul\":1241:1246   */\n      dup3\n        /* \"#utility.yul\":1223:1247   */\n      tag_156\n      jump\t// in\n    tag_210:\n        /* \"#utility.yul\":1212:1247   */\n      swap1\n      pop\n        /* \"#utility.yul\":1157:1253   */\n      swap2\n      swap1\n      pop\n      jump\t// out\n        /* \"#utility.yul\":1259:1381   */\n    tag_158:\n        /* \"#utility.yul\":1332:1356   */\n      tag_212\n        /* \"#utility.yul\":1350:1355   */\n      dup2\n        /* \"#utility.yul\":1332:1356   */\n      tag_157\n      jump\t// in\n    tag_212:\n        /* \"#utility.yul\":1325:1330   */\n      dup2\n        /* \"#utility.yul\":1322:1357   */\n      eq\n        /* \"#utility.yul\":1312:1375   */\n      tag_213\n      jumpi\n        /* \"#utility.yul\":1371:1372   */\n      0x00\n        /* \"#utility.yul\":1368:1369   */\n      dup1\n        /* \"#utility.yul\":1361:1373   */\n      revert\n        /* \"#utility.yul\":1312:1375   */\n    tag_213:\n        /* \"#utility.yul\":1259:1381   */\n      pop\n      jump\t// out\n        /* \"#utility.yul\":1387:1526   */\n    tag_159:\n        /* \"#utility.yul\":1433:1438   */\n      0x00\n        /* \"#utility.yul\":1471:1477   */\n      dup2\n        /* \"#utility.yul\":1458:1478   */\n      calldataload\n        /* \"#utility.yul\":1449:1478   */\n      swap1\n      pop\n        /* \"#utility.yul\":1487:1520   */\n      tag_215\n        /* \"#utility.yul\":1514:1519   */\n      dup2\n        /* \"#utility.yul\":1487:1520   */\n      tag_158\n      jump\t// in\n    tag_215:\n        /* \"#utility.yul\":1387:1526   */\n      swap3\n      swap2\n      pop\n      pop\n      jump\t// out\n        /* \"#utility.yul\":1532:1861   */\n    tag_23:\n        /* \"#utility.yul\":1591:1597   */\n      0x00\n        /* \"#utility.yul\":1640:1642   */\n      0x20\n        /* \"#utility.yul\":1628:1637   */\n      dup3\n        /* \"#utility.yul\":1619:1626   */\n      dup5\n        /* \"#utility.yul\":1615:1638   */\n      sub\n        /* \"#utility.yul\":1611:1643   */\n      slt\n        /* \"#utility.yul\":1608:1727   */\n      iszero\n      tag_217\n      jumpi\n        /* \"#utility.yul\":1646:1725   */\n      tag_218\n      tag_151\n      jump\t// in\n    tag_218:\n        /* \"#utility.yul\":1608:1727   */\n    tag_217:\n        /* \"#utility.yul\":1766:1767   */\n      0x00\n        /* \"#utility.yul\":1791:1844   */\n      tag_219\n        /* \"#utility.yul\":1836:1843   */\n      dup5\n        /* \"#utility.yul\":1827:1833   */\n      dup3\n        /* \"#utility.yul\":1816:1825   */\n      dup6\n        /* \"#utility.yul\":1812:1834   */\n      add\n        /* \"#utility.yul\":1791:1844   */\n      tag_159\n      jump\t// in\n    tag_219:\n        /* \"#utility.yul\":1781:1844   */\n      swap2\n      pop\n        /* \"#utility.yul\":1737:1854   */\n      pop\n        /* \"#utility.yul\":1532:1861   */\n      swap3\n      swap2\n      pop\n      pop\n      jump\t// out\n        /* \"#utility.yul\":1867:1957   */\n    tag_160:\n        /* \"#utility.yul\":1901:1908   */\n      0x00\n        /* \"#utility.yul\":1944:1949   */\n      dup2\n        /* \"#utility.yul\":1937:1950   */\n      iszero\n        /* \"#utility.yul\":1930:1951   */\n      iszero\n        /* \"#utility.yul\":1919:1951   */\n      swap1\n      pop\n        /* \"#utility.yul\":1867:1957   */\n      swap2\n      swap1\n      pop\n      jump\t// out\n        /* \"#utility.yul\":1963:2072   */\n    tag_161:\n        /* \"#utility.yul\":2044:2065   */\n      tag_222\n        /* \"#utility.yul\":2059:2064   */\n      dup2\n        /* \"#utility.yul\":2044:2065   */\n      tag_160\n      jump\t// in\n    tag_222:\n        /* \"#utility.yul\":2039:2042   */\n      dup3\n        /* \"#utility.yul\":2032:2066   */\n      mstore\n        /* \"#utility.yul\":1963:2072   */\n      pop\n      pop\n      jump\t// out\n        /* \"#utility.yul\":2078:2288   */\n    tag_26:\n        /* \"#utility.yul\":2165:2169   */\n      0x00\n        /* \"#utility.yul\":2203:2205   */\n      0x20\n        /* \"#utility.yul\":2192:2201   */\n      dup3\n        /* \"#utility.yul\":2188:2206   */\n      add\n        /* \"#utility.yul\":2180:2206   */\n      swap1\n      pop\n        /* \"#utility.yul\":2216:2281   */\n      tag_224\n        /* \"#utility.yul\":2278:2279   */\n      0x00\n        /* \"#utility.yul\":2267:2276   */\n      dup4\n        /* \"#utility.yul\":2263:2280   */\n      add\n        /* \"#utility.yul\":2254:2260   */\n      dup5\n        /* \"#utility.yul\":2216:2281   */\n      tag_161\n      jump\t// in\n    tag_224:\n        /* \"#utility.yul\":2078:2288   */\n      swap3\n      swap2\n      pop\n      pop\n      jump\t// out\n        /* \"#utility.yul\":2294:2412   */\n    tag_162:\n        /* \"#utility.yul\":2381:2405   */\n      tag_226\n        /* \"#utility.yul\":2399:2404   */\n      dup2\n        /* \"#utility.yul\":2381:2405   */\n      tag_153\n      jump\t// in\n    tag_226:\n        /* \"#utility.yul\":2376:2379   */\n      dup3\n        /* \"#utility.yul\":2369:2406   */\n      mstore\n        /* \"#utility.yul\":2294:2412   */\n      pop\n      pop\n      jump\t// out\n        /* \"#utility.yul\":2418:2640   */\n    tag_31:\n        /* \"#utility.yul\":2511:2515   */\n      0x00\n        /* \"#utility.yul\":2549:2551   */\n      0x20\n        /* \"#utility.yul\":2538:2547   */\n      dup3\n        /* \"#utility.yul\":2534:2552   */\n      add\n        /* \"#utility.yul\":2526:2552   */\n      swap1\n      pop\n        /* \"#utility.yul\":2562:2633   */\n      tag_228\n        /* \"#utility.yul\":2630:2631   */\n      0x00\n        /* \"#utility.yul\":2619:2628   */\n      dup4\n        /* \"#utility.yul\":2615:2632   */\n      add\n        /* \"#utility.yul\":2606:2612   */\n      dup5\n        /* \"#utility.yul\":2562:2633   */\n      tag_162\n      jump\t// in\n    tag_228:\n        /* \"#utility.yul\":2418:2640   */\n      swap3\n      swap2\n      pop\n      pop\n      jump\t// out\n        /* \"#utility.yul\":2646:2764   */\n    tag_163:\n        /* \"#utility.yul\":2733:2757   */\n      tag_230\n        /* \"#utility.yul\":2751:2756   */\n      dup2\n        /* \"#utility.yul\":2733:2757   */\n      tag_157\n      jump\t// in\n    tag_230:\n        /* \"#utility.yul\":2728:2731   */\n      dup3\n        /* \"#utility.yul\":2721:2758   */\n      mstore\n        /* \"#utility.yul\":2646:2764   */\n      pop\n      pop\n      jump\t// out\n        /* \"#utility.yul\":2770:3434   */\n    tag_36:\n        /* \"#utility.yul\":2975:2979   */\n      0x00\n        /* \"#utility.yul\":3013:3016   */\n      0xa0\n        /* \"#utility.yul\":3002:3011   */\n      dup3\n        /* \"#utility.yul\":2998:3017   */\n      add\n        /* \"#utility.yul\":2990:3017   */\n      swap1\n      pop\n        /* \"#utility.yul\":3027:3098   */\n      tag_232\n        /* \"#utility.yul\":3095:3096   */\n      0x00\n        /* \"#utility.yul\":3084:3093   */\n      dup4\n        /* \"#utility.yul\":3080:3097   */\n      add\n        /* \"#utility.yul\":3071:3077   */\n      dup9\n        /* \"#utility.yul\":3027:3098   */\n      tag_162\n      jump\t// in\n    tag_232:\n        /* \"#utility.yul\":3108:3180   */\n      tag_233\n        /* \"#utility.yul\":3176:3178   */\n      0x20\n        /* \"#utility.yul\":3165:3174   */\n      dup4\n        /* \"#utility.yul\":3161:3179   */\n      add\n        /* \"#utility.yul\":3152:3158   */\n      dup8\n        /* \"#utility.yul\":3108:3180   */\n      tag_162\n      jump\t// in\n    tag_233:\n        /* \"#utility.yul\":3190:3262   */\n      tag_234\n        /* \"#utility.yul\":3258:3260   */\n      0x40\n        /* \"#utility.yul\":3247:3256   */\n      dup4\n        /* \"#utility.yul\":3243:3261   */\n      add\n        /* \"#utility.yul\":3234:3240   */\n      dup7\n        /* \"#utility.yul\":3190:3262   */\n      tag_162\n      jump\t// in\n    tag_234:\n        /* \"#utility.yul\":3272:3344   */\n      tag_235\n        /* \"#utility.yul\":3340:3342   */\n      0x60\n        /* \"#utility.yul\":3329:3338   */\n      dup4\n        /* \"#utility.yul\":3325:3343   */\n      add\n        /* \"#utility.yul\":3316:3322   */\n      dup6\n        /* \"#utility.yul\":3272:3344   */\n      tag_162\n      jump\t// in\n    tag_235:\n        /* \"#utility.yul\":3354:3427   */\n      tag_236\n        /* \"#utility.yul\":3422:3425   */\n      0x80\n        /* \"#utility.yul\":3411:3420   */\n      dup4\n        /* \"#utility.yul\":3407:3426   */\n      add\n        /* \"#utility.yul\":3398:3404   */\n      dup5\n        /* \"#utility.yul\":3354:3427   */\n      tag_163\n      jump\t// in\n    tag_236:\n        /* \"#utility.yul\":2770:3434   */\n      swap7\n      swap6\n      pop\n      pop\n      pop\n      pop\n      pop\n      pop\n      jump\t// out\n        /* \"#utility.yul\":3440:3662   */\n    tag_41:\n        /* \"#utility.yul\":3533:3537   */\n      0x00\n        /* \"#utility.yul\":3571:3573   */\n      0x20\n        /* \"#utility.yul\":3560:3569   */\n      dup3\n        /* \"#utility.yul\":3556:3574   */\n      add\n        /* \"#utility.yul\":3548:3574   */\n      swap1\n      pop\n        /* \"#utility.yul\":3584:3655   */\n      tag_238\n        /* \"#utility.yul\":3652:3653   */\n      0x00\n        /* \"#utility.yul\":3641:3650   */\n      dup4\n        /* \"#utility.yul\":3637:3654   */\n      add\n        /* \"#utility.yul\":3628:3634   */\n      dup5\n        /* \"#utility.yul\":3584:3655   */\n      tag_163\n      jump\t// in\n    tag_238:\n        /* \"#utility.yul\":3440:3662   */\n      swap3\n      swap2\n      pop\n      pop\n      jump\t// out\n        /* \"#utility.yul\":3668:3767   */\n    tag_164:\n        /* \"#utility.yul\":3720:3726   */\n      0x00\n        /* \"#utility.yul\":3754:3759   */\n      dup2\n        /* \"#utility.yul\":3748:3760   */\n      mload\n        /* \"#utility.yul\":3738:3760   */\n      swap1\n      pop\n        /* \"#utility.yul\":3668:3767   */\n      swap2\n      swap1\n      pop\n      jump\t// out\n        /* \"#utility.yul\":3773:3942   */\n    tag_165:\n        /* \"#utility.yul\":3857:3868   */\n      0x00\n        /* \"#utility.yul\":3891:3897   */\n      dup3\n        /* \"#utility.yul\":3886:3889   */\n      dup3\n        /* \"#utility.yul\":3879:3898   */\n      mstore\n        /* \"#utility.yul\":3931:3935   */\n      0x20\n        /* \"#utility.yul\":3926:3929   */\n      dup3\n        /* \"#utility.yul\":3922:3936   */\n      add\n        /* \"#utility.yul\":3907:3936   */\n      swap1\n      pop\n        /* \"#utility.yul\":3773:3942   */\n      swap3\n      swap2\n      pop\n      pop\n      jump\t// out\n        /* \"#utility.yul\":3948:4255   */\n    tag_166:\n        /* \"#utility.yul\":4016:4017   */\n      0x00\n        /* \"#utility.yul\":4026:4139   */\n    tag_242:\n        /* \"#utility.yul\":4040:4046   */\n      dup4\n        /* \"#utility.yul\":4037:4038   */\n      dup2\n        /* \"#utility.yul\":4034:4047   */\n      lt\n        /* \"#utility.yul\":4026:4139   */\n      iszero\n      tag_244\n      jumpi\n        /* \"#utility.yul\":4125:4126   */\n      dup1\n        /* \"#utility.yul\":4120:4123   */\n      dup3\n        /* \"#utility.yul\":4116:4127   */\n      add\n        /* \"#utility.yul\":4110:4128   */\n      mload\n        /* \"#utility.yul\":4106:4107   */\n      dup2\n        /* \"#utility.yul\":4101:4104   */\n      dup5\n        /* \"#utility.yul\":4097:4108   */\n      add\n        /* \"#utility.yul\":4090:4129   */\n      mstore\n        /* \"#utility.yul\":4062:4064   */\n      0x20\n        /* \"#utility.yul\":4059:4060   */\n      dup2\n        /* \"#utility.yul\":4055:4065   */\n      add\n        /* \"#utility.yul\":4050:4065   */\n      swap1\n      pop\n        /* \"#utility.yul\":4026:4139   */\n      jump(tag_242)\n    tag_244:\n        /* \"#utility.yul\":4157:4163   */\n      dup4\n        /* \"#utility.yul\":4154:4155   */\n      dup2\n        /* \"#utility.yul\":4151:4164   */\n      gt\n        /* \"#utility.yul\":4148:4249   */\n      iszero\n      tag_245\n      jumpi\n        /* \"#utility.yul\":4237:4238   */\n      0x00\n        /* \"#utility.yul\":4228:4234   */\n      dup5\n        /* \"#utility.yul\":4223:4226   */\n      dup5\n        /* \"#utility.yul\":4219:4235   */\n      add\n        /* \"#utility.yul\":4212:4239   */\n      mstore\n        /* \"#utility.yul\":4148:4249   */\n    tag_245:\n        /* \"#utility.yul\":3997:4255   */\n      pop\n        /* \"#utility.yul\":3948:4255   */\n      pop\n      pop\n      pop\n      jump\t// out\n        /* \"#utility.yul\":4261:4363   */\n    tag_167:\n        /* \"#utility.yul\":4302:4308   */\n      0x00\n        /* \"#utility.yul\":4353:4355   */\n      0x1f\n        /* \"#utility.yul\":4349:4356   */\n      not\n        /* \"#utility.yul\":4344:4346   */\n      0x1f\n        /* \"#utility.yul\":4337:4342   */\n      dup4\n        /* \"#utility.yul\":4333:4347   */\n      add\n        /* \"#utility.yul\":4329:4357   */\n      and\n        /* \"#utility.yul\":4319:4357   */\n      swap1\n      pop\n        /* \"#utility.yul\":4261:4363   */\n      swap2\n      swap1\n      pop\n      jump\t// out\n        /* \"#utility.yul\":4369:4733   */\n    tag_168:\n        /* \"#utility.yul\":4457:4460   */\n      0x00\n        /* \"#utility.yul\":4485:4524   */\n      tag_248\n        /* \"#utility.yul\":4518:4523   */\n      dup3\n        /* \"#utility.yul\":4485:4524   */\n      tag_164\n      jump\t// in\n    tag_248:\n        /* \"#utility.yul\":4540:4611   */\n      tag_249\n        /* \"#utility.yul\":4604:4610   */\n      dup2\n        /* \"#utility.yul\":4599:4602   */\n      dup6\n        /* \"#utility.yul\":4540:4611   */\n      tag_165\n      jump\t// in\n    tag_249:\n        /* \"#utility.yul\":4533:4611   */\n      swap4\n      pop\n        /* \"#utility.yul\":4620:4672   */\n      tag_250\n        /* \"#utility.yul\":4665:4671   */\n      dup2\n        /* \"#utility.yul\":4660:4663   */\n      dup6\n        /* \"#utility.yul\":4653:4657   */\n      0x20\n        /* \"#utility.yul\":4646:4651   */\n      dup7\n        /* \"#utility.yul\":4642:4658   */\n      add\n        /* \"#utility.yul\":4620:4672   */\n      tag_166\n      jump\t// in\n    tag_250:\n        /* \"#utility.yul\":4697:4726   */\n      tag_251\n        /* \"#utility.yul\":4719:4725   */\n      dup2\n        /* \"#utility.yul\":4697:4726   */\n      tag_167\n      jump\t// in\n    tag_251:\n        /* \"#utility.yul\":4692:4695   */\n      dup5\n        /* \"#utility.yul\":4688:4727   */\n      add\n        /* \"#utility.yul\":4681:4727   */\n      swap2\n      pop\n        /* \"#utility.yul\":4461:4733   */\n      pop\n        /* \"#utility.yul\":4369:4733   */\n      swap3\n      swap2\n      pop\n      pop\n      jump\t// out\n        /* \"#utility.yul\":4739:4843   */\n    tag_169:\n        /* \"#utility.yul\":4784:4791   */\n      0x00\n        /* \"#utility.yul\":4813:4837   */\n      tag_253\n        /* \"#utility.yul\":4831:4836   */\n      dup3\n        /* \"#utility.yul\":4813:4837   */\n      tag_156\n      jump\t// in\n    tag_253:\n        /* \"#utility.yul\":4802:4837   */\n      swap1\n      pop\n        /* \"#utility.yul\":4739:4843   */\n      swap2\n      swap1\n      pop\n      jump\t// out\n        /* \"#utility.yul\":4849:4991   */\n    tag_170:\n        /* \"#utility.yul\":4952:4984   */\n      tag_255\n        /* \"#utility.yul\":4978:4983   */\n      dup2\n        /* \"#utility.yul\":4952:4984   */\n      tag_169\n      jump\t// in\n    tag_255:\n        /* \"#utility.yul\":4947:4950   */\n      dup3\n        /* \"#utility.yul\":4940:4985   */\n      mstore\n        /* \"#utility.yul\":4849:4991   */\n      pop\n      pop\n      jump\t// out\n        /* \"#utility.yul\":4997:5772   */\n    tag_47:\n        /* \"#utility.yul\":5232:5236   */\n      0x00\n        /* \"#utility.yul\":5270:5273   */\n      0xa0\n        /* \"#utility.yul\":5259:5268   */\n      dup3\n        /* \"#utility.yul\":5255:5274   */\n      add\n        /* \"#utility.yul\":5247:5274   */\n      swap1\n      pop\n        /* \"#utility.yul\":5320:5329   */\n      dup2\n        /* \"#utility.yul\":5314:5318   */\n      dup2\n        /* \"#utility.yul\":5310:5330   */\n      sub\n        /* \"#utility.yul\":5306:5307   */\n      0x00\n        /* \"#utility.yul\":5295:5304   */\n      dup4\n        /* \"#utility.yul\":5291:5308   */\n      add\n        /* \"#utility.yul\":5284:5331   */\n      mstore\n        /* \"#utility.yul\":5348:5426   */\n      tag_257\n        /* \"#utility.yul\":5421:5425   */\n      dup2\n        /* \"#utility.yul\":5412:5418   */\n      dup9\n        /* \"#utility.yul\":5348:5426   */\n      tag_168\n      jump\t// in\n    tag_257:\n        /* \"#utility.yul\":5340:5426   */\n      swap1\n      pop\n        /* \"#utility.yul\":5436:5508   */\n      tag_258\n        /* \"#utility.yul\":5504:5506   */\n      0x20\n        /* \"#utility.yul\":5493:5502   */\n      dup4\n        /* \"#utility.yul\":5489:5507   */\n      add\n        /* \"#utility.yul\":5480:5486   */\n      dup8\n        /* \"#utility.yul\":5436:5508   */\n      tag_162\n      jump\t// in\n    tag_258:\n        /* \"#utility.yul\":5518:5590   */\n      tag_259\n        /* \"#utility.yul\":5586:5588   */\n      0x40\n        /* \"#utility.yul\":5575:5584   */\n      dup4\n        /* \"#utility.yul\":5571:5589   */\n      add\n        /* \"#utility.yul\":5562:5568   */\n      dup7\n        /* \"#utility.yul\":5518:5590   */\n      tag_162\n      jump\t// in\n    tag_259:\n        /* \"#utility.yul\":5600:5688   */\n      tag_260\n        /* \"#utility.yul\":5684:5686   */\n      0x60\n        /* \"#utility.yul\":5673:5682   */\n      dup4\n        /* \"#utility.yul\":5669:5687   */\n      add\n        /* \"#utility.yul\":5660:5666   */\n      dup6\n        /* \"#utility.yul\":5600:5688   */\n      tag_170\n      jump\t// in\n    tag_260:\n        /* \"#utility.yul\":5698:5765   */\n      tag_261\n        /* \"#utility.yul\":5760:5763   */\n      0x80\n        /* \"#utility.yul\":5749:5758   */\n      dup4\n        /* \"#utility.yul\":5745:5764   */\n      add\n        /* \"#utility.yul\":5736:5742   */\n      dup5\n        /* \"#utility.yul\":5698:5765   */\n      tag_161\n      jump\t// in\n    tag_261:\n        /* \"#utility.yul\":4997:5772   */\n      swap7\n      swap6\n      pop\n      pop\n      pop\n      pop\n      pop\n      pop\n      jump\t// out\n        /* \"#utility.yul\":5778:5895   */\n    tag_171:\n        /* \"#utility.yul\":5887:5888   */\n      0x00\n        /* \"#utility.yul\":5884:5885   */\n      dup1\n        /* \"#utility.yul\":5877:5889   */\n      revert\n        /* \"#utility.yul\":5901:6018   */\n    tag_172:\n        /* \"#utility.yul\":6010:6011   */\n      0x00\n        /* \"#utility.yul\":6007:6008   */\n      dup1\n        /* \"#utility.yul\":6000:6012   */\n      revert\n        /* \"#utility.yul\":6024:6141   */\n    tag_173:\n        /* \"#utility.yul\":6133:6134   */\n      0x00\n        /* \"#utility.yul\":6130:6131   */\n      dup1\n        /* \"#utility.yul\":6123:6135   */\n      revert\n        /* \"#utility.yul\":6161:6714   */\n    tag_174:\n        /* \"#utility.yul\":6219:6227   */\n      0x00\n        /* \"#utility.yul\":6229:6235   */\n      dup1\n        /* \"#utility.yul\":6279:6282   */\n      dup4\n        /* \"#utility.yul\":6272:6276   */\n      0x1f\n        /* \"#utility.yul\":6264:6270   */\n      dup5\n        /* \"#utility.yul\":6260:6277   */\n      add\n        /* \"#utility.yul\":6256:6283   */\n      slt\n        /* \"#utility.yul\":6246:6368   */\n      tag_266\n      jumpi\n        /* \"#utility.yul\":6287:6366   */\n      tag_267\n      tag_171\n      jump\t// in\n    tag_267:\n        /* \"#utility.yul\":6246:6368   */\n    tag_266:\n        /* \"#utility.yul\":6400:6406   */\n      dup3\n        /* \"#utility.yul\":6387:6407   */\n      calldataload\n        /* \"#utility.yul\":6377:6407   */\n      swap1\n      pop\n        /* \"#utility.yul\":6430:6448   */\n      0xffffffffffffffff\n        /* \"#utility.yul\":6422:6428   */\n      dup2\n        /* \"#utility.yul\":6419:6449   */\n      gt\n        /* \"#utility.yul\":6416:6533   */\n      iszero\n      tag_268\n      jumpi\n        /* \"#utility.yul\":6452:6531   */\n      tag_269\n      tag_172\n      jump\t// in\n    tag_269:\n        /* \"#utility.yul\":6416:6533   */\n    tag_268:\n        /* \"#utility.yul\":6566:6570   */\n      0x20\n        /* \"#utility.yul\":6558:6564   */\n      dup4\n        /* \"#utility.yul\":6554:6571   */\n      add\n        /* \"#utility.yul\":6542:6571   */\n      swap2\n      pop\n        /* \"#utility.yul\":6620:6623   */\n      dup4\n        /* \"#utility.yul\":6612:6616   */\n      0x01\n        /* \"#utility.yul\":6604:6610   */\n      dup3\n        /* \"#utility.yul\":6600:6617   */\n      mul\n        /* \"#utility.yul\":6590:6598   */\n      dup4\n        /* \"#utility.yul\":6586:6618   */\n      add\n        /* \"#utility.yul\":6583:6624   */\n      gt\n        /* \"#utility.yul\":6580:6708   */\n      iszero\n      tag_270\n      jumpi\n        /* \"#utility.yul\":6627:6706   */\n      tag_271\n      tag_173\n      jump\t// in\n    tag_271:\n        /* \"#utility.yul\":6580:6708   */\n    tag_270:\n        /* \"#utility.yul\":6161:6714   */\n      swap3\n      pop\n      swap3\n      swap1\n      pop\n      jump\t// out\n        /* \"#utility.yul\":6720:6858   */\n    tag_175:\n        /* \"#utility.yul\":6801:6833   */\n      tag_273\n        /* \"#utility.yul\":6827:6832   */\n      dup2\n        /* \"#utility.yul\":6801:6833   */\n      tag_169\n      jump\t// in\n    tag_273:\n        /* \"#utility.yul\":6794:6799   */\n      dup2\n        /* \"#utility.yul\":6791:6834   */\n      eq\n        /* \"#utility.yul\":6781:6852   */\n      tag_274\n      jumpi\n        /* \"#utility.yul\":6848:6849   */\n      0x00\n        /* \"#utility.yul\":6845:6846   */\n      dup1\n        /* \"#utility.yul\":6838:6850   */\n      revert\n        /* \"#utility.yul\":6781:6852   */\n    tag_274:\n        /* \"#utility.yul\":6720:6858   */\n      pop\n      jump\t// out\n        /* \"#utility.yul\":6864:7019   */\n    tag_176:\n        /* \"#utility.yul\":6918:6923   */\n      0x00\n        /* \"#utility.yul\":6956:6962   */\n      dup2\n        /* \"#utility.yul\":6943:6963   */\n      calldataload\n        /* \"#utility.yul\":6934:6963   */\n      swap1\n      pop\n        /* \"#utility.yul\":6972:7013   */\n      tag_276\n        /* \"#utility.yul\":7007:7012   */\n      dup2\n        /* \"#utility.yul\":6972:7013   */\n      tag_175\n      jump\t// in\n    tag_276:\n        /* \"#utility.yul\":6864:7019   */\n      swap3\n      swap2\n      pop\n      pop\n      jump\t// out\n        /* \"#utility.yul\":7025:7860   */\n    tag_55:\n        /* \"#utility.yul\":7122:7128   */\n      0x00\n        /* \"#utility.yul\":7130:7136   */\n      dup1\n        /* \"#utility.yul\":7138:7144   */\n      0x00\n        /* \"#utility.yul\":7146:7152   */\n      dup1\n        /* \"#utility.yul\":7195:7197   */\n      0x60\n        /* \"#utility.yul\":7183:7192   */\n      dup6\n        /* \"#utility.yul\":7174:7181   */\n      dup8\n        /* \"#utility.yul\":7170:7193   */\n      sub\n        /* \"#utility.yul\":7166:7198   */\n      slt\n        /* \"#utility.yul\":7163:7282   */\n      iszero\n      tag_278\n      jumpi\n        /* \"#utility.yul\":7201:7280   */\n      tag_279\n      tag_151\n      jump\t// in\n    tag_279:\n        /* \"#utility.yul\":7163:7282   */\n    tag_278:\n        /* \"#utility.yul\":7349:7350   */\n      0x00\n        /* \"#utility.yul\":7338:7347   */\n      dup6\n        /* \"#utility.yul\":7334:7351   */\n      add\n        /* \"#utility.yul\":7321:7352   */\n      calldataload\n        /* \"#utility.yul\":7379:7397   */\n      0xffffffffffffffff\n        /* \"#utility.yul\":7371:7377   */\n      dup2\n        /* \"#utility.yul\":7368:7398   */\n      gt\n        /* \"#utility.yul\":7365:7482   */\n      iszero\n      tag_280\n      jumpi\n        /* \"#utility.yul\":7401:7480   */\n      tag_281\n      tag_152\n      jump\t// in\n    tag_281:\n        /* \"#utility.yul\":7365:7482   */\n    tag_280:\n        /* \"#utility.yul\":7514:7579   */\n      tag_282\n        /* \"#utility.yul\":7571:7578   */\n      dup8\n        /* \"#utility.yul\":7562:7568   */\n      dup3\n        /* \"#utility.yul\":7551:7560   */\n      dup9\n        /* \"#utility.yul\":7547:7569   */\n      add\n        /* \"#utility.yul\":7514:7579   */\n      tag_174\n      jump\t// in\n    tag_282:\n        /* \"#utility.yul\":7496:7579   */\n      swap5\n      pop\n      swap5\n      pop\n        /* \"#utility.yul\":7292:7589   */\n      pop\n        /* \"#utility.yul\":7628:7630   */\n      0x20\n        /* \"#utility.yul\":7654:7707   */\n      tag_283\n        /* \"#utility.yul\":7699:7706   */\n      dup8\n        /* \"#utility.yul\":7690:7696   */\n      dup3\n        /* \"#utility.yul\":7679:7688   */\n      dup9\n        /* \"#utility.yul\":7675:7697   */\n      add\n        /* \"#utility.yul\":7654:7707   */\n      tag_155\n      jump\t// in\n    tag_283:\n        /* \"#utility.yul\":7644:7707   */\n      swap3\n      pop\n        /* \"#utility.yul\":7599:7717   */\n      pop\n        /* \"#utility.yul\":7756:7758   */\n      0x40\n        /* \"#utility.yul\":7782:7843   */\n      tag_284\n        /* \"#utility.yul\":7835:7842   */\n      dup8\n        /* \"#utility.yul\":7826:7832   */\n      dup3\n        /* \"#utility.yul\":7815:7824   */\n      dup9\n        /* \"#utility.yul\":7811:7833   */\n      add\n        /* \"#utility.yul\":7782:7843   */\n      tag_176\n      jump\t// in\n    tag_284:\n        /* \"#utility.yul\":7772:7843   */\n      swap2\n      pop\n        /* \"#utility.yul\":7727:7853   */\n      pop\n        /* \"#utility.yul\":7025:7860   */\n      swap3\n      swap6\n      swap2\n      swap5\n      pop\n      swap3\n      pop\n      jump\t// out\n        /* \"#utility.yul\":7866:8340   */\n    tag_70:\n        /* \"#utility.yul\":7934:7940   */\n      0x00\n        /* \"#utility.yul\":7942:7948   */\n      dup1\n        /* \"#utility.yul\":7991:7993   */\n      0x40\n        /* \"#utility.yul\":7979:7988   */\n      dup4\n        /* \"#utility.yul\":7970:7977   */\n      dup6\n        /* \"#utility.yul\":7966:7989   */\n      sub\n        /* \"#utility.yul\":7962:7994   */\n      slt\n        /* \"#utility.yul\":7959:8078   */\n      iszero\n      tag_286\n      jumpi\n        /* \"#utility.yul\":7997:8076   */\n      tag_287\n      tag_151\n      jump\t// in\n    tag_287:\n        /* \"#utility.yul\":7959:8078   */\n    tag_286:\n        /* \"#utility.yul\":8117:8118   */\n      0x00\n        /* \"#utility.yul\":8142:8195   */\n      tag_288\n        /* \"#utility.yul\":8187:8194   */\n      dup6\n        /* \"#utility.yul\":8178:8184   */\n      dup3\n        /* \"#utility.yul\":8167:8176   */\n      dup7\n        /* \"#utility.yul\":8163:8185   */\n      add\n        /* \"#utility.yul\":8142:8195   */\n      tag_155\n      jump\t// in\n    tag_288:\n        /* \"#utility.yul\":8132:8195   */\n      swap3\n      pop\n        /* \"#utility.yul\":8088:8205   */\n      pop\n        /* \"#utility.yul\":8244:8246   */\n      0x20\n        /* \"#utility.yul\":8270:8323   */\n      tag_289\n        /* \"#utility.yul\":8315:8322   */\n      dup6\n        /* \"#utility.yul\":8306:8312   */\n      dup3\n        /* \"#utility.yul\":8295:8304   */\n      dup7\n        /* \"#utility.yul\":8291:8313   */\n      add\n        /* \"#utility.yul\":8270:8323   */\n      tag_159\n      jump\t// in\n    tag_289:\n        /* \"#utility.yul\":8260:8323   */\n      swap2\n      pop\n        /* \"#utility.yul\":8215:8333   */\n      pop\n        /* \"#utility.yul\":7866:8340   */\n      swap3\n      pop\n      swap3\n      swap1\n      pop\n      jump\t// out\n        /* \"#utility.yul\":8346:8574   */\n    tag_177:\n        /* \"#utility.yul\":8486:8520   */\n      0x4f6e6c7920746865206d616e616765722063616e20706572666f726d20746869\n        /* \"#utility.yul\":8482:8483   */\n      0x00\n        /* \"#utility.yul\":8474:8480   */\n      dup3\n        /* \"#utility.yul\":8470:8484   */\n      add\n        /* \"#utility.yul\":8463:8521   */\n      mstore\n        /* \"#utility.yul\":8555:8566   */\n      0x7320616374696f6e2e0000000000000000000000000000000000000000000000\n        /* \"#utility.yul\":8550:8552   */\n      0x20\n        /* \"#utility.yul\":8542:8548   */\n      dup3\n        /* \"#utility.yul\":8538:8553   */\n      add\n        /* \"#utility.yul\":8531:8567   */\n      mstore\n        /* \"#utility.yul\":8346:8574   */\n      pop\n      jump\t// out\n        /* \"#utility.yul\":8580:8946   */\n    tag_178:\n        /* \"#utility.yul\":8722:8725   */\n      0x00\n        /* \"#utility.yul\":8743:8810   */\n      tag_292\n        /* \"#utility.yul\":8807:8809   */\n      0x29\n        /* \"#utility.yul\":8802:8805   */\n      dup4\n        /* \"#utility.yul\":8743:8810   */\n      tag_165\n      jump\t// in\n    tag_292:\n        /* \"#utility.yul\":8736:8810   */\n      swap2\n      pop\n        /* \"#utility.yul\":8819:8912   */\n      tag_293\n        /* \"#utility.yul\":8908:8911   */\n      dup3\n        /* \"#utility.yul\":8819:8912   */\n      tag_177\n      jump\t// in\n    tag_293:\n        /* \"#utility.yul\":8937:8939   */\n      0x40\n        /* \"#utility.yul\":8932:8935   */\n      dup3\n        /* \"#utility.yul\":8928:8940   */\n      add\n        /* \"#utility.yul\":8921:8940   */\n      swap1\n      pop\n        /* \"#utility.yul\":8580:8946   */\n      swap2\n      swap1\n      pop\n      jump\t// out\n        /* \"#utility.yul\":8952:9371   */\n    tag_75:\n        /* \"#utility.yul\":9118:9122   */\n      0x00\n        /* \"#utility.yul\":9156:9158   */\n      0x20\n        /* \"#utility.yul\":9145:9154   */\n      dup3\n        /* \"#utility.yul\":9141:9159   */\n      add\n        /* \"#utility.yul\":9133:9159   */\n      swap1\n      pop\n        /* \"#utility.yul\":9205:9214   */\n      dup2\n        /* \"#utility.yul\":9199:9203   */\n      dup2\n        /* \"#utility.yul\":9195:9215   */\n      sub\n        /* \"#utility.yul\":9191:9192   */\n      0x00\n        /* \"#utility.yul\":9180:9189   */\n      dup4\n        /* \"#utility.yul\":9176:9193   */\n      add\n        /* \"#utility.yul\":9169:9216   */\n      mstore\n        /* \"#utility.yul\":9233:9364   */\n      tag_295\n        /* \"#utility.yul\":9359:9363   */\n      dup2\n        /* \"#utility.yul\":9233:9364   */\n      tag_178\n      jump\t// in\n    tag_295:\n        /* \"#utility.yul\":9225:9364   */\n      swap1\n      pop\n        /* \"#utility.yul\":8952:9371   */\n      swap2\n      swap1\n      pop\n      jump\t// out\n        /* \"#utility.yul\":9377:9557   */\n    tag_79:\n        /* \"#utility.yul\":9425:9502   */\n      0x4e487b7100000000000000000000000000000000000000000000000000000000\n        /* \"#utility.yul\":9422:9423   */\n      0x00\n        /* \"#utility.yul\":9415:9503   */\n      mstore\n        /* \"#utility.yul\":9522:9526   */\n      0x32\n        /* \"#utility.yul\":9519:9520   */\n      0x04\n        /* \"#utility.yul\":9512:9527   */\n      mstore\n        /* \"#utility.yul\":9546:9550   */\n      0x24\n        /* \"#utility.yul\":9543:9544   */\n      0x00\n        /* \"#utility.yul\":9536:9551   */\n      revert\n        /* \"#utility.yul\":9563:9739   */\n    tag_179:\n        /* \"#utility.yul\":9703:9731   */\n      0x5265717565737420616c72656164792066696e616c697a65642e000000000000\n        /* \"#utility.yul\":9699:9700   */\n      0x00\n        /* \"#utility.yul\":9691:9697   */\n      dup3\n        /* \"#utility.yul\":9687:9701   */\n      add\n        /* \"#utility.yul\":9680:9732   */\n      mstore\n        /* \"#utility.yul\":9563:9739   */\n      pop\n      jump\t// out\n        /* \"#utility.yul\":9745:10111   */\n    tag_180:\n        /* \"#utility.yul\":9887:9890   */\n      0x00\n        /* \"#utility.yul\":9908:9975   */\n      tag_299\n        /* \"#utility.yul\":9972:9974   */\n      0x1a\n        /* \"#utility.yul\":9967:9970   */\n      dup4\n        /* \"#utility.yul\":9908:9975   */\n      tag_165\n      jump\t// in\n    tag_299:\n        /* \"#utility.yul\":9901:9975   */\n      swap2\n      pop\n        /* \"#utility.yul\":9984:10077   */\n      tag_300\n        /* \"#utility.yul\":10073:10076   */\n      dup3\n        /* \"#utility.yul\":9984:10077   */\n      tag_179\n      jump\t// in\n    tag_300:\n        /* \"#utility.yul\":10102:10104   */\n      0x20\n        /* \"#utility.yul\":10097:10100   */\n      dup3\n        /* \"#utility.yul\":10093:10105   */\n      add\n        /* \"#utility.yul\":10086:10105   */\n      swap1\n      pop\n        /* \"#utility.yul\":9745:10111   */\n      swap2\n      swap1\n      pop\n      jump\t// out\n        /* \"#utility.yul\":10117:10536   */\n    tag_83:\n        /* \"#utility.yul\":10283:10287   */\n      0x00\n        /* \"#utility.yul\":10321:10323   */\n      0x20\n        /* \"#utility.yul\":10310:10319   */\n      dup3\n        /* \"#utility.yul\":10306:10324   */\n      add\n        /* \"#utility.yul\":10298:10324   */\n      swap1\n      pop\n        /* \"#utility.yul\":10370:10379   */\n      dup2\n        /* \"#utility.yul\":10364:10368   */\n      dup2\n        /* \"#utility.yul\":10360:10380   */\n      sub\n        /* \"#utility.yul\":10356:10357   */\n      0x00\n        /* \"#utility.yul\":10345:10354   */\n      dup4\n        /* \"#utility.yul\":10341:10358   */\n      add\n        /* \"#utility.yul\":10334:10381   */\n      mstore\n        /* \"#utility.yul\":10398:10529   */\n      tag_302\n        /* \"#utility.yul\":10524:10528   */\n      dup2\n        /* \"#utility.yul\":10398:10529   */\n      tag_180\n      jump\t// in\n    tag_302:\n        /* \"#utility.yul\":10390:10529   */\n      swap1\n      pop\n        /* \"#utility.yul\":10117:10536   */\n      swap2\n      swap1\n      pop\n      jump\t// out\n        /* \"#utility.yul\":10542:10722   */\n    tag_181:\n        /* \"#utility.yul\":10590:10667   */\n      0x4e487b7100000000000000000000000000000000000000000000000000000000\n        /* \"#utility.yul\":10587:10588   */\n      0x00\n        /* \"#utility.yul\":10580:10668   */\n      mstore\n        /* \"#utility.yul\":10687:10691   */\n      0x12\n        /* \"#utility.yul\":10684:10685   */\n      0x04\n        /* \"#utility.yul\":10677:10692   */\n      mstore\n        /* \"#utility.yul\":10711:10715   */\n      0x24\n        /* \"#utility.yul\":10708:10709   */\n      0x00\n        /* \"#utility.yul\":10701:10716   */\n      revert\n        /* \"#utility.yul\":10728:10908   */\n    tag_182:\n        /* \"#utility.yul\":10776:10853   */\n      0x4e487b7100000000000000000000000000000000000000000000000000000000\n        /* \"#utility.yul\":10773:10774   */\n      0x00\n        /* \"#utility.yul\":10766:10854   */\n      mstore\n        /* \"#utility.yul\":10873:10877   */\n      0x11\n        /* \"#utility.yul\":10870:10871   */\n      0x04\n        /* \"#utility.yul\":10863:10878   */\n      mstore\n        /* \"#utility.yul\":10897:10901   */\n      0x24\n        /* \"#utility.yul\":10894:10895   */\n      0x00\n        /* \"#utility.yul\":10887:10902   */\n      revert\n        /* \"#utility.yul\":10914:11099   */\n    tag_85:\n        /* \"#utility.yul\":10954:10955   */\n      0x00\n        /* \"#utility.yul\":10971:10991   */\n      tag_306\n        /* \"#utility.yul\":10989:10990   */\n      dup3\n        /* \"#utility.yul\":10971:10991   */\n      tag_153\n      jump\t// in\n    tag_306:\n        /* \"#utility.yul\":10966:10991   */\n      swap2\n      pop\n        /* \"#utility.yul\":11005:11025   */\n      tag_307\n        /* \"#utility.yul\":11023:11024   */\n      dup4\n        /* \"#utility.yul\":11005:11025   */\n      tag_153\n      jump\t// in\n    tag_307:\n        /* \"#utility.yul\":11000:11025   */\n      swap3\n      pop\n        /* \"#utility.yul\":11044:11045   */\n      dup3\n        /* \"#utility.yul\":11034:11069   */\n      tag_308\n      jumpi\n        /* \"#utility.yul\":11049:11067   */\n      tag_309\n      tag_181\n      jump\t// in\n    tag_309:\n        /* \"#utility.yul\":11034:11069   */\n    tag_308:\n        /* \"#utility.yul\":11091:11092   */\n      dup3\n        /* \"#utility.yul\":11088:11089   */\n      dup3\n        /* \"#utility.yul\":11084:11093   */\n      div\n        /* \"#utility.yul\":11079:11093   */\n      swap1\n      pop\n        /* \"#utility.yul\":10914:11099   */\n      swap3\n      swap2\n      pop\n      pop\n      jump\t// out\n        /* \"#utility.yul\":11105:11330   */\n    tag_183:\n        /* \"#utility.yul\":11245:11279   */\n      0x5265717565737420646f65736e2774206861766520656e6f7567682061707072\n        /* \"#utility.yul\":11241:11242   */\n      0x00\n        /* \"#utility.yul\":11233:11239   */\n      dup3\n        /* \"#utility.yul\":11229:11243   */\n      add\n        /* \"#utility.yul\":11222:11280   */\n      mstore\n        /* \"#utility.yul\":11314:11322   */\n      0x6f76616c732e0000000000000000000000000000000000000000000000000000\n        /* \"#utility.yul\":11309:11311   */\n      0x20\n        /* \"#utility.yul\":11301:11307   */\n      dup3\n        /* \"#utility.yul\":11297:11312   */\n      add\n        /* \"#utility.yul\":11290:11323   */\n      mstore\n        /* \"#utility.yul\":11105:11330   */\n      pop\n      jump\t// out\n        /* \"#utility.yul\":11336:11702   */\n    tag_184:\n        /* \"#utility.yul\":11478:11481   */\n      0x00\n        /* \"#utility.yul\":11499:11566   */\n      tag_312\n        /* \"#utility.yul\":11563:11565   */\n      0x26\n        /* \"#utility.yul\":11558:11561   */\n      dup4\n        /* \"#utility.yul\":11499:11566   */\n      tag_165\n      jump\t// in\n    tag_312:\n        /* \"#utility.yul\":11492:11566   */\n      swap2\n      pop\n        /* \"#utility.yul\":11575:11668   */\n      tag_313\n        /* \"#utility.yul\":11664:11667   */\n      dup3\n        /* \"#utility.yul\":11575:11668   */\n      tag_183\n      jump\t// in\n    tag_313:\n        /* \"#utility.yul\":11693:11695   */\n      0x40\n        /* \"#utility.yul\":11688:11691   */\n      dup3\n        /* \"#utility.yul\":11684:11696   */\n      add\n        /* \"#utility.yul\":11677:11696   */\n      swap1\n      pop\n        /* \"#utility.yul\":11336:11702   */\n      swap2\n      swap1\n      pop\n      jump\t// out\n        /* \"#utility.yul\":11708:12127   */\n    tag_88:\n        /* \"#utility.yul\":11874:11878   */\n      0x00\n        /* \"#utility.yul\":11912:11914   */\n      0x20\n        /* \"#utility.yul\":11901:11910   */\n      dup3\n        /* \"#utility.yul\":11897:11915   */\n      add\n        /* \"#utility.yul\":11889:11915   */\n      swap1\n      pop\n        /* \"#utility.yul\":11961:11970   */\n      dup2\n        /* \"#utility.yul\":11955:11959   */\n      dup2\n        /* \"#utility.yul\":11951:11971   */\n      sub\n        /* \"#utility.yul\":11947:11948   */\n      0x00\n        /* \"#utility.yul\":11936:11945   */\n      dup4\n        /* \"#utility.yul\":11932:11949   */\n      add\n        /* \"#utility.yul\":11925:11972   */\n      mstore\n        /* \"#utility.yul\":11989:12120   */\n      tag_315\n        /* \"#utility.yul\":12115:12119   */\n      dup2\n        /* \"#utility.yul\":11989:12120   */\n      tag_184\n      jump\t// in\n    tag_315:\n        /* \"#utility.yul\":11981:12120   */\n      swap1\n      pop\n        /* \"#utility.yul\":11708:12127   */\n      swap2\n      swap1\n      pop\n      jump\t// out\n        /* \"#utility.yul\":12133:12313   */\n    tag_185:\n        /* \"#utility.yul\":12181:12258   */\n      0x4e487b7100000000000000000000000000000000000000000000000000000000\n        /* \"#utility.yul\":12178:12179   */\n      0x00\n        /* \"#utility.yul\":12171:12259   */\n      mstore\n        /* \"#utility.yul\":12278:12282   */\n      0x22\n        /* \"#utility.yul\":12275:12276   */\n      0x04\n        /* \"#utility.yul\":12268:12283   */\n      mstore\n        /* \"#utility.yul\":12302:12306   */\n      0x24\n        /* \"#utility.yul\":12299:12300   */\n      0x00\n        /* \"#utility.yul\":12292:12307   */\n      revert\n        /* \"#utility.yul\":12319:12639   */\n    tag_96:\n        /* \"#utility.yul\":12363:12369   */\n      0x00\n        /* \"#utility.yul\":12400:12401   */\n      0x02\n        /* \"#utility.yul\":12394:12398   */\n      dup3\n        /* \"#utility.yul\":12390:12402   */\n      div\n        /* \"#utility.yul\":12380:12402   */\n      swap1\n      pop\n        /* \"#utility.yul\":12447:12448   */\n      0x01\n        /* \"#utility.yul\":12441:12445   */\n      dup3\n        /* \"#utility.yul\":12437:12449   */\n      and\n        /* \"#utility.yul\":12468:12486   */\n      dup1\n        /* \"#utility.yul\":12458:12539   */\n      tag_318\n      jumpi\n        /* \"#utility.yul\":12524:12528   */\n      0x7f\n        /* \"#utility.yul\":12516:12522   */\n      dup3\n        /* \"#utility.yul\":12512:12529   */\n      and\n        /* \"#utility.yul\":12502:12529   */\n      swap2\n      pop\n        /* \"#utility.yul\":12458:12539   */\n    tag_318:\n        /* \"#utility.yul\":12586:12588   */\n      0x20\n        /* \"#utility.yul\":12578:12584   */\n      dup3\n        /* \"#utility.yul\":12575:12589   */\n      lt\n        /* \"#utility.yul\":12555:12573   */\n      dup2\n        /* \"#utility.yul\":12552:12590   */\n      eq\n        /* \"#utility.yul\":12549:12633   */\n      iszero\n      tag_319\n      jumpi\n        /* \"#utility.yul\":12605:12623   */\n      tag_320\n      tag_185\n      jump\t// in\n    tag_320:\n        /* \"#utility.yul\":12549:12633   */\n    tag_319:\n        /* \"#utility.yul\":12370:12639   */\n      pop\n        /* \"#utility.yul\":12319:12639   */\n      swap2\n      swap1\n      pop\n      jump\t// out\n        /* \"#utility.yul\":12645:12896   */\n    tag_186:\n        /* \"#utility.yul\":12785:12819   */\n      0x596f75206e65656420746f20636f6e74726962757465206174206c6561737420\n        /* \"#utility.yul\":12781:12782   */\n      0x00\n        /* \"#utility.yul\":12773:12779   */\n      dup3\n        /* \"#utility.yul\":12769:12783   */\n      add\n        /* \"#utility.yul\":12762:12820   */\n      mstore\n        /* \"#utility.yul\":12854:12888   */\n      0x746865206d696e696d756d20636f6e747269627574696f6e20616d6f756e742e\n        /* \"#utility.yul\":12849:12851   */\n      0x20\n        /* \"#utility.yul\":12841:12847   */\n      dup3\n        /* \"#utility.yul\":12837:12852   */\n      add\n        /* \"#utility.yul\":12830:12889   */\n      mstore\n        /* \"#utility.yul\":12645:12896   */\n      pop\n      jump\t// out\n        /* \"#utility.yul\":12902:13268   */\n    tag_187:\n        /* \"#utility.yul\":13044:13047   */\n      0x00\n        /* \"#utility.yul\":13065:13132   */\n      tag_323\n        /* \"#utility.yul\":13129:13131   */\n      0x40\n        /* \"#utility.yul\":13124:13127   */\n      dup4\n        /* \"#utility.yul\":13065:13132   */\n      tag_165\n      jump\t// in\n    tag_323:\n        /* \"#utility.yul\":13058:13132   */\n      swap2\n      pop\n        /* \"#utility.yul\":13141:13234   */\n      tag_324\n        /* \"#utility.yul\":13230:13233   */\n      dup3\n        /* \"#utility.yul\":13141:13234   */\n      tag_186\n      jump\t// in\n    tag_324:\n        /* \"#utility.yul\":13259:13261   */\n      0x40\n        /* \"#utility.yul\":13254:13257   */\n      dup3\n        /* \"#utility.yul\":13250:13262   */\n      add\n        /* \"#utility.yul\":13243:13262   */\n      swap1\n      pop\n        /* \"#utility.yul\":12902:13268   */\n      swap2\n      swap1\n      pop\n      jump\t// out\n        /* \"#utility.yul\":13274:13693   */\n    tag_111:\n        /* \"#utility.yul\":13440:13444   */\n      0x00\n        /* \"#utility.yul\":13478:13480   */\n      0x20\n        /* \"#utility.yul\":13467:13476   */\n      dup3\n        /* \"#utility.yul\":13463:13481   */\n      add\n        /* \"#utility.yul\":13455:13481   */\n      swap1\n      pop\n        /* \"#utility.yul\":13527:13536   */\n      dup2\n        /* \"#utility.yul\":13521:13525   */\n      dup2\n        /* \"#utility.yul\":13517:13537   */\n      sub\n        /* \"#utility.yul\":13513:13514   */\n      0x00\n        /* \"#utility.yul\":13502:13511   */\n      dup4\n        /* \"#utility.yul\":13498:13515   */\n      add\n        /* \"#utility.yul\":13491:13538   */\n      mstore\n        /* \"#utility.yul\":13555:13686   */\n      tag_326\n        /* \"#utility.yul\":13681:13685   */\n      dup2\n        /* \"#utility.yul\":13555:13686   */\n      tag_187\n      jump\t// in\n    tag_326:\n        /* \"#utility.yul\":13547:13686   */\n      swap1\n      pop\n        /* \"#utility.yul\":13274:13693   */\n      swap2\n      swap1\n      pop\n      jump\t// out\n        /* \"#utility.yul\":13699:13932   */\n    tag_113:\n        /* \"#utility.yul\":13738:13741   */\n      0x00\n        /* \"#utility.yul\":13761:13785   */\n      tag_328\n        /* \"#utility.yul\":13779:13784   */\n      dup3\n        /* \"#utility.yul\":13761:13785   */\n      tag_153\n      jump\t// in\n    tag_328:\n        /* \"#utility.yul\":13752:13785   */\n      swap2\n      pop\n        /* \"#utility.yul\":13807:13873   */\n      0xffffffffffffffffffffffffffffffffffffffffffffffffffffffffffffffff\n        /* \"#utility.yul\":13800:13805   */\n      dup3\n        /* \"#utility.yul\":13797:13874   */\n      eq\n        /* \"#utility.yul\":13794:13897   */\n      iszero\n      tag_329\n      jumpi\n        /* \"#utility.yul\":13877:13895   */\n      tag_330\n      tag_182\n      jump\t// in\n    tag_330:\n        /* \"#utility.yul\":13794:13897   */\n    tag_329:\n        /* \"#utility.yul\":13924:13925   */\n      0x01\n        /* \"#utility.yul\":13917:13922   */\n      dup3\n        /* \"#utility.yul\":13913:13926   */\n      add\n        /* \"#utility.yul\":13906:13926   */\n      swap1\n      pop\n        /* \"#utility.yul\":13699:13932   */\n      swap2\n      swap1\n      pop\n      jump\t// out\n        /* \"#utility.yul\":13938:14167   */\n    tag_188:\n        /* \"#utility.yul\":14078:14112   */\n      0x596f75206d75737420626520617070726f76656420746f206d616b6520746869\n        /* \"#utility.yul\":14074:14075   */\n      0x00\n        /* \"#utility.yul\":14066:14072   */\n      dup3\n        /* \"#utility.yul\":14062:14076   */\n      add\n        /* \"#utility.yul\":14055:14113   */\n      mstore\n        /* \"#utility.yul\":14147:14159   */\n      0x7320726571756573742e00000000000000000000000000000000000000000000\n        /* \"#utility.yul\":14142:14144   */\n      0x20\n        /* \"#utility.yul\":14134:14140   */\n      dup3\n        /* \"#utility.yul\":14130:14145   */\n      add\n        /* \"#utility.yul\":14123:14160   */\n      mstore\n        /* \"#utility.yul\":13938:14167   */\n      pop\n      jump\t// out\n        /* \"#utility.yul\":14173:14539   */\n    tag_189:\n        /* \"#utility.yul\":14315:14318   */\n      0x00\n        /* \"#utility.yul\":14336:14403   */\n      tag_333\n        /* \"#utility.yul\":14400:14402   */\n      0x2a\n        /* \"#utility.yul\":14395:14398   */\n      dup4\n        /* \"#utility.yul\":14336:14403   */\n      tag_165\n      jump\t// in\n    tag_333:\n        /* \"#utility.yul\":14329:14403   */\n      swap2\n      pop\n        /* \"#utility.yul\":14412:14505   */\n      tag_334\n        /* \"#utility.yul\":14501:14504   */\n      dup3\n        /* \"#utility.yul\":14412:14505   */\n      tag_188\n      jump\t// in\n    tag_334:\n        /* \"#utility.yul\":14530:14532   */\n      0x40\n        /* \"#utility.yul\":14525:14528   */\n      dup3\n        /* \"#utility.yul\":14521:14533   */\n      add\n        /* \"#utility.yul\":14514:14533   */\n      swap1\n      pop\n        /* \"#utility.yul\":14173:14539   */\n      swap2\n      swap1\n      pop\n      jump\t// out\n        /* \"#utility.yul\":14545:14964   */\n    tag_120:\n        /* \"#utility.yul\":14711:14715   */\n      0x00\n        /* \"#utility.yul\":14749:14751   */\n      0x20\n        /* \"#utility.yul\":14738:14747   */\n      dup3\n        /* \"#utility.yul\":14734:14752   */\n      add\n        /* \"#utility.yul\":14726:14752   */\n      swap1\n      pop\n        /* \"#utility.yul\":14798:14807   */\n      dup2\n        /* \"#utility.yul\":14792:14796   */\n      dup2\n        /* \"#utility.yul\":14788:14808   */\n      sub\n        /* \"#utility.yul\":14784:14785   */\n      0x00\n        /* \"#utility.yul\":14773:14782   */\n      dup4\n        /* \"#utility.yul\":14769:14786   */\n      add\n        /* \"#utility.yul\":14762:14809   */\n      mstore\n        /* \"#utility.yul\":14826:14957   */\n      tag_336\n        /* \"#utility.yul\":14952:14956   */\n      dup2\n        /* \"#utility.yul\":14826:14957   */\n      tag_189\n      jump\t// in\n    tag_336:\n        /* \"#utility.yul\":14818:14957   */\n      swap1\n      pop\n        /* \"#utility.yul\":14545:14964   */\n      swap2\n      swap1\n      pop\n      jump\t// out\n        /* \"#utility.yul\":14970:15196   */\n    tag_190:\n        /* \"#utility.yul\":15110:15144   */\n      0x596f75206861766520616c726561647920617070726f76656420746869732072\n        /* \"#utility.yul\":15106:15107   */\n      0x00\n        /* \"#utility.yul\":15098:15104   */\n      dup3\n        /* \"#utility.yul\":15094:15108   */\n      add\n        /* \"#utility.yul\":15087:15145   */\n      mstore\n        /* \"#utility.yul\":15179:15188   */\n      0x6571756573742e00000000000000000000000000000000000000000000000000\n        /* \"#utility.yul\":15174:15176   */\n      0x20\n        /* \"#utility.yul\":15166:15172   */\n      dup3\n        /* \"#utility.yul\":15162:15177   */\n      add\n        /* \"#utility.yul\":15155:15189   */\n      mstore\n        /* \"#utility.yul\":14970:15196   */\n      pop\n      jump\t// out\n        /* \"#utility.yul\":15202:15568   */\n    tag_191:\n        /* \"#utility.yul\":15344:15347   */\n      0x00\n        /* \"#utility.yul\":15365:15432   */\n      tag_339\n        /* \"#utility.yul\":15429:15431   */\n      0x27\n        /* \"#utility.yul\":15424:15427   */\n      dup4\n        /* \"#utility.yul\":15365:15432   */\n      tag_165\n      jump\t// in\n    tag_339:\n        /* \"#utility.yul\":15358:15432   */\n      swap2\n      pop\n        /* \"#utility.yul\":15441:15534   */\n      tag_340\n        /* \"#utility.yul\":15530:15533   */\n      dup3\n        /* \"#utility.yul\":15441:15534   */\n      tag_190\n      jump\t// in\n    tag_340:\n        /* \"#utility.yul\":15559:15561   */\n      0x40\n        /* \"#utility.yul\":15554:15557   */\n      dup3\n        /* \"#utility.yul\":15550:15562   */\n      add\n        /* \"#utility.yul\":15543:15562   */\n      swap1\n      pop\n        /* \"#utility.yul\":15202:15568   */\n      swap2\n      swap1\n      pop\n      jump\t// out\n        /* \"#utility.yul\":15574:15993   */\n    tag_123:\n        /* \"#utility.yul\":15740:15744   */\n      0x00\n        /* \"#utility.yul\":15778:15780   */\n      0x20\n        /* \"#utility.yul\":15767:15776   */\n      dup3\n        /* \"#utility.yul\":15763:15781   */\n      add\n        /* \"#utility.yul\":15755:15781   */\n      swap1\n      pop\n        /* \"#utility.yul\":15827:15836   */\n      dup2\n        /* \"#utility.yul\":15821:15825   */\n      dup2\n        /* \"#utility.yul\":15817:15837   */\n      sub\n        /* \"#utility.yul\":15813:15814   */\n      0x00\n        /* \"#utility.yul\":15802:15811   */\n      dup4\n        /* \"#utility.yul\":15798:15815   */\n      add\n        /* \"#utility.yul\":15791:15838   */\n      mstore\n        /* \"#utility.yul\":15855:15986   */\n      tag_342\n        /* \"#utility.yul\":15981:15985   */\n      dup2\n        /* \"#utility.yul\":15855:15986   */\n      tag_191\n      jump\t// in\n    tag_342:\n        /* \"#utility.yul\":15847:15986   */\n      swap1\n      pop\n        /* \"#utility.yul\":15574:15993   */\n      swap2\n      swap1\n      pop\n      jump\t// out\n        /* \"#utility.yul\":15999:16232   */\n    tag_192:\n        /* \"#utility.yul\":16139:16173   */\n      0x496e697469616c697a61626c653a20636f6e747261637420697320616c726561\n        /* \"#utility.yul\":16135:16136   */\n      0x00\n        /* \"#utility.yul\":16127:16133   */\n      dup3\n        /* \"#utility.yul\":16123:16137   */\n      add\n        /* \"#utility.yul\":16116:16174   */\n      mstore\n        /* \"#utility.yul\":16208:16224   */\n      0x647920696e697469616c697a6564000000000000000000000000000000000000\n        /* \"#utility.yul\":16203:16205   */\n      0x20\n        /* \"#utility.yul\":16195:16201   */\n      dup3\n        /* \"#utility.yul\":16191:16206   */\n      add\n        /* \"#utility.yul\":16184:16225   */\n      mstore\n        /* \"#utility.yul\":15999:16232   */\n      pop\n      jump\t// out\n        /* \"#utility.yul\":16238:16604   */\n    tag_193:\n        /* \"#utility.yul\":16380:16383   */\n      0x00\n        /* \"#utility.yul\":16401:16468   */\n      tag_345\n        /* \"#utility.yul\":16465:16467   */\n      0x2e\n        /* \"#utility.yul\":16460:16463   */\n      dup4\n        /* \"#utility.yul\":16401:16468   */\n      tag_165\n      jump\t// in\n    tag_345:\n        /* \"#utility.yul\":16394:16468   */\n      swap2\n      pop\n        /* \"#utility.yul\":16477:16570   */\n      tag_346\n        /* \"#utility.yul\":16566:16569   */\n      dup3\n        /* \"#utility.yul\":16477:16570   */\n      tag_192\n      jump\t// in\n    tag_346:\n        /* \"#utility.yul\":16595:16597   */\n      0x40\n        /* \"#utility.yul\":16590:16593   */\n      dup3\n        /* \"#utility.yul\":16586:16598   */\n      add\n        /* \"#utility.yul\":16579:16598   */\n      swap1\n      pop\n        /* \"#utility.yul\":16238:16604   */\n      swap2\n      swap1\n      pop\n      jump\t// out\n        /* \"#utility.yul\":16610:17029   */\n    tag_132:\n        /* \"#utility.yul\":16776:16780   */\n      0x00\n        /* \"#utility.yul\":16814:16816   */\n      0x20\n        /* \"#utility.yul\":16803:16812   */\n      dup3\n        /* \"#utility.yul\":16799:16817   */\n      add\n        /* \"#utility.yul\":16791:16817   */\n      swap1\n      pop\n        /* \"#utility.yul\":16863:16872   */\n      dup2\n        /* \"#utility.yul\":16857:16861   */\n      dup2\n        /* \"#utility.yul\":16853:16873   */\n      sub\n        /* \"#utility.yul\":16849:16850   */\n      0x00\n        /* \"#utility.yul\":16838:16847   */\n      dup4\n        /* \"#utility.yul\":16834:16851   */\n      add\n        /* \"#utility.yul\":16827:16874   */\n      mstore\n        /* \"#utility.yul\":16891:17022   */\n      tag_348\n        /* \"#utility.yul\":17017:17021   */\n      dup2\n        /* \"#utility.yul\":16891:17022   */\n      tag_193\n      jump\t// in\n    tag_348:\n        /* \"#utility.yul\":16883:17022   */\n      swap1\n      pop\n        /* \"#utility.yul\":16610:17029   */\n      swap2\n      swap1\n      pop\n      jump\t// out\n\n    auxdata: 0xa264697066735822122060aaeaddfe9c9371b9dd570cc64da49ce1299dc1d4c923722af9aedbca92258b64736f6c634300080b0033\n}\n","bytecode":{"linkReferences":{},"object":"608060405234801561001057600080fd5b50611565806100206000396000f3fe6080604052600436106100a75760003560e01c806382fde0931161006457806382fde093146101d85780638a9cfd5514610203578063937e09b11461022c578063d7bb99ba14610257578063d7d1bbdb14610261578063da35a26f1461028a576100a7565b806303441006146100ac5780630a144391146100d55780633fad1834146101125780634051ddac1461013d578063481c6a751461016c57806381d12c5814610197575b600080fd5b3480156100b857600080fd5b506100d360048036038101906100ce9190610c01565b6102b3565b005b3480156100e157600080fd5b506100fc60048036038101906100f79190610c8c565b61049e565b6040516101099190610cd4565b60405180910390f35b34801561011e57600080fd5b506101276104be565b6040516101349190610cfe565b60405180910390f35b34801561014957600080fd5b506101526104cb565b604051610163959493929190610d28565b60405180910390f35b34801561017857600080fd5b50610181610514565b60405161018e9190610d7b565b60405180910390f35b3480156101a357600080fd5b506101be60048036038101906101b99190610c01565b61053a565b6040516101cf959493929190610e50565b60405180910390f35b3480156101e457600080fd5b506101ed610635565b6040516101fa9190610cfe565b60405180910390f35b34801561020f57600080fd5b5061022a60048036038101906102259190610f3b565b61063b565b005b34801561023857600080fd5b50610241610756565b60405161024e9190610cfe565b60405180910390f35b61025f61075c565b005b34801561026d57600080fd5b5061028860048036038101906102839190610c01565b610813565b005b34801561029657600080fd5b506102b160048036038101906102ac9190610faf565b6109cc565b005b600060029054906101000a900473ffffffffffffffffffffffffffffffffffffffff1673ffffffffffffffffffffffffffffffffffffffff163373ffffffffffffffffffffffffffffffffffffffff1614610343576040517f08c379a000000000000000000000000000000000000000000000000000000000815260040161033a90611061565b60405180910390fd5b60006004828154811061035957610358611081565b5b906000526020600020906005020190508060030160149054906101000a900460ff16156103bb576040517f08c379a00000000000000000000000000000000000000000000000000000000081526004016103b2906110fc565b60405180910390fd5b600280546103c9919061117a565b81600201541161040e576040517f08c379a00000000000000000000000000000000000000000000000000000000081526004016104059061121d565b60405180910390fd5b8060030160009054906101000a900473ffffffffffffffffffffffffffffffffffffffff1673ffffffffffffffffffffffffffffffffffffffff166108fc82600101549081150290604051600060405180830381858888f1935050505015801561047c573d6000803e3d6000fd5b5060018160030160146101000a81548160ff0219169083151502179055505050565b60036020528060005260406000206000915054906101000a900460ff1681565b6000600480549050905090565b600080600080600060015447600480549050600254600060029054906101000a900473ffffffffffffffffffffffffffffffffffffffff16945094509450945094509091929394565b600060029054906101000a900473ffffffffffffffffffffffffffffffffffffffff1681565b6004818154811061054a57600080fd5b906000526020600020906005020160009150905080600001805461056d9061126c565b80601f01602080910402602001604051908101604052809291908181526020018280546105999061126c565b80156105e65780601f106105bb576101008083540402835291602001916105e6565b820191906000526020600020905b8154815290600101906020018083116105c957829003601f168201915b5050505050908060010154908060020154908060030160009054906101000a900473ffffffffffffffffffffffffffffffffffffffff16908060030160149054906101000a900460ff16905085565b60025481565b600060029054906101000a900473ffffffffffffffffffffffffffffffffffffffff1673ffffffffffffffffffffffffffffffffffffffff163373ffffffffffffffffffffffffffffffffffffffff16146106cb576040517f08c379a00000000000000000000000000000000000000000000000000000000081526004016106c290611061565b60405180910390fd5b6000600460018160018154018082558091505003906000526020600020906005020190508484826000019190610702929190610b1e565b50828160010181905550818160030160006101000a81548173ffffffffffffffffffffffffffffffffffffffff021916908373ffffffffffffffffffffffffffffffffffffffff1602179055505050505050565b60015481565b6001543410156107a1576040517f08c379a000000000000000000000000000000000000000000000000000000000815260040161079890611310565b60405180910390fd5b6001600360003373ffffffffffffffffffffffffffffffffffffffff1673ffffffffffffffffffffffffffffffffffffffff16815260200190815260200160002060006101000a81548160ff0219169083151502179055506002600081548092919061080c90611330565b9190505550565b60006004828154811061082957610828611081565b5b90600052602060002090600502019050600360003373ffffffffffffffffffffffffffffffffffffffff1673ffffffffffffffffffffffffffffffffffffffff16815260200190815260200160002060009054906101000a900460ff166108c5576040517f08c379a00000000000000000000000000000000000000000000000000000000081526004016108bc906113eb565b60405180910390fd5b8060040160003373ffffffffffffffffffffffffffffffffffffffff1673ffffffffffffffffffffffffffffffffffffffff16815260200190815260200160002060009054906101000a900460ff1615610954576040517f08c379a000000000000000000000000000000000000000000000000000000000815260040161094b9061147d565b60405180910390fd5b60018160040160003373ffffffffffffffffffffffffffffffffffffffff1673ffffffffffffffffffffffffffffffffffffffff16815260200190815260200160002060006101000a81548160ff0219169083151502179055508060020160008154809291906109c390611330565b91905055505050565b600060019054906101000a900460ff166109f45760008054906101000a900460ff16156109fd565b6109fc610afa565b5b610a3c576040517f08c379a0000000000000000000000000000000000000000000000000000000008152600401610a339061150f565b60405180910390fd5b60008060019054906101000a900460ff161590508015610a8c576001600060016101000a81548160ff02191690831515021790555060016000806101000a81548160ff0219169083151502179055505b8260018190555081600060026101000a81548173ffffffffffffffffffffffffffffffffffffffff021916908373ffffffffffffffffffffffffffffffffffffffff1602179055508015610af55760008060016101000a81548160ff0219169083151502179055505b505050565b6000610b0530610b0b565b15905090565b600080823b905060008111915050919050565b828054610b2a9061126c565b90600052602060002090601f016020900481019282610b4c5760008555610b93565b82601f10610b6557803560ff1916838001178555610b93565b82800160010185558215610b93579182015b82811115610b92578235825591602001919060010190610b77565b5b509050610ba09190610ba4565b5090565b5b80821115610bbd576000816000905550600101610ba5565b5090565b600080fd5b600080fd5b6000819050919050565b610bde81610bcb565b8114610be957600080fd5b50565b600081359050610bfb81610bd5565b92915050565b600060208284031215610c1757610c16610bc1565b5b6000610c2584828501610bec565b91505092915050565b600073ffffffffffffffffffffffffffffffffffffffff82169050919050565b6000610c5982610c2e565b9050919050565b610c6981610c4e565b8114610c7457600080fd5b50565b600081359050610c8681610c60565b92915050565b600060208284031215610ca257610ca1610bc1565b5b6000610cb084828501610c77565b91505092915050565b60008115159050919050565b610cce81610cb9565b82525050565b6000602082019050610ce96000830184610cc5565b92915050565b610cf881610bcb565b82525050565b6000602082019050610d136000830184610cef565b92915050565b610d2281610c4e565b82525050565b600060a082019050610d3d6000830188610cef565b610d4a6020830187610cef565b610d576040830186610cef565b610d646060830185610cef565b610d716080830184610d19565b9695505050505050565b6000602082019050610d906000830184610d19565b92915050565b600081519050919050565b600082825260208201905092915050565b60005b83811015610dd0578082015181840152602081019050610db5565b83811115610ddf576000848401525b50505050565b6000601f19601f8301169050919050565b6000610e0182610d96565b610e0b8185610da1565b9350610e1b818560208601610db2565b610e2481610de5565b840191505092915050565b6000610e3a82610c2e565b9050919050565b610e4a81610e2f565b82525050565b600060a0820190508181036000830152610e6a8188610df6565b9050610e796020830187610cef565b610e866040830186610cef565b610e936060830185610e41565b610ea06080830184610cc5565b9695505050505050565b600080fd5b600080fd5b600080fd5b60008083601f840112610ecf57610ece610eaa565b5b8235905067ffffffffffffffff811115610eec57610eeb610eaf565b5b602083019150836001820283011115610f0857610f07610eb4565b5b9250929050565b610f1881610e2f565b8114610f2357600080fd5b50565b600081359050610f3581610f0f565b92915050565b60008060008060608587031215610f5557610f54610bc1565b5b600085013567ffffffffffffffff811115610f7357610f72610bc6565b5b610f7f87828801610eb9565b94509450506020610f9287828801610bec565b9250506040610fa387828801610f26565b91505092959194509250565b60008060408385031215610fc657610fc5610bc1565b5b6000610fd485828601610bec565b9250506020610fe585828601610c77565b9150509250929050565b7f4f6e6c7920746865206d616e616765722063616e20706572666f726d2074686960008201527f7320616374696f6e2e0000000000000000000000000000000000000000000000602082015250565b600061104b602983610da1565b915061105682610fef565b604082019050919050565b6000602082019050818103600083015261107a8161103e565b9050919050565b7f4e487b7100000000000000000000000000000000000000000000000000000000600052603260045260246000fd5b7f5265717565737420616c72656164792066696e616c697a65642e000000000000600082015250565b60006110e6601a83610da1565b91506110f1826110b0565b602082019050919050565b60006020820190508181036000830152611115816110d9565b9050919050565b7f4e487b7100000000000000000000000000000000000000000000000000000000600052601260045260246000fd5b7f4e487b7100000000000000000000000000000000000000000000000000000000600052601160045260246000fd5b600061118582610bcb565b915061119083610bcb565b9250826111a05761119f61111c565b5b828204905092915050565b7f5265717565737420646f65736e2774206861766520656e6f756768206170707260008201527f6f76616c732e0000000000000000000000000000000000000000000000000000602082015250565b6000611207602683610da1565b9150611212826111ab565b604082019050919050565b60006020820190508181036000830152611236816111fa565b9050919050565b7f4e487b7100000000000000000000000000000000000000000000000000000000600052602260045260246000fd5b6000600282049050600182168061128457607f821691505b602082108114156112985761129761123d565b5b50919050565b7f596f75206e65656420746f20636f6e74726962757465206174206c656173742060008201527f746865206d696e696d756d20636f6e747269627574696f6e20616d6f756e742e602082015250565b60006112fa604083610da1565b91506113058261129e565b604082019050919050565b60006020820190508181036000830152611329816112ed565b9050919050565b600061133b82610bcb565b91507fffffffffffffffffffffffffffffffffffffffffffffffffffffffffffffffff82141561136e5761136d61114b565b5b600182019050919050565b7f596f75206d75737420626520617070726f76656420746f206d616b652074686960008201527f7320726571756573742e00000000000000000000000000000000000000000000602082015250565b60006113d5602a83610da1565b91506113e082611379565b604082019050919050565b60006020820190508181036000830152611404816113c8565b9050919050565b7f596f75206861766520616c726561647920617070726f7665642074686973207260008201527f6571756573742e00000000000000000000000000000000000000000000000000602082015250565b6000611467602783610da1565b91506114728261140b565b604082019050919050565b600060208201905081810360008301526114968161145a565b9050919050565b7f496e697469616c697a61626c653a20636f6e747261637420697320616c72656160008201527f647920696e697469616c697a6564000000000000000000000000000000000000602082015250565b60006114f9602e83610da1565b91506115048261149d565b604082019050919050565b60006020820190508181036000830152611528816114ec565b905091905056fea264697066735822122060aaeaddfe9c9371b9dd570cc64da49ce1299dc1d4c923722af9aedbca92258b64736f6c634300080b0033","opcodes":"PUSH1 0x80 PUSH1 0x40 MSTORE CALLVALUE DUP1 ISZERO PUSH2 0x10 JUMPI PUSH1 0x0 DUP1 REVERT JUMPDEST POP PUSH2 0x1565 DUP1 PUSH2 0x20 PUSH1 0x0 CODECOPY PUSH1 0x0 RETURN INVALID PUSH1 0x80 PUSH1 0x40 MSTORE PUSH1 0x4 CALLDATASIZE LT PUSH2 0xA7 JUMPI PUSH1 0x0 CALLDATALOAD PUSH1 0xE0 SHR DUP1 PUSH4 0x82FDE093 GT PUSH2 0x64 JUMPI DUP1 PUSH4 0x82FDE093 EQ PUSH2 0x1D8 JUMPI DUP1 PUSH4 0x8A9CFD55 EQ PUSH2 0x203 JUMPI DUP1 PUSH4 0x937E09B1 EQ PUSH2 0x22C JUMPI DUP1 PUSH4 0xD7BB99BA EQ PUSH2 0x257 JUMPI DUP1 PUSH4 0xD7D1BBDB EQ PUSH2 0x261 JUMPI DUP1 PUSH4 0xDA35A26F EQ PUSH2 0x28A JUMPI PUSH2 0xA7 JUMP JUMPDEST DUP1 PUSH4 0x3441006 EQ PUSH2 0xAC JUMPI DUP1 PUSH4 0xA144391 EQ PUSH2 0xD5 JUMPI DUP1 PUSH4 0x3FAD1834 EQ PUSH2 0x112 JUMPI DUP1 PUSH4 0x4051DDAC EQ PUSH2 0x13D JUMPI DUP1 PUSH4 0x481C6A75 EQ PUSH2 0x16C JUMPI DUP1 PUSH4 0x81D12C58 EQ PUSH2 0x197 JUMPI JUMPDEST PUSH1 0x0 DUP1 REVERT JUMPDEST CALLVALUE DUP1 ISZERO PUSH2 0xB8 JUMPI PUSH1 0x0 DUP1 REVERT JUMPDEST POP PUSH2 0xD3 PUSH1 0x4 DUP1 CALLDATASIZE SUB DUP2 ADD SWAP1 PUSH2 0xCE SWAP2 SWAP1 PUSH2 0xC01 JUMP JUMPDEST PUSH2 0x2B3 JUMP JUMPDEST STOP JUMPDEST CALLVALUE DUP1 ISZERO PUSH2 0xE1 JUMPI PUSH1 0x0 DUP1 REVERT JUMPDEST POP PUSH2 0xFC PUSH1 0x4 DUP1 CALLDATASIZE SUB DUP2 ADD SWAP1 PUSH2 0xF7 SWAP2 SWAP1 PUSH2 0xC8C JUMP JUMPDEST PUSH2 0x49E JUMP JUMPDEST PUSH1 0x40 MLOAD PUSH2 0x109 SWAP2 SWAP1 PUSH2 0xCD4 JUMP JUMPDEST PUSH1 0x40 MLOAD DUP1 SWAP2 SUB SWAP1 RETURN JUMPDEST CALLVALUE DUP1 ISZERO PUSH2 0x11E JUMPI PUSH1 0x0 DUP1 REVERT JUMPDEST POP PUSH2 0x127 PUSH2 0x4BE JUMP JUMPDEST PUSH1 0x40 MLOAD PUSH2 0x134 SWAP2 SWAP1 PUSH2 0xCFE JUMP JUMPDEST PUSH1 0x40 MLOAD DUP1 SWAP2 SUB SWAP1 RETURN JUMPDEST CALLVALUE DUP1 ISZERO PUSH2 0x149 JUMPI PUSH1 0x0 DUP1 REVERT JUMPDEST POP PUSH2 0x152 PUSH2 0x4CB JUMP JUMPDEST PUSH1 0x40 MLOAD PUSH2 0x163 SWAP6 SWAP5 SWAP4 SWAP3 SWAP2 SWAP1 PUSH2 0xD28 JUMP JUMPDEST PUSH1 0x40 MLOAD DUP1 SWAP2 SUB SWAP1 RETURN JUMPDEST CALLVALUE DUP1 ISZERO PUSH2 0x178 JUMPI PUSH1 0x0 DUP1 REVERT JUMPDEST POP PUSH2 0x181 PUSH2 0x514 JUMP JUMPDEST PUSH1 0x40 MLOAD PUSH2 0x18E SWAP2 SWAP1 PUSH2 0xD7B JUMP JUMPDEST PUSH1 0x40 MLOAD DUP1 SWAP2 SUB SWAP1 RETURN JUMPDEST CALLVALUE DUP1 ISZERO PUSH2 0x1A3 JUMPI PUSH1 0x0 DUP1 REVERT JUMPDEST POP PUSH2 0x1BE PUSH1 0x4 DUP1 CALLDATASIZE SUB DUP2 ADD SWAP1 PUSH2 0x1B9 SWAP2 SWAP1 PUSH2 0xC01 JUMP JUMPDEST PUSH2 0x53A JUMP JUMPDEST PUSH1 0x40 MLOAD PUSH2 0x1CF SWAP6 SWAP5 SWAP4 SWAP3 SWAP2 SWAP1 PUSH2 0xE50 JUMP JUMPDEST PUSH1 0x40 MLOAD DUP1 SWAP2 SUB SWAP1 RETURN JUMPDEST CALLVALUE DUP1 ISZERO PUSH2 0x1E4 JUMPI PUSH1 0x0 DUP1 REVERT JUMPDEST POP PUSH2 0x1ED PUSH2 0x635 JUMP JUMPDEST PUSH1 0x40 MLOAD PUSH2 0x1FA SWAP2 SWAP1 PUSH2 0xCFE JUMP JUMPDEST PUSH1 0x40 MLOAD DUP1 SWAP2 SUB SWAP1 RETURN JUMPDEST CALLVALUE DUP1 ISZERO PUSH2 0x20F JUMPI PUSH1 0x0 DUP1 REVERT JUMPDEST POP PUSH2 0x22A PUSH1 0x4 DUP1 CALLDATASIZE SUB DUP2 ADD SWAP1 PUSH2 0x225 SWAP2 SWAP1 PUSH2 0xF3B JUMP JUMPDEST PUSH2 0x63B JUMP JUMPDEST STOP JUMPDEST CALLVALUE DUP1 ISZERO PUSH2 0x238 JUMPI PUSH1 0x0 DUP1 REVERT JUMPDEST POP PUSH2 0x241 PUSH2 0x756 JUMP JUMPDEST PUSH1 0x40 MLOAD PUSH2 0x24E SWAP2 SWAP1 PUSH2 0xCFE JUMP JUMPDEST PUSH1 0x40 MLOAD DUP1 SWAP2 SUB SWAP1 RETURN JUMPDEST PUSH2 0x25F PUSH2 0x75C JUMP JUMPDEST STOP JUMPDEST CALLVALUE DUP1 ISZERO PUSH2 0x26D JUMPI PUSH1 0x0 DUP1 REVERT JUMPDEST POP PUSH2 0x288 PUSH1 0x4 DUP1 CALLDATASIZE SUB DUP2 ADD SWAP1 PUSH2 0x283 SWAP2 SWAP1 PUSH2 0xC01 JUMP JUMPDEST PUSH2 0x813 JUMP JUMPDEST STOP JUMPDEST CALLVALUE DUP1 ISZERO PUSH2 0x296 JUMPI PUSH1 0x0 DUP1 REVERT JUMPDEST POP PUSH2 0x2B1 PUSH1 0x4 DUP1 CALLDATASIZE SUB DUP2 ADD SWAP1 PUSH2 0x2AC SWAP2 SWAP1 PUSH2 0xFAF JUMP JUMPDEST PUSH2 0x9CC JUMP JUMPDEST STOP JUMPDEST PUSH1 0x0 PUSH1 0x2 SWAP1 SLOAD SWAP1 PUSH2 0x100 EXP SWAP1 DIV PUSH20 0xFFFFFFFFFFFFFFFFFFFFFFFFFFFFFFFFFFFFFFFF AND PUSH20 0xFFFFFFFFFFFFFFFFFFFFFFFFFFFFFFFFFFFFFFFF AND CALLER PUSH20 0xFFFFFFFFFFFFFFFFFFFFFFFFFFFFFFFFFFFFFFFF AND EQ PUSH2 0x343 JUMPI PUSH1 0x40 MLOAD PUSH32 0x8C379A000000000000000000000000000000000000000000000000000000000 DUP2 MSTORE PUSH1 0x4 ADD PUSH2 0x33A SWAP1 PUSH2 0x1061 JUMP JUMPDEST PUSH1 0x40 MLOAD DUP1 SWAP2 SUB SWAP1 REVERT JUMPDEST PUSH1 0x0 PUSH1 0x4 DUP3 DUP2 SLOAD DUP2 LT PUSH2 0x359 JUMPI PUSH2 0x358 PUSH2 0x1081 JUMP JUMPDEST JUMPDEST SWAP1 PUSH1 0x0 MSTORE PUSH1 0x20 PUSH1 0x0 KECCAK256 SWAP1 PUSH1 0x5 MUL ADD SWAP1 POP DUP1 PUSH1 0x3 ADD PUSH1 0x14 SWAP1 SLOAD SWAP1 PUSH2 0x100 EXP SWAP1 DIV PUSH1 0xFF AND ISZERO PUSH2 0x3BB JUMPI PUSH1 0x40 MLOAD PUSH32 0x8C379A000000000000000000000000000000000000000000000000000000000 DUP2 MSTORE PUSH1 0x4 ADD PUSH2 0x3B2 SWAP1 PUSH2 0x10FC JUMP JUMPDEST PUSH1 0x40 MLOAD DUP1 SWAP2 SUB SWAP1 REVERT JUMPDEST PUSH1 0x2 DUP1 SLOAD PUSH2 0x3C9 SWAP2 SWAP1 PUSH2 0x117A JUMP JUMPDEST DUP2 PUSH1 0x2 ADD SLOAD GT PUSH2 0x40E JUMPI PUSH1 0x40 MLOAD PUSH32 0x8C379A000000000000000000000000000000000000000000000000000000000 DUP2 MSTORE PUSH1 0x4 ADD PUSH2 0x405 SWAP1 PUSH2 0x121D JUMP JUMPDEST PUSH1 0x40 MLOAD DUP1 SWAP2 SUB SWAP1 REVERT JUMPDEST DUP1 PUSH1 0x3 ADD PUSH1 0x0 SWAP1 SLOAD SWAP1 PUSH2 0x100 EXP SWAP1 DIV PUSH20 0xFFFFFFFFFFFFFFFFFFFFFFFFFFFFFFFFFFFFFFFF AND PUSH20 0xFFFFFFFFFFFFFFFFFFFFFFFFFFFFFFFFFFFFFFFF AND PUSH2 0x8FC DUP3 PUSH1 0x1 ADD SLOAD SWAP1 DUP2 ISZERO MUL SWAP1 PUSH1 0x40 MLOAD PUSH1 0x0 PUSH1 0x40 MLOAD DUP1 DUP4 SUB DUP2 DUP6 DUP9 DUP9 CALL SWAP4 POP POP POP POP ISZERO DUP1 ISZERO PUSH2 0x47C JUMPI RETURNDATASIZE PUSH1 0x0 DUP1 RETURNDATACOPY RETURNDATASIZE PUSH1 0x0 REVERT JUMPDEST POP PUSH1 0x1 DUP2 PUSH1 0x3 ADD PUSH1 0x14 PUSH2 0x100 EXP DUP2 SLOAD DUP2 PUSH1 0xFF MUL NOT AND SWAP1 DUP4 ISZERO ISZERO MUL OR SWAP1 SSTORE POP POP POP JUMP JUMPDEST PUSH1 0x3 PUSH1 0x20 MSTORE DUP1 PUSH1 0x0 MSTORE PUSH1 0x40 PUSH1 0x0 KECCAK256 PUSH1 0x0 SWAP2 POP SLOAD SWAP1 PUSH2 0x100 EXP SWAP1 DIV PUSH1 0xFF AND DUP2 JUMP JUMPDEST PUSH1 0x0 PUSH1 0x4 DUP1 SLOAD SWAP1 POP SWAP1 POP SWAP1 JUMP JUMPDEST PUSH1 0x0 DUP1 PUSH1 0x0 DUP1 PUSH1 0x0 PUSH1 0x1 SLOAD SELFBALANCE PUSH1 0x4 DUP1 SLOAD SWAP1 POP PUSH1 0x2 SLOAD PUSH1 0x0 PUSH1 0x2 SWAP1 SLOAD SWAP1 PUSH2 0x100 EXP SWAP1 DIV PUSH20 0xFFFFFFFFFFFFFFFFFFFFFFFFFFFFFFFFFFFFFFFF AND SWAP5 POP SWAP5 POP SWAP5 POP SWAP5 POP SWAP5 POP SWAP1 SWAP2 SWAP3 SWAP4 SWAP5 JUMP JUMPDEST PUSH1 0x0 PUSH1 0x2 SWAP1 SLOAD SWAP1 PUSH2 0x100 EXP SWAP1 DIV PUSH20 0xFFFFFFFFFFFFFFFFFFFFFFFFFFFFFFFFFFFFFFFF AND DUP2 JUMP JUMPDEST PUSH1 0x4 DUP2 DUP2 SLOAD DUP2 LT PUSH2 0x54A JUMPI PUSH1 0x0 DUP1 REVERT JUMPDEST SWAP1 PUSH1 0x0 MSTORE PUSH1 0x20 PUSH1 0x0 KECCAK256 SWAP1 PUSH1 0x5 MUL ADD PUSH1 0x0 SWAP2 POP SWAP1 POP DUP1 PUSH1 0x0 ADD DUP1 SLOAD PUSH2 0x56D SWAP1 PUSH2 0x126C JUMP JUMPDEST DUP1 PUSH1 0x1F ADD PUSH1 0x20 DUP1 SWAP2 DIV MUL PUSH1 0x20 ADD PUSH1 0x40 MLOAD SWAP1 DUP2 ADD PUSH1 0x40 MSTORE DUP1 SWAP3 SWAP2 SWAP1 DUP2 DUP2 MSTORE PUSH1 0x20 ADD DUP3 DUP1 SLOAD PUSH2 0x599 SWAP1 PUSH2 0x126C JUMP JUMPDEST DUP1 ISZERO PUSH2 0x5E6 JUMPI DUP1 PUSH1 0x1F LT PUSH2 0x5BB JUMPI PUSH2 0x100 DUP1 DUP4 SLOAD DIV MUL DUP4 MSTORE SWAP2 PUSH1 0x20 ADD SWAP2 PUSH2 0x5E6 JUMP JUMPDEST DUP3 ADD SWAP2 SWAP1 PUSH1 0x0 MSTORE PUSH1 0x20 PUSH1 0x0 KECCAK256 SWAP1 JUMPDEST DUP2 SLOAD DUP2 MSTORE SWAP1 PUSH1 0x1 ADD SWAP1 PUSH1 0x20 ADD DUP1 DUP4 GT PUSH2 0x5C9 JUMPI DUP3 SWAP1 SUB PUSH1 0x1F AND DUP3 ADD SWAP2 JUMPDEST POP POP POP POP POP SWAP1 DUP1 PUSH1 0x1 ADD SLOAD SWAP1 DUP1 PUSH1 0x2 ADD SLOAD SWAP1 DUP1 PUSH1 0x3 ADD PUSH1 0x0 SWAP1 SLOAD SWAP1 PUSH2 0x100 EXP SWAP1 DIV PUSH20 0xFFFFFFFFFFFFFFFFFFFFFFFFFFFFFFFFFFFFFFFF AND SWAP1 DUP1 PUSH1 0x3 ADD PUSH1 0x14 SWAP1 SLOAD SWAP1 PUSH2 0x100 EXP SWAP1 DIV PUSH1 0xFF AND SWAP1 POP DUP6 JUMP JUMPDEST PUSH1 0x2 SLOAD DUP2 JUMP JUMPDEST PUSH1 0x0 PUSH1 0x2 SWAP1 SLOAD SWAP1 PUSH2 0x100 EXP SWAP1 DIV PUSH20 0xFFFFFFFFFFFFFFFFFFFFFFFFFFFFFFFFFFFFFFFF AND PUSH20 0xFFFFFFFFFFFFFFFFFFFFFFFFFFFFFFFFFFFFFFFF AND CALLER PUSH20 0xFFFFFFFFFFFFFFFFFFFFFFFFFFFFFFFFFFFFFFFF AND EQ PUSH2 0x6CB JUMPI PUSH1 0x40 MLOAD PUSH32 0x8C379A000000000000000000000000000000000000000000000000000000000 DUP2 MSTORE PUSH1 0x4 ADD PUSH2 0x6C2 SWAP1 PUSH2 0x1061 JUMP JUMPDEST PUSH1 0x40 MLOAD DUP1 SWAP2 SUB SWAP1 REVERT JUMPDEST PUSH1 0x0 PUSH1 0x4 PUSH1 0x1 DUP2 PUSH1 0x1 DUP2 SLOAD ADD DUP1 DUP3 SSTORE DUP1 SWAP2 POP POP SUB SWAP1 PUSH1 0x0 MSTORE PUSH1 0x20 PUSH1 0x0 KECCAK256 SWAP1 PUSH1 0x5 MUL ADD SWAP1 POP DUP5 DUP5 DUP3 PUSH1 0x0 ADD SWAP2 SWAP1 PUSH2 0x702 SWAP3 SWAP2 SWAP1 PUSH2 0xB1E JUMP JUMPDEST POP DUP3 DUP2 PUSH1 0x1 ADD DUP2 SWAP1 SSTORE POP DUP2 DUP2 PUSH1 0x3 ADD PUSH1 0x0 PUSH2 0x100 EXP DUP2 SLOAD DUP2 PUSH20 0xFFFFFFFFFFFFFFFFFFFFFFFFFFFFFFFFFFFFFFFF MUL NOT AND SWAP1 DUP4 PUSH20 0xFFFFFFFFFFFFFFFFFFFFFFFFFFFFFFFFFFFFFFFF AND MUL OR SWAP1 SSTORE POP POP POP POP POP POP JUMP JUMPDEST PUSH1 0x1 SLOAD DUP2 JUMP JUMPDEST PUSH1 0x1 SLOAD CALLVALUE LT ISZERO PUSH2 0x7A1 JUMPI PUSH1 0x40 MLOAD PUSH32 0x8C379A000000000000000000000000000000000000000000000000000000000 DUP2 MSTORE PUSH1 0x4 ADD PUSH2 0x798 SWAP1 PUSH2 0x1310 JUMP JUMPDEST PUSH1 0x40 MLOAD DUP1 SWAP2 SUB SWAP1 REVERT JUMPDEST PUSH1 0x1 PUSH1 0x3 PUSH1 0x0 CALLER PUSH20 0xFFFFFFFFFFFFFFFFFFFFFFFFFFFFFFFFFFFFFFFF AND PUSH20 0xFFFFFFFFFFFFFFFFFFFFFFFFFFFFFFFFFFFFFFFF AND DUP2 MSTORE PUSH1 0x20 ADD SWAP1 DUP2 MSTORE PUSH1 0x20 ADD PUSH1 0x0 KECCAK256 PUSH1 0x0 PUSH2 0x100 EXP DUP2 SLOAD DUP2 PUSH1 0xFF MUL NOT AND SWAP1 DUP4 ISZERO ISZERO MUL OR SWAP1 SSTORE POP PUSH1 0x2 PUSH1 0x0 DUP2 SLOAD DUP1 SWAP3 SWAP2 SWAP1 PUSH2 0x80C SWAP1 PUSH2 0x1330 JUMP JUMPDEST SWAP2 SWAP1 POP SSTORE POP JUMP JUMPDEST PUSH1 0x0 PUSH1 0x4 DUP3 DUP2 SLOAD DUP2 LT PUSH2 0x829 JUMPI PUSH2 0x828 PUSH2 0x1081 JUMP JUMPDEST JUMPDEST SWAP1 PUSH1 0x0 MSTORE PUSH1 0x20 PUSH1 0x0 KECCAK256 SWAP1 PUSH1 0x5 MUL ADD SWAP1 POP PUSH1 0x3 PUSH1 0x0 CALLER PUSH20 0xFFFFFFFFFFFFFFFFFFFFFFFFFFFFFFFFFFFFFFFF AND PUSH20 0xFFFFFFFFFFFFFFFFFFFFFFFFFFFFFFFFFFFFFFFF AND DUP2 MSTORE PUSH1 0x20 ADD SWAP1 DUP2 MSTORE PUSH1 0x20 ADD PUSH1 0x0 KECCAK256 PUSH1 0x0 SWAP1 SLOAD SWAP1 PUSH2 0x100 EXP SWAP1 DIV PUSH1 0xFF AND PUSH2 0x8C5 JUMPI PUSH1 0x40 MLOAD PUSH32 0x8C379A000000000000000000000000000000000000000000000000000000000 DUP2 MSTORE PUSH1 0x4 ADD PUSH2 0x8BC SWAP1 PUSH2 0x13EB JUMP JUMPDEST PUSH1 0x40 MLOAD DUP1 SWAP2 SUB SWAP1 REVERT JUMPDEST DUP1 PUSH1 0x4 ADD PUSH1 0x0 CALLER PUSH20 0xFFFFFFFFFFFFFFFFFFFFFFFFFFFFFFFFFFFFFFFF AND PUSH20 0xFFFFFFFFFFFFFFFFFFFFFFFFFFFFFFFFFFFFFFFF AND DUP2 MSTORE PUSH1 0x20 ADD SWAP1 DUP2 MSTORE PUSH1 0x20 ADD PUSH1 0x0 KECCAK256 PUSH1 0x0 SWAP1 SLOAD SWAP1 PUSH2 0x100 EXP SWAP1 DIV PUSH1 0xFF AND ISZERO PUSH2 0x954 JUMPI PUSH1 0x40 MLOAD PUSH32 0x8C379A000000000000000000000000000000000000000000000000000000000 DUP2 MSTORE PUSH1 0x4 ADD PUSH2 0x94B SWAP1 PUSH2 0x147D JUMP JUMPDEST PUSH1 0x40 MLOAD DUP1 SWAP2 SUB SWAP1 REVERT JUMPDEST PUSH1 0x1 DUP2 PUSH1 0x4 ADD PUSH1 0x0 CALLER PUSH20 0xFFFFFFFFFFFFFFFFFFFFFFFFFFFFFFFFFFFFFFFF AND PUSH20 0xFFFFFFFFFFFFFFFFFFFFFFFFFFFFFFFFFFFFFFFF AND DUP2 MSTORE PUSH1 0x20 ADD SWAP1 DUP2 MSTORE PUSH1 0x20 ADD PUSH1 0x0 KECCAK256 PUSH1 0x0 PUSH2 0x100 EXP DUP2 SLOAD DUP2 PUSH1 0xFF MUL NOT AND SWAP1 DUP4 ISZERO ISZERO MUL OR SWAP1 SSTORE POP DUP1 PUSH1 0x2 ADD PUSH1 0x0 DUP2 SLOAD DUP1 SWAP3 SWAP2 SWAP1 PUSH2 0x9C3 SWAP1 PUSH2 0x1330 JUMP JUMPDEST SWAP2 SWAP1 POP SSTORE POP POP POP JUMP JUMPDEST PUSH1 0x0 PUSH1 0x1 SWAP1 SLOAD SWAP1 PUSH2 0x100 EXP SWAP1 DIV PUSH1 0xFF AND PUSH2 0x9F4 JUMPI PUSH1 0x0 DUP1 SLOAD SWAP1 PUSH2 0x100 EXP SWAP1 DIV PUSH1 0xFF AND ISZERO PUSH2 0x9FD JUMP JUMPDEST PUSH2 0x9FC PUSH2 0xAFA JUMP JUMPDEST JUMPDEST PUSH2 0xA3C JUMPI PUSH1 0x40 MLOAD PUSH32 0x8C379A000000000000000000000000000000000000000000000000000000000 DUP2 MSTORE PUSH1 0x4 ADD PUSH2 0xA33 SWAP1 PUSH2 0x150F JUMP JUMPDEST PUSH1 0x40 MLOAD DUP1 SWAP2 SUB SWAP1 REVERT JUMPDEST PUSH1 0x0 DUP1 PUSH1 0x1 SWAP1 SLOAD SWAP1 PUSH2 0x100 EXP SWAP1 DIV PUSH1 0xFF AND ISZERO SWAP1 POP DUP1 ISZERO PUSH2 0xA8C JUMPI PUSH1 0x1 PUSH1 0x0 PUSH1 0x1 PUSH2 0x100 EXP DUP2 SLOAD DUP2 PUSH1 0xFF MUL NOT AND SWAP1 DUP4 ISZERO ISZERO MUL OR SWAP1 SSTORE POP PUSH1 0x1 PUSH1 0x0 DUP1 PUSH2 0x100 EXP DUP2 SLOAD DUP2 PUSH1 0xFF MUL NOT AND SWAP1 DUP4 ISZERO ISZERO MUL OR SWAP1 SSTORE POP JUMPDEST DUP3 PUSH1 0x1 DUP2 SWAP1 SSTORE POP DUP2 PUSH1 0x0 PUSH1 0x2 PUSH2 0x100 EXP DUP2 SLOAD DUP2 PUSH20 0xFFFFFFFFFFFFFFFFFFFFFFFFFFFFFFFFFFFFFFFF MUL NOT AND SWAP1 DUP4 PUSH20 0xFFFFFFFFFFFFFFFFFFFFFFFFFFFFFFFFFFFFFFFF AND MUL OR SWAP1 SSTORE POP DUP1 ISZERO PUSH2 0xAF5 JUMPI PUSH1 0x0 DUP1 PUSH1 0x1 PUSH2 0x100 EXP DUP2 SLOAD DUP2 PUSH1 0xFF MUL NOT AND SWAP1 DUP4 ISZERO ISZERO MUL OR SWAP1 SSTORE POP JUMPDEST POP POP POP JUMP JUMPDEST PUSH1 0x0 PUSH2 0xB05 ADDRESS PUSH2 0xB0B JUMP JUMPDEST ISZERO SWAP1 POP SWAP1 JUMP JUMPDEST PUSH1 0x0 DUP1 DUP3 EXTCODESIZE SWAP1 POP PUSH1 0x0 DUP2 GT SWAP2 POP POP SWAP2 SWAP1 POP JUMP JUMPDEST DUP3 DUP1 SLOAD PUSH2 0xB2A SWAP1 PUSH2 0x126C JUMP JUMPDEST SWAP1 PUSH1 0x0 MSTORE PUSH1 0x20 PUSH1 0x0 KECCAK256 SWAP1 PUSH1 0x1F ADD PUSH1 0x20 SWAP1 DIV DUP2 ADD SWAP3 DUP3 PUSH2 0xB4C JUMPI PUSH1 0x0 DUP6 SSTORE PUSH2 0xB93 JUMP JUMPDEST DUP3 PUSH1 0x1F LT PUSH2 0xB65 JUMPI DUP1 CALLDATALOAD PUSH1 0xFF NOT AND DUP4 DUP1 ADD OR DUP6 SSTORE PUSH2 0xB93 JUMP JUMPDEST DUP3 DUP1 ADD PUSH1 0x1 ADD DUP6 SSTORE DUP3 ISZERO PUSH2 0xB93 JUMPI SWAP2 DUP3 ADD JUMPDEST DUP3 DUP2 GT ISZERO PUSH2 0xB92 JUMPI DUP3 CALLDATALOAD DUP3 SSTORE SWAP2 PUSH1 0x20 ADD SWAP2 SWAP1 PUSH1 0x1 ADD SWAP1 PUSH2 0xB77 JUMP JUMPDEST JUMPDEST POP SWAP1 POP PUSH2 0xBA0 SWAP2 SWAP1 PUSH2 0xBA4 JUMP JUMPDEST POP SWAP1 JUMP JUMPDEST JUMPDEST DUP1 DUP3 GT ISZERO PUSH2 0xBBD JUMPI PUSH1 0x0 DUP2 PUSH1 0x0 SWAP1 SSTORE POP PUSH1 0x1 ADD PUSH2 0xBA5 JUMP JUMPDEST POP SWAP1 JUMP JUMPDEST PUSH1 0x0 DUP1 REVERT JUMPDEST PUSH1 0x0 DUP1 REVERT JUMPDEST PUSH1 0x0 DUP2 SWAP1 POP SWAP2 SWAP1 POP JUMP JUMPDEST PUSH2 0xBDE DUP2 PUSH2 0xBCB JUMP JUMPDEST DUP2 EQ PUSH2 0xBE9 JUMPI PUSH1 0x0 DUP1 REVERT JUMPDEST POP JUMP JUMPDEST PUSH1 0x0 DUP2 CALLDATALOAD SWAP1 POP PUSH2 0xBFB DUP2 PUSH2 0xBD5 JUMP JUMPDEST SWAP3 SWAP2 POP POP JUMP JUMPDEST PUSH1 0x0 PUSH1 0x20 DUP3 DUP5 SUB SLT ISZERO PUSH2 0xC17 JUMPI PUSH2 0xC16 PUSH2 0xBC1 JUMP JUMPDEST JUMPDEST PUSH1 0x0 PUSH2 0xC25 DUP5 DUP3 DUP6 ADD PUSH2 0xBEC JUMP JUMPDEST SWAP2 POP POP SWAP3 SWAP2 POP POP JUMP JUMPDEST PUSH1 0x0 PUSH20 0xFFFFFFFFFFFFFFFFFFFFFFFFFFFFFFFFFFFFFFFF DUP3 AND SWAP1 POP SWAP2 SWAP1 POP JUMP JUMPDEST PUSH1 0x0 PUSH2 0xC59 DUP3 PUSH2 0xC2E JUMP JUMPDEST SWAP1 POP SWAP2 SWAP1 POP JUMP JUMPDEST PUSH2 0xC69 DUP2 PUSH2 0xC4E JUMP JUMPDEST DUP2 EQ PUSH2 0xC74 JUMPI PUSH1 0x0 DUP1 REVERT JUMPDEST POP JUMP JUMPDEST PUSH1 0x0 DUP2 CALLDATALOAD SWAP1 POP PUSH2 0xC86 DUP2 PUSH2 0xC60 JUMP JUMPDEST SWAP3 SWAP2 POP POP JUMP JUMPDEST PUSH1 0x0 PUSH1 0x20 DUP3 DUP5 SUB SLT ISZERO PUSH2 0xCA2 JUMPI PUSH2 0xCA1 PUSH2 0xBC1 JUMP JUMPDEST JUMPDEST PUSH1 0x0 PUSH2 0xCB0 DUP5 DUP3 DUP6 ADD PUSH2 0xC77 JUMP JUMPDEST SWAP2 POP POP SWAP3 SWAP2 POP POP JUMP JUMPDEST PUSH1 0x0 DUP2 ISZERO ISZERO SWAP1 POP SWAP2 SWAP1 POP JUMP JUMPDEST PUSH2 0xCCE DUP2 PUSH2 0xCB9 JUMP JUMPDEST DUP3 MSTORE POP POP JUMP JUMPDEST PUSH1 0x0 PUSH1 0x20 DUP3 ADD SWAP1 POP PUSH2 0xCE9 PUSH1 0x0 DUP4 ADD DUP5 PUSH2 0xCC5 JUMP JUMPDEST SWAP3 SWAP2 POP POP JUMP JUMPDEST PUSH2 0xCF8 DUP2 PUSH2 0xBCB JUMP JUMPDEST DUP3 MSTORE POP POP JUMP JUMPDEST PUSH1 0x0 PUSH1 0x20 DUP3 ADD SWAP1 POP PUSH2 0xD13 PUSH1 0x0 DUP4 ADD DUP5 PUSH2 0xCEF JUMP JUMPDEST SWAP3 SWAP2 POP POP JUMP JUMPDEST PUSH2 0xD22 DUP2 PUSH2 0xC4E JUMP JUMPDEST DUP3 MSTORE POP POP JUMP JUMPDEST PUSH1 0x0 PUSH1 0xA0 DUP3 ADD SWAP1 POP PUSH2 0xD3D PUSH1 0x0 DUP4 ADD DUP9 PUSH2 0xCEF JUMP JUMPDEST PUSH2 0xD4A PUSH1 0x20 DUP4 ADD DUP8 PUSH2 0xCEF JUMP JUMPDEST PUSH2 0xD57 PUSH1 0x40 DUP4 ADD DUP7 PUSH2 0xCEF JUMP JUMPDEST PUSH2 0xD64 PUSH1 0x60 DUP4 ADD DUP6 PUSH2 0xCEF JUMP JUMPDEST PUSH2 0xD71 PUSH1 0x80 DUP4 ADD DUP5 PUSH2 0xD19 JUMP JUMPDEST SWAP7 SWAP6 POP POP POP POP POP POP JUMP JUMPDEST PUSH1 0x0 PUSH1 0x20 DUP3 ADD SWAP1 POP PUSH2 0xD90 PUSH1 0x0 DUP4 ADD DUP5 PUSH2 0xD19 JUMP JUMPDEST SWAP3 SWAP2 POP POP JUMP JUMPDEST PUSH1 0x0 DUP2 MLOAD SWAP1 POP SWAP2 SWAP1 POP JUMP JUMPDEST PUSH1 0x0 DUP3 DUP3 MSTORE PUSH1 0x20 DUP3 ADD SWAP1 POP SWAP3 SWAP2 POP POP JUMP JUMPDEST PUSH1 0x0 JUMPDEST DUP4 DUP2 LT ISZERO PUSH2 0xDD0 JUMPI DUP1 DUP3 ADD MLOAD DUP2 DUP5 ADD MSTORE PUSH1 0x20 DUP2 ADD SWAP1 POP PUSH2 0xDB5 JUMP JUMPDEST DUP4 DUP2 GT ISZERO PUSH2 0xDDF JUMPI PUSH1 0x0 DUP5 DUP5 ADD MSTORE JUMPDEST POP POP POP POP JUMP JUMPDEST PUSH1 0x0 PUSH1 0x1F NOT PUSH1 0x1F DUP4 ADD AND SWAP1 POP SWAP2 SWAP1 POP JUMP JUMPDEST PUSH1 0x0 PUSH2 0xE01 DUP3 PUSH2 0xD96 JUMP JUMPDEST PUSH2 0xE0B DUP2 DUP6 PUSH2 0xDA1 JUMP JUMPDEST SWAP4 POP PUSH2 0xE1B DUP2 DUP6 PUSH1 0x20 DUP7 ADD PUSH2 0xDB2 JUMP JUMPDEST PUSH2 0xE24 DUP2 PUSH2 0xDE5 JUMP JUMPDEST DUP5 ADD SWAP2 POP POP SWAP3 SWAP2 POP POP JUMP JUMPDEST PUSH1 0x0 PUSH2 0xE3A DUP3 PUSH2 0xC2E JUMP JUMPDEST SWAP1 POP SWAP2 SWAP1 POP JUMP JUMPDEST PUSH2 0xE4A DUP2 PUSH2 0xE2F JUMP JUMPDEST DUP3 MSTORE POP POP JUMP JUMPDEST PUSH1 0x0 PUSH1 0xA0 DUP3 ADD SWAP1 POP DUP2 DUP2 SUB PUSH1 0x0 DUP4 ADD MSTORE PUSH2 0xE6A DUP2 DUP9 PUSH2 0xDF6 JUMP JUMPDEST SWAP1 POP PUSH2 0xE79 PUSH1 0x20 DUP4 ADD DUP8 PUSH2 0xCEF JUMP JUMPDEST PUSH2 0xE86 PUSH1 0x40 DUP4 ADD DUP7 PUSH2 0xCEF JUMP JUMPDEST PUSH2 0xE93 PUSH1 0x60 DUP4 ADD DUP6 PUSH2 0xE41 JUMP JUMPDEST PUSH2 0xEA0 PUSH1 0x80 DUP4 ADD DUP5 PUSH2 0xCC5 JUMP JUMPDEST SWAP7 SWAP6 POP POP POP POP POP POP JUMP JUMPDEST PUSH1 0x0 DUP1 REVERT JUMPDEST PUSH1 0x0 DUP1 REVERT JUMPDEST PUSH1 0x0 DUP1 REVERT JUMPDEST PUSH1 0x0 DUP1 DUP4 PUSH1 0x1F DUP5 ADD SLT PUSH2 0xECF JUMPI PUSH2 0xECE PUSH2 0xEAA JUMP JUMPDEST JUMPDEST DUP3 CALLDATALOAD SWAP1 POP PUSH8 0xFFFFFFFFFFFFFFFF DUP2 GT ISZERO PUSH2 0xEEC JUMPI PUSH2 0xEEB PUSH2 0xEAF JUMP JUMPDEST JUMPDEST PUSH1 0x20 DUP4 ADD SWAP2 POP DUP4 PUSH1 0x1 DUP3 MUL DUP4 ADD GT ISZERO PUSH2 0xF08 JUMPI PUSH2 0xF07 PUSH2 0xEB4 JUMP JUMPDEST JUMPDEST SWAP3 POP SWAP3 SWAP1 POP JUMP JUMPDEST PUSH2 0xF18 DUP2 PUSH2 0xE2F JUMP JUMPDEST DUP2 EQ PUSH2 0xF23 JUMPI PUSH1 0x0 DUP1 REVERT JUMPDEST POP JUMP JUMPDEST PUSH1 0x0 DUP2 CALLDATALOAD SWAP1 POP PUSH2 0xF35 DUP2 PUSH2 0xF0F JUMP JUMPDEST SWAP3 SWAP2 POP POP JUMP JUMPDEST PUSH1 0x0 DUP1 PUSH1 0x0 DUP1 PUSH1 0x60 DUP6 DUP8 SUB SLT ISZERO PUSH2 0xF55 JUMPI PUSH2 0xF54 PUSH2 0xBC1 JUMP JUMPDEST JUMPDEST PUSH1 0x0 DUP6 ADD CALLDATALOAD PUSH8 0xFFFFFFFFFFFFFFFF DUP2 GT ISZERO PUSH2 0xF73 JUMPI PUSH2 0xF72 PUSH2 0xBC6 JUMP JUMPDEST JUMPDEST PUSH2 0xF7F DUP8 DUP3 DUP9 ADD PUSH2 0xEB9 JUMP JUMPDEST SWAP5 POP SWAP5 POP POP PUSH1 0x20 PUSH2 0xF92 DUP8 DUP3 DUP9 ADD PUSH2 0xBEC JUMP JUMPDEST SWAP3 POP POP PUSH1 0x40 PUSH2 0xFA3 DUP8 DUP3 DUP9 ADD PUSH2 0xF26 JUMP JUMPDEST SWAP2 POP POP SWAP3 SWAP6 SWAP2 SWAP5 POP SWAP3 POP JUMP JUMPDEST PUSH1 0x0 DUP1 PUSH1 0x40 DUP4 DUP6 SUB SLT ISZERO PUSH2 0xFC6 JUMPI PUSH2 0xFC5 PUSH2 0xBC1 JUMP JUMPDEST JUMPDEST PUSH1 0x0 PUSH2 0xFD4 DUP6 DUP3 DUP7 ADD PUSH2 0xBEC JUMP JUMPDEST SWAP3 POP POP PUSH1 0x20 PUSH2 0xFE5 DUP6 DUP3 DUP7 ADD PUSH2 0xC77 JUMP JUMPDEST SWAP2 POP POP SWAP3 POP SWAP3 SWAP1 POP JUMP JUMPDEST PUSH32 0x4F6E6C7920746865206D616E616765722063616E20706572666F726D20746869 PUSH1 0x0 DUP3 ADD MSTORE PUSH32 0x7320616374696F6E2E0000000000000000000000000000000000000000000000 PUSH1 0x20 DUP3 ADD MSTORE POP JUMP JUMPDEST PUSH1 0x0 PUSH2 0x104B PUSH1 0x29 DUP4 PUSH2 0xDA1 JUMP JUMPDEST SWAP2 POP PUSH2 0x1056 DUP3 PUSH2 0xFEF JUMP JUMPDEST PUSH1 0x40 DUP3 ADD SWAP1 POP SWAP2 SWAP1 POP JUMP JUMPDEST PUSH1 0x0 PUSH1 0x20 DUP3 ADD SWAP1 POP DUP2 DUP2 SUB PUSH1 0x0 DUP4 ADD MSTORE PUSH2 0x107A DUP2 PUSH2 0x103E JUMP JUMPDEST SWAP1 POP SWAP2 SWAP1 POP JUMP JUMPDEST PUSH32 0x4E487B7100000000000000000000000000000000000000000000000000000000 PUSH1 0x0 MSTORE PUSH1 0x32 PUSH1 0x4 MSTORE PUSH1 0x24 PUSH1 0x0 REVERT JUMPDEST PUSH32 0x5265717565737420616C72656164792066696E616C697A65642E000000000000 PUSH1 0x0 DUP3 ADD MSTORE POP JUMP JUMPDEST PUSH1 0x0 PUSH2 0x10E6 PUSH1 0x1A DUP4 PUSH2 0xDA1 JUMP JUMPDEST SWAP2 POP PUSH2 0x10F1 DUP3 PUSH2 0x10B0 JUMP JUMPDEST PUSH1 0x20 DUP3 ADD SWAP1 POP SWAP2 SWAP1 POP JUMP JUMPDEST PUSH1 0x0 PUSH1 0x20 DUP3 ADD SWAP1 POP DUP2 DUP2 SUB PUSH1 0x0 DUP4 ADD MSTORE PUSH2 0x1115 DUP2 PUSH2 0x10D9 JUMP JUMPDEST SWAP1 POP SWAP2 SWAP1 POP JUMP JUMPDEST PUSH32 0x4E487B7100000000000000000000000000000000000000000000000000000000 PUSH1 0x0 MSTORE PUSH1 0x12 PUSH1 0x4 MSTORE PUSH1 0x24 PUSH1 0x0 REVERT JUMPDEST PUSH32 0x4E487B7100000000000000000000000000000000000000000000000000000000 PUSH1 0x0 MSTORE PUSH1 0x11 PUSH1 0x4 MSTORE PUSH1 0x24 PUSH1 0x0 REVERT JUMPDEST PUSH1 0x0 PUSH2 0x1185 DUP3 PUSH2 0xBCB JUMP JUMPDEST SWAP2 POP PUSH2 0x1190 DUP4 PUSH2 0xBCB JUMP JUMPDEST SWAP3 POP DUP3 PUSH2 0x11A0 JUMPI PUSH2 0x119F PUSH2 0x111C JUMP JUMPDEST JUMPDEST DUP3 DUP3 DIV SWAP1 POP SWAP3 SWAP2 POP POP JUMP JUMPDEST PUSH32 0x5265717565737420646F65736E2774206861766520656E6F7567682061707072 PUSH1 0x0 DUP3 ADD MSTORE PUSH32 0x6F76616C732E0000000000000000000000000000000000000000000000000000 PUSH1 0x20 DUP3 ADD MSTORE POP JUMP JUMPDEST PUSH1 0x0 PUSH2 0x1207 PUSH1 0x26 DUP4 PUSH2 0xDA1 JUMP JUMPDEST SWAP2 POP PUSH2 0x1212 DUP3 PUSH2 0x11AB JUMP JUMPDEST PUSH1 0x40 DUP3 ADD SWAP1 POP SWAP2 SWAP1 POP JUMP JUMPDEST PUSH1 0x0 PUSH1 0x20 DUP3 ADD SWAP1 POP DUP2 DUP2 SUB PUSH1 0x0 DUP4 ADD MSTORE PUSH2 0x1236 DUP2 PUSH2 0x11FA JUMP JUMPDEST SWAP1 POP SWAP2 SWAP1 POP JUMP JUMPDEST PUSH32 0x4E487B7100000000000000000000000000000000000000000000000000000000 PUSH1 0x0 MSTORE PUSH1 0x22 PUSH1 0x4 MSTORE PUSH1 0x24 PUSH1 0x0 REVERT JUMPDEST PUSH1 0x0 PUSH1 0x2 DUP3 DIV SWAP1 POP PUSH1 0x1 DUP3 AND DUP1 PUSH2 0x1284 JUMPI PUSH1 0x7F DUP3 AND SWAP2 POP JUMPDEST PUSH1 0x20 DUP3 LT DUP2 EQ ISZERO PUSH2 0x1298 JUMPI PUSH2 0x1297 PUSH2 0x123D JUMP JUMPDEST JUMPDEST POP SWAP2 SWAP1 POP JUMP JUMPDEST PUSH32 0x596F75206E65656420746F20636F6E74726962757465206174206C6561737420 PUSH1 0x0 DUP3 ADD MSTORE PUSH32 0x746865206D696E696D756D20636F6E747269627574696F6E20616D6F756E742E PUSH1 0x20 DUP3 ADD MSTORE POP JUMP JUMPDEST PUSH1 0x0 PUSH2 0x12FA PUSH1 0x40 DUP4 PUSH2 0xDA1 JUMP JUMPDEST SWAP2 POP PUSH2 0x1305 DUP3 PUSH2 0x129E JUMP JUMPDEST PUSH1 0x40 DUP3 ADD SWAP1 POP SWAP2 SWAP1 POP JUMP JUMPDEST PUSH1 0x0 PUSH1 0x20 DUP3 ADD SWAP1 POP DUP2 DUP2 SUB PUSH1 0x0 DUP4 ADD MSTORE PUSH2 0x1329 DUP2 PUSH2 0x12ED JUMP JUMPDEST SWAP1 POP SWAP2 SWAP1 POP JUMP JUMPDEST PUSH1 0x0 PUSH2 0x133B DUP3 PUSH2 0xBCB JUMP JUMPDEST SWAP2 POP PUSH32 0xFFFFFFFFFFFFFFFFFFFFFFFFFFFFFFFFFFFFFFFFFFFFFFFFFFFFFFFFFFFFFFFF DUP3 EQ ISZERO PUSH2 0x136E JUMPI PUSH2 0x136D PUSH2 0x114B JUMP JUMPDEST JUMPDEST PUSH1 0x1 DUP3 ADD SWAP1 POP SWAP2 SWAP1 POP JUMP JUMPDEST PUSH32 0x596F75206D75737420626520617070726F76656420746F206D616B6520746869 PUSH1 0x0 DUP3 ADD MSTORE PUSH32 0x7320726571756573742E00000000000000000000000000000000000000000000 PUSH1 0x20 DUP3 ADD MSTORE POP JUMP JUMPDEST PUSH1 0x0 PUSH2 0x13D5 PUSH1 0x2A DUP4 PUSH2 0xDA1 JUMP JUMPDEST SWAP2 POP PUSH2 0x13E0 DUP3 PUSH2 0x1379 JUMP JUMPDEST PUSH1 0x40 DUP3 ADD SWAP1 POP SWAP2 SWAP1 POP JUMP JUMPDEST PUSH1 0x0 PUSH1 0x20 DUP3 ADD SWAP1 POP DUP2 DUP2 SUB PUSH1 0x0 DUP4 ADD MSTORE PUSH2 0x1404 DUP2 PUSH2 0x13C8 JUMP JUMPDEST SWAP1 POP SWAP2 SWAP1 POP JUMP JUMPDEST PUSH32 0x596F75206861766520616C726561647920617070726F76656420746869732072 PUSH1 0x0 DUP3 ADD MSTORE PUSH32 0x6571756573742E00000000000000000000000000000000000000000000000000 PUSH1 0x20 DUP3 ADD MSTORE POP JUMP JUMPDEST PUSH1 0x0 PUSH2 0x1467 PUSH1 0x27 DUP4 PUSH2 0xDA1 JUMP JUMPDEST SWAP2 POP PUSH2 0x1472 DUP3 PUSH2 0x140B JUMP JUMPDEST PUSH1 0x40 DUP3 ADD SWAP1 POP SWAP2 SWAP1 POP JUMP JUMPDEST PUSH1 0x0 PUSH1 0x20 DUP3 ADD SWAP1 POP DUP2 DUP2 SUB PUSH1 0x0 DUP4 ADD MSTORE PUSH2 0x1496 DUP2 PUSH2 0x145A JUMP JUMPDEST SWAP1 POP SWAP2 SWAP1 POP JUMP JUMPDEST PUSH32 0x496E697469616C697A61626C653A20636F6E747261637420697320616C726561 PUSH1 0x0 DUP3 ADD MSTORE PUSH32 0x647920696E697469616C697A6564000000000000000000000000000000000000 PUSH1 0x20 DUP3 ADD MSTORE POP JUMP JUMPDEST PUSH1 0x0 PUSH2 0x14F9 PUSH1 0x2E DUP4 PUSH2 0xDA1 JUMP JUMPDEST SWAP2 POP PUSH2 0x1504 DUP3 PUSH2 0x149D JUMP JUMPDEST PUSH1 0x40 DUP3 ADD SWAP1 POP SWAP2 SWAP1 POP JUMP JUMPDEST PUSH1 0x0 PUSH1 0x20 DUP3 ADD SWAP1 POP DUP2 DUP2 SUB PUSH1 0x0 DUP4 ADD MSTORE PUSH2 0x1528 DUP2 PUSH2 0x14EC JUMP JUMPDEST SWAP1 POP SWAP2 SWAP1 POP JUMP INVALID LOG2 PUSH5 0x6970667358 0x22 SLT KECCAK256 PUSH1 0xAA 0xEA 0xDD INVALID SWAP13 SWAP4 PUSH18 0xB9DD570CC64DA49CE1299DC1D4C923722AF9 0xAE 0xDB 0xCA SWAP3 0x25 DUP12 PUSH5 0x736F6C6343 STOP ADDMOD SIGNEXTEND STOP CALLER "},"gasEstimates":{"creation":{"codeDepositCost":"1095400","executionCost":"1140","totalCost":"1096540"},"external":{"approveRequest(uint256)":"infinite","approvers(address)":"2868","approversCount()":"2429","contribute()":"51027","createRequest(string,uint256,address)":"infinite","finalizeRequest(uint256)":"infinite","getRequestCount()":"2490","getSummary()":"infinite","initialize(uint256,address)":"127232","manager()":"2653","minimumContribution()":"2473","requests(uint256)":"infinite"}},"methodIdentifiers":{"approveRequest(uint256)":"d7d1bbdb","approvers(address)":"0a144391","approversCount()":"82fde093","contribute()":"d7bb99ba","createRequest(string,uint256,address)":"8a9cfd55","finalizeRequest(uint256)":"03441006","getRequestCount()":"3fad1834","getSummary()":"4051ddac","initialize(uint256,address)":"da35a26f","manager()":"481c6a75","minimumContribution()":"937e09b1","requests(uint256)":"81d12c58"}},"storageLayout":{"storage":[{"astId":629,"contract":"Campaign.sol:Campaign","label":"_initialized","offset":0,"slot":"0","type":"t_bool"},{"astId":632,"contract":"Campaign.sol:Campaign","label":"_initializing","offset":1,"slot":"0","type":"t_bool"},{"astId":318,"contract":"Campaign.sol:Campaign","label":"manager","offset":2,"slot":"0","type":"t_address"},{"astId":320,"contract":"Campaign.sol:Campaign","label":"minimumContribution","offset":0,"slot":"1","type":"t_uint256"},{"astId":322,"contract":"Campaign.sol:Campaign","label":"approversCount","offset":0,"slot":"2","type":"t_uint256"},{"astId":326,"contract":"Campaign.sol:Campaign","label":"approvers","offset":0,"slot":"3","type":"t_mapping(t_address,t_bool)"},{"astId":330,"contract":"Campaign.sol:Campaign","label":"requests","offset":0,"slot":"4","type":"t_array(t_struct(Request)316_storage)dyn_storage"}],"types":{"t_address":{"encoding":"inplace","label":"address","numberOfBytes":"20"},"t_address_payable":{"encoding":"inplace","label":"address payable","numberOfBytes":"20"},"t_array(t_struct(Request)316_storage)dyn_storage":{"base":"t_struct(Request)316_storage","encoding":"dynamic_array","label":"struct Campaign.Request[]","numberOfBytes":"32"},"t_bool":{"encoding":"inplace","label":"bool","numberOfBytes":"1"},"t_mapping(t_address,t_bool)":{"encoding":"mapping","key":"t_address","label":"mapping(address => bool)","numberOfBytes":"32","value":"t_bool"},"t_string_storage":{"encoding":"bytes","label":"string","numberOfBytes":"32"},"t_struct(Request)316_storage":{"encoding":"inplace","label":"struct Campaign.Request","members":[{"astId":303,"contract":"Campaign.sol:Campaign","label":"description","offset":0,"slot":"0","type":"t_string_storage"},{"astId":305,"contract":"Campaign.sol:Campaign","label":"value","offset":0,"slot":"1","type":"t_uint256"},{"astId":307,"contract":"Campaign.sol:Campaign","label":"approvalCount","offset":0,"slot":"2","type":"t_uint256"},{"astId":309,"contract":"Campaign.sol:Campaign","label":"recipient","offset":0,"slot":"3","type":"t_address_payable"},{"astId":311,"contract":"Campaign.sol:Campaign","label":"isComplete","offset":20,"slot":"3","type":"t_bool"},{"astId":315,"contract":"Campaign.sol:Campaign","label":"approvals","offset":0,"slot":"4","type":"t_mapping(t_address,t_bool)"}],"numberOfBytes":"160"},"t_uint256":{"encoding":"inplace","label":"uint256","numberOfBytes":"32"}}},"userdoc":{"kind":"user","methods":{},"version":1}}