{"abi":[{"inputs":[],"stateMutability":"nonpayable","type":"constructor"},{"anonymous":false,"inputs":[{"indexed":true,"internalType":"address","name":"_address","type":"address"}],"name":"CampaignCreated","type":"event"},{"inputs":[{"internalType":"uint40","name":"_minimum","type":"uint40"},{"internalType":"address","name":"_creator","type":"address"}],"name":"createCampaign","outputs":[],"stateMutability":"nonpayable","type":"function"},{"inputs":[],"name":"getCampaigns","outputs":[{"internalType":"address[]","name":"","type":"address[]"}],"stateMutability":"view","type":"function"}],"devdoc":{"kind":"dev","methods":{},"version":1},"evm":{"assembly":"    /* \"CloneFactory.sol\":141:796  contract CloneFactory {... */\n  mstore(0x40, 0x80)\n    /* \"CloneFactory.sol\":295:372  constructor() {... */\n  callvalue\n  dup1\n  iszero\n  tag_1\n  jumpi\n  0x00\n  dup1\n  revert\ntag_1:\n  pop\n    /* \"CloneFactory.sol\":349:363  new Campaign() */\n  mload(0x40)\n  tag_4\n  swap1\n  tag_5\n  jump\t// in\ntag_4:\n  mload(0x40)\n  dup1\n  swap2\n  sub\n  swap1\n  0x00\n  create\n  dup1\n  iszero\n  dup1\n  iszero\n  tag_6\n  jumpi\n  returndatasize\n  0x00\n  dup1\n  returndatacopy\n  revert(0x00, returndatasize)\ntag_6:\n  pop\n    /* \"CloneFactory.sol\":320:338  baseImplementation */\n  0x00\n  dup1\n    /* \"CloneFactory.sol\":320:364  baseImplementation = address(new Campaign()) */\n  0x0100\n  exp\n  dup2\n  sload\n  dup2\n  0xffffffffffffffffffffffffffffffffffffffff\n  mul\n  not\n  and\n  swap1\n  dup4\n  0xffffffffffffffffffffffffffffffffffffffff\n  and\n  mul\n  or\n  swap1\n  sstore\n  pop\n    /* \"CloneFactory.sol\":141:796  contract CloneFactory {... */\n  jump(tag_7)\ntag_5:\n  dataSize(sub_1)\n  dup1\n  dataOffset(sub_1)\n  dup4\n  codecopy\n  add\n  swap1\n  jump\t// out\ntag_7:\n  dataSize(sub_0)\n  dup1\n  dataOffset(sub_0)\n  0x00\n  codecopy\n  0x00\n  return\nstop\n\nsub_0: assembly {\n        /* \"CloneFactory.sol\":141:796  contract CloneFactory {... */\n      mstore(0x40, 0x80)\n      callvalue\n      dup1\n      iszero\n      tag_1\n      jumpi\n      0x00\n      dup1\n      revert\n    tag_1:\n      pop\n      jumpi(tag_2, lt(calldatasize, 0x04))\n      shr(0xe0, calldataload(0x00))\n      dup1\n      0x4536fb7e\n      eq\n      tag_3\n      jumpi\n      dup1\n      0xa6b03633\n      eq\n      tag_4\n      jumpi\n    tag_2:\n      0x00\n      dup1\n      revert\n        /* \"CloneFactory.sol\":380:678  function createCampaign(uint40 _minimum, address _creator) external {... */\n    tag_3:\n      tag_5\n      0x04\n      dup1\n      calldatasize\n      sub\n      dup2\n      add\n      swap1\n      tag_6\n      swap2\n      swap1\n      tag_7\n      jump\t// in\n    tag_6:\n      tag_8\n      jump\t// in\n    tag_5:\n      stop\n        /* \"CloneFactory.sol\":686:791  function getCampaigns() public view returns(address[] memory) {... */\n    tag_4:\n      tag_9\n      tag_10\n      jump\t// in\n    tag_9:\n      mload(0x40)\n      tag_11\n      swap2\n      swap1\n      tag_12\n      jump\t// in\n    tag_11:\n      mload(0x40)\n      dup1\n      swap2\n      sub\n      swap1\n      return\n        /* \"CloneFactory.sol\":380:678  function createCampaign(uint40 _minimum, address _creator) external {... */\n    tag_8:\n        /* \"CloneFactory.sol\":459:479  address _newCampaign */\n      0x00\n        /* \"CloneFactory.sol\":482:514  Clones.clone(baseImplementation) */\n      tag_14\n        /* \"CloneFactory.sol\":495:513  baseImplementation */\n      0x00\n      dup1\n      sload\n      swap1\n      0x0100\n      exp\n      swap1\n      div\n      0xffffffffffffffffffffffffffffffffffffffff\n      and\n        /* \"CloneFactory.sol\":482:494  Clones.clone */\n      tag_15\n        /* \"CloneFactory.sol\":482:514  Clones.clone(baseImplementation) */\n      jump\t// in\n    tag_14:\n        /* \"CloneFactory.sol\":459:514  address _newCampaign = Clones.clone(baseImplementation) */\n      swap1\n      pop\n        /* \"CloneFactory.sol\":534:546  _newCampaign */\n      dup1\n        /* \"CloneFactory.sol\":525:558  Campaign(_newCampaign).initialize */\n      0xffffffffffffffffffffffffffffffffffffffff\n      and\n      0xcea34b73\n        /* \"CloneFactory.sol\":559:567  _minimum */\n      dup5\n        /* \"CloneFactory.sol\":569:577  _creator */\n      dup5\n        /* \"CloneFactory.sol\":525:578  Campaign(_newCampaign).initialize(_minimum, _creator) */\n      mload(0x40)\n      dup4\n      0xffffffff\n      and\n      0xe0\n      shl\n      dup2\n      mstore\n      0x04\n      add\n      tag_16\n      swap3\n      swap2\n      swap1\n      tag_17\n      jump\t// in\n    tag_16:\n      0x00\n      mload(0x40)\n      dup1\n      dup4\n      sub\n      dup2\n      0x00\n      dup8\n      dup1\n      extcodesize\n      iszero\n      dup1\n      iszero\n      tag_18\n      jumpi\n      0x00\n      dup1\n      revert\n    tag_18:\n      pop\n      gas\n      call\n      iszero\n      dup1\n      iszero\n      tag_20\n      jumpi\n      returndatasize\n      0x00\n      dup1\n      returndatacopy\n      revert(0x00, returndatasize)\n    tag_20:\n      pop\n      pop\n      pop\n      pop\n        /* \"CloneFactory.sol\":589:606  campaignContracts */\n      0x01\n        /* \"CloneFactory.sol\":612:624  _newCampaign */\n      dup2\n        /* \"CloneFactory.sol\":589:625  campaignContracts.push(_newCampaign) */\n      swap1\n      dup1\n      0x01\n      dup2\n      sload\n      add\n      dup1\n      dup3\n      sstore\n      dup1\n      swap2\n      pop\n      pop\n      0x01\n      swap1\n      sub\n      swap1\n      0x00\n      mstore\n      keccak256(0x00, 0x20)\n      add\n      0x00\n      swap1\n      swap2\n      swap1\n      swap2\n      swap1\n      swap2\n      0x0100\n      exp\n      dup2\n      sload\n      dup2\n      0xffffffffffffffffffffffffffffffffffffffff\n      mul\n      not\n      and\n      swap1\n      dup4\n      0xffffffffffffffffffffffffffffffffffffffff\n      and\n      mul\n      or\n      swap1\n      sstore\n      pop\n        /* \"CloneFactory.sol\":657:669  _newCampaign */\n      dup1\n        /* \"CloneFactory.sol\":641:670  CampaignCreated(_newCampaign) */\n      0xffffffffffffffffffffffffffffffffffffffff\n      and\n      0x07a9c134c6ed9c353773b355c69cbf65e34e3c3820554f5b8e1afdecdfb40292\n      mload(0x40)\n      mload(0x40)\n      dup1\n      swap2\n      sub\n      swap1\n      log2\n        /* \"CloneFactory.sol\":448:678  {... */\n      pop\n        /* \"CloneFactory.sol\":380:678  function createCampaign(uint40 _minimum, address _creator) external {... */\n      pop\n      pop\n      jump\t// out\n        /* \"CloneFactory.sol\":686:791  function getCampaigns() public view returns(address[] memory) {... */\n    tag_10:\n        /* \"CloneFactory.sol\":730:746  address[] memory */\n      0x60\n        /* \"CloneFactory.sol\":766:783  campaignContracts */\n      0x01\n        /* \"CloneFactory.sol\":759:783  return campaignContracts */\n      dup1\n      sload\n      dup1\n      0x20\n      mul\n      0x20\n      add\n      mload(0x40)\n      swap1\n      dup2\n      add\n      0x40\n      mstore\n      dup1\n      swap3\n      swap2\n      swap1\n      dup2\n      dup2\n      mstore\n      0x20\n      add\n      dup3\n      dup1\n      sload\n      dup1\n      iszero\n      tag_23\n      jumpi\n      0x20\n      mul\n      dup3\n      add\n      swap2\n      swap1\n      0x00\n      mstore\n      keccak256(0x00, 0x20)\n      swap1\n    tag_24:\n      dup2\n      0x00\n      swap1\n      sload\n      swap1\n      0x0100\n      exp\n      swap1\n      div\n      0xffffffffffffffffffffffffffffffffffffffff\n      and\n      0xffffffffffffffffffffffffffffffffffffffff\n      and\n      dup2\n      mstore\n      0x20\n      add\n      swap1\n      0x01\n      add\n      swap1\n      dup1\n      dup4\n      gt\n      tag_24\n      jumpi\n    tag_23:\n      pop\n      pop\n      pop\n      pop\n      pop\n      swap1\n      pop\n        /* \"CloneFactory.sol\":686:791  function getCampaigns() public view returns(address[] memory) {... */\n      swap1\n      jump\t// out\n        /* \"@openzeppelin/contracts/proxy/Clones.sol\":958:1473   */\n    tag_15:\n        /* \"@openzeppelin/contracts/proxy/Clones.sol\":1015:1031   */\n      0x00\n        /* \"@openzeppelin/contracts/proxy/Clones.sol\":1083:1087   */\n      0x40\n        /* \"@openzeppelin/contracts/proxy/Clones.sol\":1077:1088   */\n      mload\n        /* \"@openzeppelin/contracts/proxy/Clones.sol\":1113:1179   */\n      0x3d602d80600a3d3981f3363d3d373d3d3d363d73000000000000000000000000\n        /* \"@openzeppelin/contracts/proxy/Clones.sol\":1108:1111   */\n      dup2\n        /* \"@openzeppelin/contracts/proxy/Clones.sol\":1101:1180   */\n      mstore\n        /* \"@openzeppelin/contracts/proxy/Clones.sol\":1226:1240   */\n      dup3\n        /* \"@openzeppelin/contracts/proxy/Clones.sol\":1220:1224   */\n      0x60\n        /* \"@openzeppelin/contracts/proxy/Clones.sol\":1216:1241   */\n      shl\n        /* \"@openzeppelin/contracts/proxy/Clones.sol\":1209:1213   */\n      0x14\n        /* \"@openzeppelin/contracts/proxy/Clones.sol\":1204:1207   */\n      dup3\n        /* \"@openzeppelin/contracts/proxy/Clones.sol\":1200:1214   */\n      add\n        /* \"@openzeppelin/contracts/proxy/Clones.sol\":1193:1242   */\n      mstore\n        /* \"@openzeppelin/contracts/proxy/Clones.sol\":1278:1344   */\n      0x5af43d82803e903d91602b57fd5bf30000000000000000000000000000000000\n        /* \"@openzeppelin/contracts/proxy/Clones.sol\":1271:1275   */\n      0x28\n        /* \"@openzeppelin/contracts/proxy/Clones.sol\":1266:1269   */\n      dup3\n        /* \"@openzeppelin/contracts/proxy/Clones.sol\":1262:1276   */\n      add\n        /* \"@openzeppelin/contracts/proxy/Clones.sol\":1255:1345   */\n      mstore\n        /* \"@openzeppelin/contracts/proxy/Clones.sol\":1385:1389   */\n      0x37\n        /* \"@openzeppelin/contracts/proxy/Clones.sol\":1380:1383   */\n      dup2\n        /* \"@openzeppelin/contracts/proxy/Clones.sol\":1377:1378   */\n      0x00\n        /* \"@openzeppelin/contracts/proxy/Clones.sol\":1370:1390   */\n      create\n        /* \"@openzeppelin/contracts/proxy/Clones.sol\":1358:1390   */\n      swap2\n      pop\n        /* \"@openzeppelin/contracts/proxy/Clones.sol\":1052:1400   */\n      pop\n        /* \"@openzeppelin/contracts/proxy/Clones.sol\":1437:1438   */\n      0x00\n        /* \"@openzeppelin/contracts/proxy/Clones.sol\":1417:1439   */\n      0xffffffffffffffffffffffffffffffffffffffff\n      and\n        /* \"@openzeppelin/contracts/proxy/Clones.sol\":1417:1425   */\n      dup2\n        /* \"@openzeppelin/contracts/proxy/Clones.sol\":1417:1439   */\n      0xffffffffffffffffffffffffffffffffffffffff\n      and\n      eq\n      iszero\n        /* \"@openzeppelin/contracts/proxy/Clones.sol\":1409:1466   */\n      tag_26\n      jumpi\n      mload(0x40)\n      0x08c379a000000000000000000000000000000000000000000000000000000000\n      dup2\n      mstore\n      0x04\n      add\n      tag_27\n      swap1\n      tag_28\n      jump\t// in\n    tag_27:\n      mload(0x40)\n      dup1\n      swap2\n      sub\n      swap1\n      revert\n    tag_26:\n        /* \"@openzeppelin/contracts/proxy/Clones.sol\":958:1473   */\n      swap2\n      swap1\n      pop\n      jump\t// out\n        /* \"#utility.yul\":88:205   */\n    tag_30:\n        /* \"#utility.yul\":197:198   */\n      0x00\n        /* \"#utility.yul\":194:195   */\n      dup1\n        /* \"#utility.yul\":187:199   */\n      revert\n        /* \"#utility.yul\":334:429   */\n    tag_32:\n        /* \"#utility.yul\":370:377   */\n      0x00\n        /* \"#utility.yul\":410:422   */\n      0xffffffffff\n        /* \"#utility.yul\":403:408   */\n      dup3\n        /* \"#utility.yul\":399:423   */\n      and\n        /* \"#utility.yul\":388:423   */\n      swap1\n      pop\n        /* \"#utility.yul\":334:429   */\n      swap2\n      swap1\n      pop\n      jump\t// out\n        /* \"#utility.yul\":435:555   */\n    tag_33:\n        /* \"#utility.yul\":507:530   */\n      tag_57\n        /* \"#utility.yul\":524:529   */\n      dup2\n        /* \"#utility.yul\":507:530   */\n      tag_32\n      jump\t// in\n    tag_57:\n        /* \"#utility.yul\":500:505   */\n      dup2\n        /* \"#utility.yul\":497:531   */\n      eq\n        /* \"#utility.yul\":487:549   */\n      tag_58\n      jumpi\n        /* \"#utility.yul\":545:546   */\n      0x00\n        /* \"#utility.yul\":542:543   */\n      dup1\n        /* \"#utility.yul\":535:547   */\n      revert\n        /* \"#utility.yul\":487:549   */\n    tag_58:\n        /* \"#utility.yul\":435:555   */\n      pop\n      jump\t// out\n        /* \"#utility.yul\":561:698   */\n    tag_34:\n        /* \"#utility.yul\":606:611   */\n      0x00\n        /* \"#utility.yul\":644:650   */\n      dup2\n        /* \"#utility.yul\":631:651   */\n      calldataload\n        /* \"#utility.yul\":622:651   */\n      swap1\n      pop\n        /* \"#utility.yul\":660:692   */\n      tag_60\n        /* \"#utility.yul\":686:691   */\n      dup2\n        /* \"#utility.yul\":660:692   */\n      tag_33\n      jump\t// in\n    tag_60:\n        /* \"#utility.yul\":561:698   */\n      swap3\n      swap2\n      pop\n      pop\n      jump\t// out\n        /* \"#utility.yul\":704:830   */\n    tag_35:\n        /* \"#utility.yul\":741:748   */\n      0x00\n        /* \"#utility.yul\":781:823   */\n      0xffffffffffffffffffffffffffffffffffffffff\n        /* \"#utility.yul\":774:779   */\n      dup3\n        /* \"#utility.yul\":770:824   */\n      and\n        /* \"#utility.yul\":759:824   */\n      swap1\n      pop\n        /* \"#utility.yul\":704:830   */\n      swap2\n      swap1\n      pop\n      jump\t// out\n        /* \"#utility.yul\":836:932   */\n    tag_36:\n        /* \"#utility.yul\":873:880   */\n      0x00\n        /* \"#utility.yul\":902:926   */\n      tag_63\n        /* \"#utility.yul\":920:925   */\n      dup3\n        /* \"#utility.yul\":902:926   */\n      tag_35\n      jump\t// in\n    tag_63:\n        /* \"#utility.yul\":891:926   */\n      swap1\n      pop\n        /* \"#utility.yul\":836:932   */\n      swap2\n      swap1\n      pop\n      jump\t// out\n        /* \"#utility.yul\":938:1060   */\n    tag_37:\n        /* \"#utility.yul\":1011:1035   */\n      tag_65\n        /* \"#utility.yul\":1029:1034   */\n      dup2\n        /* \"#utility.yul\":1011:1035   */\n      tag_36\n      jump\t// in\n    tag_65:\n        /* \"#utility.yul\":1004:1009   */\n      dup2\n        /* \"#utility.yul\":1001:1036   */\n      eq\n        /* \"#utility.yul\":991:1054   */\n      tag_66\n      jumpi\n        /* \"#utility.yul\":1050:1051   */\n      0x00\n        /* \"#utility.yul\":1047:1048   */\n      dup1\n        /* \"#utility.yul\":1040:1052   */\n      revert\n        /* \"#utility.yul\":991:1054   */\n    tag_66:\n        /* \"#utility.yul\":938:1060   */\n      pop\n      jump\t// out\n        /* \"#utility.yul\":1066:1205   */\n    tag_38:\n        /* \"#utility.yul\":1112:1117   */\n      0x00\n        /* \"#utility.yul\":1150:1156   */\n      dup2\n        /* \"#utility.yul\":1137:1157   */\n      calldataload\n        /* \"#utility.yul\":1128:1157   */\n      swap1\n      pop\n        /* \"#utility.yul\":1166:1199   */\n      tag_68\n        /* \"#utility.yul\":1193:1198   */\n      dup2\n        /* \"#utility.yul\":1166:1199   */\n      tag_37\n      jump\t// in\n    tag_68:\n        /* \"#utility.yul\":1066:1205   */\n      swap3\n      swap2\n      pop\n      pop\n      jump\t// out\n        /* \"#utility.yul\":1211:1683   */\n    tag_7:\n        /* \"#utility.yul\":1278:1284   */\n      0x00\n        /* \"#utility.yul\":1286:1292   */\n      dup1\n        /* \"#utility.yul\":1335:1337   */\n      0x40\n        /* \"#utility.yul\":1323:1332   */\n      dup4\n        /* \"#utility.yul\":1314:1321   */\n      dup6\n        /* \"#utility.yul\":1310:1333   */\n      sub\n        /* \"#utility.yul\":1306:1338   */\n      slt\n        /* \"#utility.yul\":1303:1422   */\n      iszero\n      tag_70\n      jumpi\n        /* \"#utility.yul\":1341:1420   */\n      tag_71\n      tag_30\n      jump\t// in\n    tag_71:\n        /* \"#utility.yul\":1303:1422   */\n    tag_70:\n        /* \"#utility.yul\":1461:1462   */\n      0x00\n        /* \"#utility.yul\":1486:1538   */\n      tag_72\n        /* \"#utility.yul\":1530:1537   */\n      dup6\n        /* \"#utility.yul\":1521:1527   */\n      dup3\n        /* \"#utility.yul\":1510:1519   */\n      dup7\n        /* \"#utility.yul\":1506:1528   */\n      add\n        /* \"#utility.yul\":1486:1538   */\n      tag_34\n      jump\t// in\n    tag_72:\n        /* \"#utility.yul\":1476:1538   */\n      swap3\n      pop\n        /* \"#utility.yul\":1432:1548   */\n      pop\n        /* \"#utility.yul\":1587:1589   */\n      0x20\n        /* \"#utility.yul\":1613:1666   */\n      tag_73\n        /* \"#utility.yul\":1658:1665   */\n      dup6\n        /* \"#utility.yul\":1649:1655   */\n      dup3\n        /* \"#utility.yul\":1638:1647   */\n      dup7\n        /* \"#utility.yul\":1634:1656   */\n      add\n        /* \"#utility.yul\":1613:1666   */\n      tag_38\n      jump\t// in\n    tag_73:\n        /* \"#utility.yul\":1603:1666   */\n      swap2\n      pop\n        /* \"#utility.yul\":1558:1676   */\n      pop\n        /* \"#utility.yul\":1211:1683   */\n      swap3\n      pop\n      swap3\n      swap1\n      pop\n      jump\t// out\n        /* \"#utility.yul\":1689:1803   */\n    tag_39:\n        /* \"#utility.yul\":1756:1762   */\n      0x00\n        /* \"#utility.yul\":1790:1795   */\n      dup2\n        /* \"#utility.yul\":1784:1796   */\n      mload\n        /* \"#utility.yul\":1774:1796   */\n      swap1\n      pop\n        /* \"#utility.yul\":1689:1803   */\n      swap2\n      swap1\n      pop\n      jump\t// out\n        /* \"#utility.yul\":1809:1993   */\n    tag_40:\n        /* \"#utility.yul\":1908:1919   */\n      0x00\n        /* \"#utility.yul\":1942:1948   */\n      dup3\n        /* \"#utility.yul\":1937:1940   */\n      dup3\n        /* \"#utility.yul\":1930:1949   */\n      mstore\n        /* \"#utility.yul\":1982:1986   */\n      0x20\n        /* \"#utility.yul\":1977:1980   */\n      dup3\n        /* \"#utility.yul\":1973:1987   */\n      add\n        /* \"#utility.yul\":1958:1987   */\n      swap1\n      pop\n        /* \"#utility.yul\":1809:1993   */\n      swap3\n      swap2\n      pop\n      pop\n      jump\t// out\n        /* \"#utility.yul\":1999:2131   */\n    tag_41:\n        /* \"#utility.yul\":2066:2070   */\n      0x00\n        /* \"#utility.yul\":2089:2092   */\n      dup2\n        /* \"#utility.yul\":2081:2092   */\n      swap1\n      pop\n        /* \"#utility.yul\":2119:2123   */\n      0x20\n        /* \"#utility.yul\":2114:2117   */\n      dup3\n        /* \"#utility.yul\":2110:2124   */\n      add\n        /* \"#utility.yul\":2102:2124   */\n      swap1\n      pop\n        /* \"#utility.yul\":1999:2131   */\n      swap2\n      swap1\n      pop\n      jump\t// out\n        /* \"#utility.yul\":2137:2245   */\n    tag_42:\n        /* \"#utility.yul\":2214:2238   */\n      tag_78\n        /* \"#utility.yul\":2232:2237   */\n      dup2\n        /* \"#utility.yul\":2214:2238   */\n      tag_36\n      jump\t// in\n    tag_78:\n        /* \"#utility.yul\":2209:2212   */\n      dup3\n        /* \"#utility.yul\":2202:2239   */\n      mstore\n        /* \"#utility.yul\":2137:2245   */\n      pop\n      pop\n      jump\t// out\n        /* \"#utility.yul\":2251:2430   */\n    tag_43:\n        /* \"#utility.yul\":2320:2330   */\n      0x00\n        /* \"#utility.yul\":2341:2387   */\n      tag_80\n        /* \"#utility.yul\":2383:2386   */\n      dup4\n        /* \"#utility.yul\":2375:2381   */\n      dup4\n        /* \"#utility.yul\":2341:2387   */\n      tag_42\n      jump\t// in\n    tag_80:\n        /* \"#utility.yul\":2419:2423   */\n      0x20\n        /* \"#utility.yul\":2414:2417   */\n      dup4\n        /* \"#utility.yul\":2410:2424   */\n      add\n        /* \"#utility.yul\":2396:2424   */\n      swap1\n      pop\n        /* \"#utility.yul\":2251:2430   */\n      swap3\n      swap2\n      pop\n      pop\n      jump\t// out\n        /* \"#utility.yul\":2436:2549   */\n    tag_44:\n        /* \"#utility.yul\":2506:2510   */\n      0x00\n        /* \"#utility.yul\":2538:2542   */\n      0x20\n        /* \"#utility.yul\":2533:2536   */\n      dup3\n        /* \"#utility.yul\":2529:2543   */\n      add\n        /* \"#utility.yul\":2521:2543   */\n      swap1\n      pop\n        /* \"#utility.yul\":2436:2549   */\n      swap2\n      swap1\n      pop\n      jump\t// out\n        /* \"#utility.yul\":2585:3317   */\n    tag_45:\n        /* \"#utility.yul\":2704:2707   */\n      0x00\n        /* \"#utility.yul\":2733:2787   */\n      tag_83\n        /* \"#utility.yul\":2781:2786   */\n      dup3\n        /* \"#utility.yul\":2733:2787   */\n      tag_39\n      jump\t// in\n    tag_83:\n        /* \"#utility.yul\":2803:2889   */\n      tag_84\n        /* \"#utility.yul\":2882:2888   */\n      dup2\n        /* \"#utility.yul\":2877:2880   */\n      dup6\n        /* \"#utility.yul\":2803:2889   */\n      tag_40\n      jump\t// in\n    tag_84:\n        /* \"#utility.yul\":2796:2889   */\n      swap4\n      pop\n        /* \"#utility.yul\":2913:2969   */\n      tag_85\n        /* \"#utility.yul\":2963:2968   */\n      dup4\n        /* \"#utility.yul\":2913:2969   */\n      tag_41\n      jump\t// in\n    tag_85:\n        /* \"#utility.yul\":2992:2999   */\n      dup1\n        /* \"#utility.yul\":3023:3024   */\n      0x00\n        /* \"#utility.yul\":3008:3292   */\n    tag_86:\n        /* \"#utility.yul\":3033:3039   */\n      dup4\n        /* \"#utility.yul\":3030:3031   */\n      dup2\n        /* \"#utility.yul\":3027:3040   */\n      lt\n        /* \"#utility.yul\":3008:3292   */\n      iszero\n      tag_88\n      jumpi\n        /* \"#utility.yul\":3109:3115   */\n      dup2\n        /* \"#utility.yul\":3103:3116   */\n      mload\n        /* \"#utility.yul\":3136:3199   */\n      tag_89\n        /* \"#utility.yul\":3195:3198   */\n      dup9\n        /* \"#utility.yul\":3180:3193   */\n      dup3\n        /* \"#utility.yul\":3136:3199   */\n      tag_43\n      jump\t// in\n    tag_89:\n        /* \"#utility.yul\":3129:3199   */\n      swap8\n      pop\n        /* \"#utility.yul\":3222:3282   */\n      tag_90\n        /* \"#utility.yul\":3275:3281   */\n      dup4\n        /* \"#utility.yul\":3222:3282   */\n      tag_44\n      jump\t// in\n    tag_90:\n        /* \"#utility.yul\":3212:3282   */\n      swap3\n      pop\n        /* \"#utility.yul\":3068:3292   */\n      pop\n        /* \"#utility.yul\":3055:3056   */\n      0x01\n        /* \"#utility.yul\":3052:3053   */\n      dup2\n        /* \"#utility.yul\":3048:3057   */\n      add\n        /* \"#utility.yul\":3043:3057   */\n      swap1\n      pop\n        /* \"#utility.yul\":3008:3292   */\n      jump(tag_86)\n    tag_88:\n        /* \"#utility.yul\":3012:3026   */\n      pop\n        /* \"#utility.yul\":3308:3311   */\n      dup6\n        /* \"#utility.yul\":3301:3311   */\n      swap4\n      pop\n        /* \"#utility.yul\":2709:3317   */\n      pop\n      pop\n      pop\n        /* \"#utility.yul\":2585:3317   */\n      swap3\n      swap2\n      pop\n      pop\n      jump\t// out\n        /* \"#utility.yul\":3323:3696   */\n    tag_12:\n        /* \"#utility.yul\":3466:3470   */\n      0x00\n        /* \"#utility.yul\":3504:3506   */\n      0x20\n        /* \"#utility.yul\":3493:3502   */\n      dup3\n        /* \"#utility.yul\":3489:3507   */\n      add\n        /* \"#utility.yul\":3481:3507   */\n      swap1\n      pop\n        /* \"#utility.yul\":3553:3562   */\n      dup2\n        /* \"#utility.yul\":3547:3551   */\n      dup2\n        /* \"#utility.yul\":3543:3563   */\n      sub\n        /* \"#utility.yul\":3539:3540   */\n      0x00\n        /* \"#utility.yul\":3528:3537   */\n      dup4\n        /* \"#utility.yul\":3524:3541   */\n      add\n        /* \"#utility.yul\":3517:3564   */\n      mstore\n        /* \"#utility.yul\":3581:3689   */\n      tag_92\n        /* \"#utility.yul\":3684:3688   */\n      dup2\n        /* \"#utility.yul\":3675:3681   */\n      dup5\n        /* \"#utility.yul\":3581:3689   */\n      tag_45\n      jump\t// in\n    tag_92:\n        /* \"#utility.yul\":3573:3689   */\n      swap1\n      pop\n        /* \"#utility.yul\":3323:3696   */\n      swap3\n      swap2\n      pop\n      pop\n      jump\t// out\n        /* \"#utility.yul\":3702:3817   */\n    tag_46:\n        /* \"#utility.yul\":3787:3810   */\n      tag_94\n        /* \"#utility.yul\":3804:3809   */\n      dup2\n        /* \"#utility.yul\":3787:3810   */\n      tag_32\n      jump\t// in\n    tag_94:\n        /* \"#utility.yul\":3782:3785   */\n      dup3\n        /* \"#utility.yul\":3775:3811   */\n      mstore\n        /* \"#utility.yul\":3702:3817   */\n      pop\n      pop\n      jump\t// out\n        /* \"#utility.yul\":3823:3941   */\n    tag_47:\n        /* \"#utility.yul\":3910:3934   */\n      tag_96\n        /* \"#utility.yul\":3928:3933   */\n      dup2\n        /* \"#utility.yul\":3910:3934   */\n      tag_36\n      jump\t// in\n    tag_96:\n        /* \"#utility.yul\":3905:3908   */\n      dup3\n        /* \"#utility.yul\":3898:3935   */\n      mstore\n        /* \"#utility.yul\":3823:3941   */\n      pop\n      pop\n      jump\t// out\n        /* \"#utility.yul\":3947:4275   */\n    tag_17:\n        /* \"#utility.yul\":4066:4070   */\n      0x00\n        /* \"#utility.yul\":4104:4106   */\n      0x40\n        /* \"#utility.yul\":4093:4102   */\n      dup3\n        /* \"#utility.yul\":4089:4107   */\n      add\n        /* \"#utility.yul\":4081:4107   */\n      swap1\n      pop\n        /* \"#utility.yul\":4117:4186   */\n      tag_98\n        /* \"#utility.yul\":4183:4184   */\n      0x00\n        /* \"#utility.yul\":4172:4181   */\n      dup4\n        /* \"#utility.yul\":4168:4185   */\n      add\n        /* \"#utility.yul\":4159:4165   */\n      dup6\n        /* \"#utility.yul\":4117:4186   */\n      tag_46\n      jump\t// in\n    tag_98:\n        /* \"#utility.yul\":4196:4268   */\n      tag_99\n        /* \"#utility.yul\":4264:4266   */\n      0x20\n        /* \"#utility.yul\":4253:4262   */\n      dup4\n        /* \"#utility.yul\":4249:4267   */\n      add\n        /* \"#utility.yul\":4240:4246   */\n      dup5\n        /* \"#utility.yul\":4196:4268   */\n      tag_47\n      jump\t// in\n    tag_99:\n        /* \"#utility.yul\":3947:4275   */\n      swap4\n      swap3\n      pop\n      pop\n      pop\n      jump\t// out\n        /* \"#utility.yul\":4281:4450   */\n    tag_48:\n        /* \"#utility.yul\":4365:4376   */\n      0x00\n        /* \"#utility.yul\":4399:4405   */\n      dup3\n        /* \"#utility.yul\":4394:4397   */\n      dup3\n        /* \"#utility.yul\":4387:4406   */\n      mstore\n        /* \"#utility.yul\":4439:4443   */\n      0x20\n        /* \"#utility.yul\":4434:4437   */\n      dup3\n        /* \"#utility.yul\":4430:4444   */\n      add\n        /* \"#utility.yul\":4415:4444   */\n      swap1\n      pop\n        /* \"#utility.yul\":4281:4450   */\n      swap3\n      swap2\n      pop\n      pop\n      jump\t// out\n        /* \"#utility.yul\":4456:4628   */\n    tag_49:\n        /* \"#utility.yul\":4596:4620   */\n      0x455243313136373a20637265617465206661696c656400000000000000000000\n        /* \"#utility.yul\":4592:4593   */\n      0x00\n        /* \"#utility.yul\":4584:4590   */\n      dup3\n        /* \"#utility.yul\":4580:4594   */\n      add\n        /* \"#utility.yul\":4573:4621   */\n      mstore\n        /* \"#utility.yul\":4456:4628   */\n      pop\n      jump\t// out\n        /* \"#utility.yul\":4634:5000   */\n    tag_50:\n        /* \"#utility.yul\":4776:4779   */\n      0x00\n        /* \"#utility.yul\":4797:4864   */\n      tag_103\n        /* \"#utility.yul\":4861:4863   */\n      0x16\n        /* \"#utility.yul\":4856:4859   */\n      dup4\n        /* \"#utility.yul\":4797:4864   */\n      tag_48\n      jump\t// in\n    tag_103:\n        /* \"#utility.yul\":4790:4864   */\n      swap2\n      pop\n        /* \"#utility.yul\":4873:4966   */\n      tag_104\n        /* \"#utility.yul\":4962:4965   */\n      dup3\n        /* \"#utility.yul\":4873:4966   */\n      tag_49\n      jump\t// in\n    tag_104:\n        /* \"#utility.yul\":4991:4993   */\n      0x20\n        /* \"#utility.yul\":4986:4989   */\n      dup3\n        /* \"#utility.yul\":4982:4994   */\n      add\n        /* \"#utility.yul\":4975:4994   */\n      swap1\n      pop\n        /* \"#utility.yul\":4634:5000   */\n      swap2\n      swap1\n      pop\n      jump\t// out\n        /* \"#utility.yul\":5006:5425   */\n    tag_28:\n        /* \"#utility.yul\":5172:5176   */\n      0x00\n        /* \"#utility.yul\":5210:5212   */\n      0x20\n        /* \"#utility.yul\":5199:5208   */\n      dup3\n        /* \"#utility.yul\":5195:5213   */\n      add\n        /* \"#utility.yul\":5187:5213   */\n      swap1\n      pop\n        /* \"#utility.yul\":5259:5268   */\n      dup2\n        /* \"#utility.yul\":5253:5257   */\n      dup2\n        /* \"#utility.yul\":5249:5269   */\n      sub\n        /* \"#utility.yul\":5245:5246   */\n      0x00\n        /* \"#utility.yul\":5234:5243   */\n      dup4\n        /* \"#utility.yul\":5230:5247   */\n      add\n        /* \"#utility.yul\":5223:5270   */\n      mstore\n        /* \"#utility.yul\":5287:5418   */\n      tag_106\n        /* \"#utility.yul\":5413:5417   */\n      dup2\n        /* \"#utility.yul\":5287:5418   */\n      tag_50\n      jump\t// in\n    tag_106:\n        /* \"#utility.yul\":5279:5418   */\n      swap1\n      pop\n        /* \"#utility.yul\":5006:5425   */\n      swap2\n      swap1\n      pop\n      jump\t// out\n\n    auxdata: 0xa2646970667358221220999633ea897f502c335321dcf83af9bfdb9a12c684844f771c88c260c105b6cc64736f6c634300080b0033\n}\n\nsub_1: assembly {\n        /* \"Campaign.sol\":129:2159  contract Campaign is Initializable {... */\n      mstore(0x40, 0x80)\n      callvalue\n      dup1\n      iszero\n      tag_1\n      jumpi\n      0x00\n      dup1\n      revert\n    tag_1:\n      pop\n      dataSize(sub_0)\n      dup1\n      dataOffset(sub_0)\n      0x00\n      codecopy\n      0x00\n      return\n    stop\n\n    sub_0: assembly {\n            /* \"Campaign.sol\":129:2159  contract Campaign is Initializable {... */\n          mstore(0x40, 0x80)\n          jumpi(tag_1, lt(calldatasize, 0x04))\n          shr(0xe0, calldataload(0x00))\n          dup1\n          0x8a9cfd55\n          gt\n          tag_12\n          jumpi\n          dup1\n          0x8a9cfd55\n          eq\n          tag_7\n          jumpi\n          dup1\n          0x937e09b1\n          eq\n          tag_8\n          jumpi\n          dup1\n          0xcea34b73\n          eq\n          tag_9\n          jumpi\n          dup1\n          0xd7bb99ba\n          eq\n          tag_10\n          jumpi\n          dup1\n          0xd7d1bbdb\n          eq\n          tag_11\n          jumpi\n          jump(tag_1)\n        tag_12:\n          dup1\n          0x03441006\n          eq\n          tag_2\n          jumpi\n          dup1\n          0x0a144391\n          eq\n          tag_3\n          jumpi\n          dup1\n          0x481c6a75\n          eq\n          tag_4\n          jumpi\n          dup1\n          0x81d12c58\n          eq\n          tag_5\n          jumpi\n          dup1\n          0x82fde093\n          eq\n          tag_6\n          jumpi\n        tag_1:\n          0x00\n          dup1\n          revert\n            /* \"Campaign.sol\":1779:2156  function finalizeRequest(uint index) public isManager {... */\n        tag_2:\n          callvalue\n          dup1\n          iszero\n          tag_13\n          jumpi\n          0x00\n          dup1\n          revert\n        tag_13:\n          pop\n          tag_14\n          0x04\n          dup1\n          calldatasize\n          sub\n          dup2\n          add\n          swap1\n          tag_15\n          swap2\n          swap1\n          tag_16\n          jump\t// in\n        tag_15:\n          tag_17\n          jump\t// in\n        tag_14:\n          stop\n            /* \"Campaign.sol\":492:533  mapping(address => bool) public approvers */\n        tag_3:\n          callvalue\n          dup1\n          iszero\n          tag_18\n          jumpi\n          0x00\n          dup1\n          revert\n        tag_18:\n          pop\n          tag_19\n          0x04\n          dup1\n          calldatasize\n          sub\n          dup2\n          add\n          swap1\n          tag_20\n          swap2\n          swap1\n          tag_21\n          jump\t// in\n        tag_20:\n          tag_22\n          jump\t// in\n        tag_19:\n          mload(0x40)\n          tag_23\n          swap2\n          swap1\n          tag_24\n          jump\t// in\n        tag_23:\n          mload(0x40)\n          dup1\n          swap2\n          sub\n          swap1\n          return\n            /* \"Campaign.sol\":388:410  address public manager */\n        tag_4:\n          callvalue\n          dup1\n          iszero\n          tag_25\n          jumpi\n          0x00\n          dup1\n          revert\n        tag_25:\n          pop\n          tag_26\n          tag_27\n          jump\t// in\n        tag_26:\n          mload(0x40)\n          tag_28\n          swap2\n          swap1\n          tag_29\n          jump\t// in\n        tag_28:\n          mload(0x40)\n          dup1\n          swap2\n          sub\n          swap1\n          return\n            /* \"Campaign.sol\":540:565  Request[] public requests */\n        tag_5:\n          callvalue\n          dup1\n          iszero\n          tag_30\n          jumpi\n          0x00\n          dup1\n          revert\n        tag_30:\n          pop\n          tag_31\n          0x04\n          dup1\n          calldatasize\n          sub\n          dup2\n          add\n          swap1\n          tag_32\n          swap2\n          swap1\n          tag_16\n          jump\t// in\n        tag_32:\n          tag_33\n          jump\t// in\n        tag_31:\n          mload(0x40)\n          tag_34\n          swap6\n          swap5\n          swap4\n          swap3\n          swap2\n          swap1\n          tag_35\n          jump\t// in\n        tag_34:\n          mload(0x40)\n          dup1\n          swap2\n          sub\n          swap1\n          return\n            /* \"Campaign.sol\":457:485  uint40 public approversCount */\n        tag_6:\n          callvalue\n          dup1\n          iszero\n          tag_36\n          jumpi\n          0x00\n          dup1\n          revert\n        tag_36:\n          pop\n          tag_37\n          tag_38\n          jump\t// in\n        tag_37:\n          mload(0x40)\n          tag_39\n          swap2\n          swap1\n          tag_40\n          jump\t// in\n        tag_39:\n          mload(0x40)\n          dup1\n          swap2\n          sub\n          swap1\n          return\n            /* \"Campaign.sol\":1108:1394  function createRequest(string calldata description, uint value, address payable recipient) external isManager {... */\n        tag_7:\n          callvalue\n          dup1\n          iszero\n          tag_41\n          jumpi\n          0x00\n          dup1\n          revert\n        tag_41:\n          pop\n          tag_42\n          0x04\n          dup1\n          calldatasize\n          sub\n          dup2\n          add\n          swap1\n          tag_43\n          swap2\n          swap1\n          tag_44\n          jump\t// in\n        tag_43:\n          tag_45\n          jump\t// in\n        tag_42:\n          stop\n            /* \"Campaign.sol\":417:450  uint40 public minimumContribution */\n        tag_8:\n          callvalue\n          dup1\n          iszero\n          tag_46\n          jumpi\n          0x00\n          dup1\n          revert\n        tag_46:\n          pop\n          tag_47\n          tag_48\n          jump\t// in\n        tag_47:\n          mload(0x40)\n          tag_49\n          swap2\n          swap1\n          tag_40\n          jump\t// in\n        tag_49:\n          mload(0x40)\n          dup1\n          swap2\n          sub\n          swap1\n          return\n            /* \"Campaign.sol\":574:724  function initialize(uint40 minimum, address creator) public initializer() {... */\n        tag_9:\n          callvalue\n          dup1\n          iszero\n          tag_50\n          jumpi\n          0x00\n          dup1\n          revert\n        tag_50:\n          pop\n          tag_51\n          0x04\n          dup1\n          calldatasize\n          sub\n          dup2\n          add\n          swap1\n          tag_52\n          swap2\n          swap1\n          tag_53\n          jump\t// in\n        tag_52:\n          tag_54\n          jump\t// in\n        tag_51:\n          stop\n            /* \"Campaign.sol\":867:1100  function contribute() external payable {... */\n        tag_10:\n          tag_55\n          tag_56\n          jump\t// in\n        tag_55:\n          stop\n            /* \"Campaign.sol\":1402:1771  function approveRequest(uint index) external {... */\n        tag_11:\n          callvalue\n          dup1\n          iszero\n          tag_57\n          jumpi\n          0x00\n          dup1\n          revert\n        tag_57:\n          pop\n          tag_58\n          0x04\n          dup1\n          calldatasize\n          sub\n          dup2\n          add\n          swap1\n          tag_59\n          swap2\n          swap1\n          tag_16\n          jump\t// in\n        tag_59:\n          tag_60\n          jump\t// in\n        tag_58:\n          stop\n            /* \"Campaign.sol\":1779:2156  function finalizeRequest(uint index) public isManager {... */\n        tag_17:\n            /* \"Campaign.sol\":786:793  manager */\n          0x00\n          0x02\n          swap1\n          sload\n          swap1\n          0x0100\n          exp\n          swap1\n          div\n          0xffffffffffffffffffffffffffffffffffffffff\n          and\n            /* \"Campaign.sol\":772:793  msg.sender == manager */\n          0xffffffffffffffffffffffffffffffffffffffff\n          and\n            /* \"Campaign.sol\":772:782  msg.sender */\n          caller\n            /* \"Campaign.sol\":772:793  msg.sender == manager */\n          0xffffffffffffffffffffffffffffffffffffffff\n          and\n          eq\n            /* \"Campaign.sol\":764:839  require(msg.sender == manager, \"Only the manager can perform this action.\") */\n          tag_62\n          jumpi\n          mload(0x40)\n          0x08c379a000000000000000000000000000000000000000000000000000000000\n          dup2\n          mstore\n          0x04\n          add\n          tag_63\n          swap1\n          tag_64\n          jump\t// in\n        tag_63:\n          mload(0x40)\n          dup1\n          swap2\n          sub\n          swap1\n          revert\n        tag_62:\n            /* \"Campaign.sol\":1844:1867  Request storage request */\n          0x00\n            /* \"Campaign.sol\":1870:1878  requests */\n          0x02\n            /* \"Campaign.sol\":1879:1884  index */\n          dup3\n            /* \"Campaign.sol\":1870:1885  requests[index] */\n          dup2\n          sload\n          dup2\n          lt\n          tag_66\n          jumpi\n          tag_67\n          tag_68\n          jump\t// in\n        tag_67:\n        tag_66:\n          swap1\n          0x00\n          mstore\n          keccak256(0x00, 0x20)\n          swap1\n          0x05\n          mul\n          add\n            /* \"Campaign.sol\":1844:1885  Request storage request = requests[index] */\n          swap1\n          pop\n            /* \"Campaign.sol\":1905:1912  request */\n          dup1\n            /* \"Campaign.sol\":1905:1923  request.isComplete */\n          0x02\n          add\n          0x14\n          swap1\n          sload\n          swap1\n          0x0100\n          exp\n          swap1\n          div\n          0xff\n          and\n            /* \"Campaign.sol\":1904:1923  !request.isComplete */\n          iszero\n            /* \"Campaign.sol\":1896:1954  require(!request.isComplete, \"Request already finalized.\") */\n          tag_70\n          jumpi\n          mload(0x40)\n          0x08c379a000000000000000000000000000000000000000000000000000000000\n          dup2\n          mstore\n          0x04\n          add\n          tag_71\n          swap1\n          tag_72\n          jump\t// in\n        tag_71:\n          mload(0x40)\n          dup1\n          swap2\n          sub\n          swap1\n          revert\n        tag_70:\n            /* \"Campaign.sol\":2015:2016  2 */\n          0x02\n            /* \"Campaign.sol\":1998:2012  approversCount */\n          0x00\n          0x1b\n          swap1\n          sload\n          swap1\n          0x0100\n          exp\n          swap1\n          div\n          0xffffffffff\n          and\n            /* \"Campaign.sol\":1998:2016  approversCount / 2 */\n          tag_73\n          swap2\n          swap1\n          tag_74\n          jump\t// in\n        tag_73:\n            /* \"Campaign.sol\":1973:2017  request.approvalCount > (approversCount / 2) */\n          0xffffffffff\n          and\n            /* \"Campaign.sol\":1973:1980  request */\n          dup2\n            /* \"Campaign.sol\":1973:1994  request.approvalCount */\n          0x03\n          add\n          sload\n            /* \"Campaign.sol\":1973:2017  request.approvalCount > (approversCount / 2) */\n          gt\n            /* \"Campaign.sol\":1965:2060  require(request.approvalCount > (approversCount / 2), \"Request doesn't have enough approvals.\") */\n          tag_75\n          jumpi\n          mload(0x40)\n          0x08c379a000000000000000000000000000000000000000000000000000000000\n          dup2\n          mstore\n          0x04\n          add\n          tag_76\n          swap1\n          tag_77\n          jump\t// in\n        tag_76:\n          mload(0x40)\n          dup1\n          swap2\n          sub\n          swap1\n          revert\n        tag_75:\n            /* \"Campaign.sol\":2071:2078  request */\n          dup1\n            /* \"Campaign.sol\":2071:2088  request.recipient */\n          0x02\n          add\n          0x00\n          swap1\n          sload\n          swap1\n          0x0100\n          exp\n          swap1\n          div\n          0xffffffffffffffffffffffffffffffffffffffff\n          and\n            /* \"Campaign.sol\":2071:2097  request.recipient.transfer */\n          0xffffffffffffffffffffffffffffffffffffffff\n          and\n            /* \"Campaign.sol\":2071:2112  request.recipient.transfer(request.value) */\n          0x08fc\n            /* \"Campaign.sol\":2098:2105  request */\n          dup3\n            /* \"Campaign.sol\":2098:2111  request.value */\n          0x01\n          add\n          sload\n            /* \"Campaign.sol\":2071:2112  request.recipient.transfer(request.value) */\n          swap1\n          dup2\n          iszero\n          mul\n          swap1\n          mload(0x40)\n          0x00\n          mload(0x40)\n          dup1\n          dup4\n          sub\n          dup2\n          dup6\n          dup9\n          dup9\n          call\n          swap4\n          pop\n          pop\n          pop\n          pop\n          iszero\n          dup1\n          iszero\n          tag_79\n          jumpi\n          returndatasize\n          0x00\n          dup1\n          returndatacopy\n          revert(0x00, returndatasize)\n        tag_79:\n          pop\n            /* \"Campaign.sol\":2144:2148  true */\n          0x01\n            /* \"Campaign.sol\":2123:2130  request */\n          dup2\n            /* \"Campaign.sol\":2123:2141  request.isComplete */\n          0x02\n          add\n          0x14\n            /* \"Campaign.sol\":2123:2148  request.isComplete = true */\n          0x0100\n          exp\n          dup2\n          sload\n          dup2\n          0xff\n          mul\n          not\n          and\n          swap1\n          dup4\n          iszero\n          iszero\n          mul\n          or\n          swap1\n          sstore\n          pop\n            /* \"Campaign.sol\":1833:2156  {... */\n          pop\n            /* \"Campaign.sol\":1779:2156  function finalizeRequest(uint index) public isManager {... */\n          pop\n          jump\t// out\n            /* \"Campaign.sol\":492:533  mapping(address => bool) public approvers */\n        tag_22:\n          mstore(0x20, 0x01)\n          dup1\n          0x00\n          mstore\n          keccak256(0x00, 0x40)\n          0x00\n          swap2\n          pop\n          sload\n          swap1\n          0x0100\n          exp\n          swap1\n          div\n          0xff\n          and\n          dup2\n          jump\t// out\n            /* \"Campaign.sol\":388:410  address public manager */\n        tag_27:\n          0x00\n          0x02\n          swap1\n          sload\n          swap1\n          0x0100\n          exp\n          swap1\n          div\n          0xffffffffffffffffffffffffffffffffffffffff\n          and\n          dup2\n          jump\t// out\n            /* \"Campaign.sol\":540:565  Request[] public requests */\n        tag_33:\n          0x02\n          dup2\n          dup2\n          sload\n          dup2\n          lt\n          tag_80\n          jumpi\n          0x00\n          dup1\n          revert\n        tag_80:\n          swap1\n          0x00\n          mstore\n          keccak256(0x00, 0x20)\n          swap1\n          0x05\n          mul\n          add\n          0x00\n          swap2\n          pop\n          swap1\n          pop\n          dup1\n          0x00\n          add\n          dup1\n          sload\n          tag_82\n          swap1\n          tag_83\n          jump\t// in\n        tag_82:\n          dup1\n          0x1f\n          add\n          0x20\n          dup1\n          swap2\n          div\n          mul\n          0x20\n          add\n          mload(0x40)\n          swap1\n          dup2\n          add\n          0x40\n          mstore\n          dup1\n          swap3\n          swap2\n          swap1\n          dup2\n          dup2\n          mstore\n          0x20\n          add\n          dup3\n          dup1\n          sload\n          tag_84\n          swap1\n          tag_83\n          jump\t// in\n        tag_84:\n          dup1\n          iszero\n          tag_85\n          jumpi\n          dup1\n          0x1f\n          lt\n          tag_86\n          jumpi\n          0x0100\n          dup1\n          dup4\n          sload\n          div\n          mul\n          dup4\n          mstore\n          swap2\n          0x20\n          add\n          swap2\n          jump(tag_85)\n        tag_86:\n          dup3\n          add\n          swap2\n          swap1\n          0x00\n          mstore\n          keccak256(0x00, 0x20)\n          swap1\n        tag_87:\n          dup2\n          sload\n          dup2\n          mstore\n          swap1\n          0x01\n          add\n          swap1\n          0x20\n          add\n          dup1\n          dup4\n          gt\n          tag_87\n          jumpi\n          dup3\n          swap1\n          sub\n          0x1f\n          and\n          dup3\n          add\n          swap2\n        tag_85:\n          pop\n          pop\n          pop\n          pop\n          pop\n          swap1\n          dup1\n          0x01\n          add\n          sload\n          swap1\n          dup1\n          0x02\n          add\n          0x00\n          swap1\n          sload\n          swap1\n          0x0100\n          exp\n          swap1\n          div\n          0xffffffffffffffffffffffffffffffffffffffff\n          and\n          swap1\n          dup1\n          0x02\n          add\n          0x14\n          swap1\n          sload\n          swap1\n          0x0100\n          exp\n          swap1\n          div\n          0xff\n          and\n          swap1\n          dup1\n          0x03\n          add\n          sload\n          swap1\n          pop\n          dup6\n          jump\t// out\n            /* \"Campaign.sol\":457:485  uint40 public approversCount */\n        tag_38:\n          0x00\n          0x1b\n          swap1\n          sload\n          swap1\n          0x0100\n          exp\n          swap1\n          div\n          0xffffffffff\n          and\n          dup2\n          jump\t// out\n            /* \"Campaign.sol\":1108:1394  function createRequest(string calldata description, uint value, address payable recipient) external isManager {... */\n        tag_45:\n            /* \"Campaign.sol\":786:793  manager */\n          0x00\n          0x02\n          swap1\n          sload\n          swap1\n          0x0100\n          exp\n          swap1\n          div\n          0xffffffffffffffffffffffffffffffffffffffff\n          and\n            /* \"Campaign.sol\":772:793  msg.sender == manager */\n          0xffffffffffffffffffffffffffffffffffffffff\n          and\n            /* \"Campaign.sol\":772:782  msg.sender */\n          caller\n            /* \"Campaign.sol\":772:793  msg.sender == manager */\n          0xffffffffffffffffffffffffffffffffffffffff\n          and\n          eq\n            /* \"Campaign.sol\":764:839  require(msg.sender == manager, \"Only the manager can perform this action.\") */\n          tag_89\n          jumpi\n          mload(0x40)\n          0x08c379a000000000000000000000000000000000000000000000000000000000\n          dup2\n          mstore\n          0x04\n          add\n          tag_90\n          swap1\n          tag_64\n          jump\t// in\n        tag_90:\n          mload(0x40)\n          dup1\n          swap2\n          sub\n          swap1\n          revert\n        tag_89:\n            /* \"Campaign.sol\":1229:1252  Request storage request */\n          0x00\n            /* \"Campaign.sol\":1255:1263  requests */\n          0x02\n            /* \"Campaign.sol\":1255:1270  requests.push() */\n          0x01\n          dup2\n          0x01\n          dup2\n          sload\n          add\n          dup1\n          dup3\n          sstore\n          dup1\n          swap2\n          pop\n          pop\n          sub\n          swap1\n          0x00\n          mstore\n          keccak256(0x00, 0x20)\n          swap1\n          0x05\n          mul\n          add\n            /* \"Campaign.sol\":1229:1270  Request storage request = requests.push() */\n          swap1\n          pop\n            /* \"Campaign.sol\":1303:1314  description */\n          dup5\n          dup5\n            /* \"Campaign.sol\":1281:1288  request */\n          dup3\n            /* \"Campaign.sol\":1281:1300  request.description */\n          0x00\n          add\n            /* \"Campaign.sol\":1281:1314  request.description = description */\n          swap2\n          swap1\n          tag_93\n          swap3\n          swap2\n          swap1\n          tag_94\n          jump\t// in\n        tag_93:\n          pop\n            /* \"Campaign.sol\":1341:1346  value */\n          dup3\n            /* \"Campaign.sol\":1325:1332  request */\n          dup2\n            /* \"Campaign.sol\":1325:1338  request.value */\n          0x01\n          add\n            /* \"Campaign.sol\":1325:1346  request.value = value */\n          dup2\n          swap1\n          sstore\n          pop\n            /* \"Campaign.sol\":1377:1386  recipient */\n          dup2\n            /* \"Campaign.sol\":1357:1364  request */\n          dup2\n            /* \"Campaign.sol\":1357:1374  request.recipient */\n          0x02\n          add\n          0x00\n            /* \"Campaign.sol\":1357:1386  request.recipient = recipient */\n          0x0100\n          exp\n          dup2\n          sload\n          dup2\n          0xffffffffffffffffffffffffffffffffffffffff\n          mul\n          not\n          and\n          swap1\n          dup4\n          0xffffffffffffffffffffffffffffffffffffffff\n          and\n          mul\n          or\n          swap1\n          sstore\n          pop\n            /* \"Campaign.sol\":1218:1394  {... */\n          pop\n            /* \"Campaign.sol\":1108:1394  function createRequest(string calldata description, uint value, address payable recipient) external isManager {... */\n          pop\n          pop\n          pop\n          pop\n          jump\t// out\n            /* \"Campaign.sol\":417:450  uint40 public minimumContribution */\n        tag_48:\n          0x00\n          0x16\n          swap1\n          sload\n          swap1\n          0x0100\n          exp\n          swap1\n          div\n          0xffffffffff\n          and\n          dup2\n          jump\t// out\n            /* \"Campaign.sol\":574:724  function initialize(uint40 minimum, address creator) public initializer() {... */\n        tag_54:\n            /* \"@openzeppelin/contracts/proxy/utils/Initializable.sol\":2336:2349   */\n          0x00\n          0x01\n          swap1\n          sload\n          swap1\n          0x0100\n          exp\n          swap1\n          div\n          0xff\n          and\n            /* \"@openzeppelin/contracts/proxy/utils/Initializable.sol\":2336:2384   */\n          tag_96\n          jumpi\n            /* \"@openzeppelin/contracts/proxy/utils/Initializable.sol\":2372:2384   */\n          0x00\n          dup1\n          sload\n          swap1\n          0x0100\n          exp\n          swap1\n          div\n          0xff\n          and\n            /* \"@openzeppelin/contracts/proxy/utils/Initializable.sol\":2371:2384   */\n          iszero\n            /* \"@openzeppelin/contracts/proxy/utils/Initializable.sol\":2336:2384   */\n          jump(tag_97)\n        tag_96:\n            /* \"@openzeppelin/contracts/proxy/utils/Initializable.sol\":2352:2368   */\n          tag_98\n            /* \"@openzeppelin/contracts/proxy/utils/Initializable.sol\":2352:2366   */\n          tag_99\n            /* \"@openzeppelin/contracts/proxy/utils/Initializable.sol\":2352:2368   */\n          jump\t// in\n        tag_98:\n            /* \"@openzeppelin/contracts/proxy/utils/Initializable.sol\":2336:2384   */\n        tag_97:\n            /* \"@openzeppelin/contracts/proxy/utils/Initializable.sol\":2328:2435   */\n          tag_100\n          jumpi\n          mload(0x40)\n          0x08c379a000000000000000000000000000000000000000000000000000000000\n          dup2\n          mstore\n          0x04\n          add\n          tag_101\n          swap1\n          tag_102\n          jump\t// in\n        tag_101:\n          mload(0x40)\n          dup1\n          swap2\n          sub\n          swap1\n          revert\n        tag_100:\n            /* \"@openzeppelin/contracts/proxy/utils/Initializable.sol\":2446:2465   */\n          0x00\n            /* \"@openzeppelin/contracts/proxy/utils/Initializable.sol\":2469:2482   */\n          dup1\n          0x01\n          swap1\n          sload\n          swap1\n          0x0100\n          exp\n          swap1\n          div\n          0xff\n          and\n            /* \"@openzeppelin/contracts/proxy/utils/Initializable.sol\":2468:2482   */\n          iszero\n            /* \"@openzeppelin/contracts/proxy/utils/Initializable.sol\":2446:2482   */\n          swap1\n          pop\n            /* \"@openzeppelin/contracts/proxy/utils/Initializable.sol\":2496:2510   */\n          dup1\n            /* \"@openzeppelin/contracts/proxy/utils/Initializable.sol\":2492:2590   */\n          iszero\n          tag_103\n          jumpi\n            /* \"@openzeppelin/contracts/proxy/utils/Initializable.sol\":2542:2546   */\n          0x01\n            /* \"@openzeppelin/contracts/proxy/utils/Initializable.sol\":2526:2539   */\n          0x00\n          0x01\n            /* \"@openzeppelin/contracts/proxy/utils/Initializable.sol\":2526:2546   */\n          0x0100\n          exp\n          dup2\n          sload\n          dup2\n          0xff\n          mul\n          not\n          and\n          swap1\n          dup4\n          iszero\n          iszero\n          mul\n          or\n          swap1\n          sstore\n          pop\n            /* \"@openzeppelin/contracts/proxy/utils/Initializable.sol\":2575:2579   */\n          0x01\n            /* \"@openzeppelin/contracts/proxy/utils/Initializable.sol\":2560:2572   */\n          0x00\n          dup1\n            /* \"@openzeppelin/contracts/proxy/utils/Initializable.sol\":2560:2579   */\n          0x0100\n          exp\n          dup2\n          sload\n          dup2\n          0xff\n          mul\n          not\n          and\n          swap1\n          dup4\n          iszero\n          iszero\n          mul\n          or\n          swap1\n          sstore\n          pop\n            /* \"@openzeppelin/contracts/proxy/utils/Initializable.sol\":2492:2590   */\n        tag_103:\n            /* \"Campaign.sol\":681:688  minimum */\n          dup3\n            /* \"Campaign.sol\":659:678  minimumContribution */\n          0x00\n          0x16\n            /* \"Campaign.sol\":659:688  minimumContribution = minimum */\n          0x0100\n          exp\n          dup2\n          sload\n          dup2\n          0xffffffffff\n          mul\n          not\n          and\n          swap1\n          dup4\n          0xffffffffff\n          and\n          mul\n          or\n          swap1\n          sstore\n          pop\n            /* \"Campaign.sol\":709:716  creator */\n          dup2\n            /* \"Campaign.sol\":699:706  manager */\n          0x00\n          0x02\n            /* \"Campaign.sol\":699:716  manager = creator */\n          0x0100\n          exp\n          dup2\n          sload\n          dup2\n          0xffffffffffffffffffffffffffffffffffffffff\n          mul\n          not\n          and\n          swap1\n          dup4\n          0xffffffffffffffffffffffffffffffffffffffff\n          and\n          mul\n          or\n          swap1\n          sstore\n          pop\n            /* \"@openzeppelin/contracts/proxy/utils/Initializable.sol\":2616:2630   */\n          dup1\n            /* \"@openzeppelin/contracts/proxy/utils/Initializable.sol\":2612:2678   */\n          iszero\n          tag_105\n          jumpi\n            /* \"@openzeppelin/contracts/proxy/utils/Initializable.sol\":2662:2667   */\n          0x00\n            /* \"@openzeppelin/contracts/proxy/utils/Initializable.sol\":2646:2659   */\n          dup1\n          0x01\n            /* \"@openzeppelin/contracts/proxy/utils/Initializable.sol\":2646:2667   */\n          0x0100\n          exp\n          dup2\n          sload\n          dup2\n          0xff\n          mul\n          not\n          and\n          swap1\n          dup4\n          iszero\n          iszero\n          mul\n          or\n          swap1\n          sstore\n          pop\n            /* \"@openzeppelin/contracts/proxy/utils/Initializable.sol\":2612:2678   */\n        tag_105:\n            /* \"@openzeppelin/contracts/proxy/utils/Initializable.sol\":2047:2684   */\n          pop\n            /* \"Campaign.sol\":574:724  function initialize(uint40 minimum, address creator) public initializer() {... */\n          pop\n          pop\n          jump\t// out\n            /* \"Campaign.sol\":867:1100  function contribute() external payable {... */\n        tag_56:\n            /* \"Campaign.sol\":938:957  minimumContribution */\n          0x00\n          0x16\n          swap1\n          sload\n          swap1\n          0x0100\n          exp\n          swap1\n          div\n          0xffffffffff\n          and\n            /* \"Campaign.sol\":925:957  msg.value >= minimumContribution */\n          0xffffffffff\n          and\n            /* \"Campaign.sol\":925:934  msg.value */\n          callvalue\n            /* \"Campaign.sol\":925:957  msg.value >= minimumContribution */\n          lt\n          iszero\n            /* \"Campaign.sol\":917:1026  require(msg.value >= minimumContribution, \"You need to contribute at least the minimum contribution amount.\") */\n          tag_107\n          jumpi\n          mload(0x40)\n          0x08c379a000000000000000000000000000000000000000000000000000000000\n          dup2\n          mstore\n          0x04\n          add\n          tag_108\n          swap1\n          tag_109\n          jump\t// in\n        tag_108:\n          mload(0x40)\n          dup1\n          swap2\n          sub\n          swap1\n          revert\n        tag_107:\n            /* \"Campaign.sol\":1061:1065  true */\n          0x01\n            /* \"Campaign.sol\":1037:1046  approvers */\n          dup1\n            /* \"Campaign.sol\":1037:1058  approvers[msg.sender] */\n          0x00\n            /* \"Campaign.sol\":1047:1057  msg.sender */\n          caller\n            /* \"Campaign.sol\":1037:1058  approvers[msg.sender] */\n          0xffffffffffffffffffffffffffffffffffffffff\n          and\n          0xffffffffffffffffffffffffffffffffffffffff\n          and\n          dup2\n          mstore\n          0x20\n          add\n          swap1\n          dup2\n          mstore\n          0x20\n          add\n          0x00\n          keccak256\n          0x00\n            /* \"Campaign.sol\":1037:1065  approvers[msg.sender] = true */\n          0x0100\n          exp\n          dup2\n          sload\n          dup2\n          0xff\n          mul\n          not\n          and\n          swap1\n          dup4\n          iszero\n          iszero\n          mul\n          or\n          swap1\n          sstore\n          pop\n            /* \"Campaign.sol\":1076:1090  approversCount */\n          0x00\n          0x1b\n            /* \"Campaign.sol\":1076:1092  approversCount++ */\n          dup2\n          dup2\n          swap1\n          sload\n          swap1\n          0x0100\n          exp\n          swap1\n          div\n          0xffffffffff\n          and\n          dup1\n          swap3\n          swap2\n          swap1\n          tag_110\n          swap1\n          tag_111\n          jump\t// in\n        tag_110:\n          swap2\n          swap1\n          0x0100\n          exp\n          dup2\n          sload\n          dup2\n          0xffffffffff\n          mul\n          not\n          and\n          swap1\n          dup4\n          0xffffffffff\n          and\n          mul\n          or\n          swap1\n          sstore\n          pop\n          pop\n            /* \"Campaign.sol\":867:1100  function contribute() external payable {... */\n          jump\t// out\n            /* \"Campaign.sol\":1402:1771  function approveRequest(uint index) external {... */\n        tag_60:\n            /* \"Campaign.sol\":1458:1481  Request storage request */\n          0x00\n            /* \"Campaign.sol\":1484:1492  requests */\n          0x02\n            /* \"Campaign.sol\":1493:1498  index */\n          dup3\n            /* \"Campaign.sol\":1484:1499  requests[index] */\n          dup2\n          sload\n          dup2\n          lt\n          tag_113\n          jumpi\n          tag_114\n          tag_68\n          jump\t// in\n        tag_114:\n        tag_113:\n          swap1\n          0x00\n          mstore\n          keccak256(0x00, 0x20)\n          swap1\n          0x05\n          mul\n          add\n            /* \"Campaign.sol\":1458:1499  Request storage request = requests[index] */\n          swap1\n          pop\n            /* \"Campaign.sol\":1518:1527  approvers */\n          0x01\n            /* \"Campaign.sol\":1518:1539  approvers[msg.sender] */\n          0x00\n            /* \"Campaign.sol\":1528:1538  msg.sender */\n          caller\n            /* \"Campaign.sol\":1518:1539  approvers[msg.sender] */\n          0xffffffffffffffffffffffffffffffffffffffff\n          and\n          0xffffffffffffffffffffffffffffffffffffffff\n          and\n          dup2\n          mstore\n          0x20\n          add\n          swap1\n          dup2\n          mstore\n          0x20\n          add\n          0x00\n          keccak256\n          0x00\n          swap1\n          sload\n          swap1\n          0x0100\n          exp\n          swap1\n          div\n          0xff\n          and\n            /* \"Campaign.sol\":1510:1585  require(approvers[msg.sender], \"You must be approved to make this request\") */\n          tag_116\n          jumpi\n          mload(0x40)\n          0x08c379a000000000000000000000000000000000000000000000000000000000\n          dup2\n          mstore\n          0x04\n          add\n          tag_117\n          swap1\n          tag_118\n          jump\t// in\n        tag_117:\n          mload(0x40)\n          dup1\n          swap2\n          sub\n          swap1\n          revert\n        tag_116:\n            /* \"Campaign.sol\":1605:1612  request */\n          dup1\n            /* \"Campaign.sol\":1605:1622  request.approvals */\n          0x04\n          add\n            /* \"Campaign.sol\":1605:1634  request.approvals[msg.sender] */\n          0x00\n            /* \"Campaign.sol\":1623:1633  msg.sender */\n          caller\n            /* \"Campaign.sol\":1605:1634  request.approvals[msg.sender] */\n          0xffffffffffffffffffffffffffffffffffffffff\n          and\n          0xffffffffffffffffffffffffffffffffffffffff\n          and\n          dup2\n          mstore\n          0x20\n          add\n          swap1\n          dup2\n          mstore\n          0x20\n          add\n          0x00\n          keccak256\n          0x00\n          swap1\n          sload\n          swap1\n          0x0100\n          exp\n          swap1\n          div\n          0xff\n          and\n            /* \"Campaign.sol\":1604:1634  !request.approvals[msg.sender] */\n          iszero\n            /* \"Campaign.sol\":1596:1682  require(!request.approvals[msg.sender], \"You are not allowed to approve this request\") */\n          tag_119\n          jumpi\n          mload(0x40)\n          0x08c379a000000000000000000000000000000000000000000000000000000000\n          dup2\n          mstore\n          0x04\n          add\n          tag_120\n          swap1\n          tag_121\n          jump\t// in\n        tag_120:\n          mload(0x40)\n          dup1\n          swap2\n          sub\n          swap1\n          revert\n        tag_119:\n            /* \"Campaign.sol\":1725:1729  true */\n          0x01\n            /* \"Campaign.sol\":1693:1700  request */\n          dup2\n            /* \"Campaign.sol\":1693:1710  request.approvals */\n          0x04\n          add\n            /* \"Campaign.sol\":1693:1722  request.approvals[msg.sender] */\n          0x00\n            /* \"Campaign.sol\":1711:1721  msg.sender */\n          caller\n            /* \"Campaign.sol\":1693:1722  request.approvals[msg.sender] */\n          0xffffffffffffffffffffffffffffffffffffffff\n          and\n          0xffffffffffffffffffffffffffffffffffffffff\n          and\n          dup2\n          mstore\n          0x20\n          add\n          swap1\n          dup2\n          mstore\n          0x20\n          add\n          0x00\n          keccak256\n          0x00\n            /* \"Campaign.sol\":1693:1729  request.approvals[msg.sender] = true */\n          0x0100\n          exp\n          dup2\n          sload\n          dup2\n          0xff\n          mul\n          not\n          and\n          swap1\n          dup4\n          iszero\n          iszero\n          mul\n          or\n          swap1\n          sstore\n          pop\n            /* \"Campaign.sol\":1740:1747  request */\n          dup1\n            /* \"Campaign.sol\":1740:1761  request.approvalCount */\n          0x03\n          add\n          0x00\n            /* \"Campaign.sol\":1740:1763  request.approvalCount++ */\n          dup2\n          sload\n          dup1\n          swap3\n          swap2\n          swap1\n          tag_122\n          swap1\n          tag_123\n          jump\t// in\n        tag_122:\n          swap2\n          swap1\n          pop\n          sstore\n          pop\n            /* \"Campaign.sol\":1447:1771  {... */\n          pop\n            /* \"Campaign.sol\":1402:1771  function approveRequest(uint index) external {... */\n          pop\n          jump\t// out\n            /* \"@openzeppelin/contracts/proxy/utils/Initializable.sol\":3004:3116   */\n        tag_99:\n            /* \"@openzeppelin/contracts/proxy/utils/Initializable.sol\":3052:3056   */\n          0x00\n            /* \"@openzeppelin/contracts/proxy/utils/Initializable.sol\":3076:3109   */\n          tag_125\n            /* \"@openzeppelin/contracts/proxy/utils/Initializable.sol\":3103:3107   */\n          address\n            /* \"@openzeppelin/contracts/proxy/utils/Initializable.sol\":3076:3094   */\n          tag_126\n            /* \"@openzeppelin/contracts/proxy/utils/Initializable.sol\":3076:3109   */\n          jump\t// in\n        tag_125:\n            /* \"@openzeppelin/contracts/proxy/utils/Initializable.sol\":3075:3109   */\n          iszero\n            /* \"@openzeppelin/contracts/proxy/utils/Initializable.sol\":3068:3109   */\n          swap1\n          pop\n            /* \"@openzeppelin/contracts/proxy/utils/Initializable.sol\":3004:3116   */\n          swap1\n          jump\t// out\n            /* \"@openzeppelin/contracts/utils/Address.sol\":771:1148   */\n        tag_126:\n            /* \"@openzeppelin/contracts/utils/Address.sol\":831:835   */\n          0x00\n            /* \"@openzeppelin/contracts/utils/Address.sol\":1034:1046   */\n          dup1\n            /* \"@openzeppelin/contracts/utils/Address.sol\":1099:1106   */\n          dup3\n            /* \"@openzeppelin/contracts/utils/Address.sol\":1087:1107   */\n          extcodesize\n            /* \"@openzeppelin/contracts/utils/Address.sol\":1079:1107   */\n          swap1\n          pop\n            /* \"@openzeppelin/contracts/utils/Address.sol\":1140:1141   */\n          0x00\n            /* \"@openzeppelin/contracts/utils/Address.sol\":1133:1137   */\n          dup2\n            /* \"@openzeppelin/contracts/utils/Address.sol\":1133:1141   */\n          gt\n            /* \"@openzeppelin/contracts/utils/Address.sol\":1126:1141   */\n          swap2\n          pop\n          pop\n            /* \"@openzeppelin/contracts/utils/Address.sol\":771:1148   */\n          swap2\n          swap1\n          pop\n          jump\t// out\n        tag_94:\n          dup3\n          dup1\n          sload\n          tag_128\n          swap1\n          tag_83\n          jump\t// in\n        tag_128:\n          swap1\n          0x00\n          mstore\n          keccak256(0x00, 0x20)\n          swap1\n          0x1f\n          add\n          0x20\n          swap1\n          div\n          dup2\n          add\n          swap3\n          dup3\n          tag_130\n          jumpi\n          0x00\n          dup6\n          sstore\n          jump(tag_129)\n        tag_130:\n          dup3\n          0x1f\n          lt\n          tag_131\n          jumpi\n          dup1\n          calldataload\n          not(0xff)\n          and\n          dup4\n          dup1\n          add\n          or\n          dup6\n          sstore\n          jump(tag_129)\n        tag_131:\n          dup3\n          dup1\n          add\n          0x01\n          add\n          dup6\n          sstore\n          dup3\n          iszero\n          tag_129\n          jumpi\n          swap2\n          dup3\n          add\n        tag_132:\n          dup3\n          dup2\n          gt\n          iszero\n          tag_133\n          jumpi\n          dup3\n          calldataload\n          dup3\n          sstore\n          swap2\n          0x20\n          add\n          swap2\n          swap1\n          0x01\n          add\n          swap1\n          jump(tag_132)\n        tag_133:\n        tag_129:\n          pop\n          swap1\n          pop\n          tag_134\n          swap2\n          swap1\n          tag_135\n          jump\t// in\n        tag_134:\n          pop\n          swap1\n          jump\t// out\n        tag_135:\n        tag_136:\n          dup1\n          dup3\n          gt\n          iszero\n          tag_137\n          jumpi\n          0x00\n          dup2\n          0x00\n          swap1\n          sstore\n          pop\n          0x01\n          add\n          jump(tag_136)\n        tag_137:\n          pop\n          swap1\n          jump\t// out\n            /* \"#utility.yul\":88:205   */\n        tag_139:\n            /* \"#utility.yul\":197:198   */\n          0x00\n            /* \"#utility.yul\":194:195   */\n          dup1\n            /* \"#utility.yul\":187:199   */\n          revert\n            /* \"#utility.yul\":211:328   */\n        tag_140:\n            /* \"#utility.yul\":320:321   */\n          0x00\n            /* \"#utility.yul\":317:318   */\n          dup1\n            /* \"#utility.yul\":310:322   */\n          revert\n            /* \"#utility.yul\":334:411   */\n        tag_141:\n            /* \"#utility.yul\":371:378   */\n          0x00\n            /* \"#utility.yul\":400:405   */\n          dup2\n            /* \"#utility.yul\":389:405   */\n          swap1\n          pop\n            /* \"#utility.yul\":334:411   */\n          swap2\n          swap1\n          pop\n          jump\t// out\n            /* \"#utility.yul\":417:539   */\n        tag_142:\n            /* \"#utility.yul\":490:514   */\n          tag_192\n            /* \"#utility.yul\":508:513   */\n          dup2\n            /* \"#utility.yul\":490:514   */\n          tag_141\n          jump\t// in\n        tag_192:\n            /* \"#utility.yul\":483:488   */\n          dup2\n            /* \"#utility.yul\":480:515   */\n          eq\n            /* \"#utility.yul\":470:533   */\n          tag_193\n          jumpi\n            /* \"#utility.yul\":529:530   */\n          0x00\n            /* \"#utility.yul\":526:527   */\n          dup1\n            /* \"#utility.yul\":519:531   */\n          revert\n            /* \"#utility.yul\":470:533   */\n        tag_193:\n            /* \"#utility.yul\":417:539   */\n          pop\n          jump\t// out\n            /* \"#utility.yul\":545:684   */\n        tag_143:\n            /* \"#utility.yul\":591:596   */\n          0x00\n            /* \"#utility.yul\":629:635   */\n          dup2\n            /* \"#utility.yul\":616:636   */\n          calldataload\n            /* \"#utility.yul\":607:636   */\n          swap1\n          pop\n            /* \"#utility.yul\":645:678   */\n          tag_195\n            /* \"#utility.yul\":672:677   */\n          dup2\n            /* \"#utility.yul\":645:678   */\n          tag_142\n          jump\t// in\n        tag_195:\n            /* \"#utility.yul\":545:684   */\n          swap3\n          swap2\n          pop\n          pop\n          jump\t// out\n            /* \"#utility.yul\":690:1019   */\n        tag_16:\n            /* \"#utility.yul\":749:755   */\n          0x00\n            /* \"#utility.yul\":798:800   */\n          0x20\n            /* \"#utility.yul\":786:795   */\n          dup3\n            /* \"#utility.yul\":777:784   */\n          dup5\n            /* \"#utility.yul\":773:796   */\n          sub\n            /* \"#utility.yul\":769:801   */\n          slt\n            /* \"#utility.yul\":766:885   */\n          iszero\n          tag_197\n          jumpi\n            /* \"#utility.yul\":804:883   */\n          tag_198\n          tag_139\n          jump\t// in\n        tag_198:\n            /* \"#utility.yul\":766:885   */\n        tag_197:\n            /* \"#utility.yul\":924:925   */\n          0x00\n            /* \"#utility.yul\":949:1002   */\n          tag_199\n            /* \"#utility.yul\":994:1001   */\n          dup5\n            /* \"#utility.yul\":985:991   */\n          dup3\n            /* \"#utility.yul\":974:983   */\n          dup6\n            /* \"#utility.yul\":970:992   */\n          add\n            /* \"#utility.yul\":949:1002   */\n          tag_143\n          jump\t// in\n        tag_199:\n            /* \"#utility.yul\":939:1002   */\n          swap2\n          pop\n            /* \"#utility.yul\":895:1012   */\n          pop\n            /* \"#utility.yul\":690:1019   */\n          swap3\n          swap2\n          pop\n          pop\n          jump\t// out\n            /* \"#utility.yul\":1025:1151   */\n        tag_144:\n            /* \"#utility.yul\":1062:1069   */\n          0x00\n            /* \"#utility.yul\":1102:1144   */\n          0xffffffffffffffffffffffffffffffffffffffff\n            /* \"#utility.yul\":1095:1100   */\n          dup3\n            /* \"#utility.yul\":1091:1145   */\n          and\n            /* \"#utility.yul\":1080:1145   */\n          swap1\n          pop\n            /* \"#utility.yul\":1025:1151   */\n          swap2\n          swap1\n          pop\n          jump\t// out\n            /* \"#utility.yul\":1157:1253   */\n        tag_145:\n            /* \"#utility.yul\":1194:1201   */\n          0x00\n            /* \"#utility.yul\":1223:1247   */\n          tag_202\n            /* \"#utility.yul\":1241:1246   */\n          dup3\n            /* \"#utility.yul\":1223:1247   */\n          tag_144\n          jump\t// in\n        tag_202:\n            /* \"#utility.yul\":1212:1247   */\n          swap1\n          pop\n            /* \"#utility.yul\":1157:1253   */\n          swap2\n          swap1\n          pop\n          jump\t// out\n            /* \"#utility.yul\":1259:1381   */\n        tag_146:\n            /* \"#utility.yul\":1332:1356   */\n          tag_204\n            /* \"#utility.yul\":1350:1355   */\n          dup2\n            /* \"#utility.yul\":1332:1356   */\n          tag_145\n          jump\t// in\n        tag_204:\n            /* \"#utility.yul\":1325:1330   */\n          dup2\n            /* \"#utility.yul\":1322:1357   */\n          eq\n            /* \"#utility.yul\":1312:1375   */\n          tag_205\n          jumpi\n            /* \"#utility.yul\":1371:1372   */\n          0x00\n            /* \"#utility.yul\":1368:1369   */\n          dup1\n            /* \"#utility.yul\":1361:1373   */\n          revert\n            /* \"#utility.yul\":1312:1375   */\n        tag_205:\n            /* \"#utility.yul\":1259:1381   */\n          pop\n          jump\t// out\n            /* \"#utility.yul\":1387:1526   */\n        tag_147:\n            /* \"#utility.yul\":1433:1438   */\n          0x00\n            /* \"#utility.yul\":1471:1477   */\n          dup2\n            /* \"#utility.yul\":1458:1478   */\n          calldataload\n            /* \"#utility.yul\":1449:1478   */\n          swap1\n          pop\n            /* \"#utility.yul\":1487:1520   */\n          tag_207\n            /* \"#utility.yul\":1514:1519   */\n          dup2\n            /* \"#utility.yul\":1487:1520   */\n          tag_146\n          jump\t// in\n        tag_207:\n            /* \"#utility.yul\":1387:1526   */\n          swap3\n          swap2\n          pop\n          pop\n          jump\t// out\n            /* \"#utility.yul\":1532:1861   */\n        tag_21:\n            /* \"#utility.yul\":1591:1597   */\n          0x00\n            /* \"#utility.yul\":1640:1642   */\n          0x20\n            /* \"#utility.yul\":1628:1637   */\n          dup3\n            /* \"#utility.yul\":1619:1626   */\n          dup5\n            /* \"#utility.yul\":1615:1638   */\n          sub\n            /* \"#utility.yul\":1611:1643   */\n          slt\n            /* \"#utility.yul\":1608:1727   */\n          iszero\n          tag_209\n          jumpi\n            /* \"#utility.yul\":1646:1725   */\n          tag_210\n          tag_139\n          jump\t// in\n        tag_210:\n            /* \"#utility.yul\":1608:1727   */\n        tag_209:\n            /* \"#utility.yul\":1766:1767   */\n          0x00\n            /* \"#utility.yul\":1791:1844   */\n          tag_211\n            /* \"#utility.yul\":1836:1843   */\n          dup5\n            /* \"#utility.yul\":1827:1833   */\n          dup3\n            /* \"#utility.yul\":1816:1825   */\n          dup6\n            /* \"#utility.yul\":1812:1834   */\n          add\n            /* \"#utility.yul\":1791:1844   */\n          tag_147\n          jump\t// in\n        tag_211:\n            /* \"#utility.yul\":1781:1844   */\n          swap2\n          pop\n            /* \"#utility.yul\":1737:1854   */\n          pop\n            /* \"#utility.yul\":1532:1861   */\n          swap3\n          swap2\n          pop\n          pop\n          jump\t// out\n            /* \"#utility.yul\":1867:1957   */\n        tag_148:\n            /* \"#utility.yul\":1901:1908   */\n          0x00\n            /* \"#utility.yul\":1944:1949   */\n          dup2\n            /* \"#utility.yul\":1937:1950   */\n          iszero\n            /* \"#utility.yul\":1930:1951   */\n          iszero\n            /* \"#utility.yul\":1919:1951   */\n          swap1\n          pop\n            /* \"#utility.yul\":1867:1957   */\n          swap2\n          swap1\n          pop\n          jump\t// out\n            /* \"#utility.yul\":1963:2072   */\n        tag_149:\n            /* \"#utility.yul\":2044:2065   */\n          tag_214\n            /* \"#utility.yul\":2059:2064   */\n          dup2\n            /* \"#utility.yul\":2044:2065   */\n          tag_148\n          jump\t// in\n        tag_214:\n            /* \"#utility.yul\":2039:2042   */\n          dup3\n            /* \"#utility.yul\":2032:2066   */\n          mstore\n            /* \"#utility.yul\":1963:2072   */\n          pop\n          pop\n          jump\t// out\n            /* \"#utility.yul\":2078:2288   */\n        tag_24:\n            /* \"#utility.yul\":2165:2169   */\n          0x00\n            /* \"#utility.yul\":2203:2205   */\n          0x20\n            /* \"#utility.yul\":2192:2201   */\n          dup3\n            /* \"#utility.yul\":2188:2206   */\n          add\n            /* \"#utility.yul\":2180:2206   */\n          swap1\n          pop\n            /* \"#utility.yul\":2216:2281   */\n          tag_216\n            /* \"#utility.yul\":2278:2279   */\n          0x00\n            /* \"#utility.yul\":2267:2276   */\n          dup4\n            /* \"#utility.yul\":2263:2280   */\n          add\n            /* \"#utility.yul\":2254:2260   */\n          dup5\n            /* \"#utility.yul\":2216:2281   */\n          tag_149\n          jump\t// in\n        tag_216:\n            /* \"#utility.yul\":2078:2288   */\n          swap3\n          swap2\n          pop\n          pop\n          jump\t// out\n            /* \"#utility.yul\":2294:2412   */\n        tag_150:\n            /* \"#utility.yul\":2381:2405   */\n          tag_218\n            /* \"#utility.yul\":2399:2404   */\n          dup2\n            /* \"#utility.yul\":2381:2405   */\n          tag_145\n          jump\t// in\n        tag_218:\n            /* \"#utility.yul\":2376:2379   */\n          dup3\n            /* \"#utility.yul\":2369:2406   */\n          mstore\n            /* \"#utility.yul\":2294:2412   */\n          pop\n          pop\n          jump\t// out\n            /* \"#utility.yul\":2418:2640   */\n        tag_29:\n            /* \"#utility.yul\":2511:2515   */\n          0x00\n            /* \"#utility.yul\":2549:2551   */\n          0x20\n            /* \"#utility.yul\":2538:2547   */\n          dup3\n            /* \"#utility.yul\":2534:2552   */\n          add\n            /* \"#utility.yul\":2526:2552   */\n          swap1\n          pop\n            /* \"#utility.yul\":2562:2633   */\n          tag_220\n            /* \"#utility.yul\":2630:2631   */\n          0x00\n            /* \"#utility.yul\":2619:2628   */\n          dup4\n            /* \"#utility.yul\":2615:2632   */\n          add\n            /* \"#utility.yul\":2606:2612   */\n          dup5\n            /* \"#utility.yul\":2562:2633   */\n          tag_150\n          jump\t// in\n        tag_220:\n            /* \"#utility.yul\":2418:2640   */\n          swap3\n          swap2\n          pop\n          pop\n          jump\t// out\n            /* \"#utility.yul\":2646:2745   */\n        tag_151:\n            /* \"#utility.yul\":2698:2704   */\n          0x00\n            /* \"#utility.yul\":2732:2737   */\n          dup2\n            /* \"#utility.yul\":2726:2738   */\n          mload\n            /* \"#utility.yul\":2716:2738   */\n          swap1\n          pop\n            /* \"#utility.yul\":2646:2745   */\n          swap2\n          swap1\n          pop\n          jump\t// out\n            /* \"#utility.yul\":2751:2920   */\n        tag_152:\n            /* \"#utility.yul\":2835:2846   */\n          0x00\n            /* \"#utility.yul\":2869:2875   */\n          dup3\n            /* \"#utility.yul\":2864:2867   */\n          dup3\n            /* \"#utility.yul\":2857:2876   */\n          mstore\n            /* \"#utility.yul\":2909:2913   */\n          0x20\n            /* \"#utility.yul\":2904:2907   */\n          dup3\n            /* \"#utility.yul\":2900:2914   */\n          add\n            /* \"#utility.yul\":2885:2914   */\n          swap1\n          pop\n            /* \"#utility.yul\":2751:2920   */\n          swap3\n          swap2\n          pop\n          pop\n          jump\t// out\n            /* \"#utility.yul\":2926:3233   */\n        tag_153:\n            /* \"#utility.yul\":2994:2995   */\n          0x00\n            /* \"#utility.yul\":3004:3117   */\n        tag_224:\n            /* \"#utility.yul\":3018:3024   */\n          dup4\n            /* \"#utility.yul\":3015:3016   */\n          dup2\n            /* \"#utility.yul\":3012:3025   */\n          lt\n            /* \"#utility.yul\":3004:3117   */\n          iszero\n          tag_226\n          jumpi\n            /* \"#utility.yul\":3103:3104   */\n          dup1\n            /* \"#utility.yul\":3098:3101   */\n          dup3\n            /* \"#utility.yul\":3094:3105   */\n          add\n            /* \"#utility.yul\":3088:3106   */\n          mload\n            /* \"#utility.yul\":3084:3085   */\n          dup2\n            /* \"#utility.yul\":3079:3082   */\n          dup5\n            /* \"#utility.yul\":3075:3086   */\n          add\n            /* \"#utility.yul\":3068:3107   */\n          mstore\n            /* \"#utility.yul\":3040:3042   */\n          0x20\n            /* \"#utility.yul\":3037:3038   */\n          dup2\n            /* \"#utility.yul\":3033:3043   */\n          add\n            /* \"#utility.yul\":3028:3043   */\n          swap1\n          pop\n            /* \"#utility.yul\":3004:3117   */\n          jump(tag_224)\n        tag_226:\n            /* \"#utility.yul\":3135:3141   */\n          dup4\n            /* \"#utility.yul\":3132:3133   */\n          dup2\n            /* \"#utility.yul\":3129:3142   */\n          gt\n            /* \"#utility.yul\":3126:3227   */\n          iszero\n          tag_227\n          jumpi\n            /* \"#utility.yul\":3215:3216   */\n          0x00\n            /* \"#utility.yul\":3206:3212   */\n          dup5\n            /* \"#utility.yul\":3201:3204   */\n          dup5\n            /* \"#utility.yul\":3197:3213   */\n          add\n            /* \"#utility.yul\":3190:3217   */\n          mstore\n            /* \"#utility.yul\":3126:3227   */\n        tag_227:\n            /* \"#utility.yul\":2975:3233   */\n          pop\n            /* \"#utility.yul\":2926:3233   */\n          pop\n          pop\n          pop\n          jump\t// out\n            /* \"#utility.yul\":3239:3341   */\n        tag_154:\n            /* \"#utility.yul\":3280:3286   */\n          0x00\n            /* \"#utility.yul\":3331:3333   */\n          0x1f\n            /* \"#utility.yul\":3327:3334   */\n          not\n            /* \"#utility.yul\":3322:3324   */\n          0x1f\n            /* \"#utility.yul\":3315:3320   */\n          dup4\n            /* \"#utility.yul\":3311:3325   */\n          add\n            /* \"#utility.yul\":3307:3335   */\n          and\n            /* \"#utility.yul\":3297:3335   */\n          swap1\n          pop\n            /* \"#utility.yul\":3239:3341   */\n          swap2\n          swap1\n          pop\n          jump\t// out\n            /* \"#utility.yul\":3347:3711   */\n        tag_155:\n            /* \"#utility.yul\":3435:3438   */\n          0x00\n            /* \"#utility.yul\":3463:3502   */\n          tag_230\n            /* \"#utility.yul\":3496:3501   */\n          dup3\n            /* \"#utility.yul\":3463:3502   */\n          tag_151\n          jump\t// in\n        tag_230:\n            /* \"#utility.yul\":3518:3589   */\n          tag_231\n            /* \"#utility.yul\":3582:3588   */\n          dup2\n            /* \"#utility.yul\":3577:3580   */\n          dup6\n            /* \"#utility.yul\":3518:3589   */\n          tag_152\n          jump\t// in\n        tag_231:\n            /* \"#utility.yul\":3511:3589   */\n          swap4\n          pop\n            /* \"#utility.yul\":3598:3650   */\n          tag_232\n            /* \"#utility.yul\":3643:3649   */\n          dup2\n            /* \"#utility.yul\":3638:3641   */\n          dup6\n            /* \"#utility.yul\":3631:3635   */\n          0x20\n            /* \"#utility.yul\":3624:3629   */\n          dup7\n            /* \"#utility.yul\":3620:3636   */\n          add\n            /* \"#utility.yul\":3598:3650   */\n          tag_153\n          jump\t// in\n        tag_232:\n            /* \"#utility.yul\":3675:3704   */\n          tag_233\n            /* \"#utility.yul\":3697:3703   */\n          dup2\n            /* \"#utility.yul\":3675:3704   */\n          tag_154\n          jump\t// in\n        tag_233:\n            /* \"#utility.yul\":3670:3673   */\n          dup5\n            /* \"#utility.yul\":3666:3705   */\n          add\n            /* \"#utility.yul\":3659:3705   */\n          swap2\n          pop\n            /* \"#utility.yul\":3439:3711   */\n          pop\n            /* \"#utility.yul\":3347:3711   */\n          swap3\n          swap2\n          pop\n          pop\n          jump\t// out\n            /* \"#utility.yul\":3717:3835   */\n        tag_156:\n            /* \"#utility.yul\":3804:3828   */\n          tag_235\n            /* \"#utility.yul\":3822:3827   */\n          dup2\n            /* \"#utility.yul\":3804:3828   */\n          tag_141\n          jump\t// in\n        tag_235:\n            /* \"#utility.yul\":3799:3802   */\n          dup3\n            /* \"#utility.yul\":3792:3829   */\n          mstore\n            /* \"#utility.yul\":3717:3835   */\n          pop\n          pop\n          jump\t// out\n            /* \"#utility.yul\":3841:3945   */\n        tag_157:\n            /* \"#utility.yul\":3886:3893   */\n          0x00\n            /* \"#utility.yul\":3915:3939   */\n          tag_237\n            /* \"#utility.yul\":3933:3938   */\n          dup3\n            /* \"#utility.yul\":3915:3939   */\n          tag_144\n          jump\t// in\n        tag_237:\n            /* \"#utility.yul\":3904:3939   */\n          swap1\n          pop\n            /* \"#utility.yul\":3841:3945   */\n          swap2\n          swap1\n          pop\n          jump\t// out\n            /* \"#utility.yul\":3951:4093   */\n        tag_158:\n            /* \"#utility.yul\":4054:4086   */\n          tag_239\n            /* \"#utility.yul\":4080:4085   */\n          dup2\n            /* \"#utility.yul\":4054:4086   */\n          tag_157\n          jump\t// in\n        tag_239:\n            /* \"#utility.yul\":4049:4052   */\n          dup3\n            /* \"#utility.yul\":4042:4087   */\n          mstore\n            /* \"#utility.yul\":3951:4093   */\n          pop\n          pop\n          jump\t// out\n            /* \"#utility.yul\":4099:4874   */\n        tag_35:\n            /* \"#utility.yul\":4334:4338   */\n          0x00\n            /* \"#utility.yul\":4372:4375   */\n          0xa0\n            /* \"#utility.yul\":4361:4370   */\n          dup3\n            /* \"#utility.yul\":4357:4376   */\n          add\n            /* \"#utility.yul\":4349:4376   */\n          swap1\n          pop\n            /* \"#utility.yul\":4422:4431   */\n          dup2\n            /* \"#utility.yul\":4416:4420   */\n          dup2\n            /* \"#utility.yul\":4412:4432   */\n          sub\n            /* \"#utility.yul\":4408:4409   */\n          0x00\n            /* \"#utility.yul\":4397:4406   */\n          dup4\n            /* \"#utility.yul\":4393:4410   */\n          add\n            /* \"#utility.yul\":4386:4433   */\n          mstore\n            /* \"#utility.yul\":4450:4528   */\n          tag_241\n            /* \"#utility.yul\":4523:4527   */\n          dup2\n            /* \"#utility.yul\":4514:4520   */\n          dup9\n            /* \"#utility.yul\":4450:4528   */\n          tag_155\n          jump\t// in\n        tag_241:\n            /* \"#utility.yul\":4442:4528   */\n          swap1\n          pop\n            /* \"#utility.yul\":4538:4610   */\n          tag_242\n            /* \"#utility.yul\":4606:4608   */\n          0x20\n            /* \"#utility.yul\":4595:4604   */\n          dup4\n            /* \"#utility.yul\":4591:4609   */\n          add\n            /* \"#utility.yul\":4582:4588   */\n          dup8\n            /* \"#utility.yul\":4538:4610   */\n          tag_156\n          jump\t// in\n        tag_242:\n            /* \"#utility.yul\":4620:4708   */\n          tag_243\n            /* \"#utility.yul\":4704:4706   */\n          0x40\n            /* \"#utility.yul\":4693:4702   */\n          dup4\n            /* \"#utility.yul\":4689:4707   */\n          add\n            /* \"#utility.yul\":4680:4686   */\n          dup7\n            /* \"#utility.yul\":4620:4708   */\n          tag_158\n          jump\t// in\n        tag_243:\n            /* \"#utility.yul\":4718:4784   */\n          tag_244\n            /* \"#utility.yul\":4780:4782   */\n          0x60\n            /* \"#utility.yul\":4769:4778   */\n          dup4\n            /* \"#utility.yul\":4765:4783   */\n          add\n            /* \"#utility.yul\":4756:4762   */\n          dup6\n            /* \"#utility.yul\":4718:4784   */\n          tag_149\n          jump\t// in\n        tag_244:\n            /* \"#utility.yul\":4794:4867   */\n          tag_245\n            /* \"#utility.yul\":4862:4865   */\n          0x80\n            /* \"#utility.yul\":4851:4860   */\n          dup4\n            /* \"#utility.yul\":4847:4866   */\n          add\n            /* \"#utility.yul\":4838:4844   */\n          dup5\n            /* \"#utility.yul\":4794:4867   */\n          tag_156\n          jump\t// in\n        tag_245:\n            /* \"#utility.yul\":4099:4874   */\n          swap7\n          swap6\n          pop\n          pop\n          pop\n          pop\n          pop\n          pop\n          jump\t// out\n            /* \"#utility.yul\":4880:4975   */\n        tag_159:\n            /* \"#utility.yul\":4916:4923   */\n          0x00\n            /* \"#utility.yul\":4956:4968   */\n          0xffffffffff\n            /* \"#utility.yul\":4949:4954   */\n          dup3\n            /* \"#utility.yul\":4945:4969   */\n          and\n            /* \"#utility.yul\":4934:4969   */\n          swap1\n          pop\n            /* \"#utility.yul\":4880:4975   */\n          swap2\n          swap1\n          pop\n          jump\t// out\n            /* \"#utility.yul\":4981:5096   */\n        tag_160:\n            /* \"#utility.yul\":5066:5089   */\n          tag_248\n            /* \"#utility.yul\":5083:5088   */\n          dup2\n            /* \"#utility.yul\":5066:5089   */\n          tag_159\n          jump\t// in\n        tag_248:\n            /* \"#utility.yul\":5061:5064   */\n          dup3\n            /* \"#utility.yul\":5054:5090   */\n          mstore\n            /* \"#utility.yul\":4981:5096   */\n          pop\n          pop\n          jump\t// out\n            /* \"#utility.yul\":5102:5320   */\n        tag_40:\n            /* \"#utility.yul\":5193:5197   */\n          0x00\n            /* \"#utility.yul\":5231:5233   */\n          0x20\n            /* \"#utility.yul\":5220:5229   */\n          dup3\n            /* \"#utility.yul\":5216:5234   */\n          add\n            /* \"#utility.yul\":5208:5234   */\n          swap1\n          pop\n            /* \"#utility.yul\":5244:5313   */\n          tag_250\n            /* \"#utility.yul\":5310:5311   */\n          0x00\n            /* \"#utility.yul\":5299:5308   */\n          dup4\n            /* \"#utility.yul\":5295:5312   */\n          add\n            /* \"#utility.yul\":5286:5292   */\n          dup5\n            /* \"#utility.yul\":5244:5313   */\n          tag_160\n          jump\t// in\n        tag_250:\n            /* \"#utility.yul\":5102:5320   */\n          swap3\n          swap2\n          pop\n          pop\n          jump\t// out\n            /* \"#utility.yul\":5326:5443   */\n        tag_161:\n            /* \"#utility.yul\":5435:5436   */\n          0x00\n            /* \"#utility.yul\":5432:5433   */\n          dup1\n            /* \"#utility.yul\":5425:5437   */\n          revert\n            /* \"#utility.yul\":5449:5566   */\n        tag_162:\n            /* \"#utility.yul\":5558:5559   */\n          0x00\n            /* \"#utility.yul\":5555:5556   */\n          dup1\n            /* \"#utility.yul\":5548:5560   */\n          revert\n            /* \"#utility.yul\":5572:5689   */\n        tag_163:\n            /* \"#utility.yul\":5681:5682   */\n          0x00\n            /* \"#utility.yul\":5678:5679   */\n          dup1\n            /* \"#utility.yul\":5671:5683   */\n          revert\n            /* \"#utility.yul\":5709:6262   */\n        tag_164:\n            /* \"#utility.yul\":5767:5775   */\n          0x00\n            /* \"#utility.yul\":5777:5783   */\n          dup1\n            /* \"#utility.yul\":5827:5830   */\n          dup4\n            /* \"#utility.yul\":5820:5824   */\n          0x1f\n            /* \"#utility.yul\":5812:5818   */\n          dup5\n            /* \"#utility.yul\":5808:5825   */\n          add\n            /* \"#utility.yul\":5804:5831   */\n          slt\n            /* \"#utility.yul\":5794:5916   */\n          tag_255\n          jumpi\n            /* \"#utility.yul\":5835:5914   */\n          tag_256\n          tag_161\n          jump\t// in\n        tag_256:\n            /* \"#utility.yul\":5794:5916   */\n        tag_255:\n            /* \"#utility.yul\":5948:5954   */\n          dup3\n            /* \"#utility.yul\":5935:5955   */\n          calldataload\n            /* \"#utility.yul\":5925:5955   */\n          swap1\n          pop\n            /* \"#utility.yul\":5978:5996   */\n          0xffffffffffffffff\n            /* \"#utility.yul\":5970:5976   */\n          dup2\n            /* \"#utility.yul\":5967:5997   */\n          gt\n            /* \"#utility.yul\":5964:6081   */\n          iszero\n          tag_257\n          jumpi\n            /* \"#utility.yul\":6000:6079   */\n          tag_258\n          tag_162\n          jump\t// in\n        tag_258:\n            /* \"#utility.yul\":5964:6081   */\n        tag_257:\n            /* \"#utility.yul\":6114:6118   */\n          0x20\n            /* \"#utility.yul\":6106:6112   */\n          dup4\n            /* \"#utility.yul\":6102:6119   */\n          add\n            /* \"#utility.yul\":6090:6119   */\n          swap2\n          pop\n            /* \"#utility.yul\":6168:6171   */\n          dup4\n            /* \"#utility.yul\":6160:6164   */\n          0x01\n            /* \"#utility.yul\":6152:6158   */\n          dup3\n            /* \"#utility.yul\":6148:6165   */\n          mul\n            /* \"#utility.yul\":6138:6146   */\n          dup4\n            /* \"#utility.yul\":6134:6166   */\n          add\n            /* \"#utility.yul\":6131:6172   */\n          gt\n            /* \"#utility.yul\":6128:6256   */\n          iszero\n          tag_259\n          jumpi\n            /* \"#utility.yul\":6175:6254   */\n          tag_260\n          tag_163\n          jump\t// in\n        tag_260:\n            /* \"#utility.yul\":6128:6256   */\n        tag_259:\n            /* \"#utility.yul\":5709:6262   */\n          swap3\n          pop\n          swap3\n          swap1\n          pop\n          jump\t// out\n            /* \"#utility.yul\":6268:6406   */\n        tag_165:\n            /* \"#utility.yul\":6349:6381   */\n          tag_262\n            /* \"#utility.yul\":6375:6380   */\n          dup2\n            /* \"#utility.yul\":6349:6381   */\n          tag_157\n          jump\t// in\n        tag_262:\n            /* \"#utility.yul\":6342:6347   */\n          dup2\n            /* \"#utility.yul\":6339:6382   */\n          eq\n            /* \"#utility.yul\":6329:6400   */\n          tag_263\n          jumpi\n            /* \"#utility.yul\":6396:6397   */\n          0x00\n            /* \"#utility.yul\":6393:6394   */\n          dup1\n            /* \"#utility.yul\":6386:6398   */\n          revert\n            /* \"#utility.yul\":6329:6400   */\n        tag_263:\n            /* \"#utility.yul\":6268:6406   */\n          pop\n          jump\t// out\n            /* \"#utility.yul\":6412:6567   */\n        tag_166:\n            /* \"#utility.yul\":6466:6471   */\n          0x00\n            /* \"#utility.yul\":6504:6510   */\n          dup2\n            /* \"#utility.yul\":6491:6511   */\n          calldataload\n            /* \"#utility.yul\":6482:6511   */\n          swap1\n          pop\n            /* \"#utility.yul\":6520:6561   */\n          tag_265\n            /* \"#utility.yul\":6555:6560   */\n          dup2\n            /* \"#utility.yul\":6520:6561   */\n          tag_165\n          jump\t// in\n        tag_265:\n            /* \"#utility.yul\":6412:6567   */\n          swap3\n          swap2\n          pop\n          pop\n          jump\t// out\n            /* \"#utility.yul\":6573:7408   */\n        tag_44:\n            /* \"#utility.yul\":6670:6676   */\n          0x00\n            /* \"#utility.yul\":6678:6684   */\n          dup1\n            /* \"#utility.yul\":6686:6692   */\n          0x00\n            /* \"#utility.yul\":6694:6700   */\n          dup1\n            /* \"#utility.yul\":6743:6745   */\n          0x60\n            /* \"#utility.yul\":6731:6740   */\n          dup6\n            /* \"#utility.yul\":6722:6729   */\n          dup8\n            /* \"#utility.yul\":6718:6741   */\n          sub\n            /* \"#utility.yul\":6714:6746   */\n          slt\n            /* \"#utility.yul\":6711:6830   */\n          iszero\n          tag_267\n          jumpi\n            /* \"#utility.yul\":6749:6828   */\n          tag_268\n          tag_139\n          jump\t// in\n        tag_268:\n            /* \"#utility.yul\":6711:6830   */\n        tag_267:\n            /* \"#utility.yul\":6897:6898   */\n          0x00\n            /* \"#utility.yul\":6886:6895   */\n          dup6\n            /* \"#utility.yul\":6882:6899   */\n          add\n            /* \"#utility.yul\":6869:6900   */\n          calldataload\n            /* \"#utility.yul\":6927:6945   */\n          0xffffffffffffffff\n            /* \"#utility.yul\":6919:6925   */\n          dup2\n            /* \"#utility.yul\":6916:6946   */\n          gt\n            /* \"#utility.yul\":6913:7030   */\n          iszero\n          tag_269\n          jumpi\n            /* \"#utility.yul\":6949:7028   */\n          tag_270\n          tag_140\n          jump\t// in\n        tag_270:\n            /* \"#utility.yul\":6913:7030   */\n        tag_269:\n            /* \"#utility.yul\":7062:7127   */\n          tag_271\n            /* \"#utility.yul\":7119:7126   */\n          dup8\n            /* \"#utility.yul\":7110:7116   */\n          dup3\n            /* \"#utility.yul\":7099:7108   */\n          dup9\n            /* \"#utility.yul\":7095:7117   */\n          add\n            /* \"#utility.yul\":7062:7127   */\n          tag_164\n          jump\t// in\n        tag_271:\n            /* \"#utility.yul\":7044:7127   */\n          swap5\n          pop\n          swap5\n          pop\n            /* \"#utility.yul\":6840:7137   */\n          pop\n            /* \"#utility.yul\":7176:7178   */\n          0x20\n            /* \"#utility.yul\":7202:7255   */\n          tag_272\n            /* \"#utility.yul\":7247:7254   */\n          dup8\n            /* \"#utility.yul\":7238:7244   */\n          dup3\n            /* \"#utility.yul\":7227:7236   */\n          dup9\n            /* \"#utility.yul\":7223:7245   */\n          add\n            /* \"#utility.yul\":7202:7255   */\n          tag_143\n          jump\t// in\n        tag_272:\n            /* \"#utility.yul\":7192:7255   */\n          swap3\n          pop\n            /* \"#utility.yul\":7147:7265   */\n          pop\n            /* \"#utility.yul\":7304:7306   */\n          0x40\n            /* \"#utility.yul\":7330:7391   */\n          tag_273\n            /* \"#utility.yul\":7383:7390   */\n          dup8\n            /* \"#utility.yul\":7374:7380   */\n          dup3\n            /* \"#utility.yul\":7363:7372   */\n          dup9\n            /* \"#utility.yul\":7359:7381   */\n          add\n            /* \"#utility.yul\":7330:7391   */\n          tag_166\n          jump\t// in\n        tag_273:\n            /* \"#utility.yul\":7320:7391   */\n          swap2\n          pop\n            /* \"#utility.yul\":7275:7401   */\n          pop\n            /* \"#utility.yul\":6573:7408   */\n          swap3\n          swap6\n          swap2\n          swap5\n          pop\n          swap3\n          pop\n          jump\t// out\n            /* \"#utility.yul\":7414:7534   */\n        tag_167:\n            /* \"#utility.yul\":7486:7509   */\n          tag_275\n            /* \"#utility.yul\":7503:7508   */\n          dup2\n            /* \"#utility.yul\":7486:7509   */\n          tag_159\n          jump\t// in\n        tag_275:\n            /* \"#utility.yul\":7479:7484   */\n          dup2\n            /* \"#utility.yul\":7476:7510   */\n          eq\n            /* \"#utility.yul\":7466:7528   */\n          tag_276\n          jumpi\n            /* \"#utility.yul\":7524:7525   */\n          0x00\n            /* \"#utility.yul\":7521:7522   */\n          dup1\n            /* \"#utility.yul\":7514:7526   */\n          revert\n            /* \"#utility.yul\":7466:7528   */\n        tag_276:\n            /* \"#utility.yul\":7414:7534   */\n          pop\n          jump\t// out\n            /* \"#utility.yul\":7540:7677   */\n        tag_168:\n            /* \"#utility.yul\":7585:7590   */\n          0x00\n            /* \"#utility.yul\":7623:7629   */\n          dup2\n            /* \"#utility.yul\":7610:7630   */\n          calldataload\n            /* \"#utility.yul\":7601:7630   */\n          swap1\n          pop\n            /* \"#utility.yul\":7639:7671   */\n          tag_278\n            /* \"#utility.yul\":7665:7670   */\n          dup2\n            /* \"#utility.yul\":7639:7671   */\n          tag_167\n          jump\t// in\n        tag_278:\n            /* \"#utility.yul\":7540:7677   */\n          swap3\n          swap2\n          pop\n          pop\n          jump\t// out\n            /* \"#utility.yul\":7683:8155   */\n        tag_53:\n            /* \"#utility.yul\":7750:7756   */\n          0x00\n            /* \"#utility.yul\":7758:7764   */\n          dup1\n            /* \"#utility.yul\":7807:7809   */\n          0x40\n            /* \"#utility.yul\":7795:7804   */\n          dup4\n            /* \"#utility.yul\":7786:7793   */\n          dup6\n            /* \"#utility.yul\":7782:7805   */\n          sub\n            /* \"#utility.yul\":7778:7810   */\n          slt\n            /* \"#utility.yul\":7775:7894   */\n          iszero\n          tag_280\n          jumpi\n            /* \"#utility.yul\":7813:7892   */\n          tag_281\n          tag_139\n          jump\t// in\n        tag_281:\n            /* \"#utility.yul\":7775:7894   */\n        tag_280:\n            /* \"#utility.yul\":7933:7934   */\n          0x00\n            /* \"#utility.yul\":7958:8010   */\n          tag_282\n            /* \"#utility.yul\":8002:8009   */\n          dup6\n            /* \"#utility.yul\":7993:7999   */\n          dup3\n            /* \"#utility.yul\":7982:7991   */\n          dup7\n            /* \"#utility.yul\":7978:8000   */\n          add\n            /* \"#utility.yul\":7958:8010   */\n          tag_168\n          jump\t// in\n        tag_282:\n            /* \"#utility.yul\":7948:8010   */\n          swap3\n          pop\n            /* \"#utility.yul\":7904:8020   */\n          pop\n            /* \"#utility.yul\":8059:8061   */\n          0x20\n            /* \"#utility.yul\":8085:8138   */\n          tag_283\n            /* \"#utility.yul\":8130:8137   */\n          dup6\n            /* \"#utility.yul\":8121:8127   */\n          dup3\n            /* \"#utility.yul\":8110:8119   */\n          dup7\n            /* \"#utility.yul\":8106:8128   */\n          add\n            /* \"#utility.yul\":8085:8138   */\n          tag_147\n          jump\t// in\n        tag_283:\n            /* \"#utility.yul\":8075:8138   */\n          swap2\n          pop\n            /* \"#utility.yul\":8030:8148   */\n          pop\n            /* \"#utility.yul\":7683:8155   */\n          swap3\n          pop\n          swap3\n          swap1\n          pop\n          jump\t// out\n            /* \"#utility.yul\":8161:8389   */\n        tag_169:\n            /* \"#utility.yul\":8301:8335   */\n          0x4f6e6c7920746865206d616e616765722063616e20706572666f726d20746869\n            /* \"#utility.yul\":8297:8298   */\n          0x00\n            /* \"#utility.yul\":8289:8295   */\n          dup3\n            /* \"#utility.yul\":8285:8299   */\n          add\n            /* \"#utility.yul\":8278:8336   */\n          mstore\n            /* \"#utility.yul\":8370:8381   */\n          0x7320616374696f6e2e0000000000000000000000000000000000000000000000\n            /* \"#utility.yul\":8365:8367   */\n          0x20\n            /* \"#utility.yul\":8357:8363   */\n          dup3\n            /* \"#utility.yul\":8353:8368   */\n          add\n            /* \"#utility.yul\":8346:8382   */\n          mstore\n            /* \"#utility.yul\":8161:8389   */\n          pop\n          jump\t// out\n            /* \"#utility.yul\":8395:8761   */\n        tag_170:\n            /* \"#utility.yul\":8537:8540   */\n          0x00\n            /* \"#utility.yul\":8558:8625   */\n          tag_286\n            /* \"#utility.yul\":8622:8624   */\n          0x29\n            /* \"#utility.yul\":8617:8620   */\n          dup4\n            /* \"#utility.yul\":8558:8625   */\n          tag_152\n          jump\t// in\n        tag_286:\n            /* \"#utility.yul\":8551:8625   */\n          swap2\n          pop\n            /* \"#utility.yul\":8634:8727   */\n          tag_287\n            /* \"#utility.yul\":8723:8726   */\n          dup3\n            /* \"#utility.yul\":8634:8727   */\n          tag_169\n          jump\t// in\n        tag_287:\n            /* \"#utility.yul\":8752:8754   */\n          0x40\n            /* \"#utility.yul\":8747:8750   */\n          dup3\n            /* \"#utility.yul\":8743:8755   */\n          add\n            /* \"#utility.yul\":8736:8755   */\n          swap1\n          pop\n            /* \"#utility.yul\":8395:8761   */\n          swap2\n          swap1\n          pop\n          jump\t// out\n            /* \"#utility.yul\":8767:9186   */\n        tag_64:\n            /* \"#utility.yul\":8933:8937   */\n          0x00\n            /* \"#utility.yul\":8971:8973   */\n          0x20\n            /* \"#utility.yul\":8960:8969   */\n          dup3\n            /* \"#utility.yul\":8956:8974   */\n          add\n            /* \"#utility.yul\":8948:8974   */\n          swap1\n          pop\n            /* \"#utility.yul\":9020:9029   */\n          dup2\n            /* \"#utility.yul\":9014:9018   */\n          dup2\n            /* \"#utility.yul\":9010:9030   */\n          sub\n            /* \"#utility.yul\":9006:9007   */\n          0x00\n            /* \"#utility.yul\":8995:9004   */\n          dup4\n            /* \"#utility.yul\":8991:9008   */\n          add\n            /* \"#utility.yul\":8984:9031   */\n          mstore\n            /* \"#utility.yul\":9048:9179   */\n          tag_289\n            /* \"#utility.yul\":9174:9178   */\n          dup2\n            /* \"#utility.yul\":9048:9179   */\n          tag_170\n          jump\t// in\n        tag_289:\n            /* \"#utility.yul\":9040:9179   */\n          swap1\n          pop\n            /* \"#utility.yul\":8767:9186   */\n          swap2\n          swap1\n          pop\n          jump\t// out\n            /* \"#utility.yul\":9192:9372   */\n        tag_68:\n            /* \"#utility.yul\":9240:9317   */\n          0x4e487b7100000000000000000000000000000000000000000000000000000000\n            /* \"#utility.yul\":9237:9238   */\n          0x00\n            /* \"#utility.yul\":9230:9318   */\n          mstore\n            /* \"#utility.yul\":9337:9341   */\n          0x32\n            /* \"#utility.yul\":9334:9335   */\n          0x04\n            /* \"#utility.yul\":9327:9342   */\n          mstore\n            /* \"#utility.yul\":9361:9365   */\n          0x24\n            /* \"#utility.yul\":9358:9359   */\n          0x00\n            /* \"#utility.yul\":9351:9366   */\n          revert\n            /* \"#utility.yul\":9378:9554   */\n        tag_171:\n            /* \"#utility.yul\":9518:9546   */\n          0x5265717565737420616c72656164792066696e616c697a65642e000000000000\n            /* \"#utility.yul\":9514:9515   */\n          0x00\n            /* \"#utility.yul\":9506:9512   */\n          dup3\n            /* \"#utility.yul\":9502:9516   */\n          add\n            /* \"#utility.yul\":9495:9547   */\n          mstore\n            /* \"#utility.yul\":9378:9554   */\n          pop\n          jump\t// out\n            /* \"#utility.yul\":9560:9926   */\n        tag_172:\n            /* \"#utility.yul\":9702:9705   */\n          0x00\n            /* \"#utility.yul\":9723:9790   */\n          tag_293\n            /* \"#utility.yul\":9787:9789   */\n          0x1a\n            /* \"#utility.yul\":9782:9785   */\n          dup4\n            /* \"#utility.yul\":9723:9790   */\n          tag_152\n          jump\t// in\n        tag_293:\n            /* \"#utility.yul\":9716:9790   */\n          swap2\n          pop\n            /* \"#utility.yul\":9799:9892   */\n          tag_294\n            /* \"#utility.yul\":9888:9891   */\n          dup3\n            /* \"#utility.yul\":9799:9892   */\n          tag_171\n          jump\t// in\n        tag_294:\n            /* \"#utility.yul\":9917:9919   */\n          0x20\n            /* \"#utility.yul\":9912:9915   */\n          dup3\n            /* \"#utility.yul\":9908:9920   */\n          add\n            /* \"#utility.yul\":9901:9920   */\n          swap1\n          pop\n            /* \"#utility.yul\":9560:9926   */\n          swap2\n          swap1\n          pop\n          jump\t// out\n            /* \"#utility.yul\":9932:10351   */\n        tag_72:\n            /* \"#utility.yul\":10098:10102   */\n          0x00\n            /* \"#utility.yul\":10136:10138   */\n          0x20\n            /* \"#utility.yul\":10125:10134   */\n          dup3\n            /* \"#utility.yul\":10121:10139   */\n          add\n            /* \"#utility.yul\":10113:10139   */\n          swap1\n          pop\n            /* \"#utility.yul\":10185:10194   */\n          dup2\n            /* \"#utility.yul\":10179:10183   */\n          dup2\n            /* \"#utility.yul\":10175:10195   */\n          sub\n            /* \"#utility.yul\":10171:10172   */\n          0x00\n            /* \"#utility.yul\":10160:10169   */\n          dup4\n            /* \"#utility.yul\":10156:10173   */\n          add\n            /* \"#utility.yul\":10149:10196   */\n          mstore\n            /* \"#utility.yul\":10213:10344   */\n          tag_296\n            /* \"#utility.yul\":10339:10343   */\n          dup2\n            /* \"#utility.yul\":10213:10344   */\n          tag_172\n          jump\t// in\n        tag_296:\n            /* \"#utility.yul\":10205:10344   */\n          swap1\n          pop\n            /* \"#utility.yul\":9932:10351   */\n          swap2\n          swap1\n          pop\n          jump\t// out\n            /* \"#utility.yul\":10357:10537   */\n        tag_173:\n            /* \"#utility.yul\":10405:10482   */\n          0x4e487b7100000000000000000000000000000000000000000000000000000000\n            /* \"#utility.yul\":10402:10403   */\n          0x00\n            /* \"#utility.yul\":10395:10483   */\n          mstore\n            /* \"#utility.yul\":10502:10506   */\n          0x12\n            /* \"#utility.yul\":10499:10500   */\n          0x04\n            /* \"#utility.yul\":10492:10507   */\n          mstore\n            /* \"#utility.yul\":10526:10530   */\n          0x24\n            /* \"#utility.yul\":10523:10524   */\n          0x00\n            /* \"#utility.yul\":10516:10531   */\n          revert\n            /* \"#utility.yul\":10543:10723   */\n        tag_174:\n            /* \"#utility.yul\":10591:10668   */\n          0x4e487b7100000000000000000000000000000000000000000000000000000000\n            /* \"#utility.yul\":10588:10589   */\n          0x00\n            /* \"#utility.yul\":10581:10669   */\n          mstore\n            /* \"#utility.yul\":10688:10692   */\n          0x11\n            /* \"#utility.yul\":10685:10686   */\n          0x04\n            /* \"#utility.yul\":10678:10693   */\n          mstore\n            /* \"#utility.yul\":10712:10716   */\n          0x24\n            /* \"#utility.yul\":10709:10710   */\n          0x00\n            /* \"#utility.yul\":10702:10717   */\n          revert\n            /* \"#utility.yul\":10729:10911   */\n        tag_74:\n            /* \"#utility.yul\":10768:10769   */\n          0x00\n            /* \"#utility.yul\":10785:10804   */\n          tag_300\n            /* \"#utility.yul\":10802:10803   */\n          dup3\n            /* \"#utility.yul\":10785:10804   */\n          tag_159\n          jump\t// in\n        tag_300:\n            /* \"#utility.yul\":10780:10804   */\n          swap2\n          pop\n            /* \"#utility.yul\":10818:10837   */\n          tag_301\n            /* \"#utility.yul\":10835:10836   */\n          dup4\n            /* \"#utility.yul\":10818:10837   */\n          tag_159\n          jump\t// in\n        tag_301:\n            /* \"#utility.yul\":10813:10837   */\n          swap3\n          pop\n            /* \"#utility.yul\":10856:10857   */\n          dup3\n            /* \"#utility.yul\":10846:10881   */\n          tag_302\n          jumpi\n            /* \"#utility.yul\":10861:10879   */\n          tag_303\n          tag_173\n          jump\t// in\n        tag_303:\n            /* \"#utility.yul\":10846:10881   */\n        tag_302:\n            /* \"#utility.yul\":10903:10904   */\n          dup3\n            /* \"#utility.yul\":10900:10901   */\n          dup3\n            /* \"#utility.yul\":10896:10905   */\n          div\n            /* \"#utility.yul\":10891:10905   */\n          swap1\n          pop\n            /* \"#utility.yul\":10729:10911   */\n          swap3\n          swap2\n          pop\n          pop\n          jump\t// out\n            /* \"#utility.yul\":10917:11142   */\n        tag_175:\n            /* \"#utility.yul\":11057:11091   */\n          0x5265717565737420646f65736e2774206861766520656e6f7567682061707072\n            /* \"#utility.yul\":11053:11054   */\n          0x00\n            /* \"#utility.yul\":11045:11051   */\n          dup3\n            /* \"#utility.yul\":11041:11055   */\n          add\n            /* \"#utility.yul\":11034:11092   */\n          mstore\n            /* \"#utility.yul\":11126:11134   */\n          0x6f76616c732e0000000000000000000000000000000000000000000000000000\n            /* \"#utility.yul\":11121:11123   */\n          0x20\n            /* \"#utility.yul\":11113:11119   */\n          dup3\n            /* \"#utility.yul\":11109:11124   */\n          add\n            /* \"#utility.yul\":11102:11135   */\n          mstore\n            /* \"#utility.yul\":10917:11142   */\n          pop\n          jump\t// out\n            /* \"#utility.yul\":11148:11514   */\n        tag_176:\n            /* \"#utility.yul\":11290:11293   */\n          0x00\n            /* \"#utility.yul\":11311:11378   */\n          tag_306\n            /* \"#utility.yul\":11375:11377   */\n          0x26\n            /* \"#utility.yul\":11370:11373   */\n          dup4\n            /* \"#utility.yul\":11311:11378   */\n          tag_152\n          jump\t// in\n        tag_306:\n            /* \"#utility.yul\":11304:11378   */\n          swap2\n          pop\n            /* \"#utility.yul\":11387:11480   */\n          tag_307\n            /* \"#utility.yul\":11476:11479   */\n          dup3\n            /* \"#utility.yul\":11387:11480   */\n          tag_175\n          jump\t// in\n        tag_307:\n            /* \"#utility.yul\":11505:11507   */\n          0x40\n            /* \"#utility.yul\":11500:11503   */\n          dup3\n            /* \"#utility.yul\":11496:11508   */\n          add\n            /* \"#utility.yul\":11489:11508   */\n          swap1\n          pop\n            /* \"#utility.yul\":11148:11514   */\n          swap2\n          swap1\n          pop\n          jump\t// out\n            /* \"#utility.yul\":11520:11939   */\n        tag_77:\n            /* \"#utility.yul\":11686:11690   */\n          0x00\n            /* \"#utility.yul\":11724:11726   */\n          0x20\n            /* \"#utility.yul\":11713:11722   */\n          dup3\n            /* \"#utility.yul\":11709:11727   */\n          add\n            /* \"#utility.yul\":11701:11727   */\n          swap1\n          pop\n            /* \"#utility.yul\":11773:11782   */\n          dup2\n            /* \"#utility.yul\":11767:11771   */\n          dup2\n            /* \"#utility.yul\":11763:11783   */\n          sub\n            /* \"#utility.yul\":11759:11760   */\n          0x00\n            /* \"#utility.yul\":11748:11757   */\n          dup4\n            /* \"#utility.yul\":11744:11761   */\n          add\n            /* \"#utility.yul\":11737:11784   */\n          mstore\n            /* \"#utility.yul\":11801:11932   */\n          tag_309\n            /* \"#utility.yul\":11927:11931   */\n          dup2\n            /* \"#utility.yul\":11801:11932   */\n          tag_176\n          jump\t// in\n        tag_309:\n            /* \"#utility.yul\":11793:11932   */\n          swap1\n          pop\n            /* \"#utility.yul\":11520:11939   */\n          swap2\n          swap1\n          pop\n          jump\t// out\n            /* \"#utility.yul\":11945:12125   */\n        tag_177:\n            /* \"#utility.yul\":11993:12070   */\n          0x4e487b7100000000000000000000000000000000000000000000000000000000\n            /* \"#utility.yul\":11990:11991   */\n          0x00\n            /* \"#utility.yul\":11983:12071   */\n          mstore\n            /* \"#utility.yul\":12090:12094   */\n          0x22\n            /* \"#utility.yul\":12087:12088   */\n          0x04\n            /* \"#utility.yul\":12080:12095   */\n          mstore\n            /* \"#utility.yul\":12114:12118   */\n          0x24\n            /* \"#utility.yul\":12111:12112   */\n          0x00\n            /* \"#utility.yul\":12104:12119   */\n          revert\n            /* \"#utility.yul\":12131:12451   */\n        tag_83:\n            /* \"#utility.yul\":12175:12181   */\n          0x00\n            /* \"#utility.yul\":12212:12213   */\n          0x02\n            /* \"#utility.yul\":12206:12210   */\n          dup3\n            /* \"#utility.yul\":12202:12214   */\n          div\n            /* \"#utility.yul\":12192:12214   */\n          swap1\n          pop\n            /* \"#utility.yul\":12259:12260   */\n          0x01\n            /* \"#utility.yul\":12253:12257   */\n          dup3\n            /* \"#utility.yul\":12249:12261   */\n          and\n            /* \"#utility.yul\":12280:12298   */\n          dup1\n            /* \"#utility.yul\":12270:12351   */\n          tag_312\n          jumpi\n            /* \"#utility.yul\":12336:12340   */\n          0x7f\n            /* \"#utility.yul\":12328:12334   */\n          dup3\n            /* \"#utility.yul\":12324:12341   */\n          and\n            /* \"#utility.yul\":12314:12341   */\n          swap2\n          pop\n            /* \"#utility.yul\":12270:12351   */\n        tag_312:\n            /* \"#utility.yul\":12398:12400   */\n          0x20\n            /* \"#utility.yul\":12390:12396   */\n          dup3\n            /* \"#utility.yul\":12387:12401   */\n          lt\n            /* \"#utility.yul\":12367:12385   */\n          dup2\n            /* \"#utility.yul\":12364:12402   */\n          eq\n            /* \"#utility.yul\":12361:12445   */\n          iszero\n          tag_313\n          jumpi\n            /* \"#utility.yul\":12417:12435   */\n          tag_314\n          tag_177\n          jump\t// in\n        tag_314:\n            /* \"#utility.yul\":12361:12445   */\n        tag_313:\n            /* \"#utility.yul\":12182:12451   */\n          pop\n            /* \"#utility.yul\":12131:12451   */\n          swap2\n          swap1\n          pop\n          jump\t// out\n            /* \"#utility.yul\":12457:12690   */\n        tag_178:\n            /* \"#utility.yul\":12597:12631   */\n          0x496e697469616c697a61626c653a20636f6e747261637420697320616c726561\n            /* \"#utility.yul\":12593:12594   */\n          0x00\n            /* \"#utility.yul\":12585:12591   */\n          dup3\n            /* \"#utility.yul\":12581:12595   */\n          add\n            /* \"#utility.yul\":12574:12632   */\n          mstore\n            /* \"#utility.yul\":12666:12682   */\n          0x647920696e697469616c697a6564000000000000000000000000000000000000\n            /* \"#utility.yul\":12661:12663   */\n          0x20\n            /* \"#utility.yul\":12653:12659   */\n          dup3\n            /* \"#utility.yul\":12649:12664   */\n          add\n            /* \"#utility.yul\":12642:12683   */\n          mstore\n            /* \"#utility.yul\":12457:12690   */\n          pop\n          jump\t// out\n            /* \"#utility.yul\":12696:13062   */\n        tag_179:\n            /* \"#utility.yul\":12838:12841   */\n          0x00\n            /* \"#utility.yul\":12859:12926   */\n          tag_317\n            /* \"#utility.yul\":12923:12925   */\n          0x2e\n            /* \"#utility.yul\":12918:12921   */\n          dup4\n            /* \"#utility.yul\":12859:12926   */\n          tag_152\n          jump\t// in\n        tag_317:\n            /* \"#utility.yul\":12852:12926   */\n          swap2\n          pop\n            /* \"#utility.yul\":12935:13028   */\n          tag_318\n            /* \"#utility.yul\":13024:13027   */\n          dup3\n            /* \"#utility.yul\":12935:13028   */\n          tag_178\n          jump\t// in\n        tag_318:\n            /* \"#utility.yul\":13053:13055   */\n          0x40\n            /* \"#utility.yul\":13048:13051   */\n          dup3\n            /* \"#utility.yul\":13044:13056   */\n          add\n            /* \"#utility.yul\":13037:13056   */\n          swap1\n          pop\n            /* \"#utility.yul\":12696:13062   */\n          swap2\n          swap1\n          pop\n          jump\t// out\n            /* \"#utility.yul\":13068:13487   */\n        tag_102:\n            /* \"#utility.yul\":13234:13238   */\n          0x00\n            /* \"#utility.yul\":13272:13274   */\n          0x20\n            /* \"#utility.yul\":13261:13270   */\n          dup3\n            /* \"#utility.yul\":13257:13275   */\n          add\n            /* \"#utility.yul\":13249:13275   */\n          swap1\n          pop\n            /* \"#utility.yul\":13321:13330   */\n          dup2\n            /* \"#utility.yul\":13315:13319   */\n          dup2\n            /* \"#utility.yul\":13311:13331   */\n          sub\n            /* \"#utility.yul\":13307:13308   */\n          0x00\n            /* \"#utility.yul\":13296:13305   */\n          dup4\n            /* \"#utility.yul\":13292:13309   */\n          add\n            /* \"#utility.yul\":13285:13332   */\n          mstore\n            /* \"#utility.yul\":13349:13480   */\n          tag_320\n            /* \"#utility.yul\":13475:13479   */\n          dup2\n            /* \"#utility.yul\":13349:13480   */\n          tag_179\n          jump\t// in\n        tag_320:\n            /* \"#utility.yul\":13341:13480   */\n          swap1\n          pop\n            /* \"#utility.yul\":13068:13487   */\n          swap2\n          swap1\n          pop\n          jump\t// out\n            /* \"#utility.yul\":13493:13744   */\n        tag_180:\n            /* \"#utility.yul\":13633:13667   */\n          0x596f75206e65656420746f20636f6e74726962757465206174206c6561737420\n            /* \"#utility.yul\":13629:13630   */\n          0x00\n            /* \"#utility.yul\":13621:13627   */\n          dup3\n            /* \"#utility.yul\":13617:13631   */\n          add\n            /* \"#utility.yul\":13610:13668   */\n          mstore\n            /* \"#utility.yul\":13702:13736   */\n          0x746865206d696e696d756d20636f6e747269627574696f6e20616d6f756e742e\n            /* \"#utility.yul\":13697:13699   */\n          0x20\n            /* \"#utility.yul\":13689:13695   */\n          dup3\n            /* \"#utility.yul\":13685:13700   */\n          add\n            /* \"#utility.yul\":13678:13737   */\n          mstore\n            /* \"#utility.yul\":13493:13744   */\n          pop\n          jump\t// out\n            /* \"#utility.yul\":13750:14116   */\n        tag_181:\n            /* \"#utility.yul\":13892:13895   */\n          0x00\n            /* \"#utility.yul\":13913:13980   */\n          tag_323\n            /* \"#utility.yul\":13977:13979   */\n          0x40\n            /* \"#utility.yul\":13972:13975   */\n          dup4\n            /* \"#utility.yul\":13913:13980   */\n          tag_152\n          jump\t// in\n        tag_323:\n            /* \"#utility.yul\":13906:13980   */\n          swap2\n          pop\n            /* \"#utility.yul\":13989:14082   */\n          tag_324\n            /* \"#utility.yul\":14078:14081   */\n          dup3\n            /* \"#utility.yul\":13989:14082   */\n          tag_180\n          jump\t// in\n        tag_324:\n            /* \"#utility.yul\":14107:14109   */\n          0x40\n            /* \"#utility.yul\":14102:14105   */\n          dup3\n            /* \"#utility.yul\":14098:14110   */\n          add\n            /* \"#utility.yul\":14091:14110   */\n          swap1\n          pop\n            /* \"#utility.yul\":13750:14116   */\n          swap2\n          swap1\n          pop\n          jump\t// out\n            /* \"#utility.yul\":14122:14541   */\n        tag_109:\n            /* \"#utility.yul\":14288:14292   */\n          0x00\n            /* \"#utility.yul\":14326:14328   */\n          0x20\n            /* \"#utility.yul\":14315:14324   */\n          dup3\n            /* \"#utility.yul\":14311:14329   */\n          add\n            /* \"#utility.yul\":14303:14329   */\n          swap1\n          pop\n            /* \"#utility.yul\":14375:14384   */\n          dup2\n            /* \"#utility.yul\":14369:14373   */\n          dup2\n            /* \"#utility.yul\":14365:14385   */\n          sub\n            /* \"#utility.yul\":14361:14362   */\n          0x00\n            /* \"#utility.yul\":14350:14359   */\n          dup4\n            /* \"#utility.yul\":14346:14363   */\n          add\n            /* \"#utility.yul\":14339:14386   */\n          mstore\n            /* \"#utility.yul\":14403:14534   */\n          tag_326\n            /* \"#utility.yul\":14529:14533   */\n          dup2\n            /* \"#utility.yul\":14403:14534   */\n          tag_181\n          jump\t// in\n        tag_326:\n            /* \"#utility.yul\":14395:14534   */\n          swap1\n          pop\n            /* \"#utility.yul\":14122:14541   */\n          swap2\n          swap1\n          pop\n          jump\t// out\n            /* \"#utility.yul\":14547:14724   */\n        tag_111:\n            /* \"#utility.yul\":14585:14588   */\n          0x00\n            /* \"#utility.yul\":14608:14631   */\n          tag_328\n            /* \"#utility.yul\":14625:14630   */\n          dup3\n            /* \"#utility.yul\":14608:14631   */\n          tag_159\n          jump\t// in\n        tag_328:\n            /* \"#utility.yul\":14599:14631   */\n          swap2\n          pop\n            /* \"#utility.yul\":14653:14665   */\n          0xffffffffff\n            /* \"#utility.yul\":14646:14651   */\n          dup3\n            /* \"#utility.yul\":14643:14666   */\n          eq\n            /* \"#utility.yul\":14640:14689   */\n          iszero\n          tag_329\n          jumpi\n            /* \"#utility.yul\":14669:14687   */\n          tag_330\n          tag_174\n          jump\t// in\n        tag_330:\n            /* \"#utility.yul\":14640:14689   */\n        tag_329:\n            /* \"#utility.yul\":14716:14717   */\n          0x01\n            /* \"#utility.yul\":14709:14714   */\n          dup3\n            /* \"#utility.yul\":14705:14718   */\n          add\n            /* \"#utility.yul\":14698:14718   */\n          swap1\n          pop\n            /* \"#utility.yul\":14547:14724   */\n          swap2\n          swap1\n          pop\n          jump\t// out\n            /* \"#utility.yul\":14730:14958   */\n        tag_182:\n            /* \"#utility.yul\":14870:14904   */\n          0x596f75206d75737420626520617070726f76656420746f206d616b6520746869\n            /* \"#utility.yul\":14866:14867   */\n          0x00\n            /* \"#utility.yul\":14858:14864   */\n          dup3\n            /* \"#utility.yul\":14854:14868   */\n          add\n            /* \"#utility.yul\":14847:14905   */\n          mstore\n            /* \"#utility.yul\":14939:14950   */\n          0x7320726571756573740000000000000000000000000000000000000000000000\n            /* \"#utility.yul\":14934:14936   */\n          0x20\n            /* \"#utility.yul\":14926:14932   */\n          dup3\n            /* \"#utility.yul\":14922:14937   */\n          add\n            /* \"#utility.yul\":14915:14951   */\n          mstore\n            /* \"#utility.yul\":14730:14958   */\n          pop\n          jump\t// out\n            /* \"#utility.yul\":14964:15330   */\n        tag_183:\n            /* \"#utility.yul\":15106:15109   */\n          0x00\n            /* \"#utility.yul\":15127:15194   */\n          tag_333\n            /* \"#utility.yul\":15191:15193   */\n          0x29\n            /* \"#utility.yul\":15186:15189   */\n          dup4\n            /* \"#utility.yul\":15127:15194   */\n          tag_152\n          jump\t// in\n        tag_333:\n            /* \"#utility.yul\":15120:15194   */\n          swap2\n          pop\n            /* \"#utility.yul\":15203:15296   */\n          tag_334\n            /* \"#utility.yul\":15292:15295   */\n          dup3\n            /* \"#utility.yul\":15203:15296   */\n          tag_182\n          jump\t// in\n        tag_334:\n            /* \"#utility.yul\":15321:15323   */\n          0x40\n            /* \"#utility.yul\":15316:15319   */\n          dup3\n            /* \"#utility.yul\":15312:15324   */\n          add\n            /* \"#utility.yul\":15305:15324   */\n          swap1\n          pop\n            /* \"#utility.yul\":14964:15330   */\n          swap2\n          swap1\n          pop\n          jump\t// out\n            /* \"#utility.yul\":15336:15755   */\n        tag_118:\n            /* \"#utility.yul\":15502:15506   */\n          0x00\n            /* \"#utility.yul\":15540:15542   */\n          0x20\n            /* \"#utility.yul\":15529:15538   */\n          dup3\n            /* \"#utility.yul\":15525:15543   */\n          add\n            /* \"#utility.yul\":15517:15543   */\n          swap1\n          pop\n            /* \"#utility.yul\":15589:15598   */\n          dup2\n            /* \"#utility.yul\":15583:15587   */\n          dup2\n            /* \"#utility.yul\":15579:15599   */\n          sub\n            /* \"#utility.yul\":15575:15576   */\n          0x00\n            /* \"#utility.yul\":15564:15573   */\n          dup4\n            /* \"#utility.yul\":15560:15577   */\n          add\n            /* \"#utility.yul\":15553:15600   */\n          mstore\n            /* \"#utility.yul\":15617:15748   */\n          tag_336\n            /* \"#utility.yul\":15743:15747   */\n          dup2\n            /* \"#utility.yul\":15617:15748   */\n          tag_183\n          jump\t// in\n        tag_336:\n            /* \"#utility.yul\":15609:15748   */\n          swap1\n          pop\n            /* \"#utility.yul\":15336:15755   */\n          swap2\n          swap1\n          pop\n          jump\t// out\n            /* \"#utility.yul\":15761:15991   */\n        tag_184:\n            /* \"#utility.yul\":15901:15935   */\n          0x596f7520617265206e6f7420616c6c6f77656420746f20617070726f76652074\n            /* \"#utility.yul\":15897:15898   */\n          0x00\n            /* \"#utility.yul\":15889:15895   */\n          dup3\n            /* \"#utility.yul\":15885:15899   */\n          add\n            /* \"#utility.yul\":15878:15936   */\n          mstore\n            /* \"#utility.yul\":15970:15983   */\n          0x6869732072657175657374000000000000000000000000000000000000000000\n            /* \"#utility.yul\":15965:15967   */\n          0x20\n            /* \"#utility.yul\":15957:15963   */\n          dup3\n            /* \"#utility.yul\":15953:15968   */\n          add\n            /* \"#utility.yul\":15946:15984   */\n          mstore\n            /* \"#utility.yul\":15761:15991   */\n          pop\n          jump\t// out\n            /* \"#utility.yul\":15997:16363   */\n        tag_185:\n            /* \"#utility.yul\":16139:16142   */\n          0x00\n            /* \"#utility.yul\":16160:16227   */\n          tag_339\n            /* \"#utility.yul\":16224:16226   */\n          0x2b\n            /* \"#utility.yul\":16219:16222   */\n          dup4\n            /* \"#utility.yul\":16160:16227   */\n          tag_152\n          jump\t// in\n        tag_339:\n            /* \"#utility.yul\":16153:16227   */\n          swap2\n          pop\n            /* \"#utility.yul\":16236:16329   */\n          tag_340\n            /* \"#utility.yul\":16325:16328   */\n          dup3\n            /* \"#utility.yul\":16236:16329   */\n          tag_184\n          jump\t// in\n        tag_340:\n            /* \"#utility.yul\":16354:16356   */\n          0x40\n            /* \"#utility.yul\":16349:16352   */\n          dup3\n            /* \"#utility.yul\":16345:16357   */\n          add\n            /* \"#utility.yul\":16338:16357   */\n          swap1\n          pop\n            /* \"#utility.yul\":15997:16363   */\n          swap2\n          swap1\n          pop\n          jump\t// out\n            /* \"#utility.yul\":16369:16788   */\n        tag_121:\n            /* \"#utility.yul\":16535:16539   */\n          0x00\n            /* \"#utility.yul\":16573:16575   */\n          0x20\n            /* \"#utility.yul\":16562:16571   */\n          dup3\n            /* \"#utility.yul\":16558:16576   */\n          add\n            /* \"#utility.yul\":16550:16576   */\n          swap1\n          pop\n            /* \"#utility.yul\":16622:16631   */\n          dup2\n            /* \"#utility.yul\":16616:16620   */\n          dup2\n            /* \"#utility.yul\":16612:16632   */\n          sub\n            /* \"#utility.yul\":16608:16609   */\n          0x00\n            /* \"#utility.yul\":16597:16606   */\n          dup4\n            /* \"#utility.yul\":16593:16610   */\n          add\n            /* \"#utility.yul\":16586:16633   */\n          mstore\n            /* \"#utility.yul\":16650:16781   */\n          tag_342\n            /* \"#utility.yul\":16776:16780   */\n          dup2\n            /* \"#utility.yul\":16650:16781   */\n          tag_185\n          jump\t// in\n        tag_342:\n            /* \"#utility.yul\":16642:16781   */\n          swap1\n          pop\n            /* \"#utility.yul\":16369:16788   */\n          swap2\n          swap1\n          pop\n          jump\t// out\n            /* \"#utility.yul\":16794:17027   */\n        tag_123:\n            /* \"#utility.yul\":16833:16836   */\n          0x00\n            /* \"#utility.yul\":16856:16880   */\n          tag_344\n            /* \"#utility.yul\":16874:16879   */\n          dup3\n            /* \"#utility.yul\":16856:16880   */\n          tag_141\n          jump\t// in\n        tag_344:\n            /* \"#utility.yul\":16847:16880   */\n          swap2\n          pop\n            /* \"#utility.yul\":16902:16968   */\n          0xffffffffffffffffffffffffffffffffffffffffffffffffffffffffffffffff\n            /* \"#utility.yul\":16895:16900   */\n          dup3\n            /* \"#utility.yul\":16892:16969   */\n          eq\n            /* \"#utility.yul\":16889:16992   */\n          iszero\n          tag_345\n          jumpi\n            /* \"#utility.yul\":16972:16990   */\n          tag_346\n          tag_174\n          jump\t// in\n        tag_346:\n            /* \"#utility.yul\":16889:16992   */\n        tag_345:\n            /* \"#utility.yul\":17019:17020   */\n          0x01\n            /* \"#utility.yul\":17012:17017   */\n          dup3\n            /* \"#utility.yul\":17008:17021   */\n          add\n            /* \"#utility.yul\":17001:17021   */\n          swap1\n          pop\n            /* \"#utility.yul\":16794:17027   */\n          swap2\n          swap1\n          pop\n          jump\t// out\n\n        auxdata: 0xa26469706673582212202b78ac55ff107f171ce5138d369f8b19f063c201a0967b973ced81a98b69358b64736f6c634300080b0033\n    }\n}\n","bytecode":{"linkReferences":{},"object":"608060405234801561001057600080fd5b5060405161001d9061007e565b604051809103906000f080158015610039573d6000803e3d6000fd5b506000806101000a81548173ffffffffffffffffffffffffffffffffffffffff021916908373ffffffffffffffffffffffffffffffffffffffff16021790555061008b565b6115808061067183390190565b6105d78061009a6000396000f3fe608060405234801561001057600080fd5b50600436106100365760003560e01c80634536fb7e1461003b578063a6b0363314610057575b600080fd5b610055600480360381019061005091906103bd565b610075565b005b61005f6101ba565b60405161006c91906104bb565b60405180910390f35b60006100a060008054906101000a900473ffffffffffffffffffffffffffffffffffffffff16610248565b90508073ffffffffffffffffffffffffffffffffffffffff1663cea34b7384846040518363ffffffff1660e01b81526004016100dd9291906104fb565b600060405180830381600087803b1580156100f757600080fd5b505af115801561010b573d6000803e3d6000fd5b505050506001819080600181540180825580915050600190039060005260206000200160009091909190916101000a81548173ffffffffffffffffffffffffffffffffffffffff021916908373ffffffffffffffffffffffffffffffffffffffff1602179055508073ffffffffffffffffffffffffffffffffffffffff167f07a9c134c6ed9c353773b355c69cbf65e34e3c3820554f5b8e1afdecdfb4029260405160405180910390a2505050565b6060600180548060200260200160405190810160405280929190818152602001828054801561023e57602002820191906000526020600020905b8160009054906101000a900473ffffffffffffffffffffffffffffffffffffffff1673ffffffffffffffffffffffffffffffffffffffff16815260200190600101908083116101f4575b5050505050905090565b60006040517f3d602d80600a3d3981f3363d3d373d3d3d363d7300000000000000000000000081528260601b60148201527f5af43d82803e903d91602b57fd5bf3000000000000000000000000000000000060288201526037816000f0915050600073ffffffffffffffffffffffffffffffffffffffff168173ffffffffffffffffffffffffffffffffffffffff161415610318576040517f08c379a000000000000000000000000000000000000000000000000000000000815260040161030f90610581565b60405180910390fd5b919050565b600080fd5b600064ffffffffff82169050919050565b61033c81610322565b811461034757600080fd5b50565b60008135905061035981610333565b92915050565b600073ffffffffffffffffffffffffffffffffffffffff82169050919050565b600061038a8261035f565b9050919050565b61039a8161037f565b81146103a557600080fd5b50565b6000813590506103b781610391565b92915050565b600080604083850312156103d4576103d361031d565b5b60006103e28582860161034a565b92505060206103f3858286016103a8565b9150509250929050565b600081519050919050565b600082825260208201905092915050565b6000819050602082019050919050565b6104328161037f565b82525050565b60006104448383610429565b60208301905092915050565b6000602082019050919050565b6000610468826103fd565b6104728185610408565b935061047d83610419565b8060005b838110156104ae5781516104958882610438565b97506104a083610450565b925050600181019050610481565b5085935050505092915050565b600060208201905081810360008301526104d5818461045d565b905092915050565b6104e681610322565b82525050565b6104f58161037f565b82525050565b600060408201905061051060008301856104dd565b61051d60208301846104ec565b9392505050565b600082825260208201905092915050565b7f455243313136373a20637265617465206661696c656400000000000000000000600082015250565b600061056b601683610524565b915061057682610535565b602082019050919050565b6000602082019050818103600083015261059a8161055e565b905091905056fea2646970667358221220999633ea897f502c335321dcf83af9bfdb9a12c684844f771c88c260c105b6cc64736f6c634300080b0033608060405234801561001057600080fd5b50611560806100206000396000f3fe6080604052600436106100915760003560e01c80638a9cfd55116100595780638a9cfd5514610193578063937e09b1146101bc578063cea34b73146101e7578063d7bb99ba14610210578063d7d1bbdb1461021a57610091565b806303441006146100965780630a144391146100bf578063481c6a75146100fc57806381d12c581461012757806382fde09314610168575b600080fd5b3480156100a257600080fd5b506100bd60048036038101906100b89190610bd5565b610243565b005b3480156100cb57600080fd5b506100e660048036038101906100e19190610c60565b610447565b6040516100f39190610ca8565b60405180910390f35b34801561010857600080fd5b50610111610467565b60405161011e9190610cd2565b60405180910390f35b34801561013357600080fd5b5061014e60048036038101906101499190610bd5565b61048d565b60405161015f959493929190610db6565b60405180910390f35b34801561017457600080fd5b5061017d610588565b60405161018a9190610e30565b60405180910390f35b34801561019f57600080fd5b506101ba60048036038101906101b59190610edc565b61059f565b005b3480156101c857600080fd5b506101d16106ba565b6040516101de9190610e30565b60405180910390f35b3480156101f357600080fd5b5061020e60048036038101906102099190610f7c565b6106d1565b005b61021861081b565b005b34801561022657600080fd5b50610241600480360381019061023c9190610bd5565b610915565b005b600060029054906101000a900473ffffffffffffffffffffffffffffffffffffffff1673ffffffffffffffffffffffffffffffffffffffff163373ffffffffffffffffffffffffffffffffffffffff16146102d3576040517f08c379a00000000000000000000000000000000000000000000000000000000081526004016102ca9061102e565b60405180910390fd5b6000600282815481106102e9576102e861104e565b5b906000526020600020906005020190508060020160149054906101000a900460ff161561034b576040517f08c379a0000000000000000000000000000000000000000000000000000000008152600401610342906110c9565b60405180910390fd5b60026000601b9054906101000a900464ffffffffff1661036b9190611147565b64ffffffffff168160030154116103b7576040517f08c379a00000000000000000000000000000000000000000000000000000000081526004016103ae906111ea565b60405180910390fd5b8060020160009054906101000a900473ffffffffffffffffffffffffffffffffffffffff1673ffffffffffffffffffffffffffffffffffffffff166108fc82600101549081150290604051600060405180830381858888f19350505050158015610425573d6000803e3d6000fd5b5060018160020160146101000a81548160ff0219169083151502179055505050565b60016020528060005260406000206000915054906101000a900460ff1681565b600060029054906101000a900473ffffffffffffffffffffffffffffffffffffffff1681565b6002818154811061049d57600080fd5b90600052602060002090600502016000915090508060000180546104c090611239565b80601f01602080910402602001604051908101604052809291908181526020018280546104ec90611239565b80156105395780601f1061050e57610100808354040283529160200191610539565b820191906000526020600020905b81548152906001019060200180831161051c57829003601f168201915b5050505050908060010154908060020160009054906101000a900473ffffffffffffffffffffffffffffffffffffffff16908060020160149054906101000a900460ff16908060030154905085565b6000601b9054906101000a900464ffffffffff1681565b600060029054906101000a900473ffffffffffffffffffffffffffffffffffffffff1673ffffffffffffffffffffffffffffffffffffffff163373ffffffffffffffffffffffffffffffffffffffff161461062f576040517f08c379a00000000000000000000000000000000000000000000000000000000081526004016106269061102e565b60405180910390fd5b6000600260018160018154018082558091505003906000526020600020906005020190508484826000019190610666929190610af2565b50828160010181905550818160020160006101000a81548173ffffffffffffffffffffffffffffffffffffffff021916908373ffffffffffffffffffffffffffffffffffffffff1602179055505050505050565b600060169054906101000a900464ffffffffff1681565b600060019054906101000a900460ff166106f95760008054906101000a900460ff1615610702565b610701610ace565b5b610741576040517f08c379a0000000000000000000000000000000000000000000000000000000008152600401610738906112dd565b60405180910390fd5b60008060019054906101000a900460ff161590508015610791576001600060016101000a81548160ff02191690831515021790555060016000806101000a81548160ff0219169083151502179055505b82600060166101000a81548164ffffffffff021916908364ffffffffff16021790555081600060026101000a81548173ffffffffffffffffffffffffffffffffffffffff021916908373ffffffffffffffffffffffffffffffffffffffff16021790555080156108165760008060016101000a81548160ff0219169083151502179055505b505050565b600060169054906101000a900464ffffffffff1664ffffffffff16341015610878576040517f08c379a000000000000000000000000000000000000000000000000000000000815260040161086f9061136f565b60405180910390fd5b60018060003373ffffffffffffffffffffffffffffffffffffffff1673ffffffffffffffffffffffffffffffffffffffff16815260200190815260200160002060006101000a81548160ff0219169083151502179055506000601b81819054906101000a900464ffffffffff16809291906108f29061138f565b91906101000a81548164ffffffffff021916908364ffffffffff16021790555050565b60006002828154811061092b5761092a61104e565b5b90600052602060002090600502019050600160003373ffffffffffffffffffffffffffffffffffffffff1673ffffffffffffffffffffffffffffffffffffffff16815260200190815260200160002060009054906101000a900460ff166109c7576040517f08c379a00000000000000000000000000000000000000000000000000000000081526004016109be9061142f565b60405180910390fd5b8060040160003373ffffffffffffffffffffffffffffffffffffffff1673ffffffffffffffffffffffffffffffffffffffff16815260200190815260200160002060009054906101000a900460ff1615610a56576040517f08c379a0000000000000000000000000000000000000000000000000000000008152600401610a4d906114c1565b60405180910390fd5b60018160040160003373ffffffffffffffffffffffffffffffffffffffff1673ffffffffffffffffffffffffffffffffffffffff16815260200190815260200160002060006101000a81548160ff021916908315150217905550806003016000815480929190610ac5906114e1565b91905055505050565b6000610ad930610adf565b15905090565b600080823b905060008111915050919050565b828054610afe90611239565b90600052602060002090601f016020900481019282610b205760008555610b67565b82601f10610b3957803560ff1916838001178555610b67565b82800160010185558215610b67579182015b82811115610b66578235825591602001919060010190610b4b565b5b509050610b749190610b78565b5090565b5b80821115610b91576000816000905550600101610b79565b5090565b600080fd5b600080fd5b6000819050919050565b610bb281610b9f565b8114610bbd57600080fd5b50565b600081359050610bcf81610ba9565b92915050565b600060208284031215610beb57610bea610b95565b5b6000610bf984828501610bc0565b91505092915050565b600073ffffffffffffffffffffffffffffffffffffffff82169050919050565b6000610c2d82610c02565b9050919050565b610c3d81610c22565b8114610c4857600080fd5b50565b600081359050610c5a81610c34565b92915050565b600060208284031215610c7657610c75610b95565b5b6000610c8484828501610c4b565b91505092915050565b60008115159050919050565b610ca281610c8d565b82525050565b6000602082019050610cbd6000830184610c99565b92915050565b610ccc81610c22565b82525050565b6000602082019050610ce76000830184610cc3565b92915050565b600081519050919050565b600082825260208201905092915050565b60005b83811015610d27578082015181840152602081019050610d0c565b83811115610d36576000848401525b50505050565b6000601f19601f8301169050919050565b6000610d5882610ced565b610d628185610cf8565b9350610d72818560208601610d09565b610d7b81610d3c565b840191505092915050565b610d8f81610b9f565b82525050565b6000610da082610c02565b9050919050565b610db081610d95565b82525050565b600060a0820190508181036000830152610dd08188610d4d565b9050610ddf6020830187610d86565b610dec6040830186610da7565b610df96060830185610c99565b610e066080830184610d86565b9695505050505050565b600064ffffffffff82169050919050565b610e2a81610e10565b82525050565b6000602082019050610e456000830184610e21565b92915050565b600080fd5b600080fd5b600080fd5b60008083601f840112610e7057610e6f610e4b565b5b8235905067ffffffffffffffff811115610e8d57610e8c610e50565b5b602083019150836001820283011115610ea957610ea8610e55565b5b9250929050565b610eb981610d95565b8114610ec457600080fd5b50565b600081359050610ed681610eb0565b92915050565b60008060008060608587031215610ef657610ef5610b95565b5b600085013567ffffffffffffffff811115610f1457610f13610b9a565b5b610f2087828801610e5a565b94509450506020610f3387828801610bc0565b9250506040610f4487828801610ec7565b91505092959194509250565b610f5981610e10565b8114610f6457600080fd5b50565b600081359050610f7681610f50565b92915050565b60008060408385031215610f9357610f92610b95565b5b6000610fa185828601610f67565b9250506020610fb285828601610c4b565b9150509250929050565b7f4f6e6c7920746865206d616e616765722063616e20706572666f726d2074686960008201527f7320616374696f6e2e0000000000000000000000000000000000000000000000602082015250565b6000611018602983610cf8565b915061102382610fbc565b604082019050919050565b600060208201905081810360008301526110478161100b565b9050919050565b7f4e487b7100000000000000000000000000000000000000000000000000000000600052603260045260246000fd5b7f5265717565737420616c72656164792066696e616c697a65642e000000000000600082015250565b60006110b3601a83610cf8565b91506110be8261107d565b602082019050919050565b600060208201905081810360008301526110e2816110a6565b9050919050565b7f4e487b7100000000000000000000000000000000000000000000000000000000600052601260045260246000fd5b7f4e487b7100000000000000000000000000000000000000000000000000000000600052601160045260246000fd5b600061115282610e10565b915061115d83610e10565b92508261116d5761116c6110e9565b5b828204905092915050565b7f5265717565737420646f65736e2774206861766520656e6f756768206170707260008201527f6f76616c732e0000000000000000000000000000000000000000000000000000602082015250565b60006111d4602683610cf8565b91506111df82611178565b604082019050919050565b60006020820190508181036000830152611203816111c7565b9050919050565b7f4e487b7100000000000000000000000000000000000000000000000000000000600052602260045260246000fd5b6000600282049050600182168061125157607f821691505b602082108114156112655761126461120a565b5b50919050565b7f496e697469616c697a61626c653a20636f6e747261637420697320616c72656160008201527f647920696e697469616c697a6564000000000000000000000000000000000000602082015250565b60006112c7602e83610cf8565b91506112d28261126b565b604082019050919050565b600060208201905081810360008301526112f6816112ba565b9050919050565b7f596f75206e65656420746f20636f6e74726962757465206174206c656173742060008201527f746865206d696e696d756d20636f6e747269627574696f6e20616d6f756e742e602082015250565b6000611359604083610cf8565b9150611364826112fd565b604082019050919050565b600060208201905081810360008301526113888161134c565b9050919050565b600061139a82610e10565b915064ffffffffff8214156113b2576113b1611118565b5b600182019050919050565b7f596f75206d75737420626520617070726f76656420746f206d616b652074686960008201527f7320726571756573740000000000000000000000000000000000000000000000602082015250565b6000611419602983610cf8565b9150611424826113bd565b604082019050919050565b600060208201905081810360008301526114488161140c565b9050919050565b7f596f7520617265206e6f7420616c6c6f77656420746f20617070726f7665207460008201527f6869732072657175657374000000000000000000000000000000000000000000602082015250565b60006114ab602b83610cf8565b91506114b68261144f565b604082019050919050565b600060208201905081810360008301526114da8161149e565b9050919050565b60006114ec82610b9f565b91507fffffffffffffffffffffffffffffffffffffffffffffffffffffffffffffffff82141561151f5761151e611118565b5b60018201905091905056fea26469706673582212202b78ac55ff107f171ce5138d369f8b19f063c201a0967b973ced81a98b69358b64736f6c634300080b0033","opcodes":"PUSH1 0x80 PUSH1 0x40 MSTORE CALLVALUE DUP1 ISZERO PUSH2 0x10 JUMPI PUSH1 0x0 DUP1 REVERT JUMPDEST POP PUSH1 0x40 MLOAD PUSH2 0x1D SWAP1 PUSH2 0x7E JUMP JUMPDEST PUSH1 0x40 MLOAD DUP1 SWAP2 SUB SWAP1 PUSH1 0x0 CREATE DUP1 ISZERO DUP1 ISZERO PUSH2 0x39 JUMPI RETURNDATASIZE PUSH1 0x0 DUP1 RETURNDATACOPY RETURNDATASIZE PUSH1 0x0 REVERT JUMPDEST POP PUSH1 0x0 DUP1 PUSH2 0x100 EXP DUP2 SLOAD DUP2 PUSH20 0xFFFFFFFFFFFFFFFFFFFFFFFFFFFFFFFFFFFFFFFF MUL NOT AND SWAP1 DUP4 PUSH20 0xFFFFFFFFFFFFFFFFFFFFFFFFFFFFFFFFFFFFFFFF AND MUL OR SWAP1 SSTORE POP PUSH2 0x8B JUMP JUMPDEST PUSH2 0x1580 DUP1 PUSH2 0x671 DUP4 CODECOPY ADD SWAP1 JUMP JUMPDEST PUSH2 0x5D7 DUP1 PUSH2 0x9A PUSH1 0x0 CODECOPY PUSH1 0x0 RETURN INVALID PUSH1 0x80 PUSH1 0x40 MSTORE CALLVALUE DUP1 ISZERO PUSH2 0x10 JUMPI PUSH1 0x0 DUP1 REVERT JUMPDEST POP PUSH1 0x4 CALLDATASIZE LT PUSH2 0x36 JUMPI PUSH1 0x0 CALLDATALOAD PUSH1 0xE0 SHR DUP1 PUSH4 0x4536FB7E EQ PUSH2 0x3B JUMPI DUP1 PUSH4 0xA6B03633 EQ PUSH2 0x57 JUMPI JUMPDEST PUSH1 0x0 DUP1 REVERT JUMPDEST PUSH2 0x55 PUSH1 0x4 DUP1 CALLDATASIZE SUB DUP2 ADD SWAP1 PUSH2 0x50 SWAP2 SWAP1 PUSH2 0x3BD JUMP JUMPDEST PUSH2 0x75 JUMP JUMPDEST STOP JUMPDEST PUSH2 0x5F PUSH2 0x1BA JUMP JUMPDEST PUSH1 0x40 MLOAD PUSH2 0x6C SWAP2 SWAP1 PUSH2 0x4BB JUMP JUMPDEST PUSH1 0x40 MLOAD DUP1 SWAP2 SUB SWAP1 RETURN JUMPDEST PUSH1 0x0 PUSH2 0xA0 PUSH1 0x0 DUP1 SLOAD SWAP1 PUSH2 0x100 EXP SWAP1 DIV PUSH20 0xFFFFFFFFFFFFFFFFFFFFFFFFFFFFFFFFFFFFFFFF AND PUSH2 0x248 JUMP JUMPDEST SWAP1 POP DUP1 PUSH20 0xFFFFFFFFFFFFFFFFFFFFFFFFFFFFFFFFFFFFFFFF AND PUSH4 0xCEA34B73 DUP5 DUP5 PUSH1 0x40 MLOAD DUP4 PUSH4 0xFFFFFFFF AND PUSH1 0xE0 SHL DUP2 MSTORE PUSH1 0x4 ADD PUSH2 0xDD SWAP3 SWAP2 SWAP1 PUSH2 0x4FB JUMP JUMPDEST PUSH1 0x0 PUSH1 0x40 MLOAD DUP1 DUP4 SUB DUP2 PUSH1 0x0 DUP8 DUP1 EXTCODESIZE ISZERO DUP1 ISZERO PUSH2 0xF7 JUMPI PUSH1 0x0 DUP1 REVERT JUMPDEST POP GAS CALL ISZERO DUP1 ISZERO PUSH2 0x10B JUMPI RETURNDATASIZE PUSH1 0x0 DUP1 RETURNDATACOPY RETURNDATASIZE PUSH1 0x0 REVERT JUMPDEST POP POP POP POP PUSH1 0x1 DUP2 SWAP1 DUP1 PUSH1 0x1 DUP2 SLOAD ADD DUP1 DUP3 SSTORE DUP1 SWAP2 POP POP PUSH1 0x1 SWAP1 SUB SWAP1 PUSH1 0x0 MSTORE PUSH1 0x20 PUSH1 0x0 KECCAK256 ADD PUSH1 0x0 SWAP1 SWAP2 SWAP1 SWAP2 SWAP1 SWAP2 PUSH2 0x100 EXP DUP2 SLOAD DUP2 PUSH20 0xFFFFFFFFFFFFFFFFFFFFFFFFFFFFFFFFFFFFFFFF MUL NOT AND SWAP1 DUP4 PUSH20 0xFFFFFFFFFFFFFFFFFFFFFFFFFFFFFFFFFFFFFFFF AND MUL OR SWAP1 SSTORE POP DUP1 PUSH20 0xFFFFFFFFFFFFFFFFFFFFFFFFFFFFFFFFFFFFFFFF AND PUSH32 0x7A9C134C6ED9C353773B355C69CBF65E34E3C3820554F5B8E1AFDECDFB40292 PUSH1 0x40 MLOAD PUSH1 0x40 MLOAD DUP1 SWAP2 SUB SWAP1 LOG2 POP POP POP JUMP JUMPDEST PUSH1 0x60 PUSH1 0x1 DUP1 SLOAD DUP1 PUSH1 0x20 MUL PUSH1 0x20 ADD PUSH1 0x40 MLOAD SWAP1 DUP2 ADD PUSH1 0x40 MSTORE DUP1 SWAP3 SWAP2 SWAP1 DUP2 DUP2 MSTORE PUSH1 0x20 ADD DUP3 DUP1 SLOAD DUP1 ISZERO PUSH2 0x23E JUMPI PUSH1 0x20 MUL DUP3 ADD SWAP2 SWAP1 PUSH1 0x0 MSTORE PUSH1 0x20 PUSH1 0x0 KECCAK256 SWAP1 JUMPDEST DUP2 PUSH1 0x0 SWAP1 SLOAD SWAP1 PUSH2 0x100 EXP SWAP1 DIV PUSH20 0xFFFFFFFFFFFFFFFFFFFFFFFFFFFFFFFFFFFFFFFF AND PUSH20 0xFFFFFFFFFFFFFFFFFFFFFFFFFFFFFFFFFFFFFFFF AND DUP2 MSTORE PUSH1 0x20 ADD SWAP1 PUSH1 0x1 ADD SWAP1 DUP1 DUP4 GT PUSH2 0x1F4 JUMPI JUMPDEST POP POP POP POP POP SWAP1 POP SWAP1 JUMP JUMPDEST PUSH1 0x0 PUSH1 0x40 MLOAD PUSH32 0x3D602D80600A3D3981F3363D3D373D3D3D363D73000000000000000000000000 DUP2 MSTORE DUP3 PUSH1 0x60 SHL PUSH1 0x14 DUP3 ADD MSTORE PUSH32 0x5AF43D82803E903D91602B57FD5BF30000000000000000000000000000000000 PUSH1 0x28 DUP3 ADD MSTORE PUSH1 0x37 DUP2 PUSH1 0x0 CREATE SWAP2 POP POP PUSH1 0x0 PUSH20 0xFFFFFFFFFFFFFFFFFFFFFFFFFFFFFFFFFFFFFFFF AND DUP2 PUSH20 0xFFFFFFFFFFFFFFFFFFFFFFFFFFFFFFFFFFFFFFFF AND EQ ISZERO PUSH2 0x318 JUMPI PUSH1 0x40 MLOAD PUSH32 0x8C379A000000000000000000000000000000000000000000000000000000000 DUP2 MSTORE PUSH1 0x4 ADD PUSH2 0x30F SWAP1 PUSH2 0x581 JUMP JUMPDEST PUSH1 0x40 MLOAD DUP1 SWAP2 SUB SWAP1 REVERT JUMPDEST SWAP2 SWAP1 POP JUMP JUMPDEST PUSH1 0x0 DUP1 REVERT JUMPDEST PUSH1 0x0 PUSH5 0xFFFFFFFFFF DUP3 AND SWAP1 POP SWAP2 SWAP1 POP JUMP JUMPDEST PUSH2 0x33C DUP2 PUSH2 0x322 JUMP JUMPDEST DUP2 EQ PUSH2 0x347 JUMPI PUSH1 0x0 DUP1 REVERT JUMPDEST POP JUMP JUMPDEST PUSH1 0x0 DUP2 CALLDATALOAD SWAP1 POP PUSH2 0x359 DUP2 PUSH2 0x333 JUMP JUMPDEST SWAP3 SWAP2 POP POP JUMP JUMPDEST PUSH1 0x0 PUSH20 0xFFFFFFFFFFFFFFFFFFFFFFFFFFFFFFFFFFFFFFFF DUP3 AND SWAP1 POP SWAP2 SWAP1 POP JUMP JUMPDEST PUSH1 0x0 PUSH2 0x38A DUP3 PUSH2 0x35F JUMP JUMPDEST SWAP1 POP SWAP2 SWAP1 POP JUMP JUMPDEST PUSH2 0x39A DUP2 PUSH2 0x37F JUMP JUMPDEST DUP2 EQ PUSH2 0x3A5 JUMPI PUSH1 0x0 DUP1 REVERT JUMPDEST POP JUMP JUMPDEST PUSH1 0x0 DUP2 CALLDATALOAD SWAP1 POP PUSH2 0x3B7 DUP2 PUSH2 0x391 JUMP JUMPDEST SWAP3 SWAP2 POP POP JUMP JUMPDEST PUSH1 0x0 DUP1 PUSH1 0x40 DUP4 DUP6 SUB SLT ISZERO PUSH2 0x3D4 JUMPI PUSH2 0x3D3 PUSH2 0x31D JUMP JUMPDEST JUMPDEST PUSH1 0x0 PUSH2 0x3E2 DUP6 DUP3 DUP7 ADD PUSH2 0x34A JUMP JUMPDEST SWAP3 POP POP PUSH1 0x20 PUSH2 0x3F3 DUP6 DUP3 DUP7 ADD PUSH2 0x3A8 JUMP JUMPDEST SWAP2 POP POP SWAP3 POP SWAP3 SWAP1 POP JUMP JUMPDEST PUSH1 0x0 DUP2 MLOAD SWAP1 POP SWAP2 SWAP1 POP JUMP JUMPDEST PUSH1 0x0 DUP3 DUP3 MSTORE PUSH1 0x20 DUP3 ADD SWAP1 POP SWAP3 SWAP2 POP POP JUMP JUMPDEST PUSH1 0x0 DUP2 SWAP1 POP PUSH1 0x20 DUP3 ADD SWAP1 POP SWAP2 SWAP1 POP JUMP JUMPDEST PUSH2 0x432 DUP2 PUSH2 0x37F JUMP JUMPDEST DUP3 MSTORE POP POP JUMP JUMPDEST PUSH1 0x0 PUSH2 0x444 DUP4 DUP4 PUSH2 0x429 JUMP JUMPDEST PUSH1 0x20 DUP4 ADD SWAP1 POP SWAP3 SWAP2 POP POP JUMP JUMPDEST PUSH1 0x0 PUSH1 0x20 DUP3 ADD SWAP1 POP SWAP2 SWAP1 POP JUMP JUMPDEST PUSH1 0x0 PUSH2 0x468 DUP3 PUSH2 0x3FD JUMP JUMPDEST PUSH2 0x472 DUP2 DUP6 PUSH2 0x408 JUMP JUMPDEST SWAP4 POP PUSH2 0x47D DUP4 PUSH2 0x419 JUMP JUMPDEST DUP1 PUSH1 0x0 JUMPDEST DUP4 DUP2 LT ISZERO PUSH2 0x4AE JUMPI DUP2 MLOAD PUSH2 0x495 DUP9 DUP3 PUSH2 0x438 JUMP JUMPDEST SWAP8 POP PUSH2 0x4A0 DUP4 PUSH2 0x450 JUMP JUMPDEST SWAP3 POP POP PUSH1 0x1 DUP2 ADD SWAP1 POP PUSH2 0x481 JUMP JUMPDEST POP DUP6 SWAP4 POP POP POP POP SWAP3 SWAP2 POP POP JUMP JUMPDEST PUSH1 0x0 PUSH1 0x20 DUP3 ADD SWAP1 POP DUP2 DUP2 SUB PUSH1 0x0 DUP4 ADD MSTORE PUSH2 0x4D5 DUP2 DUP5 PUSH2 0x45D JUMP JUMPDEST SWAP1 POP SWAP3 SWAP2 POP POP JUMP JUMPDEST PUSH2 0x4E6 DUP2 PUSH2 0x322 JUMP JUMPDEST DUP3 MSTORE POP POP JUMP JUMPDEST PUSH2 0x4F5 DUP2 PUSH2 0x37F JUMP JUMPDEST DUP3 MSTORE POP POP JUMP JUMPDEST PUSH1 0x0 PUSH1 0x40 DUP3 ADD SWAP1 POP PUSH2 0x510 PUSH1 0x0 DUP4 ADD DUP6 PUSH2 0x4DD JUMP JUMPDEST PUSH2 0x51D PUSH1 0x20 DUP4 ADD DUP5 PUSH2 0x4EC JUMP JUMPDEST SWAP4 SWAP3 POP POP POP JUMP JUMPDEST PUSH1 0x0 DUP3 DUP3 MSTORE PUSH1 0x20 DUP3 ADD SWAP1 POP SWAP3 SWAP2 POP POP JUMP JUMPDEST PUSH32 0x455243313136373A20637265617465206661696C656400000000000000000000 PUSH1 0x0 DUP3 ADD MSTORE POP JUMP JUMPDEST PUSH1 0x0 PUSH2 0x56B PUSH1 0x16 DUP4 PUSH2 0x524 JUMP JUMPDEST SWAP2 POP PUSH2 0x576 DUP3 PUSH2 0x535 JUMP JUMPDEST PUSH1 0x20 DUP3 ADD SWAP1 POP SWAP2 SWAP1 POP JUMP JUMPDEST PUSH1 0x0 PUSH1 0x20 DUP3 ADD SWAP1 POP DUP2 DUP2 SUB PUSH1 0x0 DUP4 ADD MSTORE PUSH2 0x59A DUP2 PUSH2 0x55E JUMP JUMPDEST SWAP1 POP SWAP2 SWAP1 POP JUMP INVALID LOG2 PUSH5 0x6970667358 0x22 SLT KECCAK256 SWAP10 SWAP7 CALLER 0xEA DUP10 PUSH32 0x502C335321DCF83AF9BFDB9A12C684844F771C88C260C105B6CC64736F6C6343 STOP ADDMOD SIGNEXTEND STOP CALLER PUSH1 0x80 PUSH1 0x40 MSTORE CALLVALUE DUP1 ISZERO PUSH2 0x10 JUMPI PUSH1 0x0 DUP1 REVERT JUMPDEST POP PUSH2 0x1560 DUP1 PUSH2 0x20 PUSH1 0x0 CODECOPY PUSH1 0x0 RETURN INVALID PUSH1 0x80 PUSH1 0x40 MSTORE PUSH1 0x4 CALLDATASIZE LT PUSH2 0x91 JUMPI PUSH1 0x0 CALLDATALOAD PUSH1 0xE0 SHR DUP1 PUSH4 0x8A9CFD55 GT PUSH2 0x59 JUMPI DUP1 PUSH4 0x8A9CFD55 EQ PUSH2 0x193 JUMPI DUP1 PUSH4 0x937E09B1 EQ PUSH2 0x1BC JUMPI DUP1 PUSH4 0xCEA34B73 EQ PUSH2 0x1E7 JUMPI DUP1 PUSH4 0xD7BB99BA EQ PUSH2 0x210 JUMPI DUP1 PUSH4 0xD7D1BBDB EQ PUSH2 0x21A JUMPI PUSH2 0x91 JUMP JUMPDEST DUP1 PUSH4 0x3441006 EQ PUSH2 0x96 JUMPI DUP1 PUSH4 0xA144391 EQ PUSH2 0xBF JUMPI DUP1 PUSH4 0x481C6A75 EQ PUSH2 0xFC JUMPI DUP1 PUSH4 0x81D12C58 EQ PUSH2 0x127 JUMPI DUP1 PUSH4 0x82FDE093 EQ PUSH2 0x168 JUMPI JUMPDEST PUSH1 0x0 DUP1 REVERT JUMPDEST CALLVALUE DUP1 ISZERO PUSH2 0xA2 JUMPI PUSH1 0x0 DUP1 REVERT JUMPDEST POP PUSH2 0xBD PUSH1 0x4 DUP1 CALLDATASIZE SUB DUP2 ADD SWAP1 PUSH2 0xB8 SWAP2 SWAP1 PUSH2 0xBD5 JUMP JUMPDEST PUSH2 0x243 JUMP JUMPDEST STOP JUMPDEST CALLVALUE DUP1 ISZERO PUSH2 0xCB JUMPI PUSH1 0x0 DUP1 REVERT JUMPDEST POP PUSH2 0xE6 PUSH1 0x4 DUP1 CALLDATASIZE SUB DUP2 ADD SWAP1 PUSH2 0xE1 SWAP2 SWAP1 PUSH2 0xC60 JUMP JUMPDEST PUSH2 0x447 JUMP JUMPDEST PUSH1 0x40 MLOAD PUSH2 0xF3 SWAP2 SWAP1 PUSH2 0xCA8 JUMP JUMPDEST PUSH1 0x40 MLOAD DUP1 SWAP2 SUB SWAP1 RETURN JUMPDEST CALLVALUE DUP1 ISZERO PUSH2 0x108 JUMPI PUSH1 0x0 DUP1 REVERT JUMPDEST POP PUSH2 0x111 PUSH2 0x467 JUMP JUMPDEST PUSH1 0x40 MLOAD PUSH2 0x11E SWAP2 SWAP1 PUSH2 0xCD2 JUMP JUMPDEST PUSH1 0x40 MLOAD DUP1 SWAP2 SUB SWAP1 RETURN JUMPDEST CALLVALUE DUP1 ISZERO PUSH2 0x133 JUMPI PUSH1 0x0 DUP1 REVERT JUMPDEST POP PUSH2 0x14E PUSH1 0x4 DUP1 CALLDATASIZE SUB DUP2 ADD SWAP1 PUSH2 0x149 SWAP2 SWAP1 PUSH2 0xBD5 JUMP JUMPDEST PUSH2 0x48D JUMP JUMPDEST PUSH1 0x40 MLOAD PUSH2 0x15F SWAP6 SWAP5 SWAP4 SWAP3 SWAP2 SWAP1 PUSH2 0xDB6 JUMP JUMPDEST PUSH1 0x40 MLOAD DUP1 SWAP2 SUB SWAP1 RETURN JUMPDEST CALLVALUE DUP1 ISZERO PUSH2 0x174 JUMPI PUSH1 0x0 DUP1 REVERT JUMPDEST POP PUSH2 0x17D PUSH2 0x588 JUMP JUMPDEST PUSH1 0x40 MLOAD PUSH2 0x18A SWAP2 SWAP1 PUSH2 0xE30 JUMP JUMPDEST PUSH1 0x40 MLOAD DUP1 SWAP2 SUB SWAP1 RETURN JUMPDEST CALLVALUE DUP1 ISZERO PUSH2 0x19F JUMPI PUSH1 0x0 DUP1 REVERT JUMPDEST POP PUSH2 0x1BA PUSH1 0x4 DUP1 CALLDATASIZE SUB DUP2 ADD SWAP1 PUSH2 0x1B5 SWAP2 SWAP1 PUSH2 0xEDC JUMP JUMPDEST PUSH2 0x59F JUMP JUMPDEST STOP JUMPDEST CALLVALUE DUP1 ISZERO PUSH2 0x1C8 JUMPI PUSH1 0x0 DUP1 REVERT JUMPDEST POP PUSH2 0x1D1 PUSH2 0x6BA JUMP JUMPDEST PUSH1 0x40 MLOAD PUSH2 0x1DE SWAP2 SWAP1 PUSH2 0xE30 JUMP JUMPDEST PUSH1 0x40 MLOAD DUP1 SWAP2 SUB SWAP1 RETURN JUMPDEST CALLVALUE DUP1 ISZERO PUSH2 0x1F3 JUMPI PUSH1 0x0 DUP1 REVERT JUMPDEST POP PUSH2 0x20E PUSH1 0x4 DUP1 CALLDATASIZE SUB DUP2 ADD SWAP1 PUSH2 0x209 SWAP2 SWAP1 PUSH2 0xF7C JUMP JUMPDEST PUSH2 0x6D1 JUMP JUMPDEST STOP JUMPDEST PUSH2 0x218 PUSH2 0x81B JUMP JUMPDEST STOP JUMPDEST CALLVALUE DUP1 ISZERO PUSH2 0x226 JUMPI PUSH1 0x0 DUP1 REVERT JUMPDEST POP PUSH2 0x241 PUSH1 0x4 DUP1 CALLDATASIZE SUB DUP2 ADD SWAP1 PUSH2 0x23C SWAP2 SWAP1 PUSH2 0xBD5 JUMP JUMPDEST PUSH2 0x915 JUMP JUMPDEST STOP JUMPDEST PUSH1 0x0 PUSH1 0x2 SWAP1 SLOAD SWAP1 PUSH2 0x100 EXP SWAP1 DIV PUSH20 0xFFFFFFFFFFFFFFFFFFFFFFFFFFFFFFFFFFFFFFFF AND PUSH20 0xFFFFFFFFFFFFFFFFFFFFFFFFFFFFFFFFFFFFFFFF AND CALLER PUSH20 0xFFFFFFFFFFFFFFFFFFFFFFFFFFFFFFFFFFFFFFFF AND EQ PUSH2 0x2D3 JUMPI PUSH1 0x40 MLOAD PUSH32 0x8C379A000000000000000000000000000000000000000000000000000000000 DUP2 MSTORE PUSH1 0x4 ADD PUSH2 0x2CA SWAP1 PUSH2 0x102E JUMP JUMPDEST PUSH1 0x40 MLOAD DUP1 SWAP2 SUB SWAP1 REVERT JUMPDEST PUSH1 0x0 PUSH1 0x2 DUP3 DUP2 SLOAD DUP2 LT PUSH2 0x2E9 JUMPI PUSH2 0x2E8 PUSH2 0x104E JUMP JUMPDEST JUMPDEST SWAP1 PUSH1 0x0 MSTORE PUSH1 0x20 PUSH1 0x0 KECCAK256 SWAP1 PUSH1 0x5 MUL ADD SWAP1 POP DUP1 PUSH1 0x2 ADD PUSH1 0x14 SWAP1 SLOAD SWAP1 PUSH2 0x100 EXP SWAP1 DIV PUSH1 0xFF AND ISZERO PUSH2 0x34B JUMPI PUSH1 0x40 MLOAD PUSH32 0x8C379A000000000000000000000000000000000000000000000000000000000 DUP2 MSTORE PUSH1 0x4 ADD PUSH2 0x342 SWAP1 PUSH2 0x10C9 JUMP JUMPDEST PUSH1 0x40 MLOAD DUP1 SWAP2 SUB SWAP1 REVERT JUMPDEST PUSH1 0x2 PUSH1 0x0 PUSH1 0x1B SWAP1 SLOAD SWAP1 PUSH2 0x100 EXP SWAP1 DIV PUSH5 0xFFFFFFFFFF AND PUSH2 0x36B SWAP2 SWAP1 PUSH2 0x1147 JUMP JUMPDEST PUSH5 0xFFFFFFFFFF AND DUP2 PUSH1 0x3 ADD SLOAD GT PUSH2 0x3B7 JUMPI PUSH1 0x40 MLOAD PUSH32 0x8C379A000000000000000000000000000000000000000000000000000000000 DUP2 MSTORE PUSH1 0x4 ADD PUSH2 0x3AE SWAP1 PUSH2 0x11EA JUMP JUMPDEST PUSH1 0x40 MLOAD DUP1 SWAP2 SUB SWAP1 REVERT JUMPDEST DUP1 PUSH1 0x2 ADD PUSH1 0x0 SWAP1 SLOAD SWAP1 PUSH2 0x100 EXP SWAP1 DIV PUSH20 0xFFFFFFFFFFFFFFFFFFFFFFFFFFFFFFFFFFFFFFFF AND PUSH20 0xFFFFFFFFFFFFFFFFFFFFFFFFFFFFFFFFFFFFFFFF AND PUSH2 0x8FC DUP3 PUSH1 0x1 ADD SLOAD SWAP1 DUP2 ISZERO MUL SWAP1 PUSH1 0x40 MLOAD PUSH1 0x0 PUSH1 0x40 MLOAD DUP1 DUP4 SUB DUP2 DUP6 DUP9 DUP9 CALL SWAP4 POP POP POP POP ISZERO DUP1 ISZERO PUSH2 0x425 JUMPI RETURNDATASIZE PUSH1 0x0 DUP1 RETURNDATACOPY RETURNDATASIZE PUSH1 0x0 REVERT JUMPDEST POP PUSH1 0x1 DUP2 PUSH1 0x2 ADD PUSH1 0x14 PUSH2 0x100 EXP DUP2 SLOAD DUP2 PUSH1 0xFF MUL NOT AND SWAP1 DUP4 ISZERO ISZERO MUL OR SWAP1 SSTORE POP POP POP JUMP JUMPDEST PUSH1 0x1 PUSH1 0x20 MSTORE DUP1 PUSH1 0x0 MSTORE PUSH1 0x40 PUSH1 0x0 KECCAK256 PUSH1 0x0 SWAP2 POP SLOAD SWAP1 PUSH2 0x100 EXP SWAP1 DIV PUSH1 0xFF AND DUP2 JUMP JUMPDEST PUSH1 0x0 PUSH1 0x2 SWAP1 SLOAD SWAP1 PUSH2 0x100 EXP SWAP1 DIV PUSH20 0xFFFFFFFFFFFFFFFFFFFFFFFFFFFFFFFFFFFFFFFF AND DUP2 JUMP JUMPDEST PUSH1 0x2 DUP2 DUP2 SLOAD DUP2 LT PUSH2 0x49D JUMPI PUSH1 0x0 DUP1 REVERT JUMPDEST SWAP1 PUSH1 0x0 MSTORE PUSH1 0x20 PUSH1 0x0 KECCAK256 SWAP1 PUSH1 0x5 MUL ADD PUSH1 0x0 SWAP2 POP SWAP1 POP DUP1 PUSH1 0x0 ADD DUP1 SLOAD PUSH2 0x4C0 SWAP1 PUSH2 0x1239 JUMP JUMPDEST DUP1 PUSH1 0x1F ADD PUSH1 0x20 DUP1 SWAP2 DIV MUL PUSH1 0x20 ADD PUSH1 0x40 MLOAD SWAP1 DUP2 ADD PUSH1 0x40 MSTORE DUP1 SWAP3 SWAP2 SWAP1 DUP2 DUP2 MSTORE PUSH1 0x20 ADD DUP3 DUP1 SLOAD PUSH2 0x4EC SWAP1 PUSH2 0x1239 JUMP JUMPDEST DUP1 ISZERO PUSH2 0x539 JUMPI DUP1 PUSH1 0x1F LT PUSH2 0x50E JUMPI PUSH2 0x100 DUP1 DUP4 SLOAD DIV MUL DUP4 MSTORE SWAP2 PUSH1 0x20 ADD SWAP2 PUSH2 0x539 JUMP JUMPDEST DUP3 ADD SWAP2 SWAP1 PUSH1 0x0 MSTORE PUSH1 0x20 PUSH1 0x0 KECCAK256 SWAP1 JUMPDEST DUP2 SLOAD DUP2 MSTORE SWAP1 PUSH1 0x1 ADD SWAP1 PUSH1 0x20 ADD DUP1 DUP4 GT PUSH2 0x51C JUMPI DUP3 SWAP1 SUB PUSH1 0x1F AND DUP3 ADD SWAP2 JUMPDEST POP POP POP POP POP SWAP1 DUP1 PUSH1 0x1 ADD SLOAD SWAP1 DUP1 PUSH1 0x2 ADD PUSH1 0x0 SWAP1 SLOAD SWAP1 PUSH2 0x100 EXP SWAP1 DIV PUSH20 0xFFFFFFFFFFFFFFFFFFFFFFFFFFFFFFFFFFFFFFFF AND SWAP1 DUP1 PUSH1 0x2 ADD PUSH1 0x14 SWAP1 SLOAD SWAP1 PUSH2 0x100 EXP SWAP1 DIV PUSH1 0xFF AND SWAP1 DUP1 PUSH1 0x3 ADD SLOAD SWAP1 POP DUP6 JUMP JUMPDEST PUSH1 0x0 PUSH1 0x1B SWAP1 SLOAD SWAP1 PUSH2 0x100 EXP SWAP1 DIV PUSH5 0xFFFFFFFFFF AND DUP2 JUMP JUMPDEST PUSH1 0x0 PUSH1 0x2 SWAP1 SLOAD SWAP1 PUSH2 0x100 EXP SWAP1 DIV PUSH20 0xFFFFFFFFFFFFFFFFFFFFFFFFFFFFFFFFFFFFFFFF AND PUSH20 0xFFFFFFFFFFFFFFFFFFFFFFFFFFFFFFFFFFFFFFFF AND CALLER PUSH20 0xFFFFFFFFFFFFFFFFFFFFFFFFFFFFFFFFFFFFFFFF AND EQ PUSH2 0x62F JUMPI PUSH1 0x40 MLOAD PUSH32 0x8C379A000000000000000000000000000000000000000000000000000000000 DUP2 MSTORE PUSH1 0x4 ADD PUSH2 0x626 SWAP1 PUSH2 0x102E JUMP JUMPDEST PUSH1 0x40 MLOAD DUP1 SWAP2 SUB SWAP1 REVERT JUMPDEST PUSH1 0x0 PUSH1 0x2 PUSH1 0x1 DUP2 PUSH1 0x1 DUP2 SLOAD ADD DUP1 DUP3 SSTORE DUP1 SWAP2 POP POP SUB SWAP1 PUSH1 0x0 MSTORE PUSH1 0x20 PUSH1 0x0 KECCAK256 SWAP1 PUSH1 0x5 MUL ADD SWAP1 POP DUP5 DUP5 DUP3 PUSH1 0x0 ADD SWAP2 SWAP1 PUSH2 0x666 SWAP3 SWAP2 SWAP1 PUSH2 0xAF2 JUMP JUMPDEST POP DUP3 DUP2 PUSH1 0x1 ADD DUP2 SWAP1 SSTORE POP DUP2 DUP2 PUSH1 0x2 ADD PUSH1 0x0 PUSH2 0x100 EXP DUP2 SLOAD DUP2 PUSH20 0xFFFFFFFFFFFFFFFFFFFFFFFFFFFFFFFFFFFFFFFF MUL NOT AND SWAP1 DUP4 PUSH20 0xFFFFFFFFFFFFFFFFFFFFFFFFFFFFFFFFFFFFFFFF AND MUL OR SWAP1 SSTORE POP POP POP POP POP POP JUMP JUMPDEST PUSH1 0x0 PUSH1 0x16 SWAP1 SLOAD SWAP1 PUSH2 0x100 EXP SWAP1 DIV PUSH5 0xFFFFFFFFFF AND DUP2 JUMP JUMPDEST PUSH1 0x0 PUSH1 0x1 SWAP1 SLOAD SWAP1 PUSH2 0x100 EXP SWAP1 DIV PUSH1 0xFF AND PUSH2 0x6F9 JUMPI PUSH1 0x0 DUP1 SLOAD SWAP1 PUSH2 0x100 EXP SWAP1 DIV PUSH1 0xFF AND ISZERO PUSH2 0x702 JUMP JUMPDEST PUSH2 0x701 PUSH2 0xACE JUMP JUMPDEST JUMPDEST PUSH2 0x741 JUMPI PUSH1 0x40 MLOAD PUSH32 0x8C379A000000000000000000000000000000000000000000000000000000000 DUP2 MSTORE PUSH1 0x4 ADD PUSH2 0x738 SWAP1 PUSH2 0x12DD JUMP JUMPDEST PUSH1 0x40 MLOAD DUP1 SWAP2 SUB SWAP1 REVERT JUMPDEST PUSH1 0x0 DUP1 PUSH1 0x1 SWAP1 SLOAD SWAP1 PUSH2 0x100 EXP SWAP1 DIV PUSH1 0xFF AND ISZERO SWAP1 POP DUP1 ISZERO PUSH2 0x791 JUMPI PUSH1 0x1 PUSH1 0x0 PUSH1 0x1 PUSH2 0x100 EXP DUP2 SLOAD DUP2 PUSH1 0xFF MUL NOT AND SWAP1 DUP4 ISZERO ISZERO MUL OR SWAP1 SSTORE POP PUSH1 0x1 PUSH1 0x0 DUP1 PUSH2 0x100 EXP DUP2 SLOAD DUP2 PUSH1 0xFF MUL NOT AND SWAP1 DUP4 ISZERO ISZERO MUL OR SWAP1 SSTORE POP JUMPDEST DUP3 PUSH1 0x0 PUSH1 0x16 PUSH2 0x100 EXP DUP2 SLOAD DUP2 PUSH5 0xFFFFFFFFFF MUL NOT AND SWAP1 DUP4 PUSH5 0xFFFFFFFFFF AND MUL OR SWAP1 SSTORE POP DUP2 PUSH1 0x0 PUSH1 0x2 PUSH2 0x100 EXP DUP2 SLOAD DUP2 PUSH20 0xFFFFFFFFFFFFFFFFFFFFFFFFFFFFFFFFFFFFFFFF MUL NOT AND SWAP1 DUP4 PUSH20 0xFFFFFFFFFFFFFFFFFFFFFFFFFFFFFFFFFFFFFFFF AND MUL OR SWAP1 SSTORE POP DUP1 ISZERO PUSH2 0x816 JUMPI PUSH1 0x0 DUP1 PUSH1 0x1 PUSH2 0x100 EXP DUP2 SLOAD DUP2 PUSH1 0xFF MUL NOT AND SWAP1 DUP4 ISZERO ISZERO MUL OR SWAP1 SSTORE POP JUMPDEST POP POP POP JUMP JUMPDEST PUSH1 0x0 PUSH1 0x16 SWAP1 SLOAD SWAP1 PUSH2 0x100 EXP SWAP1 DIV PUSH5 0xFFFFFFFFFF AND PUSH5 0xFFFFFFFFFF AND CALLVALUE LT ISZERO PUSH2 0x878 JUMPI PUSH1 0x40 MLOAD PUSH32 0x8C379A000000000000000000000000000000000000000000000000000000000 DUP2 MSTORE PUSH1 0x4 ADD PUSH2 0x86F SWAP1 PUSH2 0x136F JUMP JUMPDEST PUSH1 0x40 MLOAD DUP1 SWAP2 SUB SWAP1 REVERT JUMPDEST PUSH1 0x1 DUP1 PUSH1 0x0 CALLER PUSH20 0xFFFFFFFFFFFFFFFFFFFFFFFFFFFFFFFFFFFFFFFF AND PUSH20 0xFFFFFFFFFFFFFFFFFFFFFFFFFFFFFFFFFFFFFFFF AND DUP2 MSTORE PUSH1 0x20 ADD SWAP1 DUP2 MSTORE PUSH1 0x20 ADD PUSH1 0x0 KECCAK256 PUSH1 0x0 PUSH2 0x100 EXP DUP2 SLOAD DUP2 PUSH1 0xFF MUL NOT AND SWAP1 DUP4 ISZERO ISZERO MUL OR SWAP1 SSTORE POP PUSH1 0x0 PUSH1 0x1B DUP2 DUP2 SWAP1 SLOAD SWAP1 PUSH2 0x100 EXP SWAP1 DIV PUSH5 0xFFFFFFFFFF AND DUP1 SWAP3 SWAP2 SWAP1 PUSH2 0x8F2 SWAP1 PUSH2 0x138F JUMP JUMPDEST SWAP2 SWAP1 PUSH2 0x100 EXP DUP2 SLOAD DUP2 PUSH5 0xFFFFFFFFFF MUL NOT AND SWAP1 DUP4 PUSH5 0xFFFFFFFFFF AND MUL OR SWAP1 SSTORE POP POP JUMP JUMPDEST PUSH1 0x0 PUSH1 0x2 DUP3 DUP2 SLOAD DUP2 LT PUSH2 0x92B JUMPI PUSH2 0x92A PUSH2 0x104E JUMP JUMPDEST JUMPDEST SWAP1 PUSH1 0x0 MSTORE PUSH1 0x20 PUSH1 0x0 KECCAK256 SWAP1 PUSH1 0x5 MUL ADD SWAP1 POP PUSH1 0x1 PUSH1 0x0 CALLER PUSH20 0xFFFFFFFFFFFFFFFFFFFFFFFFFFFFFFFFFFFFFFFF AND PUSH20 0xFFFFFFFFFFFFFFFFFFFFFFFFFFFFFFFFFFFFFFFF AND DUP2 MSTORE PUSH1 0x20 ADD SWAP1 DUP2 MSTORE PUSH1 0x20 ADD PUSH1 0x0 KECCAK256 PUSH1 0x0 SWAP1 SLOAD SWAP1 PUSH2 0x100 EXP SWAP1 DIV PUSH1 0xFF AND PUSH2 0x9C7 JUMPI PUSH1 0x40 MLOAD PUSH32 0x8C379A000000000000000000000000000000000000000000000000000000000 DUP2 MSTORE PUSH1 0x4 ADD PUSH2 0x9BE SWAP1 PUSH2 0x142F JUMP JUMPDEST PUSH1 0x40 MLOAD DUP1 SWAP2 SUB SWAP1 REVERT JUMPDEST DUP1 PUSH1 0x4 ADD PUSH1 0x0 CALLER PUSH20 0xFFFFFFFFFFFFFFFFFFFFFFFFFFFFFFFFFFFFFFFF AND PUSH20 0xFFFFFFFFFFFFFFFFFFFFFFFFFFFFFFFFFFFFFFFF AND DUP2 MSTORE PUSH1 0x20 ADD SWAP1 DUP2 MSTORE PUSH1 0x20 ADD PUSH1 0x0 KECCAK256 PUSH1 0x0 SWAP1 SLOAD SWAP1 PUSH2 0x100 EXP SWAP1 DIV PUSH1 0xFF AND ISZERO PUSH2 0xA56 JUMPI PUSH1 0x40 MLOAD PUSH32 0x8C379A000000000000000000000000000000000000000000000000000000000 DUP2 MSTORE PUSH1 0x4 ADD PUSH2 0xA4D SWAP1 PUSH2 0x14C1 JUMP JUMPDEST PUSH1 0x40 MLOAD DUP1 SWAP2 SUB SWAP1 REVERT JUMPDEST PUSH1 0x1 DUP2 PUSH1 0x4 ADD PUSH1 0x0 CALLER PUSH20 0xFFFFFFFFFFFFFFFFFFFFFFFFFFFFFFFFFFFFFFFF AND PUSH20 0xFFFFFFFFFFFFFFFFFFFFFFFFFFFFFFFFFFFFFFFF AND DUP2 MSTORE PUSH1 0x20 ADD SWAP1 DUP2 MSTORE PUSH1 0x20 ADD PUSH1 0x0 KECCAK256 PUSH1 0x0 PUSH2 0x100 EXP DUP2 SLOAD DUP2 PUSH1 0xFF MUL NOT AND SWAP1 DUP4 ISZERO ISZERO MUL OR SWAP1 SSTORE POP DUP1 PUSH1 0x3 ADD PUSH1 0x0 DUP2 SLOAD DUP1 SWAP3 SWAP2 SWAP1 PUSH2 0xAC5 SWAP1 PUSH2 0x14E1 JUMP JUMPDEST SWAP2 SWAP1 POP SSTORE POP POP POP JUMP JUMPDEST PUSH1 0x0 PUSH2 0xAD9 ADDRESS PUSH2 0xADF JUMP JUMPDEST ISZERO SWAP1 POP SWAP1 JUMP JUMPDEST PUSH1 0x0 DUP1 DUP3 EXTCODESIZE SWAP1 POP PUSH1 0x0 DUP2 GT SWAP2 POP POP SWAP2 SWAP1 POP JUMP JUMPDEST DUP3 DUP1 SLOAD PUSH2 0xAFE SWAP1 PUSH2 0x1239 JUMP JUMPDEST SWAP1 PUSH1 0x0 MSTORE PUSH1 0x20 PUSH1 0x0 KECCAK256 SWAP1 PUSH1 0x1F ADD PUSH1 0x20 SWAP1 DIV DUP2 ADD SWAP3 DUP3 PUSH2 0xB20 JUMPI PUSH1 0x0 DUP6 SSTORE PUSH2 0xB67 JUMP JUMPDEST DUP3 PUSH1 0x1F LT PUSH2 0xB39 JUMPI DUP1 CALLDATALOAD PUSH1 0xFF NOT AND DUP4 DUP1 ADD OR DUP6 SSTORE PUSH2 0xB67 JUMP JUMPDEST DUP3 DUP1 ADD PUSH1 0x1 ADD DUP6 SSTORE DUP3 ISZERO PUSH2 0xB67 JUMPI SWAP2 DUP3 ADD JUMPDEST DUP3 DUP2 GT ISZERO PUSH2 0xB66 JUMPI DUP3 CALLDATALOAD DUP3 SSTORE SWAP2 PUSH1 0x20 ADD SWAP2 SWAP1 PUSH1 0x1 ADD SWAP1 PUSH2 0xB4B JUMP JUMPDEST JUMPDEST POP SWAP1 POP PUSH2 0xB74 SWAP2 SWAP1 PUSH2 0xB78 JUMP JUMPDEST POP SWAP1 JUMP JUMPDEST JUMPDEST DUP1 DUP3 GT ISZERO PUSH2 0xB91 JUMPI PUSH1 0x0 DUP2 PUSH1 0x0 SWAP1 SSTORE POP PUSH1 0x1 ADD PUSH2 0xB79 JUMP JUMPDEST POP SWAP1 JUMP JUMPDEST PUSH1 0x0 DUP1 REVERT JUMPDEST PUSH1 0x0 DUP1 REVERT JUMPDEST PUSH1 0x0 DUP2 SWAP1 POP SWAP2 SWAP1 POP JUMP JUMPDEST PUSH2 0xBB2 DUP2 PUSH2 0xB9F JUMP JUMPDEST DUP2 EQ PUSH2 0xBBD JUMPI PUSH1 0x0 DUP1 REVERT JUMPDEST POP JUMP JUMPDEST PUSH1 0x0 DUP2 CALLDATALOAD SWAP1 POP PUSH2 0xBCF DUP2 PUSH2 0xBA9 JUMP JUMPDEST SWAP3 SWAP2 POP POP JUMP JUMPDEST PUSH1 0x0 PUSH1 0x20 DUP3 DUP5 SUB SLT ISZERO PUSH2 0xBEB JUMPI PUSH2 0xBEA PUSH2 0xB95 JUMP JUMPDEST JUMPDEST PUSH1 0x0 PUSH2 0xBF9 DUP5 DUP3 DUP6 ADD PUSH2 0xBC0 JUMP JUMPDEST SWAP2 POP POP SWAP3 SWAP2 POP POP JUMP JUMPDEST PUSH1 0x0 PUSH20 0xFFFFFFFFFFFFFFFFFFFFFFFFFFFFFFFFFFFFFFFF DUP3 AND SWAP1 POP SWAP2 SWAP1 POP JUMP JUMPDEST PUSH1 0x0 PUSH2 0xC2D DUP3 PUSH2 0xC02 JUMP JUMPDEST SWAP1 POP SWAP2 SWAP1 POP JUMP JUMPDEST PUSH2 0xC3D DUP2 PUSH2 0xC22 JUMP JUMPDEST DUP2 EQ PUSH2 0xC48 JUMPI PUSH1 0x0 DUP1 REVERT JUMPDEST POP JUMP JUMPDEST PUSH1 0x0 DUP2 CALLDATALOAD SWAP1 POP PUSH2 0xC5A DUP2 PUSH2 0xC34 JUMP JUMPDEST SWAP3 SWAP2 POP POP JUMP JUMPDEST PUSH1 0x0 PUSH1 0x20 DUP3 DUP5 SUB SLT ISZERO PUSH2 0xC76 JUMPI PUSH2 0xC75 PUSH2 0xB95 JUMP JUMPDEST JUMPDEST PUSH1 0x0 PUSH2 0xC84 DUP5 DUP3 DUP6 ADD PUSH2 0xC4B JUMP JUMPDEST SWAP2 POP POP SWAP3 SWAP2 POP POP JUMP JUMPDEST PUSH1 0x0 DUP2 ISZERO ISZERO SWAP1 POP SWAP2 SWAP1 POP JUMP JUMPDEST PUSH2 0xCA2 DUP2 PUSH2 0xC8D JUMP JUMPDEST DUP3 MSTORE POP POP JUMP JUMPDEST PUSH1 0x0 PUSH1 0x20 DUP3 ADD SWAP1 POP PUSH2 0xCBD PUSH1 0x0 DUP4 ADD DUP5 PUSH2 0xC99 JUMP JUMPDEST SWAP3 SWAP2 POP POP JUMP JUMPDEST PUSH2 0xCCC DUP2 PUSH2 0xC22 JUMP JUMPDEST DUP3 MSTORE POP POP JUMP JUMPDEST PUSH1 0x0 PUSH1 0x20 DUP3 ADD SWAP1 POP PUSH2 0xCE7 PUSH1 0x0 DUP4 ADD DUP5 PUSH2 0xCC3 JUMP JUMPDEST SWAP3 SWAP2 POP POP JUMP JUMPDEST PUSH1 0x0 DUP2 MLOAD SWAP1 POP SWAP2 SWAP1 POP JUMP JUMPDEST PUSH1 0x0 DUP3 DUP3 MSTORE PUSH1 0x20 DUP3 ADD SWAP1 POP SWAP3 SWAP2 POP POP JUMP JUMPDEST PUSH1 0x0 JUMPDEST DUP4 DUP2 LT ISZERO PUSH2 0xD27 JUMPI DUP1 DUP3 ADD MLOAD DUP2 DUP5 ADD MSTORE PUSH1 0x20 DUP2 ADD SWAP1 POP PUSH2 0xD0C JUMP JUMPDEST DUP4 DUP2 GT ISZERO PUSH2 0xD36 JUMPI PUSH1 0x0 DUP5 DUP5 ADD MSTORE JUMPDEST POP POP POP POP JUMP JUMPDEST PUSH1 0x0 PUSH1 0x1F NOT PUSH1 0x1F DUP4 ADD AND SWAP1 POP SWAP2 SWAP1 POP JUMP JUMPDEST PUSH1 0x0 PUSH2 0xD58 DUP3 PUSH2 0xCED JUMP JUMPDEST PUSH2 0xD62 DUP2 DUP6 PUSH2 0xCF8 JUMP JUMPDEST SWAP4 POP PUSH2 0xD72 DUP2 DUP6 PUSH1 0x20 DUP7 ADD PUSH2 0xD09 JUMP JUMPDEST PUSH2 0xD7B DUP2 PUSH2 0xD3C JUMP JUMPDEST DUP5 ADD SWAP2 POP POP SWAP3 SWAP2 POP POP JUMP JUMPDEST PUSH2 0xD8F DUP2 PUSH2 0xB9F JUMP JUMPDEST DUP3 MSTORE POP POP JUMP JUMPDEST PUSH1 0x0 PUSH2 0xDA0 DUP3 PUSH2 0xC02 JUMP JUMPDEST SWAP1 POP SWAP2 SWAP1 POP JUMP JUMPDEST PUSH2 0xDB0 DUP2 PUSH2 0xD95 JUMP JUMPDEST DUP3 MSTORE POP POP JUMP JUMPDEST PUSH1 0x0 PUSH1 0xA0 DUP3 ADD SWAP1 POP DUP2 DUP2 SUB PUSH1 0x0 DUP4 ADD MSTORE PUSH2 0xDD0 DUP2 DUP9 PUSH2 0xD4D JUMP JUMPDEST SWAP1 POP PUSH2 0xDDF PUSH1 0x20 DUP4 ADD DUP8 PUSH2 0xD86 JUMP JUMPDEST PUSH2 0xDEC PUSH1 0x40 DUP4 ADD DUP7 PUSH2 0xDA7 JUMP JUMPDEST PUSH2 0xDF9 PUSH1 0x60 DUP4 ADD DUP6 PUSH2 0xC99 JUMP JUMPDEST PUSH2 0xE06 PUSH1 0x80 DUP4 ADD DUP5 PUSH2 0xD86 JUMP JUMPDEST SWAP7 SWAP6 POP POP POP POP POP POP JUMP JUMPDEST PUSH1 0x0 PUSH5 0xFFFFFFFFFF DUP3 AND SWAP1 POP SWAP2 SWAP1 POP JUMP JUMPDEST PUSH2 0xE2A DUP2 PUSH2 0xE10 JUMP JUMPDEST DUP3 MSTORE POP POP JUMP JUMPDEST PUSH1 0x0 PUSH1 0x20 DUP3 ADD SWAP1 POP PUSH2 0xE45 PUSH1 0x0 DUP4 ADD DUP5 PUSH2 0xE21 JUMP JUMPDEST SWAP3 SWAP2 POP POP JUMP JUMPDEST PUSH1 0x0 DUP1 REVERT JUMPDEST PUSH1 0x0 DUP1 REVERT JUMPDEST PUSH1 0x0 DUP1 REVERT JUMPDEST PUSH1 0x0 DUP1 DUP4 PUSH1 0x1F DUP5 ADD SLT PUSH2 0xE70 JUMPI PUSH2 0xE6F PUSH2 0xE4B JUMP JUMPDEST JUMPDEST DUP3 CALLDATALOAD SWAP1 POP PUSH8 0xFFFFFFFFFFFFFFFF DUP2 GT ISZERO PUSH2 0xE8D JUMPI PUSH2 0xE8C PUSH2 0xE50 JUMP JUMPDEST JUMPDEST PUSH1 0x20 DUP4 ADD SWAP2 POP DUP4 PUSH1 0x1 DUP3 MUL DUP4 ADD GT ISZERO PUSH2 0xEA9 JUMPI PUSH2 0xEA8 PUSH2 0xE55 JUMP JUMPDEST JUMPDEST SWAP3 POP SWAP3 SWAP1 POP JUMP JUMPDEST PUSH2 0xEB9 DUP2 PUSH2 0xD95 JUMP JUMPDEST DUP2 EQ PUSH2 0xEC4 JUMPI PUSH1 0x0 DUP1 REVERT JUMPDEST POP JUMP JUMPDEST PUSH1 0x0 DUP2 CALLDATALOAD SWAP1 POP PUSH2 0xED6 DUP2 PUSH2 0xEB0 JUMP JUMPDEST SWAP3 SWAP2 POP POP JUMP JUMPDEST PUSH1 0x0 DUP1 PUSH1 0x0 DUP1 PUSH1 0x60 DUP6 DUP8 SUB SLT ISZERO PUSH2 0xEF6 JUMPI PUSH2 0xEF5 PUSH2 0xB95 JUMP JUMPDEST JUMPDEST PUSH1 0x0 DUP6 ADD CALLDATALOAD PUSH8 0xFFFFFFFFFFFFFFFF DUP2 GT ISZERO PUSH2 0xF14 JUMPI PUSH2 0xF13 PUSH2 0xB9A JUMP JUMPDEST JUMPDEST PUSH2 0xF20 DUP8 DUP3 DUP9 ADD PUSH2 0xE5A JUMP JUMPDEST SWAP5 POP SWAP5 POP POP PUSH1 0x20 PUSH2 0xF33 DUP8 DUP3 DUP9 ADD PUSH2 0xBC0 JUMP JUMPDEST SWAP3 POP POP PUSH1 0x40 PUSH2 0xF44 DUP8 DUP3 DUP9 ADD PUSH2 0xEC7 JUMP JUMPDEST SWAP2 POP POP SWAP3 SWAP6 SWAP2 SWAP5 POP SWAP3 POP JUMP JUMPDEST PUSH2 0xF59 DUP2 PUSH2 0xE10 JUMP JUMPDEST DUP2 EQ PUSH2 0xF64 JUMPI PUSH1 0x0 DUP1 REVERT JUMPDEST POP JUMP JUMPDEST PUSH1 0x0 DUP2 CALLDATALOAD SWAP1 POP PUSH2 0xF76 DUP2 PUSH2 0xF50 JUMP JUMPDEST SWAP3 SWAP2 POP POP JUMP JUMPDEST PUSH1 0x0 DUP1 PUSH1 0x40 DUP4 DUP6 SUB SLT ISZERO PUSH2 0xF93 JUMPI PUSH2 0xF92 PUSH2 0xB95 JUMP JUMPDEST JUMPDEST PUSH1 0x0 PUSH2 0xFA1 DUP6 DUP3 DUP7 ADD PUSH2 0xF67 JUMP JUMPDEST SWAP3 POP POP PUSH1 0x20 PUSH2 0xFB2 DUP6 DUP3 DUP7 ADD PUSH2 0xC4B JUMP JUMPDEST SWAP2 POP POP SWAP3 POP SWAP3 SWAP1 POP JUMP JUMPDEST PUSH32 0x4F6E6C7920746865206D616E616765722063616E20706572666F726D20746869 PUSH1 0x0 DUP3 ADD MSTORE PUSH32 0x7320616374696F6E2E0000000000000000000000000000000000000000000000 PUSH1 0x20 DUP3 ADD MSTORE POP JUMP JUMPDEST PUSH1 0x0 PUSH2 0x1018 PUSH1 0x29 DUP4 PUSH2 0xCF8 JUMP JUMPDEST SWAP2 POP PUSH2 0x1023 DUP3 PUSH2 0xFBC JUMP JUMPDEST PUSH1 0x40 DUP3 ADD SWAP1 POP SWAP2 SWAP1 POP JUMP JUMPDEST PUSH1 0x0 PUSH1 0x20 DUP3 ADD SWAP1 POP DUP2 DUP2 SUB PUSH1 0x0 DUP4 ADD MSTORE PUSH2 0x1047 DUP2 PUSH2 0x100B JUMP JUMPDEST SWAP1 POP SWAP2 SWAP1 POP JUMP JUMPDEST PUSH32 0x4E487B7100000000000000000000000000000000000000000000000000000000 PUSH1 0x0 MSTORE PUSH1 0x32 PUSH1 0x4 MSTORE PUSH1 0x24 PUSH1 0x0 REVERT JUMPDEST PUSH32 0x5265717565737420616C72656164792066696E616C697A65642E000000000000 PUSH1 0x0 DUP3 ADD MSTORE POP JUMP JUMPDEST PUSH1 0x0 PUSH2 0x10B3 PUSH1 0x1A DUP4 PUSH2 0xCF8 JUMP JUMPDEST SWAP2 POP PUSH2 0x10BE DUP3 PUSH2 0x107D JUMP JUMPDEST PUSH1 0x20 DUP3 ADD SWAP1 POP SWAP2 SWAP1 POP JUMP JUMPDEST PUSH1 0x0 PUSH1 0x20 DUP3 ADD SWAP1 POP DUP2 DUP2 SUB PUSH1 0x0 DUP4 ADD MSTORE PUSH2 0x10E2 DUP2 PUSH2 0x10A6 JUMP JUMPDEST SWAP1 POP SWAP2 SWAP1 POP JUMP JUMPDEST PUSH32 0x4E487B7100000000000000000000000000000000000000000000000000000000 PUSH1 0x0 MSTORE PUSH1 0x12 PUSH1 0x4 MSTORE PUSH1 0x24 PUSH1 0x0 REVERT JUMPDEST PUSH32 0x4E487B7100000000000000000000000000000000000000000000000000000000 PUSH1 0x0 MSTORE PUSH1 0x11 PUSH1 0x4 MSTORE PUSH1 0x24 PUSH1 0x0 REVERT JUMPDEST PUSH1 0x0 PUSH2 0x1152 DUP3 PUSH2 0xE10 JUMP JUMPDEST SWAP2 POP PUSH2 0x115D DUP4 PUSH2 0xE10 JUMP JUMPDEST SWAP3 POP DUP3 PUSH2 0x116D JUMPI PUSH2 0x116C PUSH2 0x10E9 JUMP JUMPDEST JUMPDEST DUP3 DUP3 DIV SWAP1 POP SWAP3 SWAP2 POP POP JUMP JUMPDEST PUSH32 0x5265717565737420646F65736E2774206861766520656E6F7567682061707072 PUSH1 0x0 DUP3 ADD MSTORE PUSH32 0x6F76616C732E0000000000000000000000000000000000000000000000000000 PUSH1 0x20 DUP3 ADD MSTORE POP JUMP JUMPDEST PUSH1 0x0 PUSH2 0x11D4 PUSH1 0x26 DUP4 PUSH2 0xCF8 JUMP JUMPDEST SWAP2 POP PUSH2 0x11DF DUP3 PUSH2 0x1178 JUMP JUMPDEST PUSH1 0x40 DUP3 ADD SWAP1 POP SWAP2 SWAP1 POP JUMP JUMPDEST PUSH1 0x0 PUSH1 0x20 DUP3 ADD SWAP1 POP DUP2 DUP2 SUB PUSH1 0x0 DUP4 ADD MSTORE PUSH2 0x1203 DUP2 PUSH2 0x11C7 JUMP JUMPDEST SWAP1 POP SWAP2 SWAP1 POP JUMP JUMPDEST PUSH32 0x4E487B7100000000000000000000000000000000000000000000000000000000 PUSH1 0x0 MSTORE PUSH1 0x22 PUSH1 0x4 MSTORE PUSH1 0x24 PUSH1 0x0 REVERT JUMPDEST PUSH1 0x0 PUSH1 0x2 DUP3 DIV SWAP1 POP PUSH1 0x1 DUP3 AND DUP1 PUSH2 0x1251 JUMPI PUSH1 0x7F DUP3 AND SWAP2 POP JUMPDEST PUSH1 0x20 DUP3 LT DUP2 EQ ISZERO PUSH2 0x1265 JUMPI PUSH2 0x1264 PUSH2 0x120A JUMP JUMPDEST JUMPDEST POP SWAP2 SWAP1 POP JUMP JUMPDEST PUSH32 0x496E697469616C697A61626C653A20636F6E747261637420697320616C726561 PUSH1 0x0 DUP3 ADD MSTORE PUSH32 0x647920696E697469616C697A6564000000000000000000000000000000000000 PUSH1 0x20 DUP3 ADD MSTORE POP JUMP JUMPDEST PUSH1 0x0 PUSH2 0x12C7 PUSH1 0x2E DUP4 PUSH2 0xCF8 JUMP JUMPDEST SWAP2 POP PUSH2 0x12D2 DUP3 PUSH2 0x126B JUMP JUMPDEST PUSH1 0x40 DUP3 ADD SWAP1 POP SWAP2 SWAP1 POP JUMP JUMPDEST PUSH1 0x0 PUSH1 0x20 DUP3 ADD SWAP1 POP DUP2 DUP2 SUB PUSH1 0x0 DUP4 ADD MSTORE PUSH2 0x12F6 DUP2 PUSH2 0x12BA JUMP JUMPDEST SWAP1 POP SWAP2 SWAP1 POP JUMP JUMPDEST PUSH32 0x596F75206E65656420746F20636F6E74726962757465206174206C6561737420 PUSH1 0x0 DUP3 ADD MSTORE PUSH32 0x746865206D696E696D756D20636F6E747269627574696F6E20616D6F756E742E PUSH1 0x20 DUP3 ADD MSTORE POP JUMP JUMPDEST PUSH1 0x0 PUSH2 0x1359 PUSH1 0x40 DUP4 PUSH2 0xCF8 JUMP JUMPDEST SWAP2 POP PUSH2 0x1364 DUP3 PUSH2 0x12FD JUMP JUMPDEST PUSH1 0x40 DUP3 ADD SWAP1 POP SWAP2 SWAP1 POP JUMP JUMPDEST PUSH1 0x0 PUSH1 0x20 DUP3 ADD SWAP1 POP DUP2 DUP2 SUB PUSH1 0x0 DUP4 ADD MSTORE PUSH2 0x1388 DUP2 PUSH2 0x134C JUMP JUMPDEST SWAP1 POP SWAP2 SWAP1 POP JUMP JUMPDEST PUSH1 0x0 PUSH2 0x139A DUP3 PUSH2 0xE10 JUMP JUMPDEST SWAP2 POP PUSH5 0xFFFFFFFFFF DUP3 EQ ISZERO PUSH2 0x13B2 JUMPI PUSH2 0x13B1 PUSH2 0x1118 JUMP JUMPDEST JUMPDEST PUSH1 0x1 DUP3 ADD SWAP1 POP SWAP2 SWAP1 POP JUMP JUMPDEST PUSH32 0x596F75206D75737420626520617070726F76656420746F206D616B6520746869 PUSH1 0x0 DUP3 ADD MSTORE PUSH32 0x7320726571756573740000000000000000000000000000000000000000000000 PUSH1 0x20 DUP3 ADD MSTORE POP JUMP JUMPDEST PUSH1 0x0 PUSH2 0x1419 PUSH1 0x29 DUP4 PUSH2 0xCF8 JUMP JUMPDEST SWAP2 POP PUSH2 0x1424 DUP3 PUSH2 0x13BD JUMP JUMPDEST PUSH1 0x40 DUP3 ADD SWAP1 POP SWAP2 SWAP1 POP JUMP JUMPDEST PUSH1 0x0 PUSH1 0x20 DUP3 ADD SWAP1 POP DUP2 DUP2 SUB PUSH1 0x0 DUP4 ADD MSTORE PUSH2 0x1448 DUP2 PUSH2 0x140C JUMP JUMPDEST SWAP1 POP SWAP2 SWAP1 POP JUMP JUMPDEST PUSH32 0x596F7520617265206E6F7420616C6C6F77656420746F20617070726F76652074 PUSH1 0x0 DUP3 ADD MSTORE PUSH32 0x6869732072657175657374000000000000000000000000000000000000000000 PUSH1 0x20 DUP3 ADD MSTORE POP JUMP JUMPDEST PUSH1 0x0 PUSH2 0x14AB PUSH1 0x2B DUP4 PUSH2 0xCF8 JUMP JUMPDEST SWAP2 POP PUSH2 0x14B6 DUP3 PUSH2 0x144F JUMP JUMPDEST PUSH1 0x40 DUP3 ADD SWAP1 POP SWAP2 SWAP1 POP JUMP JUMPDEST PUSH1 0x0 PUSH1 0x20 DUP3 ADD SWAP1 POP DUP2 DUP2 SUB PUSH1 0x0 DUP4 ADD MSTORE PUSH2 0x14DA DUP2 PUSH2 0x149E JUMP JUMPDEST SWAP1 POP SWAP2 SWAP1 POP JUMP JUMPDEST PUSH1 0x0 PUSH2 0x14EC DUP3 PUSH2 0xB9F JUMP JUMPDEST SWAP2 POP PUSH32 0xFFFFFFFFFFFFFFFFFFFFFFFFFFFFFFFFFFFFFFFFFFFFFFFFFFFFFFFFFFFFFFFF DUP3 EQ ISZERO PUSH2 0x151F JUMPI PUSH2 0x151E PUSH2 0x1118 JUMP JUMPDEST JUMPDEST PUSH1 0x1 DUP3 ADD SWAP1 POP SWAP2 SWAP1 POP JUMP INVALID LOG2 PUSH5 0x6970667358 0x22 SLT KECCAK256 0x2B PUSH25 0xAC55FF107F171CE5138D369F8B19F063C201A0967B973CED81 0xA9 DUP12 PUSH10 0x358B64736F6C63430008 SIGNEXTEND STOP CALLER "},"gasEstimates":{"creation":{"codeDepositCost":"299000","executionCost":"infinite","totalCost":"infinite"},"external":{"createCampaign(uint40,address)":"infinite","getCampaigns()":"infinite"}},"methodIdentifiers":{"createCampaign(uint40,address)":"4536fb7e","getCampaigns()":"a6b03633"}},"storageLayout":{"storage":[{"astId":599,"contract":"CloneFactory.sol:CloneFactory","label":"baseImplementation","offset":0,"slot":"0","type":"t_address"},{"astId":602,"contract":"CloneFactory.sol:CloneFactory","label":"campaignContracts","offset":0,"slot":"1","type":"t_array(t_address)dyn_storage"}],"types":{"t_address":{"encoding":"inplace","label":"address","numberOfBytes":"20"},"t_array(t_address)dyn_storage":{"base":"t_address","encoding":"dynamic_array","label":"address[]","numberOfBytes":"32"}}},"userdoc":{"kind":"user","methods":{},"version":1}}